{
  "_format": "hh-sol-artifact-1",
  "contractName": "VerdictVirtualUSDCToken",
  "sourceName": "contracts/VerdictVirtualUSDCToken.sol",
  "abi": [
    {
      "inputs": [],
      "stateMutability": "nonpayable",
      "type": "constructor"
    },
    {
      "inputs": [
        {
          "internalType": "address",
          "name": "spender",
          "type": "address"
        },
        {
          "internalType": "uint256",
          "name": "allowance",
          "type": "uint256"
        },
        {
          "internalType": "uint256",
          "name": "needed",
          "type": "uint256"
        }
      ],
      "name": "ERC20InsufficientAllowance",
      "type": "error"
    },
    {
      "inputs": [
        {
          "internalType": "address",
          "name": "sender",
          "type": "address"
        },
        {
          "internalType": "uint256",
          "name": "balance",
          "type": "uint256"
        },
        {
          "internalType": "uint256",
          "name": "needed",
          "type": "uint256"
        }
      ],
      "name": "ERC20InsufficientBalance",
      "type": "error"
    },
    {
      "inputs": [
        {
          "internalType": "address",
          "name": "approver",
          "type": "address"
        }
      ],
      "name": "ERC20InvalidApprover",
      "type": "error"
    },
    {
      "inputs": [
        {
          "internalType": "address",
          "name": "receiver",
          "type": "address"
        }
      ],
      "name": "ERC20InvalidReceiver",
      "type": "error"
    },
    {
      "inputs": [
        {
          "internalType": "address",
          "name": "sender",
          "type": "address"
        }
      ],
      "name": "ERC20InvalidSender",
      "type": "error"
    },
    {
      "inputs": [
        {
          "internalType": "address",
          "name": "spender",
          "type": "address"
        }
      ],
      "name": "ERC20InvalidSpender",
      "type": "error"
    },
    {
      "inputs": [
        {
          "internalType": "address",
          "name": "owner",
          "type": "address"
        }
      ],
      "name": "OwnableInvalidOwner",
      "type": "error"
    },
    {
      "inputs": [
        {
          "internalType": "address",
          "name": "account",
          "type": "address"
        }
      ],
      "name": "OwnableUnauthorizedAccount",
      "type": "error"
    },
    {
      "anonymous": false,
      "inputs": [
        {
          "indexed": true,
          "internalType": "address",
          "name": "owner",
          "type": "address"
        },
        {
          "indexed": true,
          "internalType": "address",
          "name": "spender",
          "type": "address"
        },
        {
          "indexed": false,
          "internalType": "uint256",
          "name": "value",
          "type": "uint256"
        }
      ],
      "name": "Approval",
      "type": "event"
    },
    {
      "anonymous": false,
      "inputs": [
        {
          "indexed": true,
          "internalType": "address",
          "name": "minter",
          "type": "address"
        }
      ],
      "name": "MinterAuthorized",
      "type": "event"
    },
    {
      "anonymous": false,
      "inputs": [
        {
          "indexed": true,
          "internalType": "address",
          "name": "minter",
          "type": "address"
        }
      ],
      "name": "MinterRevoked",
      "type": "event"
    },
    {
      "anonymous": false,
      "inputs": [
        {
          "indexed": true,
          "internalType": "address",
          "name": "previousOwner",
          "type": "address"
        },
        {
          "indexed": true,
          "internalType": "address",
          "name": "newOwner",
          "type": "address"
        }
      ],
      "name": "OwnershipTransferred",
      "type": "event"
    },
    {
      "anonymous": false,
      "inputs": [
        {
          "indexed": true,
          "internalType": "address",
          "name": "from",
          "type": "address"
        },
        {
          "indexed": false,
          "internalType": "uint256",
          "name": "amount",
          "type": "uint256"
        }
      ],
      "name": "TokensBurned",
      "type": "event"
    },
    {
      "anonymous": false,
      "inputs": [
        {
          "indexed": true,
          "internalType": "address",
          "name": "to",
          "type": "address"
        },
        {
          "indexed": false,
          "internalType": "uint256",
          "name": "amount",
          "type": "uint256"
        }
      ],
      "name": "TokensMinted",
      "type": "event"
    },
    {
      "anonymous": false,
      "inputs": [
        {
          "indexed": true,
          "internalType": "address",
          "name": "from",
          "type": "address"
        },
        {
          "indexed": true,
          "internalType": "address",
          "name": "to",
          "type": "address"
        },
        {
          "indexed": false,
          "internalType": "uint256",
          "name": "value",
          "type": "uint256"
        }
      ],
      "name": "Transfer",
      "type": "event"
    },
    {
      "inputs": [
        {
          "internalType": "address",
          "name": "owner",
          "type": "address"
        },
        {
          "internalType": "address",
          "name": "spender",
          "type": "address"
        }
      ],
      "name": "allowance",
      "outputs": [
        {
          "internalType": "uint256",
          "name": "",
          "type": "uint256"
        }
      ],
      "stateMutability": "view",
      "type": "function"
    },
    {
      "inputs": [
        {
          "internalType": "address",
          "name": "spender",
          "type": "address"
        },
        {
          "internalType": "uint256",
          "name": "value",
          "type": "uint256"
        }
      ],
      "name": "approve",
      "outputs": [
        {
          "internalType": "bool",
          "name": "",
          "type": "bool"
        }
      ],
      "stateMutability": "nonpayable",
      "type": "function"
    },
    {
      "inputs": [
        {
          "internalType": "address",
          "name": "minter",
          "type": "address"
        }
      ],
      "name": "authorizeMinter",
      "outputs": [],
      "stateMutability": "nonpayable",
      "type": "function"
    },
    {
      "inputs": [
        {
          "internalType": "address",
          "name": "",
          "type": "address"
        }
      ],
      "name": "authorizedMinters",
      "outputs": [
        {
          "internalType": "bool",
          "name": "",
          "type": "bool"
        }
      ],
      "stateMutability": "view",
      "type": "function"
    },
    {
      "inputs": [
        {
          "internalType": "address",
          "name": "account",
          "type": "address"
        }
      ],
      "name": "balanceOf",
      "outputs": [
        {
          "internalType": "uint256",
          "name": "",
          "type": "uint256"
        }
      ],
      "stateMutability": "view",
      "type": "function"
    },
    {
      "inputs": [
        {
          "internalType": "address",
          "name": "from",
          "type": "address"
        },
        {
          "internalType": "uint256",
          "name": "amount",
          "type": "uint256"
        }
      ],
      "name": "burn",
      "outputs": [],
      "stateMutability": "nonpayable",
      "type": "function"
    },
    {
      "inputs": [],
      "name": "decimals",
      "outputs": [
        {
          "internalType": "uint8",
          "name": "",
          "type": "uint8"
        }
      ],
      "stateMutability": "view",
      "type": "function"
    },
    {
      "inputs": [
        {
          "internalType": "uint256",
          "name": "amount",
          "type": "uint256"
        }
      ],
      "name": "faucet",
      "outputs": [],
      "stateMutability": "nonpayable",
      "type": "function"
    },
    {
      "inputs": [
        {
          "internalType": "address",
          "name": "user",
          "type": "address"
        },
        {
          "internalType": "uint256",
          "name": "amount",
          "type": "uint256"
        }
      ],
      "name": "faucetFromRouter",
      "outputs": [],
      "stateMutability": "nonpayable",
      "type": "function"
    },
    {
      "inputs": [
        {
          "internalType": "address",
          "name": "to",
          "type": "address"
        },
        {
          "internalType": "uint256",
          "name": "amount",
          "type": "uint256"
        }
      ],
      "name": "mint",
      "outputs": [],
      "stateMutability": "nonpayable",
      "type": "function"
    },
    {
      "inputs": [],
      "name": "name",
      "outputs": [
        {
          "internalType": "string",
          "name": "",
          "type": "string"
        }
      ],
      "stateMutability": "view",
      "type": "function"
    },
    {
      "inputs": [],
      "name": "owner",
      "outputs": [
        {
          "internalType": "address",
          "name": "",
          "type": "address"
        }
      ],
      "stateMutability": "view",
      "type": "function"
    },
    {
      "inputs": [],
      "name": "renounceOwnership",
      "outputs": [],
      "stateMutability": "nonpayable",
      "type": "function"
    },
    {
      "inputs": [
        {
          "internalType": "address",
          "name": "minter",
          "type": "address"
        }
      ],
      "name": "revokeMinter",
      "outputs": [],
      "stateMutability": "nonpayable",
      "type": "function"
    },
    {
      "inputs": [],
      "name": "symbol",
      "outputs": [
        {
          "internalType": "string",
          "name": "",
          "type": "string"
        }
      ],
      "stateMutability": "view",
      "type": "function"
    },
    {
      "inputs": [],
      "name": "totalSupply",
      "outputs": [
        {
          "internalType": "uint256",
          "name": "",
          "type": "uint256"
        }
      ],
      "stateMutability": "view",
      "type": "function"
    },
    {
      "inputs": [
        {
          "internalType": "address",
          "name": "to",
          "type": "address"
        },
        {
          "internalType": "uint256",
          "name": "value",
          "type": "uint256"
        }
      ],
      "name": "transfer",
      "outputs": [
        {
          "internalType": "bool",
          "name": "",
          "type": "bool"
        }
      ],
      "stateMutability": "nonpayable",
      "type": "function"
    },
    {
      "inputs": [
        {
          "internalType": "address",
          "name": "from",
          "type": "address"
        },
        {
          "internalType": "address",
          "name": "to",
          "type": "address"
        },
        {
          "internalType": "uint256",
          "name": "value",
          "type": "uint256"
        }
      ],
      "name": "transferFrom",
      "outputs": [
        {
          "internalType": "bool",
          "name": "",
          "type": "bool"
        }
      ],
      "stateMutability": "nonpayable",
      "type": "function"
    },
    {
      "inputs": [
        {
          "internalType": "address",
          "name": "newOwner",
          "type": "address"
        }
      ],
      "name": "transferOwnership",
      "outputs": [],
      "stateMutability": "nonpayable",
      "type": "function"
    }
  ],
  "bytecode": "0x608060405234801561000f575f80fd5b50336040518060400160405280601081526020016f2b34b93a3ab0b6102aa9a21021b7b4b760811b81525060405180604001604052806005815260200164765553444360d81b8152508160039081610067919061031d565b506004610074828261031d565b5050506001600160a01b0381166100a557604051631e4fbdf760e01b81525f60048201526024015b60405180910390fd5b6100ae816100d6565b506100d1336100bf6012600a6104d0565b6100cc90620f42406104e5565b610127565b61050f565b600580546001600160a01b038381166001600160a01b0319831681179093556040519116919082907f8be0079c531659141344cd1fd0a4f28419497f9722a3daafe3b4186f6b6457e0905f90a35050565b6001600160a01b0382166101505760405163ec442f0560e01b81525f600482015260240161009c565b61015b5f838361015f565b5050565b6001600160a01b038316610189578060025f82825461017e91906104fc565b909155506101f99050565b6001600160a01b0383165f90815260208190526040902054818110156101db5760405163391434e360e21b81526001600160a01b0385166004820152602481018290526044810183905260640161009c565b6001600160a01b0384165f9081526020819052604090209082900390555b6001600160a01b03821661021557600280548290039055610233565b6001600160a01b0382165f9081526020819052604090208054820190555b816001600160a01b0316836001600160a01b03167fddf252ad1be2c89b69c2b068fc378daa952ba7f163c4a11628f55a4df523b3ef8360405161027891815260200190565b60405180910390a3505050565b634e487b7160e01b5f52604160045260245ffd5b600181811c908216806102ad57607f821691505b6020821081036102cb57634e487b7160e01b5f52602260045260245ffd5b50919050565b601f82111561031857805f5260205f20601f840160051c810160208510156102f65750805b601f840160051c820191505b81811015610315575f8155600101610302565b50505b505050565b81516001600160401b0381111561033657610336610285565b61034a816103448454610299565b846102d1565b6020601f82116001811461037c575f83156103655750848201515b5f19600385901b1c1916600184901b178455610315565b5f84815260208120601f198516915b828110156103ab578785015182556020948501946001909201910161038b565b50848210156103c857868401515f19600387901b60f8161c191681555b50505050600190811b01905550565b634e487b7160e01b5f52601160045260245ffd5b6001815b60018411156104265780850481111561040a5761040a6103d7565b600184161561041857908102905b60019390931c9280026103ef565b935093915050565b5f8261043c575060016104ca565b8161044857505f6104ca565b816001811461045e576002811461046857610484565b60019150506104ca565b60ff841115610479576104796103d7565b50506001821b6104ca565b5060208310610133831016604e8410600b84101617156104a7575081810a6104ca565b6104b35f1984846103eb565b805f19048211156104c6576104c66103d7565b0290505b92915050565b5f6104de60ff84168361042e565b9392505050565b80820281158282048414176104ca576104ca6103d7565b808201808211156104ca576104ca6103d7565b610dd38061051c5f395ff3fe608060405234801561000f575f80fd5b506004361061011c575f3560e01c8063715018a6116100a9578063aa2fe91b1161006e578063aa2fe91b14610249578063cfbd48851461026b578063dd62ed3e1461027e578063ee67a1e5146102b6578063f2fde38b146102c9575f80fd5b8063715018a6146101f85780638da5cb5b1461020057806395d89b411461021b5780639dc29fac14610223578063a9059cbb14610236575f80fd5b806323b872dd116100ef57806323b872dd14610188578063313ce5671461019b57806340c10f19146101aa57806357915897146101bd57806370a08231146101d0575f80fd5b806306fdde0314610120578063095ea7b31461013e5780630c9848321461016157806318160ddd14610176575b5f80fd5b6101286102dc565b6040516101359190610b1c565b60405180910390f35b61015161014c366004610b6c565b61036c565b6040519015158152602001610135565b61017461016f366004610b94565b610385565b005b6002545b604051908152602001610135565b610151610196366004610bb4565b61042c565b60405160128152602001610135565b6101746101b8366004610b6c565b61044f565b6101746101cb366004610bee565b6104f7565b61017a6101de366004610b94565b6001600160a01b03165f9081526020819052604090205490565b6101746105a0565b6005546040516001600160a01b039091168152602001610135565b6101286105b3565b610174610231366004610b6c565b6105c2565b610151610244366004610b6c565b61065e565b610151610257366004610b94565b60066020525f908152604090205460ff1681565b610174610279366004610b94565b61066b565b61017a61028c366004610c05565b6001600160a01b039182165f90815260016020908152604080832093909416825291909152205490565b6101746102c4366004610b6c565b6106bb565b6101746102d7366004610b94565b610712565b6060600380546102eb90610c36565b80601f016020809104026020016040519081016040528092919081815260200182805461031790610c36565b80156103625780601f1061033957610100808354040283529160200191610362565b820191905f5260205f20905b81548152906001019060200180831161034557829003601f168201915b5050505050905090565b5f3361037981858561074f565b60019150505b92915050565b61038d610761565b6001600160a01b0381166103e15760405162461bcd60e51b8152602060048201526016602482015275496e76616c6964206d696e746572206164647265737360501b60448201526064015b60405180910390fd5b6001600160a01b0381165f81815260066020526040808220805460ff19166001179055517f83b05b6735acd4b85e3bded8e72c851d1a87718f81e3c8e6f0c9d9a2baa88e469190a250565b5f3361043985828561078e565b61044485858561080a565b506001949350505050565b335f9081526006602052604090205460ff166104a65760405162461bcd60e51b8152602060048201526016602482015275139bdd08185d5d1a1bdc9a5e9959081d1bc81b5a5b9d60521b60448201526064016103d8565b6104b08282610867565b816001600160a01b03167f3f2c9d57c068687834f0de942a9babb9e5acab57d516d3480a3c16ee165a4273826040516104eb91815260200190565b60405180910390a25050565b6105036012600a610d65565b61050f906103e8610d73565b81111561055e5760405162461bcd60e51b815260206004820152601860248201527f4d617820313030302076555344432070657220636c61696d000000000000000060448201526064016103d8565b6105683382610867565b60405181815233907f3f2c9d57c068687834f0de942a9babb9e5acab57d516d3480a3c16ee165a42739060200160405180910390a250565b6105a8610761565b6105b15f61089f565b565b6060600480546102eb90610c36565b335f9081526006602052604090205460ff166106195760405162461bcd60e51b81526020600482015260166024820152752737ba1030baba3437b934bd32b2103a3790313ab93760511b60448201526064016103d8565b61062382826108f0565b816001600160a01b03167ffd38818f5291bf0bb3a2a48aadc06ba8757865d1dabd804585338aab3009dcb6826040516104eb91815260200190565b5f3361037981858561080a565b610673610761565b6001600160a01b0381165f81815260066020526040808220805460ff19169055517f44f4322f8daa225d5f4877ad0f7d3dfba248a774396f3ca99405ed40a044fe819190a250565b335f9081526006602052604090205460ff166104a65760405162461bcd60e51b815260206004820152601660248201527527b7363c9030baba3437b934bd32b2103937baba32b960511b60448201526064016103d8565b61071a610761565b6001600160a01b03811661074357604051631e4fbdf760e01b81525f60048201526024016103d8565b61074c8161089f565b50565b61075c8383836001610924565b505050565b6005546001600160a01b031633146105b15760405163118cdaa760e01b81523360048201526024016103d8565b6001600160a01b038381165f908152600160209081526040808320938616835292905220545f1981101561080457818110156107f657604051637dc7a0d960e11b81526001600160a01b038416600482015260248101829052604481018390526064016103d8565b61080484848484035f610924565b50505050565b6001600160a01b03831661083357604051634b637e8f60e11b81525f60048201526024016103d8565b6001600160a01b03821661085c5760405163ec442f0560e01b81525f60048201526024016103d8565b61075c8383836109f6565b6001600160a01b0382166108905760405163ec442f0560e01b81525f60048201526024016103d8565b61089b5f83836109f6565b5050565b600580546001600160a01b038381166001600160a01b0319831681179093556040519116919082907f8be0079c531659141344cd1fd0a4f28419497f9722a3daafe3b4186f6b6457e0905f90a35050565b6001600160a01b03821661091957604051634b637e8f60e11b81525f60048201526024016103d8565b61089b825f836109f6565b6001600160a01b03841661094d5760405163e602df0560e01b81525f60048201526024016103d8565b6001600160a01b03831661097657604051634a1406b160e11b81525f60048201526024016103d8565b6001600160a01b038085165f908152600160209081526040808320938716835292905220829055801561080457826001600160a01b0316846001600160a01b03167f8c5be1e5ebec7d5bd14f71427d1e84f3dd0314c0f7b2291e5b200ac8c7c3b925846040516109e891815260200190565b60405180910390a350505050565b6001600160a01b038316610a20578060025f828254610a159190610d8a565b90915550610a909050565b6001600160a01b0383165f9081526020819052604090205481811015610a725760405163391434e360e21b81526001600160a01b038516600482015260248101829052604481018390526064016103d8565b6001600160a01b0384165f9081526020819052604090209082900390555b6001600160a01b038216610aac57600280548290039055610aca565b6001600160a01b0382165f9081526020819052604090208054820190555b816001600160a01b0316836001600160a01b03167fddf252ad1be2c89b69c2b068fc378daa952ba7f163c4a11628f55a4df523b3ef83604051610b0f91815260200190565b60405180910390a3505050565b602081525f82518060208401528060208501604085015e5f604082850101526040601f19601f83011684010191505092915050565b80356001600160a01b0381168114610b67575f80fd5b919050565b5f8060408385031215610b7d575f80fd5b610b8683610b51565b946020939093013593505050565b5f60208284031215610ba4575f80fd5b610bad82610b51565b9392505050565b5f805f60608486031215610bc6575f80fd5b610bcf84610b51565b9250610bdd60208501610b51565b929592945050506040919091013590565b5f60208284031215610bfe575f80fd5b5035919050565b5f8060408385031215610c16575f80fd5b610c1f83610b51565b9150610c2d60208401610b51565b90509250929050565b600181811c90821680610c4a57607f821691505b602082108103610c6857634e487b7160e01b5f52602260045260245ffd5b50919050565b634e487b7160e01b5f52601160045260245ffd5b6001815b6001841115610cbd57808504811115610ca157610ca1610c6e565b6001841615610caf57908102905b60019390931c928002610c86565b935093915050565b5f82610cd35750600161037f565b81610cdf57505f61037f565b8160018114610cf55760028114610cff57610d1b565b600191505061037f565b60ff841115610d1057610d10610c6e565b50506001821b61037f565b5060208310610133831016604e8410600b8410161715610d3e575081810a61037f565b610d4a5f198484610c82565b805f1904821115610d5d57610d5d610c6e565b029392505050565b5f610bad60ff841683610cc5565b808202811582820484141761037f5761037f610c6e565b8082018082111561037f5761037f610c6e56fea26469706673582212206ae12651fa160c294ad3e3d0426fba2ab13fe88dd43dedd60837658fbb94905464736f6c634300081a0033",
  "linkReferences": {},
  "deployedLinkReferences": {}
}