{
  "_format": "hh-sol-artifact-1",
  "contractName": "VerdictProposalRegistryStorage",
  "sourceName": "contracts/VerdictProposalRegistryStorage.sol",
  "abi": [
    {
      "inputs": [],
      "stateMutability": "nonpayable",
      "type": "constructor"
    },
    {
      "anonymous": false,
      "inputs": [],
      "name": "MarketCleared",
      "type": "event"
    },
    {
      "anonymous": false,
      "inputs": [
        {
          "indexed": false,
          "internalType": "uint256",
          "name": "roundNumber",
          "type": "uint256"
        },
        {
          "indexed": false,
          "internalType": "uint256",
          "name": "startTime",
          "type": "uint256"
        },
        {
          "indexed": false,
          "internalType": "uint256",
          "name": "endTime",
          "type": "uint256"
        }
      ],
      "name": "MarketCreated",
      "type": "event"
    },
    {
      "anonymous": false,
      "inputs": [
        {
          "indexed": false,
          "internalType": "uint256",
          "name": "roundNumber",
          "type": "uint256"
        },
        {
          "indexed": false,
          "internalType": "string",
          "name": "winningProposalId",
          "type": "string"
        }
      ],
      "name": "MarketResolved",
      "type": "event"
    },
    {
      "anonymous": false,
      "inputs": [
        {
          "indexed": true,
          "internalType": "string",
          "name": "proposalId",
          "type": "string"
        },
        {
          "indexed": false,
          "internalType": "string",
          "name": "name",
          "type": "string"
        },
        {
          "indexed": false,
          "internalType": "address",
          "name": "poolAddress",
          "type": "address"
        }
      ],
      "name": "ProposalAdded",
      "type": "event"
    },
    {
      "anonymous": false,
      "inputs": [
        {
          "indexed": true,
          "internalType": "string",
          "name": "proposalId",
          "type": "string"
        },
        {
          "indexed": false,
          "internalType": "string",
          "name": "name",
          "type": "string"
        },
        {
          "indexed": false,
          "internalType": "uint256",
          "name": "yesTWAP",
          "type": "uint256"
        }
      ],
      "name": "ProposalGraduated",
      "type": "event"
    },
    {
      "inputs": [
        {
          "internalType": "uint256",
          "name": "",
          "type": "uint256"
        }
      ],
      "name": "activeProposalIds",
      "outputs": [
        {
          "internalType": "string",
          "name": "",
          "type": "string"
        }
      ],
      "stateMutability": "view",
      "type": "function"
    },
    {
      "inputs": [
        {
          "internalType": "string",
          "name": "proposalId",
          "type": "string"
        },
        {
          "internalType": "string",
          "name": "name",
          "type": "string"
        },
        {
          "internalType": "string",
          "name": "description",
          "type": "string"
        },
        {
          "internalType": "string",
          "name": "evaluationLogic",
          "type": "string"
        },
        {
          "internalType": "string",
          "name": "mathematicalLogic",
          "type": "string"
        },
        {
          "internalType": "uint256",
          "name": "resolutionDeadline",
          "type": "uint256"
        },
        {
          "internalType": "address",
          "name": "poolAddress",
          "type": "address"
        }
      ],
      "name": "addProposal",
      "outputs": [],
      "stateMutability": "nonpayable",
      "type": "function"
    },
    {
      "inputs": [],
      "name": "clearMarket",
      "outputs": [],
      "stateMutability": "nonpayable",
      "type": "function"
    },
    {
      "inputs": [
        {
          "internalType": "uint256",
          "name": "roundNumber",
          "type": "uint256"
        },
        {
          "internalType": "uint256",
          "name": "roundDuration",
          "type": "uint256"
        }
      ],
      "name": "createMarket",
      "outputs": [],
      "stateMutability": "nonpayable",
      "type": "function"
    },
    {
      "inputs": [],
      "name": "currentMarket",
      "outputs": [
        {
          "internalType": "uint256",
          "name": "roundNumber",
          "type": "uint256"
        },
        {
          "internalType": "uint256",
          "name": "roundStartTime",
          "type": "uint256"
        },
        {
          "internalType": "uint256",
          "name": "roundEndTime",
          "type": "uint256"
        },
        {
          "internalType": "uint256",
          "name": "roundDuration",
          "type": "uint256"
        },
        {
          "internalType": "bool",
          "name": "active",
          "type": "bool"
        }
      ],
      "stateMutability": "view",
      "type": "function"
    },
    {
      "inputs": [],
      "name": "getActiveProposals",
      "outputs": [
        {
          "internalType": "string[]",
          "name": "",
          "type": "string[]"
        }
      ],
      "stateMutability": "view",
      "type": "function"
    },
    {
      "inputs": [],
      "name": "getCurrentMarket",
      "outputs": [
        {
          "components": [
            {
              "internalType": "uint256",
              "name": "roundNumber",
              "type": "uint256"
            },
            {
              "internalType": "uint256",
              "name": "roundStartTime",
              "type": "uint256"
            },
            {
              "internalType": "uint256",
              "name": "roundEndTime",
              "type": "uint256"
            },
            {
              "internalType": "uint256",
              "name": "roundDuration",
              "type": "uint256"
            },
            {
              "internalType": "string[]",
              "name": "proposalIds",
              "type": "string[]"
            },
            {
              "internalType": "bool",
              "name": "active",
              "type": "bool"
            }
          ],
          "internalType": "struct VerdictProposalRegistryStorage.Market",
          "name": "",
          "type": "tuple"
        }
      ],
      "stateMutability": "view",
      "type": "function"
    },
    {
      "inputs": [],
      "name": "getGraduatedProposals",
      "outputs": [
        {
          "internalType": "string[]",
          "name": "",
          "type": "string[]"
        }
      ],
      "stateMutability": "view",
      "type": "function"
    },
    {
      "inputs": [
        {
          "internalType": "string",
          "name": "proposalId",
          "type": "string"
        }
      ],
      "name": "getProposal",
      "outputs": [
        {
          "components": [
            {
              "internalType": "string",
              "name": "id",
              "type": "string"
            },
            {
              "internalType": "string",
              "name": "name",
              "type": "string"
            },
            {
              "internalType": "string",
              "name": "description",
              "type": "string"
            },
            {
              "internalType": "string",
              "name": "evaluationLogic",
              "type": "string"
            },
            {
              "internalType": "string",
              "name": "mathematicalLogic",
              "type": "string"
            },
            {
              "internalType": "uint256",
              "name": "resolutionDeadline",
              "type": "uint256"
            },
            {
              "internalType": "address",
              "name": "poolAddress",
              "type": "address"
            },
            {
              "internalType": "bool",
              "name": "resolved",
              "type": "bool"
            },
            {
              "internalType": "bool",
              "name": "isWinner",
              "type": "bool"
            },
            {
              "internalType": "uint256",
              "name": "yesTWAP",
              "type": "uint256"
            },
            {
              "internalType": "uint256",
              "name": "timestamp",
              "type": "uint256"
            }
          ],
          "internalType": "struct VerdictProposalRegistryStorage.Proposal",
          "name": "",
          "type": "tuple"
        }
      ],
      "stateMutability": "view",
      "type": "function"
    },
    {
      "inputs": [],
      "name": "getTimeRemaining",
      "outputs": [
        {
          "internalType": "uint256",
          "name": "",
          "type": "uint256"
        }
      ],
      "stateMutability": "view",
      "type": "function"
    },
    {
      "inputs": [
        {
          "internalType": "string",
          "name": "proposalId",
          "type": "string"
        },
        {
          "internalType": "uint256",
          "name": "yesTWAP",
          "type": "uint256"
        }
      ],
      "name": "graduateProposal",
      "outputs": [],
      "stateMutability": "nonpayable",
      "type": "function"
    },
    {
      "inputs": [
        {
          "internalType": "uint256",
          "name": "",
          "type": "uint256"
        }
      ],
      "name": "graduatedProposalIds",
      "outputs": [
        {
          "internalType": "string",
          "name": "",
          "type": "string"
        }
      ],
      "stateMutability": "view",
      "type": "function"
    },
    {
      "inputs": [],
      "name": "isMarketActive",
      "outputs": [
        {
          "internalType": "bool",
          "name": "",
          "type": "bool"
        }
      ],
      "stateMutability": "view",
      "type": "function"
    },
    {
      "inputs": [],
      "name": "marketContract",
      "outputs": [
        {
          "internalType": "address",
          "name": "",
          "type": "address"
        }
      ],
      "stateMutability": "view",
      "type": "function"
    },
    {
      "inputs": [],
      "name": "owner",
      "outputs": [
        {
          "internalType": "address",
          "name": "",
          "type": "address"
        }
      ],
      "stateMutability": "view",
      "type": "function"
    },
    {
      "inputs": [
        {
          "internalType": "string",
          "name": "",
          "type": "string"
        }
      ],
      "name": "proposals",
      "outputs": [
        {
          "internalType": "string",
          "name": "id",
          "type": "string"
        },
        {
          "internalType": "string",
          "name": "name",
          "type": "string"
        },
        {
          "internalType": "string",
          "name": "description",
          "type": "string"
        },
        {
          "internalType": "string",
          "name": "evaluationLogic",
          "type": "string"
        },
        {
          "internalType": "string",
          "name": "mathematicalLogic",
          "type": "string"
        },
        {
          "internalType": "uint256",
          "name": "resolutionDeadline",
          "type": "uint256"
        },
        {
          "internalType": "address",
          "name": "poolAddress",
          "type": "address"
        },
        {
          "internalType": "bool",
          "name": "resolved",
          "type": "bool"
        },
        {
          "internalType": "bool",
          "name": "isWinner",
          "type": "bool"
        },
        {
          "internalType": "uint256",
          "name": "yesTWAP",
          "type": "uint256"
        },
        {
          "internalType": "uint256",
          "name": "timestamp",
          "type": "uint256"
        }
      ],
      "stateMutability": "view",
      "type": "function"
    },
    {
      "inputs": [
        {
          "internalType": "string",
          "name": "winningProposalId",
          "type": "string"
        }
      ],
      "name": "resolveMarket",
      "outputs": [],
      "stateMutability": "nonpayable",
      "type": "function"
    },
    {
      "inputs": [
        {
          "internalType": "address",
          "name": "_marketContract",
          "type": "address"
        }
      ],
      "name": "setMarketContract",
      "outputs": [],
      "stateMutability": "nonpayable",
      "type": "function"
    }
  ],
  "bytecode": "0x6080604052348015600e575f80fd5b505f80546001600160a01b03191633179055611e3a8061002d5f395ff3fe608060405234801561000f575f80fd5b5060043610610110575f3560e01c80639d13a9f41161009e578063dac6270d1161006e578063dac6270d14610277578063ebf1f1c41461028d578063f85ea2ab146102a0578063fc81587a146102b3578063ffa0d2a4146102bb575f80fd5b80639d13a9f4146101f7578063a1794bcd1461020a578063c6675cc91461021d578063c7604fec14610264575f80fd5b806350c9457c116100e457806350c9457c1461017a5780635584c4f91461019a578063613ace16146101a257806380821c37146101b85780638da5cb5b146101cd575f80fd5b8062c88c06146101145780630446c3e61461012957806325d3a09d1461013c57806345ee99a914610165575b5f80fd5b610127610122366004611695565b6102e5565b005b6101276101373660046116d7565b61048c565b61014f61014a3660046116d7565b610543565b60405161015c919061173f565b60405180910390f35b61016d6108fb565b60405161015c919061183c565b61018d61018836600461189f565b6109cf565b60405161015c91906118b6565b61016d610a75565b60075460ff16604051901515815260200161015c565b6101c0610b40565b60405161015c91906118cf565b5f546101df906001600160a01b031681565b6040516001600160a01b03909116815260200161015c565b61018d61020536600461189f565b610c89565b6001546101df906001600160a01b031681565b60025460035460045460055460075461023a949392919060ff1685565b6040805195865260208601949094529284019190915260608301521515608082015260a00161015c565b610127610272366004611974565b610c98565b61027f610dc7565b60405190815260200161015c565b61012761029b3660046119af565b610dfa565b6101276102ae366004611aab565b6110d6565b610127611186565b6102ce6102c93660046116d7565b611212565b60405161015c9b9a99989796959493929190611ac4565b6001546001600160a01b031633146103185760405162461bcd60e51b815260040161030f90611b71565b60405180910390fd5b5f6008836040516103299190611b9f565b908152602001604051809103902090505f815f01805461034890611bb5565b90501161038c5760405162461bcd60e51b8152602060048201526012602482015271141c9bdc1bdcd85b081b9bdd08199bdd5b9960721b604482015260640161030f565b6006810154600160a01b900460ff16156103db5760405162461bcd60e51b815260206004820152601060248201526f105b1c9958591e481c995cdbdb1d995960821b604482015260640161030f565b60068101805461ffff60a01b191661010160a01b17905560078101829055600980546001810182555f919091527f6e1540171b6c0c960b71a7020d9f60077f6af931a8bbf590da0223dacf75c7af016104348482611c39565b50826040516104439190611b9f565b60405180910390207f31856aa0754657abc49198c86057d12da4ad8b4986472692aa330310682da1c6826001018460405161047f929190611cf4565b60405180910390a2505050565b6001546001600160a01b031633146104b65760405162461bcd60e51b815260040161030f90611b71565b60075460ff166104fb5760405162461bcd60e51b815260206004820152601060248201526f139bc81858dd1a5d99481b585c9ad95d60821b604482015260640161030f565b6007805460ff191690556002546040517f2ec1f84b4079525f1ab2216f53a16f520efec75c91c517667151e55bbea7b9ec91610538918490611d83565b60405180910390a150565b6105a760405180610160016040528060608152602001606081526020016060815260200160608152602001606081526020015f81526020015f6001600160a01b031681526020015f151581526020015f151581526020015f81526020015f81525090565b6008826040516105b79190611b9f565b9081526020016040518091039020604051806101600160405290815f820180546105e090611bb5565b80601f016020809104026020016040519081016040528092919081815260200182805461060c90611bb5565b80156106575780601f1061062e57610100808354040283529160200191610657565b820191905f5260205f20905b81548152906001019060200180831161063a57829003601f168201915b5050505050815260200160018201805461067090611bb5565b80601f016020809104026020016040519081016040528092919081815260200182805461069c90611bb5565b80156106e75780601f106106be576101008083540402835291602001916106e7565b820191905f5260205f20905b8154815290600101906020018083116106ca57829003601f168201915b5050505050815260200160028201805461070090611bb5565b80601f016020809104026020016040519081016040528092919081815260200182805461072c90611bb5565b80156107775780601f1061074e57610100808354040283529160200191610777565b820191905f5260205f20905b81548152906001019060200180831161075a57829003601f168201915b5050505050815260200160038201805461079090611bb5565b80601f01602080910402602001604051908101604052809291908181526020018280546107bc90611bb5565b80156108075780601f106107de57610100808354040283529160200191610807565b820191905f5260205f20905b8154815290600101906020018083116107ea57829003601f168201915b5050505050815260200160048201805461082090611bb5565b80601f016020809104026020016040519081016040528092919081815260200182805461084c90611bb5565b80156108975780601f1061086e57610100808354040283529160200191610897565b820191905f5260205f20905b81548152906001019060200180831161087a57829003601f168201915b50505091835250506005820154602082015260068201546001600160a01b038116604083015260ff600160a01b8204811615156060840152600160a81b9091041615156080820152600782015460a082015260089091015460c09091015292915050565b60606009805480602002602001604051908101604052809291908181526020015f905b828210156109c6578382905f5260205f2001805461093b90611bb5565b80601f016020809104026020016040519081016040528092919081815260200182805461096790611bb5565b80156109b25780601f10610989576101008083540402835291602001916109b2565b820191905f5260205f20905b81548152906001019060200180831161099557829003601f168201915b50505050508152602001906001019061091e565b50505050905090565b600a81815481106109de575f80fd5b905f5260205f20015f9150905080546109f690611bb5565b80601f0160208091040260200160405190810160405280929190818152602001828054610a2290611bb5565b8015610a6d5780601f10610a4457610100808354040283529160200191610a6d565b820191905f5260205f20905b815481529060010190602001808311610a5057829003601f168201915b505050505081565b6060600a805480602002602001604051908101604052809291908181526020015f905b828210156109c6578382905f5260205f20018054610ab590611bb5565b80601f0160208091040260200160405190810160405280929190818152602001828054610ae190611bb5565b8015610b2c5780601f10610b0357610100808354040283529160200191610b2c565b820191905f5260205f20905b815481529060010190602001808311610b0f57829003601f168201915b505050505081526020019060010190610a98565b610b766040518060c001604052805f81526020015f81526020015f81526020015f8152602001606081526020015f151581525090565b6040805160c08101825260028054825260035460208084019190915260045483850152600554606084015260068054855181840281018401909652808652939492936080860193925f9084015b82821015610c6b578382905f5260205f20018054610be090611bb5565b80601f0160208091040260200160405190810160405280929190818152602001828054610c0c90611bb5565b8015610c575780601f10610c2e57610100808354040283529160200191610c57565b820191905f5260205f20905b815481529060010190602001808311610c3a57829003601f168201915b505050505081526020019060010190610bc3565b505050908252506005919091015460ff161515602090910152919050565b600981815481106109de575f80fd5b6001546001600160a01b03163314610cc25760405162461bcd60e51b815260040161030f90611b71565b6040518060c001604052808381526020014281526020018242610ce59190611daf565b81526020808201849052604080515f808252928101825292019190610d1a565b6060815260200190600190039081610d055790505b5081526001602091820152815160029081558282015160035560408301516004556060830151600555608083015180519192610d5c9260069290910190611522565b5060a091909101516005909101805460ff19169115159190911790557fed25ec23d979bebc7c6a7e5ffebb0fbd64b71f7e6dc13dec21f220f5b91081b98242610da58482611daf565b6040805193845260208401929092529082015260600160405180910390a15050565b6007545f9060ff161580610ddd57506004544210155b15610de757505f90565b600454610df5904290611dc8565b905090565b6001546001600160a01b03163314610e245760405162461bcd60e51b815260040161030f90611b71565b60075460ff16610e695760405162461bcd60e51b815260206004820152601060248201526f139bc81858dd1a5d99481b585c9ad95d60821b604482015260640161030f565b6001600160a01b038116610eb65760405162461bcd60e51b8152602060048201526014602482015273496e76616c696420706f6f6c206164647265737360601b604482015260640161030f565b604051806101600160405280888152602001878152602001868152602001858152602001848152602001838152602001826001600160a01b031681526020015f151581526020015f151581526020015f815260200142815250600888604051610f1f9190611b9f565b90815260405190819003602001902081518190610f3c9082611c39565b5060208201516001820190610f519082611c39565b5060408201516002820190610f669082611c39565b5060608201516003820190610f7b9082611c39565b5060808201516004820190610f909082611c39565b5060a0820151600582015560c08201516006808301805460e08601516101008701511515600160a81b0260ff60a81b19911515600160a01b026001600160a81b03199093166001600160a01b039096169590951791909117169290921790915561012083015160078301556101409092015160089091015580546001810182555f919091527ff652222313e28459528d920b65115c16c04f3efc82aaedc97be59f3f377c0d3f016110418882611c39565b50600a80546001810182555f919091527fc65a7bb8d6351c1cf70c95a316cc6a92839c986682d98bc35f958f4883f9d2a80161107d8882611c39565b508660405161108c9190611b9f565b60405180910390207f1958207786f309abb6db88f2a47c5d0bacd26f5196f358e7e73dda7f514fe66987836040516110c5929190611ddb565b60405180910390a250505050505050565b5f546001600160a01b0316331461111c5760405162461bcd60e51b815260206004820152600a60248201526927b7363c9037bbb732b960b11b604482015260640161030f565b6001600160a01b0381166111645760405162461bcd60e51b815260206004820152600f60248201526e496e76616c6964206164647265737360881b604482015260640161030f565b600180546001600160a01b0319166001600160a01b0392909216919091179055565b6001546001600160a01b031633146111b05760405162461bcd60e51b815260040161030f90611b71565b6111bb600a5f611576565b5f6002818155600382905560048290556005829055906111dc600682611576565b50600501805460ff191690556040517fefd8790e3797f9c35fdc61425cc413c2108ef625ec8abdd75e1abdbcc9d7cc92905f90a1565b805160208183018101805160088252928201919093012091528054819061123890611bb5565b80601f016020809104026020016040519081016040528092919081815260200182805461126490611bb5565b80156112af5780601f10611286576101008083540402835291602001916112af565b820191905f5260205f20905b81548152906001019060200180831161129257829003601f168201915b5050505050908060010180546112c490611bb5565b80601f01602080910402602001604051908101604052809291908181526020018280546112f090611bb5565b801561133b5780601f106113125761010080835404028352916020019161133b565b820191905f5260205f20905b81548152906001019060200180831161131e57829003601f168201915b50505050509080600201805461135090611bb5565b80601f016020809104026020016040519081016040528092919081815260200182805461137c90611bb5565b80156113c75780601f1061139e576101008083540402835291602001916113c7565b820191905f5260205f20905b8154815290600101906020018083116113aa57829003601f168201915b5050505050908060030180546113dc90611bb5565b80601f016020809104026020016040519081016040528092919081815260200182805461140890611bb5565b80156114535780601f1061142a57610100808354040283529160200191611453565b820191905f5260205f20905b81548152906001019060200180831161143657829003601f168201915b50505050509080600401805461146890611bb5565b80601f016020809104026020016040519081016040528092919081815260200182805461149490611bb5565b80156114df5780601f106114b6576101008083540402835291602001916114df565b820191905f5260205f20905b8154815290600101906020018083116114c257829003601f168201915b50505050600583015460068401546007850154600890950154939491936001600160a01b038216935060ff600160a01b8304811693600160a81b9093041691908b565b828054828255905f5260205f20908101928215611566579160200282015b8281111561156657825182906115569082611c39565b5091602001919060010190611540565b50611572929150611594565b5090565b5080545f8255905f5260205f20908101906115919190611594565b50565b80821115611572575f6115a782826115b0565b50600101611594565b5080546115bc90611bb5565b5f825580601f106115cb575050565b601f0160209004905f5260205f209081019061159191905b80821115611572575f81556001016115e3565b634e487b7160e01b5f52604160045260245ffd5b5f82601f830112611619575f80fd5b813567ffffffffffffffff811115611633576116336115f6565b604051601f8201601f19908116603f0116810167ffffffffffffffff81118282101715611662576116626115f6565b604052818152838201602001851015611679575f80fd5b816020850160208301375f918101602001919091529392505050565b5f80604083850312156116a6575f80fd5b823567ffffffffffffffff8111156116bc575f80fd5b6116c88582860161160a565b95602094909401359450505050565b5f602082840312156116e7575f80fd5b813567ffffffffffffffff8111156116fd575f80fd5b6117098482850161160a565b949350505050565b5f81518084528060208401602086015e5f602082860101526020601f19601f83011685010191505092915050565b602081525f8251610160602084015261175c610180840182611711565b90506020840151601f198483030160408501526117798282611711565b9150506040840151601f198483030160608501526117978282611711565b9150506060840151601f198483030160808501526117b58282611711565b9150506080840151601f198483030160a08501526117d38282611711565b91505060a084015160c084015260c08401516117fa60e08501826001600160a01b03169052565b5060e084015180151561010085015250610100840151801515610120850152506101208401516101408401526101408401516101608401528091505092915050565b5f602082016020835280845180835260408501915060408160051b8601019250602086015f5b8281101561189357603f1987860301845261187e858351611711565b94506020938401939190910190600101611862565b50929695505050505050565b5f602082840312156118af575f80fd5b5035919050565b602081525f6118c86020830184611711565b9392505050565b602081525f60e0820183516020840152602084015160408401526040840151606084015260608401516080840152608084015160c060a0850152818151808452610100860191506101008160051b87010193506020830192505f5b8181101561195b5760ff19878603018352611946858551611711565b9450602093840193929092019160010161192a565b5050505060a084015180151560c0850152509392505050565b5f8060408385031215611985575f80fd5b50508035926020909101359150565b80356001600160a01b03811681146119aa575f80fd5b919050565b5f805f805f805f60e0888a0312156119c5575f80fd5b873567ffffffffffffffff8111156119db575f80fd5b6119e78a828b0161160a565b975050602088013567ffffffffffffffff811115611a03575f80fd5b611a0f8a828b0161160a565b965050604088013567ffffffffffffffff811115611a2b575f80fd5b611a378a828b0161160a565b955050606088013567ffffffffffffffff811115611a53575f80fd5b611a5f8a828b0161160a565b945050608088013567ffffffffffffffff811115611a7b575f80fd5b611a878a828b0161160a565b93505060a08801359150611a9d60c08901611994565b905092959891949750929550565b5f60208284031215611abb575f80fd5b6118c882611994565b61016081525f611ad861016083018e611711565b8281036020840152611aea818e611711565b90508281036040840152611afe818d611711565b90508281036060840152611b12818c611711565b90508281036080840152611b26818b611711565b60a084018a90526001600160a01b03891660c085015287151560e08501528615156101008501529150611b569050565b61012082019390935261014001529998505050505050505050565b60208082526014908201527313db9b1e481b585c9ad95d0818dbdb9d1c9858dd60621b604082015260600190565b5f82518060208501845e5f920191825250919050565b600181811c90821680611bc957607f821691505b602082108103611be757634e487b7160e01b5f52602260045260245ffd5b50919050565b601f821115611c3457805f5260205f20601f840160051c81016020851015611c125750805b601f840160051c820191505b81811015611c31575f8155600101611c1e565b50505b505050565b815167ffffffffffffffff811115611c5357611c536115f6565b611c6781611c618454611bb5565b84611bed565b6020601f821160018114611c99575f8315611c825750848201515b5f19600385901b1c1916600184901b178455611c31565b5f84815260208120601f198516915b82811015611cc85787850151825560209485019460019092019101611ca8565b5084821015611ce557868401515f19600387901b60f8161c191681555b50505050600190811b01905550565b604081525f808454611d0581611bb5565b806040860152600182165f8114611d235760018114611d3f57611d70565b60ff1983166060870152606082151560051b8701019350611d70565b875f5260205f205f5b83811015611d6757815488820160600152600190910190602001611d48565b87016060019450505b5050506020929092019290925292915050565b828152604060208201525f6117096040830184611711565b634e487b7160e01b5f52601160045260245ffd5b80820180821115611dc257611dc2611d9b565b92915050565b81810381811115611dc257611dc2611d9b565b604081525f611ded6040830185611711565b905060018060a01b0383166020830152939250505056fea2646970667358221220101e92ff921708f585d1929ba117e91568136691a01c2735bdb7e094656ff10664736f6c634300081a0033",
  "linkReferences": {},
  "deployedLinkReferences": {}
}