{
  "_format": "hh-sol-artifact-1",
  "contractName": "VerdictSimpleAMM",
  "sourceName": "contracts/VerdictSimpleAMM.sol",
  "abi": [
    {
      "inputs": [],
      "stateMutability": "nonpayable",
      "type": "constructor"
    },
    {
      "inputs": [
        {
          "internalType": "address",
          "name": "owner",
          "type": "address"
        }
      ],
      "name": "OwnableInvalidOwner",
      "type": "error"
    },
    {
      "inputs": [
        {
          "internalType": "address",
          "name": "account",
          "type": "address"
        }
      ],
      "name": "OwnableUnauthorizedAccount",
      "type": "error"
    },
    {
      "anonymous": false,
      "inputs": [
        {
          "indexed": true,
          "internalType": "bytes32",
          "name": "poolId",
          "type": "bytes32"
        },
        {
          "indexed": false,
          "internalType": "uint256",
          "name": "amountA",
          "type": "uint256"
        },
        {
          "indexed": false,
          "internalType": "uint256",
          "name": "amountB",
          "type": "uint256"
        }
      ],
      "name": "LiquidityAdded",
      "type": "event"
    },
    {
      "anonymous": false,
      "inputs": [
        {
          "indexed": true,
          "internalType": "bytes32",
          "name": "poolId",
          "type": "bytes32"
        },
        {
          "indexed": false,
          "internalType": "uint256",
          "name": "amountA",
          "type": "uint256"
        },
        {
          "indexed": false,
          "internalType": "uint256",
          "name": "amountB",
          "type": "uint256"
        }
      ],
      "name": "LiquidityRemoved",
      "type": "event"
    },
    {
      "anonymous": false,
      "inputs": [
        {
          "indexed": true,
          "internalType": "address",
          "name": "previousOwner",
          "type": "address"
        },
        {
          "indexed": true,
          "internalType": "address",
          "name": "newOwner",
          "type": "address"
        }
      ],
      "name": "OwnershipTransferred",
      "type": "event"
    },
    {
      "anonymous": false,
      "inputs": [
        {
          "indexed": true,
          "internalType": "bytes32",
          "name": "poolId",
          "type": "bytes32"
        },
        {
          "indexed": false,
          "internalType": "string",
          "name": "proposalId",
          "type": "string"
        },
        {
          "indexed": false,
          "internalType": "address",
          "name": "tokenA",
          "type": "address"
        },
        {
          "indexed": false,
          "internalType": "address",
          "name": "tokenB",
          "type": "address"
        }
      ],
      "name": "PoolCreated",
      "type": "event"
    },
    {
      "anonymous": false,
      "inputs": [
        {
          "indexed": true,
          "internalType": "bytes32",
          "name": "poolId",
          "type": "bytes32"
        },
        {
          "indexed": true,
          "internalType": "address",
          "name": "trader",
          "type": "address"
        },
        {
          "indexed": false,
          "internalType": "address",
          "name": "tokenIn",
          "type": "address"
        },
        {
          "indexed": false,
          "internalType": "uint256",
          "name": "amountIn",
          "type": "uint256"
        },
        {
          "indexed": false,
          "internalType": "address",
          "name": "tokenOut",
          "type": "address"
        },
        {
          "indexed": false,
          "internalType": "uint256",
          "name": "amountOut",
          "type": "uint256"
        }
      ],
      "name": "Swap",
      "type": "event"
    },
    {
      "inputs": [],
      "name": "BPS_DENOMINATOR",
      "outputs": [
        {
          "internalType": "uint256",
          "name": "",
          "type": "uint256"
        }
      ],
      "stateMutability": "view",
      "type": "function"
    },
    {
      "inputs": [],
      "name": "FEE_BPS",
      "outputs": [
        {
          "internalType": "uint256",
          "name": "",
          "type": "uint256"
        }
      ],
      "stateMutability": "view",
      "type": "function"
    },
    {
      "inputs": [
        {
          "internalType": "bytes32",
          "name": "poolId",
          "type": "bytes32"
        },
        {
          "internalType": "uint256",
          "name": "amountA",
          "type": "uint256"
        },
        {
          "internalType": "uint256",
          "name": "amountB",
          "type": "uint256"
        }
      ],
      "name": "addLiquidity",
      "outputs": [],
      "stateMutability": "nonpayable",
      "type": "function"
    },
    {
      "inputs": [
        {
          "internalType": "string",
          "name": "proposalId",
          "type": "string"
        },
        {
          "internalType": "address",
          "name": "tokenA",
          "type": "address"
        },
        {
          "internalType": "address",
          "name": "tokenB",
          "type": "address"
        }
      ],
      "name": "createPool",
      "outputs": [
        {
          "internalType": "bytes32",
          "name": "poolId",
          "type": "bytes32"
        }
      ],
      "stateMutability": "nonpayable",
      "type": "function"
    },
    {
      "inputs": [
        {
          "internalType": "bytes32",
          "name": "poolId",
          "type": "bytes32"
        },
        {
          "internalType": "address",
          "name": "tokenIn",
          "type": "address"
        },
        {
          "internalType": "uint256",
          "name": "amountIn",
          "type": "uint256"
        }
      ],
      "name": "getAmountOut",
      "outputs": [
        {
          "internalType": "uint256",
          "name": "amountOut",
          "type": "uint256"
        }
      ],
      "stateMutability": "view",
      "type": "function"
    },
    {
      "inputs": [
        {
          "internalType": "string",
          "name": "proposalId",
          "type": "string"
        }
      ],
      "name": "getPoolByProposal",
      "outputs": [
        {
          "components": [
            {
              "internalType": "address",
              "name": "tokenA",
              "type": "address"
            },
            {
              "internalType": "address",
              "name": "tokenB",
              "type": "address"
            },
            {
              "internalType": "uint256",
              "name": "reserveA",
              "type": "uint256"
            },
            {
              "internalType": "uint256",
              "name": "reserveB",
              "type": "uint256"
            },
            {
              "internalType": "bool",
              "name": "exists",
              "type": "bool"
            }
          ],
          "internalType": "struct VerdictSimpleAMM.Pool",
          "name": "",
          "type": "tuple"
        }
      ],
      "stateMutability": "view",
      "type": "function"
    },
    {
      "inputs": [
        {
          "internalType": "bytes32",
          "name": "poolId",
          "type": "bytes32"
        }
      ],
      "name": "getPrice",
      "outputs": [
        {
          "internalType": "uint256",
          "name": "price",
          "type": "uint256"
        }
      ],
      "stateMutability": "view",
      "type": "function"
    },
    {
      "inputs": [
        {
          "internalType": "bytes32",
          "name": "poolId",
          "type": "bytes32"
        }
      ],
      "name": "getReserves",
      "outputs": [
        {
          "internalType": "uint256",
          "name": "reserveA",
          "type": "uint256"
        },
        {
          "internalType": "uint256",
          "name": "reserveB",
          "type": "uint256"
        }
      ],
      "stateMutability": "view",
      "type": "function"
    },
    {
      "inputs": [
        {
          "internalType": "string",
          "name": "proposalId",
          "type": "string"
        }
      ],
      "name": "getYESPrice",
      "outputs": [
        {
          "internalType": "uint256",
          "name": "yesPrice",
          "type": "uint256"
        }
      ],
      "stateMutability": "view",
      "type": "function"
    },
    {
      "inputs": [],
      "name": "owner",
      "outputs": [
        {
          "internalType": "address",
          "name": "",
          "type": "address"
        }
      ],
      "stateMutability": "view",
      "type": "function"
    },
    {
      "inputs": [
        {
          "internalType": "bytes32",
          "name": "",
          "type": "bytes32"
        }
      ],
      "name": "pools",
      "outputs": [
        {
          "internalType": "address",
          "name": "tokenA",
          "type": "address"
        },
        {
          "internalType": "address",
          "name": "tokenB",
          "type": "address"
        },
        {
          "internalType": "uint256",
          "name": "reserveA",
          "type": "uint256"
        },
        {
          "internalType": "uint256",
          "name": "reserveB",
          "type": "uint256"
        },
        {
          "internalType": "bool",
          "name": "exists",
          "type": "bool"
        }
      ],
      "stateMutability": "view",
      "type": "function"
    },
    {
      "inputs": [
        {
          "internalType": "string",
          "name": "",
          "type": "string"
        }
      ],
      "name": "proposalToPool",
      "outputs": [
        {
          "internalType": "bytes32",
          "name": "",
          "type": "bytes32"
        }
      ],
      "stateMutability": "view",
      "type": "function"
    },
    {
      "inputs": [],
      "name": "renounceOwnership",
      "outputs": [],
      "stateMutability": "nonpayable",
      "type": "function"
    },
    {
      "inputs": [],
      "name": "router",
      "outputs": [
        {
          "internalType": "address",
          "name": "",
          "type": "address"
        }
      ],
      "stateMutability": "view",
      "type": "function"
    },
    {
      "inputs": [
        {
          "internalType": "address",
          "name": "_router",
          "type": "address"
        }
      ],
      "name": "setRouter",
      "outputs": [],
      "stateMutability": "nonpayable",
      "type": "function"
    },
    {
      "inputs": [
        {
          "internalType": "bytes32",
          "name": "poolId",
          "type": "bytes32"
        },
        {
          "internalType": "address",
          "name": "tokenIn",
          "type": "address"
        },
        {
          "internalType": "uint256",
          "name": "amountIn",
          "type": "uint256"
        },
        {
          "internalType": "uint256",
          "name": "minAmountOut",
          "type": "uint256"
        }
      ],
      "name": "swap",
      "outputs": [
        {
          "internalType": "uint256",
          "name": "amountOut",
          "type": "uint256"
        }
      ],
      "stateMutability": "nonpayable",
      "type": "function"
    },
    {
      "inputs": [
        {
          "internalType": "address",
          "name": "newOwner",
          "type": "address"
        }
      ],
      "name": "transferOwnership",
      "outputs": [],
      "stateMutability": "nonpayable",
      "type": "function"
    }
  ],
  "bytecode": "0x6080604052348015600e575f80fd5b503380603357604051631e4fbdf760e01b81525f600482015260240160405180910390fd5b603a81603f565b50608e565b5f80546001600160a01b038381166001600160a01b0319831681178455604051919092169283917f8be0079c531659141344cd1fd0a4f28419497f9722a3daafe3b4186f6b6457e09190a35050565b61122d8061009b5f395ff3fe608060405234801561000f575f80fd5b5060043610610106575f3560e01c8063a4a9e9881161009e578063c8ff84591161006e578063c8ff845914610298578063dd22d0b5146102c3578063e1a4521814610323578063f2fde38b1461032c578063f887ea401461033f575f80fd5b8063a4a9e988146101bd578063b5217bb4146101fc578063bf333f2c1461027d578063c0d7865514610285575f80fd5b8063715018a6116100d9578063715018a61461016957806371ace7ec146101735780637cb1403a146101865780638da5cb5b14610199575f80fd5b8063265891071461010a57806331d98b3f146101305780634669660f1461014357806356cd61d714610156575b5f80fd5b61011d610118366004610f26565b610352565b6040519081526020015b60405180910390f35b61011d61013e366004610f58565b610440565b61011d610151366004610f8a565b6104e0565b61011d610164366004610fc2565b610866565b6101716109ec565b005b61017161018136600461101c565b6109ff565b61011d610194366004611045565b610bf2565b5f546001600160a01b03165b6040516001600160a01b039091168152602001610127565b6101e76101cb366004610f58565b5f90815260016020526040902060028101546003909101549091565b60408051928352602083019190915201610127565b61024861020a366004610f58565b600160208190525f9182526040909120805491810154600282015460038301546004909301546001600160a01b039485169490921692909160ff1685565b604080516001600160a01b0396871681529590941660208601529284019190915260608301521515608082015260a001610127565b61011d601e81565b610171610293366004611078565b610cb5565b61011d6102a6366004610f26565b805160208183018101805160028252928201919093012091525481565b6102d66102d1366004610f26565b610d26565b604051610127919081516001600160a01b03908116825260208084015190911690820152604080830151908201526060808301519082015260809182015115159181019190915260a00190565b61011d61271081565b61017161033a366004611078565b610dcf565b6003546101a5906001600160a01b031681565b5f8060028360405161036491906110a8565b9081526040805160209281900383019020545f8181526001909352912060048101549192509060ff166103b25760405162461bcd60e51b81526004016103a9906110b3565b60405180910390fd5b5f816003015482600201546103c791906110ef565b116104035760405162461bcd60e51b815260206004820152600c60248201526b4e6f206c697175696469747960a01b60448201526064016103a9565b8060030154816002015461041791906110ef565b600282015461042e90670de0b6b3a7640000611108565b610438919061111f565b949350505050565b5f818152600160205260408120600481015460ff166104715760405162461bcd60e51b81526004016103a9906110b3565b5f8160030154116104b35760405162461bcd60e51b815260206004820152600c60248201526b4e6f206c697175696469747960a01b60448201526064016103a9565b600381015460028201546104cf90670de0b6b3a7640000611108565b6104d9919061111f565b9392505050565b5f848152600160205260408120600481015460ff166105115760405162461bcd60e51b81526004016103a9906110b3565b80546001600160a01b038681169116148061053b575060018101546001600160a01b038681169116145b6105775760405162461bcd60e51b815260206004820152600d60248201526c24b73b30b634b2103a37b5b2b760991b60448201526064016103a9565b80546001600160a01b038681169116145f8161059757826003015461059d565b82600201545b90505f826105af5783600201546105b5565b83600301545b90505f836105cd5784546001600160a01b03166105dc565b60018501546001600160a01b03165b90505f6105ec601e61271061113e565b6105f6908a611108565b90508061060561271086611108565b61060f91906110ef565b6106198483611108565b610623919061111f565b9650878710156106695760405162461bcd60e51b815260206004820152601160248201527014db1a5c1c1859d948195e18d959591959607a1b60448201526064016103a9565b5f87116106ae5760405162461bcd60e51b8152602060048201526013602482015272125b9cdd59999a58da595b9d081bdd5d1c1d5d606a1b60448201526064016103a9565b6040516323b872dd60e01b8152336004820152306024820152604481018a90526001600160a01b038b16906323b872dd906064016020604051808303815f875af11580156106fe573d5f803e3d5ffd5b505050506040513d601f19601f820116820180604052508101906107229190611151565b5060405163a9059cbb60e01b8152336004820152602481018890526001600160a01b0383169063a9059cbb906044016020604051808303815f875af115801561076d573d5f803e3d5ffd5b505050506040513d601f19601f820116820180604052508101906107919190611151565b5084156107d05788866002015f8282546107ab91906110ef565b9250508190555086866003015f8282546107c5919061113e565b909155506108039050565b88866003015f8282546107e391906110ef565b9250508190555086866002015f8282546107fd919061113e565b90915550505b604080516001600160a01b038c81168252602082018c905284168183015260608101899052905133918d917fa220d14fc92dbbfef0608a511fa6d244eb0b0165f5658140083e15b62aa9806c9181900360800190a3505050505050949350505050565b6003545f906001600160a01b031633148061088a57505f546001600160a01b031633145b6108c45760405162461bcd60e51b815260206004820152600b60248201526a27b7363c903937baba32b960a91b60448201526064016103a9565b8383836040516020016108d993929190611170565b60408051808303601f19018152828252805160209182012060a0840183526001600160a01b0387811685528681168386019081525f86860181815260608801828152600160808a018181528785529781905292889020985189546001600160a01b0319908116918716919091178a55935192890180549094169290941691909117909155516002808701919091559051600386015591516004909401805460ff191694151594909417909355905191925082916109979087906110a8565b908152602001604051809103902081905550807f2182a91210858aef55a999fb1ad46175904fc2c2d1d975a6216e8ab5e41b738f8585856040516109dd939291906111a8565b60405180910390a29392505050565b6109f4610e0c565b6109fd5f610e38565b565b6003546001600160a01b0316331480610a2157505f546001600160a01b031633145b610a5b5760405162461bcd60e51b815260206004820152600b60248201526a27b7363c903937baba32b960a91b60448201526064016103a9565b5f838152600160205260409020600481015460ff16610a8c5760405162461bcd60e51b81526004016103a9906110b3565b80546040516323b872dd60e01b8152336004820152306024820152604481018590526001600160a01b03909116906323b872dd906064016020604051808303815f875af1158015610adf573d5f803e3d5ffd5b505050506040513d601f19601f82011682018060405250810190610b039190611151565b5060018101546040516323b872dd60e01b8152336004820152306024820152604481018490526001600160a01b03909116906323b872dd906064016020604051808303815f875af1158015610b5a573d5f803e3d5ffd5b505050506040513d601f19601f82011682018060405250810190610b7e9190611151565b5082816002015f828254610b9291906110ef565b9250508190555081816003015f828254610bac91906110ef565b9091555050604080518481526020810184905285917f61cefd3f50b7b55c00bc944f88d509ee073a1a41fc5e9db40ea870c431e658f4910160405180910390a250505050565b5f838152600160205260408120600481015460ff16610c235760405162461bcd60e51b81526004016103a9906110b3565b80546001600160a01b038581169116145f81610c43578260030154610c49565b82600201545b90505f82610c5b578360020154610c61565b83600301545b90505f610c71601e61271061113e565b610c7b9088611108565b905080610c8a61271085611108565b610c9491906110ef565b610c9e8383611108565b610ca8919061111f565b9998505050505050505050565b610cbd610e0c565b6001600160a01b038116610d045760405162461bcd60e51b815260206004820152600e60248201526d24b73b30b634b2103937baba32b960911b60448201526064016103a9565b600380546001600160a01b0319166001600160a01b0392909216919091179055565b6040805160a0810182525f808252602082018190529181018290526060810182905260808101919091525f600283604051610d6191906110a8565b908152604080519182900360209081018320545f90815260018083529083902060a08501845280546001600160a01b0390811686529181015490911691840191909152600281015491830191909152600381015460608301526004015460ff16151560808201529392505050565b610dd7610e0c565b6001600160a01b038116610e0057604051631e4fbdf760e01b81525f60048201526024016103a9565b610e0981610e38565b50565b5f546001600160a01b031633146109fd5760405163118cdaa760e01b81523360048201526024016103a9565b5f80546001600160a01b038381166001600160a01b0319831681178455604051919092169283917f8be0079c531659141344cd1fd0a4f28419497f9722a3daafe3b4186f6b6457e09190a35050565b634e487b7160e01b5f52604160045260245ffd5b5f82601f830112610eaa575f80fd5b813567ffffffffffffffff811115610ec457610ec4610e87565b604051601f8201601f19908116603f0116810167ffffffffffffffff81118282101715610ef357610ef3610e87565b604052818152838201602001851015610f0a575f80fd5b816020850160208301375f918101602001919091529392505050565b5f60208284031215610f36575f80fd5b813567ffffffffffffffff811115610f4c575f80fd5b61043884828501610e9b565b5f60208284031215610f68575f80fd5b5035919050565b80356001600160a01b0381168114610f85575f80fd5b919050565b5f805f8060808587031215610f9d575f80fd5b84359350610fad60208601610f6f565b93969395505050506040820135916060013590565b5f805f60608486031215610fd4575f80fd5b833567ffffffffffffffff811115610fea575f80fd5b610ff686828701610e9b565b93505061100560208501610f6f565b915061101360408501610f6f565b90509250925092565b5f805f6060848603121561102e575f80fd5b505081359360208301359350604090920135919050565b5f805f60608486031215611057575f80fd5b8335925061106760208501610f6f565b929592945050506040919091013590565b5f60208284031215611088575f80fd5b6104d982610f6f565b5f81518060208401855e5f93019283525090919050565b5f6104d98284611091565b6020808252600e908201526d141bdbdb081b9bdd08199bdd5b9960921b604082015260600190565b634e487b7160e01b5f52601160045260245ffd5b80820180821115611102576111026110db565b92915050565b8082028115828204841417611102576111026110db565b5f8261113957634e487b7160e01b5f52601260045260245ffd5b500490565b81810381811115611102576111026110db565b5f60208284031215611161575f80fd5b815180151581146104d9575f80fd5b5f61117b8286611091565b6bffffffffffffffffffffffff19606095861b811682529390941b90921660148401525050602801919050565b606081525f84518060608401528060208701608085015e5f60808285018101919091526001600160a01b03958616602085015293909416604083015250601f909201601f19169091010191905056fea2646970667358221220b59189378902f379f286072fa54aa4aa7fd7172803df3110b22a70723076d93864736f6c634300081a0033",
  "linkReferences": {},
  "deployedLinkReferences": {}
}