{
	"data": {
		"bytecode": {
			"linkReferences": {},
			"object": "608060405234801561000f575f5ffd5b5060405161861c38038061861c83398101604081905261002e91610429565b338061005457604051631e4fbdf760e01b81525f60048201526024015b60405180910390fd5b61005d816103a6565b506001600160a01b0381166100b45760405162461bcd60e51b815260206004820152601660248201527f496e76616c6964206261636b656e64207369676e657200000000000000000000604482015260640161004b565b600580546001600160a01b0319166001600160a01b0383161790556040516100db906103f5565b604051809103905ff0801580156100f4573d5f5f3e3d5ffd5b50600180546001600160a01b0319166001600160a01b039290921691909117905560405161012190610402565b604051809103905ff08015801561013a573d5f5f3e3d5ffd5b50600280546001600160a01b0319166001600160a01b03929092169190911790556040516101679061040f565b604051809103905ff080158015610180573d5f5f3e3d5ffd5b50600380546001600160a01b0319166001600160a01b03929092169190911790556040516101ad9061041c565b604051809103905ff0801580156101c6573d5f5f3e3d5ffd5b50600480546001600160a01b0319166001600160a01b0392831617815560015460405163064c241960e11b8152309281019290925290911690630c984832906024015f604051808303815f87803b15801561021f575f5ffd5b505af1158015610231573d5f5f3e3d5ffd5b505060025460405163f85ea2ab60e01b81523060048201526001600160a01b03909116925063f85ea2ab91506024015f604051808303815f87803b158015610277575f5ffd5b505af1158015610289573d5f5f3e3d5ffd5b505060035460405163f85ea2ab60e01b81523060048201526001600160a01b03909116925063f85ea2ab91506024015f604051808303815f87803b1580156102cf575f5ffd5b505af11580156102e1573d5f5f3e3d5ffd5b50506004805460405163c0d7865560e01b815230928101929092526001600160a01b0316925063c0d7865591506024015f604051808303815f87803b158015610328575f5ffd5b505af115801561033a573d5f5f3e3d5ffd5b5050600154600254600354600454604080516001600160a01b03958616815293851660208501529184168383015292909216606082015290517f4b75aa1a13a160f48feea5d6d4f23760de2ae3e26f90d390b095aa4faa4854859350908190036080019150a150610456565b5f80546001600160a01b038381166001600160a01b0319831681178455604051919092169283917f8be0079c531659141344cd1fd0a4f28419497f9722a3daafe3b4186f6b6457e09190a35050565b6112ef806129fe83390190565b611e6780613ced83390190565b61180080615b5483390190565b6112c88061735483390190565b5f60208284031215610439575f5ffd5b81516001600160a01b038116811461044f575f5ffd5b9392505050565b61259b806104635f395ff3fe608060405234801561000f575f5ffd5b50600436106101c5575f3560e01c8063715018a6116100fe5780638da5cb5b1161009e578063aa9a068f1161006e578063aa9a068f1461040a578063b56e725c1461044a578063c45a01551461046a578063f2fde38b1461047d575f5ffd5b80638da5cb5b146103ac5780638e0dac69146103bc57806392893e0f146103cf5780639a6b9cbb146103f7575f5ffd5b806384bc76a6116100d957806384bc76a61461034757806388abb85f1461035c5780638a19c8bc146103905780638b10890b14610399575f5ffd5b8063715018a61461031957806376dddf9f146103215780637b10399914610334575f5ffd5b8063306b9bb9116101695780634e1f3a00116101445780634e1f3a00146102ce578063613ace16146102e157806365d65e86146102fe5780636c1cf03714610311575f5ffd5b8063306b9bb91461027b5780634054633d1461028e57806345ee99a9146102b9575f5ffd5b80631b745534116101a45780631b7455341461022f57806326589107146102425780632a943945146102555780632cb3598014610268575f5ffd5b8062c88c06146101c95780631298f3b9146101de578063157e4c0814610204575b5f5ffd5b6101dc6101d7366004611818565b610490565b005b6101f16101ec36600461186d565b61056d565b6040519081526020015b60405180910390f35b600154610217906001600160a01b031681565b6040516001600160a01b0390911681526020016101fb565b6101f161023d36600461188f565b6105e0565b6101f16102503660046118dd565b61068b565b600454610217906001600160a01b031681565b6101dc61027636600461190e565b6106bc565b6101dc61028936600461186d565b610743565b6101f161029c3660046118dd565b805160208183018101805160098252928201919093012091525481565b6102c16108ab565b6040516101fb9190611a2d565b6101dc6102dc366004611a90565b61091e565b6007546102ee9060ff1681565b60405190151581526020016101fb565b600554610217906001600160a01b031681565b6101dc610a98565b6101dc610b7e565b6101f161032f366004611aa7565b610b91565b600254610217906001600160a01b031681565b61034f610e35565b6040516101fb9190611b01565b61021761036a3660046118dd565b80516020818301810180516008825292820191909301209152546001600160a01b031681565b6101f160065481565b6101f16103a7366004611ba6565b610ee1565b5f546001600160a01b0316610217565b6101dc6103ca366004611bfb565b610f84565b6103e26103dd3660046118dd565b611017565b604080519283526020830191909152016101fb565b6102176104053660046118dd565b6110ac565b600154600254600354600454604080516001600160a01b0395861681529385166020850152918416918301919091529190911660608201526080016101fb565b61045d6104583660046118dd565b6110dc565b6040516101fb9190611c73565b600354610217906001600160a01b031681565b6101dc61048b36600461186d565b6111b1565b6005546001600160a01b031633148015906104b557505f546001600160a01b03163314155b156104d357604051636bbaa1c160e01b815260040160405180910390fd5b6002546040516264460360e11b81526001600160a01b039091169062c88c06906105039085908590600401611d70565b5f604051808303815f87803b15801561051a575f5ffd5b505af115801561052c573d5f5f3e3d5ffd5b505050507f4ff42ce5f2120cce7cc3037ba0c02115b80eaaf04608fdff259f5104b286c4b28282604051610561929190611d70565b60405180910390a15050565b6001546040516370a0823160e01b81526001600160a01b0383811660048301525f9216906370a08231906024015b602060405180830381865afa1580156105b6573d5f5f3e3d5ffd5b505050506040513d601f19601f820116820180604052508101906105da9190611d91565b92915050565b5f5f6008846040516105f29190611dbf565b908152604051908190036020019020546001600160a01b031690508061061b575f9150506105da565b6040516370a0823160e01b81526001600160a01b0384811660048301528216906370a0823190602401602060405180830381865afa15801561065f573d5f5f3e3d5ffd5b505050506040513d601f19601f820116820180604052508101906106839190611d91565b949350505050565b60048054604051632658910760e01b81525f926001600160a01b039092169163265891079161059b91869101611dca565b6005546001600160a01b031633148015906106e157505f546001600160a01b03163314155b156106ff57604051636bbaa1c160e01b815260040160405180910390fd5b61073a6040518060e00160405280898152602001888152602001878152602001868152602001858152602001848152602001838152506111ee565b50505050505050565b6005546001600160a01b0316331480159061076857505f546001600160a01b03163314155b1561078657604051636bbaa1c160e01b815260040160405180910390fd5b6001546040805163313ce56760e01b815290515f926001600160a01b03169163313ce5679160048083019260209291908290030181865afa1580156107cd573d5f5f3e3d5ffd5b505050506040513d601f19601f820116820180604052508101906107f19190611ddc565b6107fc90600a611ef3565b610808906101f4611f01565b6001546040516340c10f1960e01b81526001600160a01b038581166004830152602482018490529293509116906340c10f19906044015f604051808303815f87803b158015610855575f5ffd5b505af1158015610867573d5f5f3e3d5ffd5b5050604080516001600160a01b0386168152602081018590527fd1b844701695237443dd884ed7193d9c8788f3befd35adc0910472eb166f33069350019050610561565b600254604080516345ee99a960e01b815290516060926001600160a01b0316916345ee99a9916004808301925f9291908290030181865afa1580156108f2573d5f5f3e3d5ffd5b505050506040513d5f823e601f3d908101601f191682016040526109199190810190612007565b905090565b6005546001600160a01b0316331480159061094357505f546001600160a01b03163314155b1561096157604051636bbaa1c160e01b815260040160405180910390fd5b60025f9054906101000a90046001600160a01b03166001600160a01b031663fc81587a6040518163ffffffff1660e01b81526004015f604051808303815f87803b1580156109ad575f5ffd5b505af11580156109bf573d5f5f3e3d5ffd5b50506007805460ff19166001179055505060068054905f6109df83612038565b90915550506002546006546040516331d813fb60e21b81526001600160a01b039092169163c7604fec91610a20918590600401918252602082015260400190565b5f604051808303815f87803b158015610a37575f5ffd5b505af1158015610a49573d5f5f3e3d5ffd5b505050507f29d6d6c69e73efe2bce4ea0d86536ada3c571774b72bd63d51140bbcceb06f056006548242610a7d9190612050565b6040805192835260208301919091520160405180910390a150565b6001546040805163313ce56760e01b815290516001600160a01b039092169163ee67a1e5913391849163313ce5679160048083019260209291908290030181865afa158015610ae9573d5f5f3e3d5ffd5b505050506040513d601f19601f82011682018060405250810190610b0d9190611ddc565b610b1890600a611ef3565b610b23906064611f01565b6040516001600160e01b031960e085901b1681526001600160a01b03909216600483015260248201526044015f604051808303815f87803b158015610b66575f5ffd5b505af1158015610b78573d5f5f3e3d5ffd5b50505050565b610b86611674565b610b8f5f6116a0565b565b5f5f600986604051610ba39190611dbf565b90815260405190819003602001902054905080610bf85760405162461bcd60e51b815260206004820152600e60248201526d141bdbdb081b9bdd08199bdd5b9960921b60448201526064015b60405180910390fd5b6040516323b872dd60e01b8152336004820152306024820152604481018590526001600160a01b038616906323b872dd906064016020604051808303815f875af1158015610c48573d5f5f3e3d5ffd5b505050506040513d601f19601f82011682018060405250810190610c6c9190612077565b506004805460405163095ea7b360e01b81526001600160a01b03918216928101929092526024820186905286169063095ea7b3906044016020604051808303815f875af1158015610cbf573d5f5f3e3d5ffd5b505050506040513d601f19601f82011682018060405250810190610ce39190612077565b5060048054604051634669660f60e01b81529182018390526001600160a01b03878116602484015260448301879052606483018690521690634669660f906084016020604051808303815f875af1158015610d40573d5f5f3e3d5ffd5b505050506040513d601f19601f82011682018060405250810190610d649190611d91565b6001549092505f906001600160a01b03878116911614610d8f576001546001600160a01b0316610db9565b600887604051610d9f9190611dbf565b908152604051908190036020019020546001600160a01b03165b60405163a9059cbb60e01b8152336004820152602481018590529091506001600160a01b0382169063a9059cbb906044016020604051808303815f875af1158015610e06573d5f5f3e3d5ffd5b505050506040513d601f19601f82011682018060405250810190610e2a9190612077565b505050949350505050565b610e6b6040518060c001604052805f81526020015f81526020015f81526020015f8152602001606081526020015f151581525090565b60025f9054906101000a90046001600160a01b03166001600160a01b03166380821c376040518163ffffffff1660e01b81526004015f60405180830381865afa158015610eba573d5f5f3e3d5ffd5b505050506040513d5f823e601f3d908101601f191682016040526109199190810190612090565b5f5f600985604051610ef39190611dbf565b9081526040519081900360200181205460048054633e58a01d60e11b84529083018290526001600160a01b038781166024850152604484018790529193501690637cb1403a90606401602060405180830381865afa158015610f57573d5f5f3e3d5ffd5b505050506040513d601f19601f82011682018060405250810190610f7b9190611d91565b95945050505050565b6005546001600160a01b03163314801590610fa957505f546001600160a01b03163314155b15610fc757604051636bbaa1c160e01b815260040160405180910390fd5b610fd08361091e565b5f5b81811015610b785761100f838383818110610fef57610fef612133565b90506020028101906110019190612147565b61100a90612165565b6111ee565b600101610fd2565b5f5f5f60098460405161102a9190611dbf565b90815260405190819003602001812054600480546314953d3160e31b84529083018290529092506001600160a01b03169063a4a9e988906024016040805180830381865afa15801561107e573d5f5f3e3d5ffd5b505050506040513d601f19601f820116820180604052508101906110a29190612264565b9250925050915091565b5f6008826040516110bd9190611dbf565b908152604051908190036020019020546001600160a01b031692915050565b61114060405180610160016040528060608152602001606081526020016060815260200160608152602001606081526020015f81526020015f6001600160a01b031681526020015f151581526020015f151581526020015f81526020015f81525090565b6002546040516325d3a09d60e01b81526001600160a01b03909116906325d3a09d90611170908590600401611dca565b5f60405180830381865afa15801561118a573d5f5f3e3d5ffd5b505050506040513d5f823e601f3d908101601f191682016040526105da9190810190612291565b6111b9611674565b6001600160a01b0381166111e257604051631e4fbdf760e01b81525f6004820152602401610bef565b6111eb816116a0565b50565b60035481516020808401516040515f946001600160a01b03169363b591b96c93909261121c929091016123fb565b604051602081830303815290604052855f015160405160200161123f9190612415565b6040516020818303038152906040526040518463ffffffff1660e01b815260040161126c9392919061242e565b6020604051808303815f875af1158015611288573d5f5f3e3d5ffd5b505050506040513d601f19601f820116820180604052508101906112ac9190612466565b9050806008835f01516040516112c29190611dbf565b90815260405190819003602001812080546001600160a01b039384166001600160a01b03199091161790556004805485516001546356cd61d760e01b85525f95928316946356cd61d79461131d949290921691889101612481565b6020604051808303815f875af1158015611339573d5f5f3e3d5ffd5b505050506040513d601f19601f8201168201806040525081019061135d9190611d91565b9050806009845f01516040516113739190611dbf565b9081526040519081900360200190205560c0830151156115b45760015460c08401516040516340c10f1960e01b815230600482015260248101919091526001600160a01b03909116906340c10f19906044015f604051808303815f87803b1580156113dc575f5ffd5b505af11580156113ee573d5f5f3e3d5ffd5b5050505060c08301516040516340c10f1960e01b815230600482015260248101919091526001600160a01b038316906340c10f19906044015f604051808303815f87803b15801561143d575f5ffd5b505af115801561144f573d5f5f3e3d5ffd5b50506001546004805460c088015160405163095ea7b360e01b81526001600160a01b03928316938101939093526024830152909116925063095ea7b391506044016020604051808303815f875af11580156114ac573d5f5f3e3d5ffd5b505050506040513d601f19601f820116820180604052508101906114d09190612077565b506004805460c085015160405163095ea7b360e01b81526001600160a01b0392831693810193909352602483015283169063095ea7b3906044016020604051808303815f875af1158015611526573d5f5f3e3d5ffd5b505050506040513d601f19601f8201168201806040525081019061154a9190612077565b506004805460c0850151604051631c6b39fb60e21b81529283018490526024830181905260448301526001600160a01b0316906371ace7ec906064015f604051808303815f87803b15801561159d575f5ffd5b505af11580156115af573d5f5f3e3d5ffd5b505050505b600254835160208501516040808701516060880151608089015160a08a01519351633afc7c7160e21b81526001600160a01b039097169663ebf1f1c49661160696909590949392918b906004016124b3565b5f604051808303815f87803b15801561161d575f5ffd5b505af115801561162f573d5f5f3e3d5ffd5b505084516040517f617e6c431f9e799bd15607dde27f4439eec832f081ce7f16a9dfaf9dc32e162b9350611667925085908590612538565b60405180910390a1505050565b5f546001600160a01b03163314610b8f5760405163118cdaa760e01b8152336004820152602401610bef565b5f80546001600160a01b038381166001600160a01b0319831681178455604051919092169283917f8be0079c531659141344cd1fd0a4f28419497f9722a3daafe3b4186f6b6457e09190a35050565b634e487b7160e01b5f52604160045260245ffd5b60405160c081016001600160401b0381118282101715611725576117256116ef565b60405290565b60405160e081016001600160401b0381118282101715611725576117256116ef565b60405161016081016001600160401b0381118282101715611725576117256116ef565b604051601f8201601f191681016001600160401b0381118282101715611798576117986116ef565b604052919050565b5f6001600160401b038211156117b8576117b86116ef565b50601f01601f191660200190565b5f82601f8301126117d5575f5ffd5b81356117e86117e3826117a0565b611770565b8181528460208386010111156117fc575f5ffd5b816020850160208301375f918101602001919091529392505050565b5f5f60408385031215611829575f5ffd5b82356001600160401b0381111561183e575f5ffd5b61184a858286016117c6565b95602094909401359450505050565b6001600160a01b03811681146111eb575f5ffd5b5f6020828403121561187d575f5ffd5b813561188881611859565b9392505050565b5f5f604083850312156118a0575f5ffd5b82356001600160401b038111156118b5575f5ffd5b6118c1858286016117c6565b92505060208301356118d281611859565b809150509250929050565b5f602082840312156118ed575f5ffd5b81356001600160401b03811115611902575f5ffd5b610683848285016117c6565b5f5f5f5f5f5f5f60e0888a031215611924575f5ffd5b87356001600160401b03811115611939575f5ffd5b6119458a828b016117c6565b97505060208801356001600160401b03811115611960575f5ffd5b61196c8a828b016117c6565b96505060408801356001600160401b03811115611987575f5ffd5b6119938a828b016117c6565b95505060608801356001600160401b038111156119ae575f5ffd5b6119ba8a828b016117c6565b94505060808801356001600160401b038111156119d5575f5ffd5b6119e18a828b016117c6565b979a969950949793969560a0850135955060c0909401359392505050565b5f81518084528060208401602086015e5f602082860101526020601f19601f83011685010191505092915050565b5f602082016020835280845180835260408501915060408160051b8601019250602086015f5b82811015611a8457603f19878603018452611a6f8583516119ff565b94506020938401939190910190600101611a53565b50929695505050505050565b5f60208284031215611aa0575f5ffd5b5035919050565b5f5f5f5f60808587031215611aba575f5ffd5b84356001600160401b03811115611acf575f5ffd5b611adb878288016117c6565b9450506020850135611aec81611859565b93969395505050506040820135916060013590565b602081525f60e0820183516020840152602084015160408401526040840151606084015260608401516080840152608084015160c060a0850152818151808452610100860191506101008160051b87010193506020830192505f5b81811015611b8d5760ff19878603018352611b788585516119ff565b94506020938401939290920191600101611b5c565b5050505060a084015180151560c0850152509392505050565b5f5f5f60608486031215611bb8575f5ffd5b83356001600160401b03811115611bcd575f5ffd5b611bd9868287016117c6565b9350506020840135611bea81611859565b929592945050506040919091013590565b5f5f5f60408486031215611c0d575f5ffd5b8335925060208401356001600160401b03811115611c29575f5ffd5b8401601f81018613611c39575f5ffd5b80356001600160401b03811115611c4e575f5ffd5b8660208260051b8401011115611c62575f5ffd5b939660209190910195509293505050565b602081525f82516101606020840152611c906101808401826119ff565b90506020840151601f19848303016040850152611cad82826119ff565b9150506040840151601f19848303016060850152611ccb82826119ff565b9150506060840151601f19848303016080850152611ce982826119ff565b9150506080840151601f198483030160a0850152611d0782826119ff565b91505060a084015160c084015260c0840151611d2e60e08501826001600160a01b03169052565b5060e084015180151561010085015250610100840151801515610120850152506101208401516101408401526101408401516101608401528091505092915050565b604081525f611d8260408301856119ff565b90508260208301529392505050565b5f60208284031215611da1575f5ffd5b5051919050565b5f81518060208401855e5f93019283525090919050565b5f6118888284611da8565b602081525f61188860208301846119ff565b5f60208284031215611dec575f5ffd5b815160ff81168114611888575f5ffd5b634e487b7160e01b5f52601160045260245ffd5b6001815b6001841115611e4b57808504811115611e2f57611e2f611dfc565b6001841615611e3d57908102905b60019390931c928002611e14565b935093915050565b5f82611e61575060016105da565b81611e6d57505f6105da565b8160018114611e835760028114611e8d57611ea9565b60019150506105da565b60ff841115611e9e57611e9e611dfc565b50506001821b6105da565b5060208310610133831016604e8410600b8410161715611ecc575081810a6105da565b611ed85f198484611e10565b805f1904821115611eeb57611eeb611dfc565b029392505050565b5f61188860ff841683611e53565b80820281158282048414176105da576105da611dfc565b5f82601f830112611f27575f5ffd5b8151611f356117e3826117a0565b818152846020838601011115611f49575f5ffd5b8160208501602083015e5f918101602001919091529392505050565b5f82601f830112611f74575f5ffd5b81516001600160401b03811115611f8d57611f8d6116ef565b8060051b611f9d60208201611770565b91825260208185018101929081019086841115611fb8575f5ffd5b6020860192505b83831015611ffd5782516001600160401b03811115611fdc575f5ffd5b611feb886020838a0101611f18565b83525060209283019290910190611fbf565b9695505050505050565b5f60208284031215612017575f5ffd5b81516001600160401b0381111561202c575f5ffd5b61068384828501611f65565b5f6001820161204957612049611dfc565b5060010190565b808201808211156105da576105da611dfc565b80518015158114612072575f5ffd5b919050565b5f60208284031215612087575f5ffd5b61188882612063565b5f602082840312156120a0575f5ffd5b81516001600160401b038111156120b5575f5ffd5b820160c081850312156120c6575f5ffd5b6120ce611703565b8151815260208083015190820152604080830151908201526060808301519082015260808201516001600160401b03811115612108575f5ffd5b61211486828501611f65565b60808301525061212660a08301612063565b60a0820152949350505050565b634e487b7160e01b5f52603260045260245ffd5b5f823560de1983360301811261215b575f5ffd5b9190910192915050565b5f60e08236031215612175575f5ffd5b61217d61172b565b82356001600160401b03811115612192575f5ffd5b61219e368286016117c6565b82525060208301356001600160401b038111156121b9575f5ffd5b6121c5368286016117c6565b60208301525060408301356001600160401b038111156121e3575f5ffd5b6121ef368286016117c6565b60408301525060608301356001600160401b0381111561220d575f5ffd5b612219368286016117c6565b60608301525060808301356001600160401b03811115612237575f5ffd5b612243368286016117c6565b60808301525060a0838101359082015260c092830135928101929092525090565b5f5f60408385031215612275575f5ffd5b505080516020909101519092909150565b805161207281611859565b5f602082840312156122a1575f5ffd5b81516001600160401b038111156122b6575f5ffd5b820161016081850312156122c8575f5ffd5b6122d061174d565b81516001600160401b038111156122e5575f5ffd5b6122f186828501611f18565b82525060208201516001600160401b0381111561230c575f5ffd5b61231886828501611f18565b60208301525060408201516001600160401b03811115612336575f5ffd5b61234286828501611f18565b60408301525060608201516001600160401b03811115612360575f5ffd5b61236c86828501611f18565b60608301525060808201516001600160401b0381111561238a575f5ffd5b61239686828501611f18565b60808301525060a082810151908201526123b260c08301612286565b60c08201526123c360e08301612063565b60e08201526123d56101008301612063565b610100820152610120828101519082015261014091820151918101919091529392505050565b6502ca2a99016960d51b81525f6118886006830184611da8565b64765945532d60d81b81525f6118886005830184611da8565b606081525f61244060608301866119ff565b828103602084015261245281866119ff565b90508281036040840152611ffd81856119ff565b5f60208284031215612476575f5ffd5b815161188881611859565b606081525f61249360608301866119ff565b6001600160a01b0394851660208401529290931660409091015292915050565b60e081525f6124c560e083018a6119ff565b82810360208401526124d7818a6119ff565b905082810360408401526124eb81896119ff565b905082810360608401526124ff81886119ff565b9050828103608084015261251381876119ff565b60a084019590955250506001600160a01b039190911660c09091015295945050505050565b606081525f61254a60608301866119ff565b6001600160a01b03949094166020830152506040015291905056fea2646970667358221220bac2d4f8cd3bbc8d29b0cb9eb02312af01914abfaef80dbea6600d30135e2fa464736f6c634300081f0033608060405234801561000f575f5ffd5b50336040518060400160405280601081526020016f2b34b93a3ab0b6102aa9a21021b7b4b760811b81525060405180604001604052806005815260200164765553444360d81b8152508160039081610067919061031d565b506004610074828261031d565b5050506001600160a01b0381166100a557604051631e4fbdf760e01b81525f60048201526024015b60405180910390fd5b6100ae816100d6565b506100d1336100bf6012600a6104d0565b6100cc90620f42406104e5565b610127565b61050f565b600580546001600160a01b038381166001600160a01b0319831681179093556040519116919082907f8be0079c531659141344cd1fd0a4f28419497f9722a3daafe3b4186f6b6457e0905f90a35050565b6001600160a01b0382166101505760405163ec442f0560e01b81525f600482015260240161009c565b61015b5f838361015f565b5050565b6001600160a01b038316610189578060025f82825461017e91906104fc565b909155506101f99050565b6001600160a01b0383165f90815260208190526040902054818110156101db5760405163391434e360e21b81526001600160a01b0385166004820152602481018290526044810183905260640161009c565b6001600160a01b0384165f9081526020819052604090209082900390555b6001600160a01b03821661021557600280548290039055610233565b6001600160a01b0382165f9081526020819052604090208054820190555b816001600160a01b0316836001600160a01b03167fddf252ad1be2c89b69c2b068fc378daa952ba7f163c4a11628f55a4df523b3ef8360405161027891815260200190565b60405180910390a3505050565b634e487b7160e01b5f52604160045260245ffd5b600181811c908216806102ad57607f821691505b6020821081036102cb57634e487b7160e01b5f52602260045260245ffd5b50919050565b601f82111561031857805f5260205f20601f840160051c810160208510156102f65750805b601f840160051c820191505b81811015610315575f8155600101610302565b50505b505050565b81516001600160401b0381111561033657610336610285565b61034a816103448454610299565b846102d1565b6020601f82116001811461037c575f83156103655750848201515b5f19600385901b1c1916600184901b178455610315565b5f84815260208120601f198516915b828110156103ab578785015182556020948501946001909201910161038b565b50848210156103c857868401515f19600387901b60f8161c191681555b50505050600190811b01905550565b634e487b7160e01b5f52601160045260245ffd5b6001815b60018411156104265780850481111561040a5761040a6103d7565b600184161561041857908102905b60019390931c9280026103ef565b935093915050565b5f8261043c575060016104ca565b8161044857505f6104ca565b816001811461045e576002811461046857610484565b60019150506104ca565b60ff841115610479576104796103d7565b50506001821b6104ca565b5060208310610133831016604e8410600b84101617156104a7575081810a6104ca565b6104b35f1984846103eb565b805f19048211156104c6576104c66103d7565b0290505b92915050565b5f6104de60ff84168361042e565b9392505050565b80820281158282048414176104ca576104ca6103d7565b808201808211156104ca576104ca6103d7565b610dd38061051c5f395ff3fe608060405234801561000f575f5ffd5b506004361061011c575f3560e01c8063715018a6116100a9578063aa2fe91b1161006e578063aa2fe91b14610249578063cfbd48851461026b578063dd62ed3e1461027e578063ee67a1e5146102b6578063f2fde38b146102c9575f5ffd5b8063715018a6146101f85780638da5cb5b1461020057806395d89b411461021b5780639dc29fac14610223578063a9059cbb14610236575f5ffd5b806323b872dd116100ef57806323b872dd14610188578063313ce5671461019b57806340c10f19146101aa57806357915897146101bd57806370a08231146101d0575f5ffd5b806306fdde0314610120578063095ea7b31461013e5780630c9848321461016157806318160ddd14610176575b5f5ffd5b6101286102dc565b6040516101359190610b1c565b60405180910390f35b61015161014c366004610b6c565b61036c565b6040519015158152602001610135565b61017461016f366004610b94565b610385565b005b6002545b604051908152602001610135565b610151610196366004610bb4565b61042c565b60405160128152602001610135565b6101746101b8366004610b6c565b61044f565b6101746101cb366004610bee565b6104f7565b61017a6101de366004610b94565b6001600160a01b03165f9081526020819052604090205490565b6101746105a0565b6005546040516001600160a01b039091168152602001610135565b6101286105b3565b610174610231366004610b6c565b6105c2565b610151610244366004610b6c565b61065e565b610151610257366004610b94565b60066020525f908152604090205460ff1681565b610174610279366004610b94565b61066b565b61017a61028c366004610c05565b6001600160a01b039182165f90815260016020908152604080832093909416825291909152205490565b6101746102c4366004610b6c565b6106bb565b6101746102d7366004610b94565b610712565b6060600380546102eb90610c36565b80601f016020809104026020016040519081016040528092919081815260200182805461031790610c36565b80156103625780601f1061033957610100808354040283529160200191610362565b820191905f5260205f20905b81548152906001019060200180831161034557829003601f168201915b5050505050905090565b5f3361037981858561074f565b60019150505b92915050565b61038d610761565b6001600160a01b0381166103e15760405162461bcd60e51b8152602060048201526016602482015275496e76616c6964206d696e746572206164647265737360501b60448201526064015b60405180910390fd5b6001600160a01b0381165f81815260066020526040808220805460ff19166001179055517f83b05b6735acd4b85e3bded8e72c851d1a87718f81e3c8e6f0c9d9a2baa88e469190a250565b5f3361043985828561078e565b61044485858561080a565b506001949350505050565b335f9081526006602052604090205460ff166104a65760405162461bcd60e51b8152602060048201526016602482015275139bdd08185d5d1a1bdc9a5e9959081d1bc81b5a5b9d60521b60448201526064016103d8565b6104b08282610867565b816001600160a01b03167f3f2c9d57c068687834f0de942a9babb9e5acab57d516d3480a3c16ee165a4273826040516104eb91815260200190565b60405180910390a25050565b6105036012600a610d65565b61050f906103e8610d73565b81111561055e5760405162461bcd60e51b815260206004820152601860248201527f4d617820313030302076555344432070657220636c61696d000000000000000060448201526064016103d8565b6105683382610867565b60405181815233907f3f2c9d57c068687834f0de942a9babb9e5acab57d516d3480a3c16ee165a42739060200160405180910390a250565b6105a8610761565b6105b15f61089f565b565b6060600480546102eb90610c36565b335f9081526006602052604090205460ff166106195760405162461bcd60e51b81526020600482015260166024820152752737ba1030baba3437b934bd32b2103a3790313ab93760511b60448201526064016103d8565b61062382826108f0565b816001600160a01b03167ffd38818f5291bf0bb3a2a48aadc06ba8757865d1dabd804585338aab3009dcb6826040516104eb91815260200190565b5f3361037981858561080a565b610673610761565b6001600160a01b0381165f81815260066020526040808220805460ff19169055517f44f4322f8daa225d5f4877ad0f7d3dfba248a774396f3ca99405ed40a044fe819190a250565b335f9081526006602052604090205460ff166104a65760405162461bcd60e51b815260206004820152601660248201527527b7363c9030baba3437b934bd32b2103937baba32b960511b60448201526064016103d8565b61071a610761565b6001600160a01b03811661074357604051631e4fbdf760e01b81525f60048201526024016103d8565b61074c8161089f565b50565b61075c8383836001610924565b505050565b6005546001600160a01b031633146105b15760405163118cdaa760e01b81523360048201526024016103d8565b6001600160a01b038381165f908152600160209081526040808320938616835292905220545f1981101561080457818110156107f657604051637dc7a0d960e11b81526001600160a01b038416600482015260248101829052604481018390526064016103d8565b61080484848484035f610924565b50505050565b6001600160a01b03831661083357604051634b637e8f60e11b81525f60048201526024016103d8565b6001600160a01b03821661085c5760405163ec442f0560e01b81525f60048201526024016103d8565b61075c8383836109f6565b6001600160a01b0382166108905760405163ec442f0560e01b81525f60048201526024016103d8565b61089b5f83836109f6565b5050565b600580546001600160a01b038381166001600160a01b0319831681179093556040519116919082907f8be0079c531659141344cd1fd0a4f28419497f9722a3daafe3b4186f6b6457e0905f90a35050565b6001600160a01b03821661091957604051634b637e8f60e11b81525f60048201526024016103d8565b61089b825f836109f6565b6001600160a01b03841661094d5760405163e602df0560e01b81525f60048201526024016103d8565b6001600160a01b03831661097657604051634a1406b160e11b81525f60048201526024016103d8565b6001600160a01b038085165f908152600160209081526040808320938716835292905220829055801561080457826001600160a01b0316846001600160a01b03167f8c5be1e5ebec7d5bd14f71427d1e84f3dd0314c0f7b2291e5b200ac8c7c3b925846040516109e891815260200190565b60405180910390a350505050565b6001600160a01b038316610a20578060025f828254610a159190610d8a565b90915550610a909050565b6001600160a01b0383165f9081526020819052604090205481811015610a725760405163391434e360e21b81526001600160a01b038516600482015260248101829052604481018390526064016103d8565b6001600160a01b0384165f9081526020819052604090209082900390555b6001600160a01b038216610aac57600280548290039055610aca565b6001600160a01b0382165f9081526020819052604090208054820190555b816001600160a01b0316836001600160a01b03167fddf252ad1be2c89b69c2b068fc378daa952ba7f163c4a11628f55a4df523b3ef83604051610b0f91815260200190565b60405180910390a3505050565b602081525f82518060208401528060208501604085015e5f604082850101526040601f19601f83011684010191505092915050565b80356001600160a01b0381168114610b67575f5ffd5b919050565b5f5f60408385031215610b7d575f5ffd5b610b8683610b51565b946020939093013593505050565b5f60208284031215610ba4575f5ffd5b610bad82610b51565b9392505050565b5f5f5f60608486031215610bc6575f5ffd5b610bcf84610b51565b9250610bdd60208501610b51565b929592945050506040919091013590565b5f60208284031215610bfe575f5ffd5b5035919050565b5f5f60408385031215610c16575f5ffd5b610c1f83610b51565b9150610c2d60208401610b51565b90509250929050565b600181811c90821680610c4a57607f821691505b602082108103610c6857634e487b7160e01b5f52602260045260245ffd5b50919050565b634e487b7160e01b5f52601160045260245ffd5b6001815b6001841115610cbd57808504811115610ca157610ca1610c6e565b6001841615610caf57908102905b60019390931c928002610c86565b935093915050565b5f82610cd35750600161037f565b81610cdf57505f61037f565b8160018114610cf55760028114610cff57610d1b565b600191505061037f565b60ff841115610d1057610d10610c6e565b50506001821b61037f565b5060208310610133831016604e8410600b8410161715610d3e575081810a61037f565b610d4a5f198484610c82565b805f1904821115610d5d57610d5d610c6e565b029392505050565b5f610bad60ff841683610cc5565b808202811582820484141761037f5761037f610c6e565b8082018082111561037f5761037f610c6e56fea264697066735822122043cd7d7a5632cd3347847f33e0bfd174ffbcf46111a98f002d4870b8a5a1f5e564736f6c634300081f00336080604052348015600e575f5ffd5b505f80546001600160a01b03191633179055611e3a8061002d5f395ff3fe608060405234801561000f575f5ffd5b5060043610610110575f3560e01c80639d13a9f41161009e578063dac6270d1161006e578063dac6270d14610277578063ebf1f1c41461028d578063f85ea2ab146102a0578063fc81587a146102b3578063ffa0d2a4146102bb575f5ffd5b80639d13a9f4146101f7578063a1794bcd1461020a578063c6675cc91461021d578063c7604fec14610264575f5ffd5b806350c9457c116100e457806350c9457c1461017a5780635584c4f91461019a578063613ace16146101a257806380821c37146101b85780638da5cb5b146101cd575f5ffd5b8062c88c06146101145780630446c3e61461012957806325d3a09d1461013c57806345ee99a914610165575b5f5ffd5b610127610122366004611695565b6102e5565b005b6101276101373660046116d7565b61048c565b61014f61014a3660046116d7565b610543565b60405161015c919061173f565b60405180910390f35b61016d6108fb565b60405161015c919061183c565b61018d61018836600461189f565b6109cf565b60405161015c91906118b6565b61016d610a75565b60075460ff16604051901515815260200161015c565b6101c0610b40565b60405161015c91906118cf565b5f546101df906001600160a01b031681565b6040516001600160a01b03909116815260200161015c565b61018d61020536600461189f565b610c89565b6001546101df906001600160a01b031681565b60025460035460045460055460075461023a949392919060ff1685565b6040805195865260208601949094529284019190915260608301521515608082015260a00161015c565b610127610272366004611974565b610c98565b61027f610dc7565b60405190815260200161015c565b61012761029b3660046119af565b610dfa565b6101276102ae366004611aab565b6110d6565b610127611186565b6102ce6102c93660046116d7565b611212565b60405161015c9b9a99989796959493929190611ac4565b6001546001600160a01b031633146103185760405162461bcd60e51b815260040161030f90611b71565b60405180910390fd5b5f6008836040516103299190611b9f565b908152602001604051809103902090505f815f01805461034890611bb5565b90501161038c5760405162461bcd60e51b8152602060048201526012602482015271141c9bdc1bdcd85b081b9bdd08199bdd5b9960721b604482015260640161030f565b6006810154600160a01b900460ff16156103db5760405162461bcd60e51b815260206004820152601060248201526f105b1c9958591e481c995cdbdb1d995960821b604482015260640161030f565b60068101805461ffff60a01b191661010160a01b17905560078101829055600980546001810182555f919091527f6e1540171b6c0c960b71a7020d9f60077f6af931a8bbf590da0223dacf75c7af016104348482611c39565b50826040516104439190611b9f565b60405180910390207f31856aa0754657abc49198c86057d12da4ad8b4986472692aa330310682da1c6826001018460405161047f929190611cf4565b60405180910390a2505050565b6001546001600160a01b031633146104b65760405162461bcd60e51b815260040161030f90611b71565b60075460ff166104fb5760405162461bcd60e51b815260206004820152601060248201526f139bc81858dd1a5d99481b585c9ad95d60821b604482015260640161030f565b6007805460ff191690556002546040517f2ec1f84b4079525f1ab2216f53a16f520efec75c91c517667151e55bbea7b9ec91610538918490611d83565b60405180910390a150565b6105a760405180610160016040528060608152602001606081526020016060815260200160608152602001606081526020015f81526020015f6001600160a01b031681526020015f151581526020015f151581526020015f81526020015f81525090565b6008826040516105b79190611b9f565b9081526020016040518091039020604051806101600160405290815f820180546105e090611bb5565b80601f016020809104026020016040519081016040528092919081815260200182805461060c90611bb5565b80156106575780601f1061062e57610100808354040283529160200191610657565b820191905f5260205f20905b81548152906001019060200180831161063a57829003601f168201915b5050505050815260200160018201805461067090611bb5565b80601f016020809104026020016040519081016040528092919081815260200182805461069c90611bb5565b80156106e75780601f106106be576101008083540402835291602001916106e7565b820191905f5260205f20905b8154815290600101906020018083116106ca57829003601f168201915b5050505050815260200160028201805461070090611bb5565b80601f016020809104026020016040519081016040528092919081815260200182805461072c90611bb5565b80156107775780601f1061074e57610100808354040283529160200191610777565b820191905f5260205f20905b81548152906001019060200180831161075a57829003601f168201915b5050505050815260200160038201805461079090611bb5565b80601f01602080910402602001604051908101604052809291908181526020018280546107bc90611bb5565b80156108075780601f106107de57610100808354040283529160200191610807565b820191905f5260205f20905b8154815290600101906020018083116107ea57829003601f168201915b5050505050815260200160048201805461082090611bb5565b80601f016020809104026020016040519081016040528092919081815260200182805461084c90611bb5565b80156108975780601f1061086e57610100808354040283529160200191610897565b820191905f5260205f20905b81548152906001019060200180831161087a57829003601f168201915b50505091835250506005820154602082015260068201546001600160a01b038116604083015260ff600160a01b8204811615156060840152600160a81b9091041615156080820152600782015460a082015260089091015460c09091015292915050565b60606009805480602002602001604051908101604052809291908181526020015f905b828210156109c6578382905f5260205f2001805461093b90611bb5565b80601f016020809104026020016040519081016040528092919081815260200182805461096790611bb5565b80156109b25780601f10610989576101008083540402835291602001916109b2565b820191905f5260205f20905b81548152906001019060200180831161099557829003601f168201915b50505050508152602001906001019061091e565b50505050905090565b600a81815481106109de575f80fd5b905f5260205f20015f9150905080546109f690611bb5565b80601f0160208091040260200160405190810160405280929190818152602001828054610a2290611bb5565b8015610a6d5780601f10610a4457610100808354040283529160200191610a6d565b820191905f5260205f20905b815481529060010190602001808311610a5057829003601f168201915b505050505081565b6060600a805480602002602001604051908101604052809291908181526020015f905b828210156109c6578382905f5260205f20018054610ab590611bb5565b80601f0160208091040260200160405190810160405280929190818152602001828054610ae190611bb5565b8015610b2c5780601f10610b0357610100808354040283529160200191610b2c565b820191905f5260205f20905b815481529060010190602001808311610b0f57829003601f168201915b505050505081526020019060010190610a98565b610b766040518060c001604052805f81526020015f81526020015f81526020015f8152602001606081526020015f151581525090565b6040805160c08101825260028054825260035460208084019190915260045483850152600554606084015260068054855181840281018401909652808652939492936080860193925f9084015b82821015610c6b578382905f5260205f20018054610be090611bb5565b80601f0160208091040260200160405190810160405280929190818152602001828054610c0c90611bb5565b8015610c575780601f10610c2e57610100808354040283529160200191610c57565b820191905f5260205f20905b815481529060010190602001808311610c3a57829003601f168201915b505050505081526020019060010190610bc3565b505050908252506005919091015460ff161515602090910152919050565b600981815481106109de575f80fd5b6001546001600160a01b03163314610cc25760405162461bcd60e51b815260040161030f90611b71565b6040518060c001604052808381526020014281526020018242610ce59190611daf565b81526020808201849052604080515f808252928101825292019190610d1a565b6060815260200190600190039081610d055790505b5081526001602091820152815160029081558282015160035560408301516004556060830151600555608083015180519192610d5c9260069290910190611522565b5060a091909101516005909101805460ff19169115159190911790557fed25ec23d979bebc7c6a7e5ffebb0fbd64b71f7e6dc13dec21f220f5b91081b98242610da58482611daf565b6040805193845260208401929092529082015260600160405180910390a15050565b6007545f9060ff161580610ddd57506004544210155b15610de757505f90565b600454610df5904290611dc8565b905090565b6001546001600160a01b03163314610e245760405162461bcd60e51b815260040161030f90611b71565b60075460ff16610e695760405162461bcd60e51b815260206004820152601060248201526f139bc81858dd1a5d99481b585c9ad95d60821b604482015260640161030f565b6001600160a01b038116610eb65760405162461bcd60e51b8152602060048201526014602482015273496e76616c696420706f6f6c206164647265737360601b604482015260640161030f565b604051806101600160405280888152602001878152602001868152602001858152602001848152602001838152602001826001600160a01b031681526020015f151581526020015f151581526020015f815260200142815250600888604051610f1f9190611b9f565b90815260405190819003602001902081518190610f3c9082611c39565b5060208201516001820190610f519082611c39565b5060408201516002820190610f669082611c39565b5060608201516003820190610f7b9082611c39565b5060808201516004820190610f909082611c39565b5060a0820151600582015560c08201516006808301805460e08601516101008701511515600160a81b0260ff60a81b19911515600160a01b026001600160a81b03199093166001600160a01b039096169590951791909117169290921790915561012083015160078301556101409092015160089091015580546001810182555f919091527ff652222313e28459528d920b65115c16c04f3efc82aaedc97be59f3f377c0d3f016110418882611c39565b50600a80546001810182555f919091527fc65a7bb8d6351c1cf70c95a316cc6a92839c986682d98bc35f958f4883f9d2a80161107d8882611c39565b508660405161108c9190611b9f565b60405180910390207f1958207786f309abb6db88f2a47c5d0bacd26f5196f358e7e73dda7f514fe66987836040516110c5929190611ddb565b60405180910390a250505050505050565b5f546001600160a01b0316331461111c5760405162461bcd60e51b815260206004820152600a60248201526927b7363c9037bbb732b960b11b604482015260640161030f565b6001600160a01b0381166111645760405162461bcd60e51b815260206004820152600f60248201526e496e76616c6964206164647265737360881b604482015260640161030f565b600180546001600160a01b0319166001600160a01b0392909216919091179055565b6001546001600160a01b031633146111b05760405162461bcd60e51b815260040161030f90611b71565b6111bb600a5f611576565b5f6002818155600382905560048290556005829055906111dc600682611576565b50600501805460ff191690556040517fefd8790e3797f9c35fdc61425cc413c2108ef625ec8abdd75e1abdbcc9d7cc92905f90a1565b805160208183018101805160088252928201919093012091528054819061123890611bb5565b80601f016020809104026020016040519081016040528092919081815260200182805461126490611bb5565b80156112af5780601f10611286576101008083540402835291602001916112af565b820191905f5260205f20905b81548152906001019060200180831161129257829003601f168201915b5050505050908060010180546112c490611bb5565b80601f01602080910402602001604051908101604052809291908181526020018280546112f090611bb5565b801561133b5780601f106113125761010080835404028352916020019161133b565b820191905f5260205f20905b81548152906001019060200180831161131e57829003601f168201915b50505050509080600201805461135090611bb5565b80601f016020809104026020016040519081016040528092919081815260200182805461137c90611bb5565b80156113c75780601f1061139e576101008083540402835291602001916113c7565b820191905f5260205f20905b8154815290600101906020018083116113aa57829003601f168201915b5050505050908060030180546113dc90611bb5565b80601f016020809104026020016040519081016040528092919081815260200182805461140890611bb5565b80156114535780601f1061142a57610100808354040283529160200191611453565b820191905f5260205f20905b81548152906001019060200180831161143657829003601f168201915b50505050509080600401805461146890611bb5565b80601f016020809104026020016040519081016040528092919081815260200182805461149490611bb5565b80156114df5780601f106114b6576101008083540402835291602001916114df565b820191905f5260205f20905b8154815290600101906020018083116114c257829003601f168201915b50505050600583015460068401546007850154600890950154939491936001600160a01b038216935060ff600160a01b8304811693600160a81b9093041691908b565b828054828255905f5260205f20908101928215611566579160200282015b8281111561156657825182906115569082611c39565b5091602001919060010190611540565b50611572929150611594565b5090565b5080545f8255905f5260205f20908101906115919190611594565b50565b80821115611572575f6115a782826115b0565b50600101611594565b5080546115bc90611bb5565b5f825580601f106115cb575050565b601f0160209004905f5260205f209081019061159191905b80821115611572575f81556001016115e3565b634e487b7160e01b5f52604160045260245ffd5b5f82601f830112611619575f5ffd5b813567ffffffffffffffff811115611633576116336115f6565b604051601f8201601f19908116603f0116810167ffffffffffffffff81118282101715611662576116626115f6565b604052818152838201602001851015611679575f5ffd5b816020850160208301375f918101602001919091529392505050565b5f5f604083850312156116a6575f5ffd5b823567ffffffffffffffff8111156116bc575f5ffd5b6116c88582860161160a565b95602094909401359450505050565b5f602082840312156116e7575f5ffd5b813567ffffffffffffffff8111156116fd575f5ffd5b6117098482850161160a565b949350505050565b5f81518084528060208401602086015e5f602082860101526020601f19601f83011685010191505092915050565b602081525f8251610160602084015261175c610180840182611711565b90506020840151601f198483030160408501526117798282611711565b9150506040840151601f198483030160608501526117978282611711565b9150506060840151601f198483030160808501526117b58282611711565b9150506080840151601f198483030160a08501526117d38282611711565b91505060a084015160c084015260c08401516117fa60e08501826001600160a01b03169052565b5060e084015180151561010085015250610100840151801515610120850152506101208401516101408401526101408401516101608401528091505092915050565b5f602082016020835280845180835260408501915060408160051b8601019250602086015f5b8281101561189357603f1987860301845261187e858351611711565b94506020938401939190910190600101611862565b50929695505050505050565b5f602082840312156118af575f5ffd5b5035919050565b602081525f6118c86020830184611711565b9392505050565b602081525f60e0820183516020840152602084015160408401526040840151606084015260608401516080840152608084015160c060a0850152818151808452610100860191506101008160051b87010193506020830192505f5b8181101561195b5760ff19878603018352611946858551611711565b9450602093840193929092019160010161192a565b5050505060a084015180151560c0850152509392505050565b5f5f60408385031215611985575f5ffd5b50508035926020909101359150565b80356001600160a01b03811681146119aa575f5ffd5b919050565b5f5f5f5f5f5f5f60e0888a0312156119c5575f5ffd5b873567ffffffffffffffff8111156119db575f5ffd5b6119e78a828b0161160a565b975050602088013567ffffffffffffffff811115611a03575f5ffd5b611a0f8a828b0161160a565b965050604088013567ffffffffffffffff811115611a2b575f5ffd5b611a378a828b0161160a565b955050606088013567ffffffffffffffff811115611a53575f5ffd5b611a5f8a828b0161160a565b945050608088013567ffffffffffffffff811115611a7b575f5ffd5b611a878a828b0161160a565b93505060a08801359150611a9d60c08901611994565b905092959891949750929550565b5f60208284031215611abb575f5ffd5b6118c882611994565b61016081525f611ad861016083018e611711565b8281036020840152611aea818e611711565b90508281036040840152611afe818d611711565b90508281036060840152611b12818c611711565b90508281036080840152611b26818b611711565b60a084018a90526001600160a01b03891660c085015287151560e08501528615156101008501529150611b569050565b61012082019390935261014001529998505050505050505050565b60208082526014908201527313db9b1e481b585c9ad95d0818dbdb9d1c9858dd60621b604082015260600190565b5f82518060208501845e5f920191825250919050565b600181811c90821680611bc957607f821691505b602082108103611be757634e487b7160e01b5f52602260045260245ffd5b50919050565b601f821115611c3457805f5260205f20601f840160051c81016020851015611c125750805b601f840160051c820191505b81811015611c31575f8155600101611c1e565b50505b505050565b815167ffffffffffffffff811115611c5357611c536115f6565b611c6781611c618454611bb5565b84611bed565b6020601f821160018114611c99575f8315611c825750848201515b5f19600385901b1c1916600184901b178455611c31565b5f84815260208120601f198516915b82811015611cc85787850151825560209485019460019092019101611ca8565b5084821015611ce557868401515f19600387901b60f8161c191681555b50505050600190811b01905550565b604081525f5f8454611d0581611bb5565b806040860152600182165f8114611d235760018114611d3f57611d70565b60ff1983166060870152606082151560051b8701019350611d70565b875f5260205f205f5b83811015611d6757815488820160600152600190910190602001611d48565b87016060019450505b5050506020929092019290925292915050565b828152604060208201525f6117096040830184611711565b634e487b7160e01b5f52601160045260245ffd5b80820180821115611dc257611dc2611d9b565b92915050565b81810381811115611dc257611dc2611d9b565b604081525f611ded6040830185611711565b905060018060a01b0383166020830152939250505056fea264697066735822122092f020242242066c1bcb4488b718fbf6d3a15a6c9ca4e6bcb2da58477cc9f13c64736f6c634300081f00336080604052348015600e575f5ffd5b503380603357604051631e4fbdf760e01b81525f600482015260240160405180910390fd5b603a81603f565b50608e565b5f80546001600160a01b038381166001600160a01b0319831681178455604051919092169283917f8be0079c531659141344cd1fd0a4f28419497f9722a3daafe3b4186f6b6457e09190a35050565b6117658061009b5f395ff3fe608060405234801561000f575f5ffd5b50600436106100a6575f3560e01c80638da5cb5b1161006e5780638da5cb5b1461013c57806396cfacb11461014c578063a1794bcd14610161578063b591b96c14610174578063f2fde38b14610187578063f85ea2ab1461019a575f5ffd5b80631a713103146100aa578063715018a6146100da57806374495c7a146100e457806378a89567146100f757806388abb85f14610108575b5f5ffd5b6100bd6100b83660046105c5565b6101ad565b6040516001600160a01b0390911681526020015b60405180910390f35b6100e26101d5565b005b6100bd6100f236600461067b565b6101e8565b6002546040519081526020016100d1565b6100bd61011636600461067b565b80516020818301810180516001825292820191909301209152546001600160a01b031681565b5f546001600160a01b03166100bd565b610154610218565b6040516100d191906106b5565b6003546100bd906001600160a01b031681565b6100bd610182366004610700565b610278565b6100e261019536600461078e565b61048e565b6100e26101a836600461078e565b6104cb565b600281815481106101bc575f80fd5b5f918252602090912001546001600160a01b0316905081565b6101dd61053d565b6101e65f610569565b565b5f6001826040516101f991906107bb565b908152604051908190036020019020546001600160a01b031692915050565b6060600280548060200260200160405190810160405280929190818152602001828054801561026e57602002820191905f5260205f20905b81546001600160a01b03168152600190910190602001808311610250575b5050505050905090565b6003545f906001600160a01b031633146102d05760405162461bcd60e51b815260206004820152601460248201527313db9b1e481b585c9ad95d0818dbdb9d1c9858dd60621b60448201526064015b60405180910390fd5b5f8383866040516102e0906105b8565b6102ec939291906107ff565b604051809103905ff080158015610305573d5f5f3e3d5ffd5b5060035460405163f85ea2ab60e01b81526001600160a01b03918216600482015291925082169063f85ea2ab906024015f604051808303815f87803b15801561034c575f5ffd5b505af115801561035e573d5f5f3e3d5ffd5b505060035460405163f2fde38b60e01b81526001600160a01b039182166004820152908416925063f2fde38b91506024015f604051808303815f87803b1580156103a6575f5ffd5b505af11580156103b8573d5f5f3e3d5ffd5b50505050809150816001866040516103d091906107bb565b90815260405190819003602001812080546001600160a01b039384166001600160a01b031991821617909155600280546001810182555f919091527f405787fa12a823e0f2b7631cc41b3ba8828b3321ca811111fa75cd3aa3bb5ace01805493861693909116831790556104459087906107bb565b60405180910390207fcb67f4244fdb0d056d8d8d1c81e7d391725e948c66d829177657cf8e196a6863868660405161047e929190610841565b60405180910390a3509392505050565b61049661053d565b6001600160a01b0381166104bf57604051631e4fbdf760e01b81525f60048201526024016102c7565b6104c881610569565b50565b6104d361053d565b6001600160a01b03811661051b5760405162461bcd60e51b815260206004820152600f60248201526e496e76616c6964206164647265737360881b60448201526064016102c7565b600380546001600160a01b0319166001600160a01b0392909216919091179055565b5f546001600160a01b031633146101e65760405163118cdaa760e01b81523360048201526024016102c7565b5f80546001600160a01b038381166001600160a01b0319831681178455604051919092169283917f8be0079c531659141344cd1fd0a4f28419497f9722a3daafe3b4186f6b6457e09190a35050565b610ec18061086f83390190565b5f602082840312156105d5575f5ffd5b5035919050565b634e487b7160e01b5f52604160045260245ffd5b5f82601f8301126105ff575f5ffd5b813567ffffffffffffffff811115610619576106196105dc565b604051601f8201601f19908116603f0116810167ffffffffffffffff81118282101715610648576106486105dc565b60405281815283820160200185101561065f575f5ffd5b816020850160208301375f918101602001919091529392505050565b5f6020828403121561068b575f5ffd5b813567ffffffffffffffff8111156106a1575f5ffd5b6106ad848285016105f0565b949350505050565b602080825282518282018190525f918401906040840190835b818110156106f55783516001600160a01b03168352602093840193909201916001016106ce565b509095945050505050565b5f5f5f60608486031215610712575f5ffd5b833567ffffffffffffffff811115610728575f5ffd5b610734868287016105f0565b935050602084013567ffffffffffffffff811115610750575f5ffd5b61075c868287016105f0565b925050604084013567ffffffffffffffff811115610778575f5ffd5b610784868287016105f0565b9150509250925092565b5f6020828403121561079e575f5ffd5b81356001600160a01b03811681146107b4575f5ffd5b9392505050565b5f82518060208501845e5f920191825250919050565b5f81518084528060208401602086015e5f602082860101526020601f19601f83011685010191505092915050565b606081525f61081160608301866107d1565b828103602084015261082381866107d1565b9050828103604084015261083781856107d1565b9695505050505050565b604081525f61085360408301856107d1565b828103602084015261086581856107d1565b9594505050505056fe608060405234801561000f575f5ffd5b50604051610ec1380380610ec183398101604081905261002e91610187565b338383600361003d838261029a565b50600461004a828261029a565b5050506001600160a01b03811661007a57604051631e4fbdf760e01b81525f600482015260240160405180910390fd5b61008381610099565b506006610090828261029a565b50505050610354565b600580546001600160a01b038381166001600160a01b0319831681179093556040519116919082907f8be0079c531659141344cd1fd0a4f28419497f9722a3daafe3b4186f6b6457e0905f90a35050565b634e487b7160e01b5f52604160045260245ffd5b5f82601f83011261010d575f5ffd5b81516001600160401b03811115610126576101266100ea565b604051601f8201601f19908116603f011681016001600160401b0381118282101715610154576101546100ea565b60405281815283820160200185101561016b575f5ffd5b8160208501602083015e5f918101602001919091529392505050565b5f5f5f60608486031215610199575f5ffd5b83516001600160401b038111156101ae575f5ffd5b6101ba868287016100fe565b602086015190945090506001600160401b038111156101d7575f5ffd5b6101e3868287016100fe565b604086015190935090506001600160401b03811115610200575f5ffd5b61020c868287016100fe565b9150509250925092565b600181811c9082168061022a57607f821691505b60208210810361024857634e487b7160e01b5f52602260045260245ffd5b50919050565b601f82111561029557805f5260205f20601f840160051c810160208510156102735750805b601f840160051c820191505b81811015610292575f815560010161027f565b50505b505050565b81516001600160401b038111156102b3576102b36100ea565b6102c7816102c18454610216565b8461024e565b6020601f8211600181146102f9575f83156102e25750848201515b5f19600385901b1c1916600184901b178455610292565b5f84815260208120601f198516915b828110156103285787850151825560209485019460019092019101610308565b508482101561034557868401515f19600387901b60f8161c191681555b50505050600190811b01905550565b610b60806103615f395ff3fe608060405234801561000f575f5ffd5b5060043610610106575f3560e01c8063715018a61161009e578063a1794bcd1161006e578063a1794bcd1461020c578063a9059cbb1461021f578063dd62ed3e14610232578063f2fde38b1461026a578063f85ea2ab1461027d575f5ffd5b8063715018a6146101c45780638da5cb5b146101cc57806395d89b41146101f15780639dc29fac146101f9575f5ffd5b80632dfca445116100d95780632dfca44514610170578063313ce5671461017857806340c10f191461018757806370a082311461019c575f5ffd5b806306fdde031461010a578063095ea7b31461012857806318160ddd1461014b57806323b872dd1461015d575b5f5ffd5b610112610290565b60405161011f91906109d0565b60405180910390f35b61013b610136366004610a20565b610320565b604051901515815260200161011f565b6002545b60405190815260200161011f565b61013b61016b366004610a48565b610339565b61011261035c565b6040516012815260200161011f565b61019a610195366004610a20565b6103e8565b005b61014f6101aa366004610a82565b6001600160a01b03165f9081526020819052604090205490565b61019a61048f565b6005546001600160a01b03165b6040516001600160a01b03909116815260200161011f565b6101126104a2565b61019a610207366004610a20565b6104b1565b6007546101d9906001600160a01b031681565b61013b61022d366004610a20565b610547565b61014f610240366004610aa2565b6001600160a01b039182165f90815260016020908152604080832093909416825291909152205490565b61019a610278366004610a82565b610554565b61019a61028b366004610a82565b610591565b60606003805461029f90610ad3565b80601f01602080910402602001604051908101604052809291908181526020018280546102cb90610ad3565b80156103165780601f106102ed57610100808354040283529160200191610316565b820191905f5260205f20905b8154815290600101906020018083116102f957829003601f168201915b5050505050905090565b5f3361032d818585610603565b60019150505b92915050565b5f33610346858285610615565b610351858585610691565b506001949350505050565b6006805461036990610ad3565b80601f016020809104026020016040519081016040528092919081815260200182805461039590610ad3565b80156103e05780601f106103b7576101008083540402835291602001916103e0565b820191905f5260205f20905b8154815290600101906020018083116103c357829003601f168201915b505050505081565b6007546001600160a01b0316331461043e5760405162461bcd60e51b815260206004820152601460248201527313db9b1e481b585c9ad95d0818dbdb9d1c9858dd60621b60448201526064015b60405180910390fd5b61044882826106ee565b816001600160a01b03167f3f2c9d57c068687834f0de942a9babb9e5acab57d516d3480a3c16ee165a42738260405161048391815260200190565b60405180910390a25050565b610497610726565b6104a05f610753565b565b60606004805461029f90610ad3565b6007546001600160a01b031633146105025760405162461bcd60e51b815260206004820152601460248201527313db9b1e481b585c9ad95d0818dbdb9d1c9858dd60621b6044820152606401610435565b61050c82826107a4565b816001600160a01b03167ffd38818f5291bf0bb3a2a48aadc06ba8757865d1dabd804585338aab3009dcb68260405161048391815260200190565b5f3361032d818585610691565b61055c610726565b6001600160a01b03811661058557604051631e4fbdf760e01b81525f6004820152602401610435565b61058e81610753565b50565b610599610726565b6001600160a01b0381166105e15760405162461bcd60e51b815260206004820152600f60248201526e496e76616c6964206164647265737360881b6044820152606401610435565b600780546001600160a01b0319166001600160a01b0392909216919091179055565b61061083838360016107d8565b505050565b6001600160a01b038381165f908152600160209081526040808320938616835292905220545f1981101561068b578181101561067d57604051637dc7a0d960e11b81526001600160a01b03841660048201526024810182905260448101839052606401610435565b61068b84848484035f6107d8565b50505050565b6001600160a01b0383166106ba57604051634b637e8f60e11b81525f6004820152602401610435565b6001600160a01b0382166106e35760405163ec442f0560e01b81525f6004820152602401610435565b6106108383836108aa565b6001600160a01b0382166107175760405163ec442f0560e01b81525f6004820152602401610435565b6107225f83836108aa565b5050565b6005546001600160a01b031633146104a05760405163118cdaa760e01b8152336004820152602401610435565b600580546001600160a01b038381166001600160a01b0319831681179093556040519116919082907f8be0079c531659141344cd1fd0a4f28419497f9722a3daafe3b4186f6b6457e0905f90a35050565b6001600160a01b0382166107cd57604051634b637e8f60e11b81525f6004820152602401610435565b610722825f836108aa565b6001600160a01b0384166108015760405163e602df0560e01b81525f6004820152602401610435565b6001600160a01b03831661082a57604051634a1406b160e11b81525f6004820152602401610435565b6001600160a01b038085165f908152600160209081526040808320938716835292905220829055801561068b57826001600160a01b0316846001600160a01b03167f8c5be1e5ebec7d5bd14f71427d1e84f3dd0314c0f7b2291e5b200ac8c7c3b9258460405161089c91815260200190565b60405180910390a350505050565b6001600160a01b0383166108d4578060025f8282546108c99190610b0b565b909155506109449050565b6001600160a01b0383165f90815260208190526040902054818110156109265760405163391434e360e21b81526001600160a01b03851660048201526024810182905260448101839052606401610435565b6001600160a01b0384165f9081526020819052604090209082900390555b6001600160a01b0382166109605760028054829003905561097e565b6001600160a01b0382165f9081526020819052604090208054820190555b816001600160a01b0316836001600160a01b03167fddf252ad1be2c89b69c2b068fc378daa952ba7f163c4a11628f55a4df523b3ef836040516109c391815260200190565b60405180910390a3505050565b602081525f82518060208401528060208501604085015e5f604082850101526040601f19601f83011684010191505092915050565b80356001600160a01b0381168114610a1b575f5ffd5b919050565b5f5f60408385031215610a31575f5ffd5b610a3a83610a05565b946020939093013593505050565b5f5f5f60608486031215610a5a575f5ffd5b610a6384610a05565b9250610a7160208501610a05565b929592945050506040919091013590565b5f60208284031215610a92575f5ffd5b610a9b82610a05565b9392505050565b5f5f60408385031215610ab3575f5ffd5b610abc83610a05565b9150610aca60208401610a05565b90509250929050565b600181811c90821680610ae757607f821691505b602082108103610b0557634e487b7160e01b5f52602260045260245ffd5b50919050565b8082018082111561033357634e487b7160e01b5f52601160045260245ffdfea2646970667358221220479e39fc508dd2705d79987338eb9381fba4cfecd88f4600190120bbca6c00de64736f6c634300081f0033a2646970667358221220b3a4cc6f9ad90424233d09b660b3a790c90c1bc7880f9c560fc63c94ec29660e64736f6c634300081f00336080604052348015600e575f5ffd5b503380603357604051631e4fbdf760e01b81525f600482015260240160405180910390fd5b603a81603f565b50608e565b5f80546001600160a01b038381166001600160a01b0319831681178455604051919092169283917f8be0079c531659141344cd1fd0a4f28419497f9722a3daafe3b4186f6b6457e09190a35050565b61122d8061009b5f395ff3fe608060405234801561000f575f5ffd5b5060043610610106575f3560e01c8063a4a9e9881161009e578063c8ff84591161006e578063c8ff845914610298578063dd22d0b5146102c3578063e1a4521814610323578063f2fde38b1461032c578063f887ea401461033f575f5ffd5b8063a4a9e988146101bd578063b5217bb4146101fc578063bf333f2c1461027d578063c0d7865514610285575f5ffd5b8063715018a6116100d9578063715018a61461016957806371ace7ec146101735780637cb1403a146101865780638da5cb5b14610199575f5ffd5b8063265891071461010a57806331d98b3f146101305780634669660f1461014357806356cd61d714610156575b5f5ffd5b61011d610118366004610f26565b610352565b6040519081526020015b60405180910390f35b61011d61013e366004610f58565b610440565b61011d610151366004610f8a565b6104e0565b61011d610164366004610fc2565b610866565b6101716109ec565b005b61017161018136600461101c565b6109ff565b61011d610194366004611045565b610bf2565b5f546001600160a01b03165b6040516001600160a01b039091168152602001610127565b6101e76101cb366004610f58565b5f90815260016020526040902060028101546003909101549091565b60408051928352602083019190915201610127565b61024861020a366004610f58565b600160208190525f9182526040909120805491810154600282015460038301546004909301546001600160a01b039485169490921692909160ff1685565b604080516001600160a01b0396871681529590941660208601529284019190915260608301521515608082015260a001610127565b61011d601e81565b610171610293366004611078565b610cb5565b61011d6102a6366004610f26565b805160208183018101805160028252928201919093012091525481565b6102d66102d1366004610f26565b610d26565b604051610127919081516001600160a01b03908116825260208084015190911690820152604080830151908201526060808301519082015260809182015115159181019190915260a00190565b61011d61271081565b61017161033a366004611078565b610dcf565b6003546101a5906001600160a01b031681565b5f5f60028360405161036491906110a8565b9081526040805160209281900383019020545f8181526001909352912060048101549192509060ff166103b25760405162461bcd60e51b81526004016103a9906110b3565b60405180910390fd5b5f816003015482600201546103c791906110ef565b116104035760405162461bcd60e51b815260206004820152600c60248201526b4e6f206c697175696469747960a01b60448201526064016103a9565b8060030154816002015461041791906110ef565b600282015461042e90670de0b6b3a7640000611108565b610438919061111f565b949350505050565b5f818152600160205260408120600481015460ff166104715760405162461bcd60e51b81526004016103a9906110b3565b5f8160030154116104b35760405162461bcd60e51b815260206004820152600c60248201526b4e6f206c697175696469747960a01b60448201526064016103a9565b600381015460028201546104cf90670de0b6b3a7640000611108565b6104d9919061111f565b9392505050565b5f848152600160205260408120600481015460ff166105115760405162461bcd60e51b81526004016103a9906110b3565b80546001600160a01b038681169116148061053b575060018101546001600160a01b038681169116145b6105775760405162461bcd60e51b815260206004820152600d60248201526c24b73b30b634b2103a37b5b2b760991b60448201526064016103a9565b80546001600160a01b038681169116145f8161059757826003015461059d565b82600201545b90505f826105af5783600201546105b5565b83600301545b90505f836105cd5784546001600160a01b03166105dc565b60018501546001600160a01b03165b90505f6105ec601e61271061113e565b6105f6908a611108565b90508061060561271086611108565b61060f91906110ef565b6106198483611108565b610623919061111f565b9650878710156106695760405162461bcd60e51b815260206004820152601160248201527014db1a5c1c1859d948195e18d959591959607a1b60448201526064016103a9565b5f87116106ae5760405162461bcd60e51b8152602060048201526013602482015272125b9cdd59999a58da595b9d081bdd5d1c1d5d606a1b60448201526064016103a9565b6040516323b872dd60e01b8152336004820152306024820152604481018a90526001600160a01b038b16906323b872dd906064016020604051808303815f875af11580156106fe573d5f5f3e3d5ffd5b505050506040513d601f19601f820116820180604052508101906107229190611151565b5060405163a9059cbb60e01b8152336004820152602481018890526001600160a01b0383169063a9059cbb906044016020604051808303815f875af115801561076d573d5f5f3e3d5ffd5b505050506040513d601f19601f820116820180604052508101906107919190611151565b5084156107d05788866002015f8282546107ab91906110ef565b9250508190555086866003015f8282546107c5919061113e565b909155506108039050565b88866003015f8282546107e391906110ef565b9250508190555086866002015f8282546107fd919061113e565b90915550505b604080516001600160a01b038c81168252602082018c905284168183015260608101899052905133918d917fa220d14fc92dbbfef0608a511fa6d244eb0b0165f5658140083e15b62aa9806c9181900360800190a3505050505050949350505050565b6003545f906001600160a01b031633148061088a57505f546001600160a01b031633145b6108c45760405162461bcd60e51b815260206004820152600b60248201526a27b7363c903937baba32b960a91b60448201526064016103a9565b8383836040516020016108d993929190611170565b60408051808303601f19018152828252805160209182012060a0840183526001600160a01b0387811685528681168386019081525f86860181815260608801828152600160808a018181528785529781905292889020985189546001600160a01b0319908116918716919091178a55935192890180549094169290941691909117909155516002808701919091559051600386015591516004909401805460ff191694151594909417909355905191925082916109979087906110a8565b908152602001604051809103902081905550807f2182a91210858aef55a999fb1ad46175904fc2c2d1d975a6216e8ab5e41b738f8585856040516109dd939291906111a8565b60405180910390a29392505050565b6109f4610e0c565b6109fd5f610e38565b565b6003546001600160a01b0316331480610a2157505f546001600160a01b031633145b610a5b5760405162461bcd60e51b815260206004820152600b60248201526a27b7363c903937baba32b960a91b60448201526064016103a9565b5f838152600160205260409020600481015460ff16610a8c5760405162461bcd60e51b81526004016103a9906110b3565b80546040516323b872dd60e01b8152336004820152306024820152604481018590526001600160a01b03909116906323b872dd906064016020604051808303815f875af1158015610adf573d5f5f3e3d5ffd5b505050506040513d601f19601f82011682018060405250810190610b039190611151565b5060018101546040516323b872dd60e01b8152336004820152306024820152604481018490526001600160a01b03909116906323b872dd906064016020604051808303815f875af1158015610b5a573d5f5f3e3d5ffd5b505050506040513d601f19601f82011682018060405250810190610b7e9190611151565b5082816002015f828254610b9291906110ef565b9250508190555081816003015f828254610bac91906110ef565b9091555050604080518481526020810184905285917f61cefd3f50b7b55c00bc944f88d509ee073a1a41fc5e9db40ea870c431e658f4910160405180910390a250505050565b5f838152600160205260408120600481015460ff16610c235760405162461bcd60e51b81526004016103a9906110b3565b80546001600160a01b038581169116145f81610c43578260030154610c49565b82600201545b90505f82610c5b578360020154610c61565b83600301545b90505f610c71601e61271061113e565b610c7b9088611108565b905080610c8a61271085611108565b610c9491906110ef565b610c9e8383611108565b610ca8919061111f565b9998505050505050505050565b610cbd610e0c565b6001600160a01b038116610d045760405162461bcd60e51b815260206004820152600e60248201526d24b73b30b634b2103937baba32b960911b60448201526064016103a9565b600380546001600160a01b0319166001600160a01b0392909216919091179055565b6040805160a0810182525f808252602082018190529181018290526060810182905260808101919091525f600283604051610d6191906110a8565b908152604080519182900360209081018320545f90815260018083529083902060a08501845280546001600160a01b0390811686529181015490911691840191909152600281015491830191909152600381015460608301526004015460ff16151560808201529392505050565b610dd7610e0c565b6001600160a01b038116610e0057604051631e4fbdf760e01b81525f60048201526024016103a9565b610e0981610e38565b50565b5f546001600160a01b031633146109fd5760405163118cdaa760e01b81523360048201526024016103a9565b5f80546001600160a01b038381166001600160a01b0319831681178455604051919092169283917f8be0079c531659141344cd1fd0a4f28419497f9722a3daafe3b4186f6b6457e09190a35050565b634e487b7160e01b5f52604160045260245ffd5b5f82601f830112610eaa575f5ffd5b813567ffffffffffffffff811115610ec457610ec4610e87565b604051601f8201601f19908116603f0116810167ffffffffffffffff81118282101715610ef357610ef3610e87565b604052818152838201602001851015610f0a575f5ffd5b816020850160208301375f918101602001919091529392505050565b5f60208284031215610f36575f5ffd5b813567ffffffffffffffff811115610f4c575f5ffd5b61043884828501610e9b565b5f60208284031215610f68575f5ffd5b5035919050565b80356001600160a01b0381168114610f85575f5ffd5b919050565b5f5f5f5f60808587031215610f9d575f5ffd5b84359350610fad60208601610f6f565b93969395505050506040820135916060013590565b5f5f5f60608486031215610fd4575f5ffd5b833567ffffffffffffffff811115610fea575f5ffd5b610ff686828701610e9b565b93505061100560208501610f6f565b915061101360408501610f6f565b90509250925092565b5f5f5f6060848603121561102e575f5ffd5b505081359360208301359350604090920135919050565b5f5f5f60608486031215611057575f5ffd5b8335925061106760208501610f6f565b929592945050506040919091013590565b5f60208284031215611088575f5ffd5b6104d982610f6f565b5f81518060208401855e5f93019283525090919050565b5f6104d98284611091565b6020808252600e908201526d141bdbdb081b9bdd08199bdd5b9960921b604082015260600190565b634e487b7160e01b5f52601160045260245ffd5b80820180821115611102576111026110db565b92915050565b8082028115828204841417611102576111026110db565b5f8261113957634e487b7160e01b5f52601260045260245ffd5b500490565b81810381811115611102576111026110db565b5f60208284031215611161575f5ffd5b815180151581146104d9575f5ffd5b5f61117b8286611091565b6bffffffffffffffffffffffff19606095861b811682529390941b90921660148401525050602801919050565b606081525f84518060608401528060208701608085015e5f60808285018101919091526001600160a01b03958616602085015293909416604083015250601f909201601f19169091010191905056fea264697066735822122098b8937aea07bc01829543080a8d3fa09e0d0d08614e2747abaf4ab235e68cc164736f6c634300081f0033",
			"opcodes": "PUSH1 0x80 PUSH1 0x40 MSTORE CALLVALUE DUP1 ISZERO PUSH2 0xF JUMPI PUSH0 PUSH0 REVERT JUMPDEST POP PUSH1 0x40 MLOAD PUSH2 0x861C CODESIZE SUB DUP1 PUSH2 0x861C DUP4 CODECOPY DUP2 ADD PUSH1 0x40 DUP2 SWAP1 MSTORE PUSH2 0x2E SWAP2 PUSH2 0x429 JUMP JUMPDEST CALLER DUP1 PUSH2 0x54 JUMPI PUSH1 0x40 MLOAD PUSH4 0x1E4FBDF7 PUSH1 0xE0 SHL DUP2 MSTORE PUSH0 PUSH1 0x4 DUP3 ADD MSTORE PUSH1 0x24 ADD JUMPDEST PUSH1 0x40 MLOAD DUP1 SWAP2 SUB SWAP1 REVERT JUMPDEST PUSH2 0x5D DUP2 PUSH2 0x3A6 JUMP JUMPDEST POP PUSH1 0x1 PUSH1 0x1 PUSH1 0xA0 SHL SUB DUP2 AND PUSH2 0xB4 JUMPI PUSH1 0x40 MLOAD PUSH3 0x461BCD PUSH1 0xE5 SHL DUP2 MSTORE PUSH1 0x20 PUSH1 0x4 DUP3 ADD MSTORE PUSH1 0x16 PUSH1 0x24 DUP3 ADD MSTORE PUSH32 0x496E76616C6964206261636B656E64207369676E657200000000000000000000 PUSH1 0x44 DUP3 ADD MSTORE PUSH1 0x64 ADD PUSH2 0x4B JUMP JUMPDEST PUSH1 0x5 DUP1 SLOAD PUSH1 0x1 PUSH1 0x1 PUSH1 0xA0 SHL SUB NOT AND PUSH1 0x1 PUSH1 0x1 PUSH1 0xA0 SHL SUB DUP4 AND OR SWAP1 SSTORE PUSH1 0x40 MLOAD PUSH2 0xDB SWAP1 PUSH2 0x3F5 JUMP JUMPDEST PUSH1 0x40 MLOAD DUP1 SWAP2 SUB SWAP1 PUSH0 CREATE DUP1 ISZERO DUP1 ISZERO PUSH2 0xF4 JUMPI RETURNDATASIZE PUSH0 PUSH0 RETURNDATACOPY RETURNDATASIZE PUSH0 REVERT JUMPDEST POP PUSH1 0x1 DUP1 SLOAD PUSH1 0x1 PUSH1 0x1 PUSH1 0xA0 SHL SUB NOT AND PUSH1 0x1 PUSH1 0x1 PUSH1 0xA0 SHL SUB SWAP3 SWAP1 SWAP3 AND SWAP2 SWAP1 SWAP2 OR SWAP1 SSTORE PUSH1 0x40 MLOAD PUSH2 0x121 SWAP1 PUSH2 0x402 JUMP JUMPDEST PUSH1 0x40 MLOAD DUP1 SWAP2 SUB SWAP1 PUSH0 CREATE DUP1 ISZERO DUP1 ISZERO PUSH2 0x13A JUMPI RETURNDATASIZE PUSH0 PUSH0 RETURNDATACOPY RETURNDATASIZE PUSH0 REVERT JUMPDEST POP PUSH1 0x2 DUP1 SLOAD PUSH1 0x1 PUSH1 0x1 PUSH1 0xA0 SHL SUB NOT AND PUSH1 0x1 PUSH1 0x1 PUSH1 0xA0 SHL SUB SWAP3 SWAP1 SWAP3 AND SWAP2 SWAP1 SWAP2 OR SWAP1 SSTORE PUSH1 0x40 MLOAD PUSH2 0x167 SWAP1 PUSH2 0x40F JUMP JUMPDEST PUSH1 0x40 MLOAD DUP1 SWAP2 SUB SWAP1 PUSH0 CREATE DUP1 ISZERO DUP1 ISZERO PUSH2 0x180 JUMPI RETURNDATASIZE PUSH0 PUSH0 RETURNDATACOPY RETURNDATASIZE PUSH0 REVERT JUMPDEST POP PUSH1 0x3 DUP1 SLOAD PUSH1 0x1 PUSH1 0x1 PUSH1 0xA0 SHL SUB NOT AND PUSH1 0x1 PUSH1 0x1 PUSH1 0xA0 SHL SUB SWAP3 SWAP1 SWAP3 AND SWAP2 SWAP1 SWAP2 OR SWAP1 SSTORE PUSH1 0x40 MLOAD PUSH2 0x1AD SWAP1 PUSH2 0x41C JUMP JUMPDEST PUSH1 0x40 MLOAD DUP1 SWAP2 SUB SWAP1 PUSH0 CREATE DUP1 ISZERO DUP1 ISZERO PUSH2 0x1C6 JUMPI RETURNDATASIZE PUSH0 PUSH0 RETURNDATACOPY RETURNDATASIZE PUSH0 REVERT JUMPDEST POP PUSH1 0x4 DUP1 SLOAD PUSH1 0x1 PUSH1 0x1 PUSH1 0xA0 SHL SUB NOT AND PUSH1 0x1 PUSH1 0x1 PUSH1 0xA0 SHL SUB SWAP3 DUP4 AND OR DUP2 SSTORE PUSH1 0x1 SLOAD PUSH1 0x40 MLOAD PUSH4 0x64C2419 PUSH1 0xE1 SHL DUP2 MSTORE ADDRESS SWAP3 DUP2 ADD SWAP3 SWAP1 SWAP3 MSTORE SWAP1 SWAP2 AND SWAP1 PUSH4 0xC984832 SWAP1 PUSH1 0x24 ADD PUSH0 PUSH1 0x40 MLOAD DUP1 DUP4 SUB DUP2 PUSH0 DUP8 DUP1 EXTCODESIZE ISZERO DUP1 ISZERO PUSH2 0x21F JUMPI PUSH0 PUSH0 REVERT JUMPDEST POP GAS CALL ISZERO DUP1 ISZERO PUSH2 0x231 JUMPI RETURNDATASIZE PUSH0 PUSH0 RETURNDATACOPY RETURNDATASIZE PUSH0 REVERT JUMPDEST POP POP PUSH1 0x2 SLOAD PUSH1 0x40 MLOAD PUSH4 0xF85EA2AB PUSH1 0xE0 SHL DUP2 MSTORE ADDRESS PUSH1 0x4 DUP3 ADD MSTORE PUSH1 0x1 PUSH1 0x1 PUSH1 0xA0 SHL SUB SWAP1 SWAP2 AND SWAP3 POP PUSH4 0xF85EA2AB SWAP2 POP PUSH1 0x24 ADD PUSH0 PUSH1 0x40 MLOAD DUP1 DUP4 SUB DUP2 PUSH0 DUP8 DUP1 EXTCODESIZE ISZERO DUP1 ISZERO PUSH2 0x277 JUMPI PUSH0 PUSH0 REVERT JUMPDEST POP GAS CALL ISZERO DUP1 ISZERO PUSH2 0x289 JUMPI RETURNDATASIZE PUSH0 PUSH0 RETURNDATACOPY RETURNDATASIZE PUSH0 REVERT JUMPDEST POP POP PUSH1 0x3 SLOAD PUSH1 0x40 MLOAD PUSH4 0xF85EA2AB PUSH1 0xE0 SHL DUP2 MSTORE ADDRESS PUSH1 0x4 DUP3 ADD MSTORE PUSH1 0x1 PUSH1 0x1 PUSH1 0xA0 SHL SUB SWAP1 SWAP2 AND SWAP3 POP PUSH4 0xF85EA2AB SWAP2 POP PUSH1 0x24 ADD PUSH0 PUSH1 0x40 MLOAD DUP1 DUP4 SUB DUP2 PUSH0 DUP8 DUP1 EXTCODESIZE ISZERO DUP1 ISZERO PUSH2 0x2CF JUMPI PUSH0 PUSH0 REVERT JUMPDEST POP GAS CALL ISZERO DUP1 ISZERO PUSH2 0x2E1 JUMPI RETURNDATASIZE PUSH0 PUSH0 RETURNDATACOPY RETURNDATASIZE PUSH0 REVERT JUMPDEST POP POP PUSH1 0x4 DUP1 SLOAD PUSH1 0x40 MLOAD PUSH4 0xC0D78655 PUSH1 0xE0 SHL DUP2 MSTORE ADDRESS SWAP3 DUP2 ADD SWAP3 SWAP1 SWAP3 MSTORE PUSH1 0x1 PUSH1 0x1 PUSH1 0xA0 SHL SUB AND SWAP3 POP PUSH4 0xC0D78655 SWAP2 POP PUSH1 0x24 ADD PUSH0 PUSH1 0x40 MLOAD DUP1 DUP4 SUB DUP2 PUSH0 DUP8 DUP1 EXTCODESIZE ISZERO DUP1 ISZERO PUSH2 0x328 JUMPI PUSH0 PUSH0 REVERT JUMPDEST POP GAS CALL ISZERO DUP1 ISZERO PUSH2 0x33A JUMPI RETURNDATASIZE PUSH0 PUSH0 RETURNDATACOPY RETURNDATASIZE PUSH0 REVERT JUMPDEST POP POP PUSH1 0x1 SLOAD PUSH1 0x2 SLOAD PUSH1 0x3 SLOAD PUSH1 0x4 SLOAD PUSH1 0x40 DUP1 MLOAD PUSH1 0x1 PUSH1 0x1 PUSH1 0xA0 SHL SUB SWAP6 DUP7 AND DUP2 MSTORE SWAP4 DUP6 AND PUSH1 0x20 DUP6 ADD MSTORE SWAP2 DUP5 AND DUP4 DUP4 ADD MSTORE SWAP3 SWAP1 SWAP3 AND PUSH1 0x60 DUP3 ADD MSTORE SWAP1 MLOAD PUSH32 0x4B75AA1A13A160F48FEEA5D6D4F23760DE2AE3E26F90D390B095AA4FAA485485 SWAP4 POP SWAP1 DUP2 SWAP1 SUB PUSH1 0x80 ADD SWAP2 POP LOG1 POP PUSH2 0x456 JUMP JUMPDEST PUSH0 DUP1 SLOAD PUSH1 0x1 PUSH1 0x1 PUSH1 0xA0 SHL SUB DUP4 DUP2 AND PUSH1 0x1 PUSH1 0x1 PUSH1 0xA0 SHL SUB NOT DUP4 AND DUP2 OR DUP5 SSTORE PUSH1 0x40 MLOAD SWAP2 SWAP1 SWAP3 AND SWAP3 DUP4 SWAP2 PUSH32 0x8BE0079C531659141344CD1FD0A4F28419497F9722A3DAAFE3B4186F6B6457E0 SWAP2 SWAP1 LOG3 POP POP JUMP JUMPDEST PUSH2 0x12EF DUP1 PUSH2 0x29FE DUP4 CODECOPY ADD SWAP1 JUMP JUMPDEST PUSH2 0x1E67 DUP1 PUSH2 0x3CED DUP4 CODECOPY ADD SWAP1 JUMP JUMPDEST PUSH2 0x1800 DUP1 PUSH2 0x5B54 DUP4 CODECOPY ADD SWAP1 JUMP JUMPDEST PUSH2 0x12C8 DUP1 PUSH2 0x7354 DUP4 CODECOPY ADD SWAP1 JUMP JUMPDEST PUSH0 PUSH1 0x20 DUP3 DUP5 SUB SLT ISZERO PUSH2 0x439 JUMPI PUSH0 PUSH0 REVERT JUMPDEST DUP2 MLOAD PUSH1 0x1 PUSH1 0x1 PUSH1 0xA0 SHL SUB DUP2 AND DUP2 EQ PUSH2 0x44F JUMPI PUSH0 PUSH0 REVERT JUMPDEST SWAP4 SWAP3 POP POP POP JUMP JUMPDEST PUSH2 0x259B DUP1 PUSH2 0x463 PUSH0 CODECOPY PUSH0 RETURN INVALID PUSH1 0x80 PUSH1 0x40 MSTORE CALLVALUE DUP1 ISZERO PUSH2 0xF JUMPI PUSH0 PUSH0 REVERT JUMPDEST POP PUSH1 0x4 CALLDATASIZE LT PUSH2 0x1C5 JUMPI PUSH0 CALLDATALOAD PUSH1 0xE0 SHR DUP1 PUSH4 0x715018A6 GT PUSH2 0xFE JUMPI DUP1 PUSH4 0x8DA5CB5B GT PUSH2 0x9E JUMPI DUP1 PUSH4 0xAA9A068F GT PUSH2 0x6E JUMPI DUP1 PUSH4 0xAA9A068F EQ PUSH2 0x40A JUMPI DUP1 PUSH4 0xB56E725C EQ PUSH2 0x44A JUMPI DUP1 PUSH4 0xC45A0155 EQ PUSH2 0x46A JUMPI DUP1 PUSH4 0xF2FDE38B EQ PUSH2 0x47D JUMPI PUSH0 PUSH0 REVERT JUMPDEST DUP1 PUSH4 0x8DA5CB5B EQ PUSH2 0x3AC JUMPI DUP1 PUSH4 0x8E0DAC69 EQ PUSH2 0x3BC JUMPI DUP1 PUSH4 0x92893E0F EQ PUSH2 0x3CF JUMPI DUP1 PUSH4 0x9A6B9CBB EQ PUSH2 0x3F7 JUMPI PUSH0 PUSH0 REVERT JUMPDEST DUP1 PUSH4 0x84BC76A6 GT PUSH2 0xD9 JUMPI DUP1 PUSH4 0x84BC76A6 EQ PUSH2 0x347 JUMPI DUP1 PUSH4 0x88ABB85F EQ PUSH2 0x35C JUMPI DUP1 PUSH4 0x8A19C8BC EQ PUSH2 0x390 JUMPI DUP1 PUSH4 0x8B10890B EQ PUSH2 0x399 JUMPI PUSH0 PUSH0 REVERT JUMPDEST DUP1 PUSH4 0x715018A6 EQ PUSH2 0x319 JUMPI DUP1 PUSH4 0x76DDDF9F EQ PUSH2 0x321 JUMPI DUP1 PUSH4 0x7B103999 EQ PUSH2 0x334 JUMPI PUSH0 PUSH0 REVERT JUMPDEST DUP1 PUSH4 0x306B9BB9 GT PUSH2 0x169 JUMPI DUP1 PUSH4 0x4E1F3A00 GT PUSH2 0x144 JUMPI DUP1 PUSH4 0x4E1F3A00 EQ PUSH2 0x2CE JUMPI DUP1 PUSH4 0x613ACE16 EQ PUSH2 0x2E1 JUMPI DUP1 PUSH4 0x65D65E86 EQ PUSH2 0x2FE JUMPI DUP1 PUSH4 0x6C1CF037 EQ PUSH2 0x311 JUMPI PUSH0 PUSH0 REVERT JUMPDEST DUP1 PUSH4 0x306B9BB9 EQ PUSH2 0x27B JUMPI DUP1 PUSH4 0x4054633D EQ PUSH2 0x28E JUMPI DUP1 PUSH4 0x45EE99A9 EQ PUSH2 0x2B9 JUMPI PUSH0 PUSH0 REVERT JUMPDEST DUP1 PUSH4 0x1B745534 GT PUSH2 0x1A4 JUMPI DUP1 PUSH4 0x1B745534 EQ PUSH2 0x22F JUMPI DUP1 PUSH4 0x26589107 EQ PUSH2 0x242 JUMPI DUP1 PUSH4 0x2A943945 EQ PUSH2 0x255 JUMPI DUP1 PUSH4 0x2CB35980 EQ PUSH2 0x268 JUMPI PUSH0 PUSH0 REVERT JUMPDEST DUP1 PUSH3 0xC88C06 EQ PUSH2 0x1C9 JUMPI DUP1 PUSH4 0x1298F3B9 EQ PUSH2 0x1DE JUMPI DUP1 PUSH4 0x157E4C08 EQ PUSH2 0x204 JUMPI JUMPDEST PUSH0 PUSH0 REVERT JUMPDEST PUSH2 0x1DC PUSH2 0x1D7 CALLDATASIZE PUSH1 0x4 PUSH2 0x1818 JUMP JUMPDEST PUSH2 0x490 JUMP JUMPDEST STOP JUMPDEST PUSH2 0x1F1 PUSH2 0x1EC CALLDATASIZE PUSH1 0x4 PUSH2 0x186D JUMP JUMPDEST PUSH2 0x56D JUMP JUMPDEST PUSH1 0x40 MLOAD SWAP1 DUP2 MSTORE PUSH1 0x20 ADD JUMPDEST PUSH1 0x40 MLOAD DUP1 SWAP2 SUB SWAP1 RETURN JUMPDEST PUSH1 0x1 SLOAD PUSH2 0x217 SWAP1 PUSH1 0x1 PUSH1 0x1 PUSH1 0xA0 SHL SUB AND DUP2 JUMP JUMPDEST PUSH1 0x40 MLOAD PUSH1 0x1 PUSH1 0x1 PUSH1 0xA0 SHL SUB SWAP1 SWAP2 AND DUP2 MSTORE PUSH1 0x20 ADD PUSH2 0x1FB JUMP JUMPDEST PUSH2 0x1F1 PUSH2 0x23D CALLDATASIZE PUSH1 0x4 PUSH2 0x188F JUMP JUMPDEST PUSH2 0x5E0 JUMP JUMPDEST PUSH2 0x1F1 PUSH2 0x250 CALLDATASIZE PUSH1 0x4 PUSH2 0x18DD JUMP JUMPDEST PUSH2 0x68B JUMP JUMPDEST PUSH1 0x4 SLOAD PUSH2 0x217 SWAP1 PUSH1 0x1 PUSH1 0x1 PUSH1 0xA0 SHL SUB AND DUP2 JUMP JUMPDEST PUSH2 0x1DC PUSH2 0x276 CALLDATASIZE PUSH1 0x4 PUSH2 0x190E JUMP JUMPDEST PUSH2 0x6BC JUMP JUMPDEST PUSH2 0x1DC PUSH2 0x289 CALLDATASIZE PUSH1 0x4 PUSH2 0x186D JUMP JUMPDEST PUSH2 0x743 JUMP JUMPDEST PUSH2 0x1F1 PUSH2 0x29C CALLDATASIZE PUSH1 0x4 PUSH2 0x18DD JUMP JUMPDEST DUP1 MLOAD PUSH1 0x20 DUP2 DUP4 ADD DUP2 ADD DUP1 MLOAD PUSH1 0x9 DUP3 MSTORE SWAP3 DUP3 ADD SWAP2 SWAP1 SWAP4 ADD KECCAK256 SWAP2 MSTORE SLOAD DUP2 JUMP JUMPDEST PUSH2 0x2C1 PUSH2 0x8AB JUMP JUMPDEST PUSH1 0x40 MLOAD PUSH2 0x1FB SWAP2 SWAP1 PUSH2 0x1A2D JUMP JUMPDEST PUSH2 0x1DC PUSH2 0x2DC CALLDATASIZE PUSH1 0x4 PUSH2 0x1A90 JUMP JUMPDEST PUSH2 0x91E JUMP JUMPDEST PUSH1 0x7 SLOAD PUSH2 0x2EE SWAP1 PUSH1 0xFF AND DUP2 JUMP JUMPDEST PUSH1 0x40 MLOAD SWAP1 ISZERO ISZERO DUP2 MSTORE PUSH1 0x20 ADD PUSH2 0x1FB JUMP JUMPDEST PUSH1 0x5 SLOAD PUSH2 0x217 SWAP1 PUSH1 0x1 PUSH1 0x1 PUSH1 0xA0 SHL SUB AND DUP2 JUMP JUMPDEST PUSH2 0x1DC PUSH2 0xA98 JUMP JUMPDEST PUSH2 0x1DC PUSH2 0xB7E JUMP JUMPDEST PUSH2 0x1F1 PUSH2 0x32F CALLDATASIZE PUSH1 0x4 PUSH2 0x1AA7 JUMP JUMPDEST PUSH2 0xB91 JUMP JUMPDEST PUSH1 0x2 SLOAD PUSH2 0x217 SWAP1 PUSH1 0x1 PUSH1 0x1 PUSH1 0xA0 SHL SUB AND DUP2 JUMP JUMPDEST PUSH2 0x34F PUSH2 0xE35 JUMP JUMPDEST PUSH1 0x40 MLOAD PUSH2 0x1FB SWAP2 SWAP1 PUSH2 0x1B01 JUMP JUMPDEST PUSH2 0x217 PUSH2 0x36A CALLDATASIZE PUSH1 0x4 PUSH2 0x18DD JUMP JUMPDEST DUP1 MLOAD PUSH1 0x20 DUP2 DUP4 ADD DUP2 ADD DUP1 MLOAD PUSH1 0x8 DUP3 MSTORE SWAP3 DUP3 ADD SWAP2 SWAP1 SWAP4 ADD KECCAK256 SWAP2 MSTORE SLOAD PUSH1 0x1 PUSH1 0x1 PUSH1 0xA0 SHL SUB AND DUP2 JUMP JUMPDEST PUSH2 0x1F1 PUSH1 0x6 SLOAD DUP2 JUMP JUMPDEST PUSH2 0x1F1 PUSH2 0x3A7 CALLDATASIZE PUSH1 0x4 PUSH2 0x1BA6 JUMP JUMPDEST PUSH2 0xEE1 JUMP JUMPDEST PUSH0 SLOAD PUSH1 0x1 PUSH1 0x1 PUSH1 0xA0 SHL SUB AND PUSH2 0x217 JUMP JUMPDEST PUSH2 0x1DC PUSH2 0x3CA CALLDATASIZE PUSH1 0x4 PUSH2 0x1BFB JUMP JUMPDEST PUSH2 0xF84 JUMP JUMPDEST PUSH2 0x3E2 PUSH2 0x3DD CALLDATASIZE PUSH1 0x4 PUSH2 0x18DD JUMP JUMPDEST PUSH2 0x1017 JUMP JUMPDEST PUSH1 0x40 DUP1 MLOAD SWAP3 DUP4 MSTORE PUSH1 0x20 DUP4 ADD SWAP2 SWAP1 SWAP2 MSTORE ADD PUSH2 0x1FB JUMP JUMPDEST PUSH2 0x217 PUSH2 0x405 CALLDATASIZE PUSH1 0x4 PUSH2 0x18DD JUMP JUMPDEST PUSH2 0x10AC JUMP JUMPDEST PUSH1 0x1 SLOAD PUSH1 0x2 SLOAD PUSH1 0x3 SLOAD PUSH1 0x4 SLOAD PUSH1 0x40 DUP1 MLOAD PUSH1 0x1 PUSH1 0x1 PUSH1 0xA0 SHL SUB SWAP6 DUP7 AND DUP2 MSTORE SWAP4 DUP6 AND PUSH1 0x20 DUP6 ADD MSTORE SWAP2 DUP5 AND SWAP2 DUP4 ADD SWAP2 SWAP1 SWAP2 MSTORE SWAP2 SWAP1 SWAP2 AND PUSH1 0x60 DUP3 ADD MSTORE PUSH1 0x80 ADD PUSH2 0x1FB JUMP JUMPDEST PUSH2 0x45D PUSH2 0x458 CALLDATASIZE PUSH1 0x4 PUSH2 0x18DD JUMP JUMPDEST PUSH2 0x10DC JUMP JUMPDEST PUSH1 0x40 MLOAD PUSH2 0x1FB SWAP2 SWAP1 PUSH2 0x1C73 JUMP JUMPDEST PUSH1 0x3 SLOAD PUSH2 0x217 SWAP1 PUSH1 0x1 PUSH1 0x1 PUSH1 0xA0 SHL SUB AND DUP2 JUMP JUMPDEST PUSH2 0x1DC PUSH2 0x48B CALLDATASIZE PUSH1 0x4 PUSH2 0x186D JUMP JUMPDEST PUSH2 0x11B1 JUMP JUMPDEST PUSH1 0x5 SLOAD PUSH1 0x1 PUSH1 0x1 PUSH1 0xA0 SHL SUB AND CALLER EQ DUP1 ISZERO SWAP1 PUSH2 0x4B5 JUMPI POP PUSH0 SLOAD PUSH1 0x1 PUSH1 0x1 PUSH1 0xA0 SHL SUB AND CALLER EQ ISZERO JUMPDEST ISZERO PUSH2 0x4D3 JUMPI PUSH1 0x40 MLOAD PUSH4 0x6BBAA1C1 PUSH1 0xE0 SHL DUP2 MSTORE PUSH1 0x4 ADD PUSH1 0x40 MLOAD DUP1 SWAP2 SUB SWAP1 REVERT JUMPDEST PUSH1 0x2 SLOAD PUSH1 0x40 MLOAD PUSH3 0x644603 PUSH1 0xE1 SHL DUP2 MSTORE PUSH1 0x1 PUSH1 0x1 PUSH1 0xA0 SHL SUB SWAP1 SWAP2 AND SWAP1 PUSH3 0xC88C06 SWAP1 PUSH2 0x503 SWAP1 DUP6 SWAP1 DUP6 SWAP1 PUSH1 0x4 ADD PUSH2 0x1D70 JUMP JUMPDEST PUSH0 PUSH1 0x40 MLOAD DUP1 DUP4 SUB DUP2 PUSH0 DUP8 DUP1 EXTCODESIZE ISZERO DUP1 ISZERO PUSH2 0x51A JUMPI PUSH0 PUSH0 REVERT JUMPDEST POP GAS CALL ISZERO DUP1 ISZERO PUSH2 0x52C JUMPI RETURNDATASIZE PUSH0 PUSH0 RETURNDATACOPY RETURNDATASIZE PUSH0 REVERT JUMPDEST POP POP POP POP PUSH32 0x4FF42CE5F2120CCE7CC3037BA0C02115B80EAAF04608FDFF259F5104B286C4B2 DUP3 DUP3 PUSH1 0x40 MLOAD PUSH2 0x561 SWAP3 SWAP2 SWAP1 PUSH2 0x1D70 JUMP JUMPDEST PUSH1 0x40 MLOAD DUP1 SWAP2 SUB SWAP1 LOG1 POP POP JUMP JUMPDEST PUSH1 0x1 SLOAD PUSH1 0x40 MLOAD PUSH4 0x70A08231 PUSH1 0xE0 SHL DUP2 MSTORE PUSH1 0x1 PUSH1 0x1 PUSH1 0xA0 SHL SUB DUP4 DUP2 AND PUSH1 0x4 DUP4 ADD MSTORE PUSH0 SWAP3 AND SWAP1 PUSH4 0x70A08231 SWAP1 PUSH1 0x24 ADD JUMPDEST PUSH1 0x20 PUSH1 0x40 MLOAD DUP1 DUP4 SUB DUP2 DUP7 GAS STATICCALL ISZERO DUP1 ISZERO PUSH2 0x5B6 JUMPI RETURNDATASIZE PUSH0 PUSH0 RETURNDATACOPY RETURNDATASIZE PUSH0 REVERT JUMPDEST POP POP POP POP PUSH1 0x40 MLOAD RETURNDATASIZE PUSH1 0x1F NOT PUSH1 0x1F DUP3 ADD AND DUP3 ADD DUP1 PUSH1 0x40 MSTORE POP DUP2 ADD SWAP1 PUSH2 0x5DA SWAP2 SWAP1 PUSH2 0x1D91 JUMP JUMPDEST SWAP3 SWAP2 POP POP JUMP JUMPDEST PUSH0 PUSH0 PUSH1 0x8 DUP5 PUSH1 0x40 MLOAD PUSH2 0x5F2 SWAP2 SWAP1 PUSH2 0x1DBF JUMP JUMPDEST SWAP1 DUP2 MSTORE PUSH1 0x40 MLOAD SWAP1 DUP2 SWAP1 SUB PUSH1 0x20 ADD SWAP1 KECCAK256 SLOAD PUSH1 0x1 PUSH1 0x1 PUSH1 0xA0 SHL SUB AND SWAP1 POP DUP1 PUSH2 0x61B JUMPI PUSH0 SWAP2 POP POP PUSH2 0x5DA JUMP JUMPDEST PUSH1 0x40 MLOAD PUSH4 0x70A08231 PUSH1 0xE0 SHL DUP2 MSTORE PUSH1 0x1 PUSH1 0x1 PUSH1 0xA0 SHL SUB DUP5 DUP2 AND PUSH1 0x4 DUP4 ADD MSTORE DUP3 AND SWAP1 PUSH4 0x70A08231 SWAP1 PUSH1 0x24 ADD PUSH1 0x20 PUSH1 0x40 MLOAD DUP1 DUP4 SUB DUP2 DUP7 GAS STATICCALL ISZERO DUP1 ISZERO PUSH2 0x65F JUMPI RETURNDATASIZE PUSH0 PUSH0 RETURNDATACOPY RETURNDATASIZE PUSH0 REVERT JUMPDEST POP POP POP POP PUSH1 0x40 MLOAD RETURNDATASIZE PUSH1 0x1F NOT PUSH1 0x1F DUP3 ADD AND DUP3 ADD DUP1 PUSH1 0x40 MSTORE POP DUP2 ADD SWAP1 PUSH2 0x683 SWAP2 SWAP1 PUSH2 0x1D91 JUMP JUMPDEST SWAP5 SWAP4 POP POP POP POP JUMP JUMPDEST PUSH1 0x4 DUP1 SLOAD PUSH1 0x40 MLOAD PUSH4 0x26589107 PUSH1 0xE0 SHL DUP2 MSTORE PUSH0 SWAP3 PUSH1 0x1 PUSH1 0x1 PUSH1 0xA0 SHL SUB SWAP1 SWAP3 AND SWAP2 PUSH4 0x26589107 SWAP2 PUSH2 0x59B SWAP2 DUP7 SWAP2 ADD PUSH2 0x1DCA JUMP JUMPDEST PUSH1 0x5 SLOAD PUSH1 0x1 PUSH1 0x1 PUSH1 0xA0 SHL SUB AND CALLER EQ DUP1 ISZERO SWAP1 PUSH2 0x6E1 JUMPI POP PUSH0 SLOAD PUSH1 0x1 PUSH1 0x1 PUSH1 0xA0 SHL SUB AND CALLER EQ ISZERO JUMPDEST ISZERO PUSH2 0x6FF JUMPI PUSH1 0x40 MLOAD PUSH4 0x6BBAA1C1 PUSH1 0xE0 SHL DUP2 MSTORE PUSH1 0x4 ADD PUSH1 0x40 MLOAD DUP1 SWAP2 SUB SWAP1 REVERT JUMPDEST PUSH2 0x73A PUSH1 0x40 MLOAD DUP1 PUSH1 0xE0 ADD PUSH1 0x40 MSTORE DUP1 DUP10 DUP2 MSTORE PUSH1 0x20 ADD DUP9 DUP2 MSTORE PUSH1 0x20 ADD DUP8 DUP2 MSTORE PUSH1 0x20 ADD DUP7 DUP2 MSTORE PUSH1 0x20 ADD DUP6 DUP2 MSTORE PUSH1 0x20 ADD DUP5 DUP2 MSTORE PUSH1 0x20 ADD DUP4 DUP2 MSTORE POP PUSH2 0x11EE JUMP JUMPDEST POP POP POP POP POP POP POP JUMP JUMPDEST PUSH1 0x5 SLOAD PUSH1 0x1 PUSH1 0x1 PUSH1 0xA0 SHL SUB AND CALLER EQ DUP1 ISZERO SWAP1 PUSH2 0x768 JUMPI POP PUSH0 SLOAD PUSH1 0x1 PUSH1 0x1 PUSH1 0xA0 SHL SUB AND CALLER EQ ISZERO JUMPDEST ISZERO PUSH2 0x786 JUMPI PUSH1 0x40 MLOAD PUSH4 0x6BBAA1C1 PUSH1 0xE0 SHL DUP2 MSTORE PUSH1 0x4 ADD PUSH1 0x40 MLOAD DUP1 SWAP2 SUB SWAP1 REVERT JUMPDEST PUSH1 0x1 SLOAD PUSH1 0x40 DUP1 MLOAD PUSH4 0x313CE567 PUSH1 0xE0 SHL DUP2 MSTORE SWAP1 MLOAD PUSH0 SWAP3 PUSH1 0x1 PUSH1 0x1 PUSH1 0xA0 SHL SUB AND SWAP2 PUSH4 0x313CE567 SWAP2 PUSH1 0x4 DUP1 DUP4 ADD SWAP3 PUSH1 0x20 SWAP3 SWAP2 SWAP1 DUP3 SWAP1 SUB ADD DUP2 DUP7 GAS STATICCALL ISZERO DUP1 ISZERO PUSH2 0x7CD JUMPI RETURNDATASIZE PUSH0 PUSH0 RETURNDATACOPY RETURNDATASIZE PUSH0 REVERT JUMPDEST POP POP POP POP PUSH1 0x40 MLOAD RETURNDATASIZE PUSH1 0x1F NOT PUSH1 0x1F DUP3 ADD AND DUP3 ADD DUP1 PUSH1 0x40 MSTORE POP DUP2 ADD SWAP1 PUSH2 0x7F1 SWAP2 SWAP1 PUSH2 0x1DDC JUMP JUMPDEST PUSH2 0x7FC SWAP1 PUSH1 0xA PUSH2 0x1EF3 JUMP JUMPDEST PUSH2 0x808 SWAP1 PUSH2 0x1F4 PUSH2 0x1F01 JUMP JUMPDEST PUSH1 0x1 SLOAD PUSH1 0x40 MLOAD PUSH4 0x40C10F19 PUSH1 0xE0 SHL DUP2 MSTORE PUSH1 0x1 PUSH1 0x1 PUSH1 0xA0 SHL SUB DUP6 DUP2 AND PUSH1 0x4 DUP4 ADD MSTORE PUSH1 0x24 DUP3 ADD DUP5 SWAP1 MSTORE SWAP3 SWAP4 POP SWAP2 AND SWAP1 PUSH4 0x40C10F19 SWAP1 PUSH1 0x44 ADD PUSH0 PUSH1 0x40 MLOAD DUP1 DUP4 SUB DUP2 PUSH0 DUP8 DUP1 EXTCODESIZE ISZERO DUP1 ISZERO PUSH2 0x855 JUMPI PUSH0 PUSH0 REVERT JUMPDEST POP GAS CALL ISZERO DUP1 ISZERO PUSH2 0x867 JUMPI RETURNDATASIZE PUSH0 PUSH0 RETURNDATACOPY RETURNDATASIZE PUSH0 REVERT JUMPDEST POP POP PUSH1 0x40 DUP1 MLOAD PUSH1 0x1 PUSH1 0x1 PUSH1 0xA0 SHL SUB DUP7 AND DUP2 MSTORE PUSH1 0x20 DUP2 ADD DUP6 SWAP1 MSTORE PUSH32 0xD1B844701695237443DD884ED7193D9C8788F3BEFD35ADC0910472EB166F3306 SWAP4 POP ADD SWAP1 POP PUSH2 0x561 JUMP JUMPDEST PUSH1 0x2 SLOAD PUSH1 0x40 DUP1 MLOAD PUSH4 0x45EE99A9 PUSH1 0xE0 SHL DUP2 MSTORE SWAP1 MLOAD PUSH1 0x60 SWAP3 PUSH1 0x1 PUSH1 0x1 PUSH1 0xA0 SHL SUB AND SWAP2 PUSH4 0x45EE99A9 SWAP2 PUSH1 0x4 DUP1 DUP4 ADD SWAP3 PUSH0 SWAP3 SWAP2 SWAP1 DUP3 SWAP1 SUB ADD DUP2 DUP7 GAS STATICCALL ISZERO DUP1 ISZERO PUSH2 0x8F2 JUMPI RETURNDATASIZE PUSH0 PUSH0 RETURNDATACOPY RETURNDATASIZE PUSH0 REVERT JUMPDEST POP POP POP POP PUSH1 0x40 MLOAD RETURNDATASIZE PUSH0 DUP3 RETURNDATACOPY PUSH1 0x1F RETURNDATASIZE SWAP1 DUP2 ADD PUSH1 0x1F NOT AND DUP3 ADD PUSH1 0x40 MSTORE PUSH2 0x919 SWAP2 SWAP1 DUP2 ADD SWAP1 PUSH2 0x2007 JUMP JUMPDEST SWAP1 POP SWAP1 JUMP JUMPDEST PUSH1 0x5 SLOAD PUSH1 0x1 PUSH1 0x1 PUSH1 0xA0 SHL SUB AND CALLER EQ DUP1 ISZERO SWAP1 PUSH2 0x943 JUMPI POP PUSH0 SLOAD PUSH1 0x1 PUSH1 0x1 PUSH1 0xA0 SHL SUB AND CALLER EQ ISZERO JUMPDEST ISZERO PUSH2 0x961 JUMPI PUSH1 0x40 MLOAD PUSH4 0x6BBAA1C1 PUSH1 0xE0 SHL DUP2 MSTORE PUSH1 0x4 ADD PUSH1 0x40 MLOAD DUP1 SWAP2 SUB SWAP1 REVERT JUMPDEST PUSH1 0x2 PUSH0 SWAP1 SLOAD SWAP1 PUSH2 0x100 EXP SWAP1 DIV PUSH1 0x1 PUSH1 0x1 PUSH1 0xA0 SHL SUB AND PUSH1 0x1 PUSH1 0x1 PUSH1 0xA0 SHL SUB AND PUSH4 0xFC81587A PUSH1 0x40 MLOAD DUP2 PUSH4 0xFFFFFFFF AND PUSH1 0xE0 SHL DUP2 MSTORE PUSH1 0x4 ADD PUSH0 PUSH1 0x40 MLOAD DUP1 DUP4 SUB DUP2 PUSH0 DUP8 DUP1 EXTCODESIZE ISZERO DUP1 ISZERO PUSH2 0x9AD JUMPI PUSH0 PUSH0 REVERT JUMPDEST POP GAS CALL ISZERO DUP1 ISZERO PUSH2 0x9BF JUMPI RETURNDATASIZE PUSH0 PUSH0 RETURNDATACOPY RETURNDATASIZE PUSH0 REVERT JUMPDEST POP POP PUSH1 0x7 DUP1 SLOAD PUSH1 0xFF NOT AND PUSH1 0x1 OR SWAP1 SSTORE POP POP PUSH1 0x6 DUP1 SLOAD SWAP1 PUSH0 PUSH2 0x9DF DUP4 PUSH2 0x2038 JUMP JUMPDEST SWAP1 SWAP2 SSTORE POP POP PUSH1 0x2 SLOAD PUSH1 0x6 SLOAD PUSH1 0x40 MLOAD PUSH4 0x31D813FB PUSH1 0xE2 SHL DUP2 MSTORE PUSH1 0x1 PUSH1 0x1 PUSH1 0xA0 SHL SUB SWAP1 SWAP3 AND SWAP2 PUSH4 0xC7604FEC SWAP2 PUSH2 0xA20 SWAP2 DUP6 SWAP1 PUSH1 0x4 ADD SWAP2 DUP3 MSTORE PUSH1 0x20 DUP3 ADD MSTORE PUSH1 0x40 ADD SWAP1 JUMP JUMPDEST PUSH0 PUSH1 0x40 MLOAD DUP1 DUP4 SUB DUP2 PUSH0 DUP8 DUP1 EXTCODESIZE ISZERO DUP1 ISZERO PUSH2 0xA37 JUMPI PUSH0 PUSH0 REVERT JUMPDEST POP GAS CALL ISZERO DUP1 ISZERO PUSH2 0xA49 JUMPI RETURNDATASIZE PUSH0 PUSH0 RETURNDATACOPY RETURNDATASIZE PUSH0 REVERT JUMPDEST POP POP POP POP PUSH32 0x29D6D6C69E73EFE2BCE4EA0D86536ADA3C571774B72BD63D51140BBCCEB06F05 PUSH1 0x6 SLOAD DUP3 TIMESTAMP PUSH2 0xA7D SWAP2 SWAP1 PUSH2 0x2050 JUMP JUMPDEST PUSH1 0x40 DUP1 MLOAD SWAP3 DUP4 MSTORE PUSH1 0x20 DUP4 ADD SWAP2 SWAP1 SWAP2 MSTORE ADD PUSH1 0x40 MLOAD DUP1 SWAP2 SUB SWAP1 LOG1 POP JUMP JUMPDEST PUSH1 0x1 SLOAD PUSH1 0x40 DUP1 MLOAD PUSH4 0x313CE567 PUSH1 0xE0 SHL DUP2 MSTORE SWAP1 MLOAD PUSH1 0x1 PUSH1 0x1 PUSH1 0xA0 SHL SUB SWAP1 SWAP3 AND SWAP2 PUSH4 0xEE67A1E5 SWAP2 CALLER SWAP2 DUP5 SWAP2 PUSH4 0x313CE567 SWAP2 PUSH1 0x4 DUP1 DUP4 ADD SWAP3 PUSH1 0x20 SWAP3 SWAP2 SWAP1 DUP3 SWAP1 SUB ADD DUP2 DUP7 GAS STATICCALL ISZERO DUP1 ISZERO PUSH2 0xAE9 JUMPI RETURNDATASIZE PUSH0 PUSH0 RETURNDATACOPY RETURNDATASIZE PUSH0 REVERT JUMPDEST POP POP POP POP PUSH1 0x40 MLOAD RETURNDATASIZE PUSH1 0x1F NOT PUSH1 0x1F DUP3 ADD AND DUP3 ADD DUP1 PUSH1 0x40 MSTORE POP DUP2 ADD SWAP1 PUSH2 0xB0D SWAP2 SWAP1 PUSH2 0x1DDC JUMP JUMPDEST PUSH2 0xB18 SWAP1 PUSH1 0xA PUSH2 0x1EF3 JUMP JUMPDEST PUSH2 0xB23 SWAP1 PUSH1 0x64 PUSH2 0x1F01 JUMP JUMPDEST PUSH1 0x40 MLOAD PUSH1 0x1 PUSH1 0x1 PUSH1 0xE0 SHL SUB NOT PUSH1 0xE0 DUP6 SWAP1 SHL AND DUP2 MSTORE PUSH1 0x1 PUSH1 0x1 PUSH1 0xA0 SHL SUB SWAP1 SWAP3 AND PUSH1 0x4 DUP4 ADD MSTORE PUSH1 0x24 DUP3 ADD MSTORE PUSH1 0x44 ADD PUSH0 PUSH1 0x40 MLOAD DUP1 DUP4 SUB DUP2 PUSH0 DUP8 DUP1 EXTCODESIZE ISZERO DUP1 ISZERO PUSH2 0xB66 JUMPI PUSH0 PUSH0 REVERT JUMPDEST POP GAS CALL ISZERO DUP1 ISZERO PUSH2 0xB78 JUMPI RETURNDATASIZE PUSH0 PUSH0 RETURNDATACOPY RETURNDATASIZE PUSH0 REVERT JUMPDEST POP POP POP POP JUMP JUMPDEST PUSH2 0xB86 PUSH2 0x1674 JUMP JUMPDEST PUSH2 0xB8F PUSH0 PUSH2 0x16A0 JUMP JUMPDEST JUMP JUMPDEST PUSH0 PUSH0 PUSH1 0x9 DUP7 PUSH1 0x40 MLOAD PUSH2 0xBA3 SWAP2 SWAP1 PUSH2 0x1DBF JUMP JUMPDEST SWAP1 DUP2 MSTORE PUSH1 0x40 MLOAD SWAP1 DUP2 SWAP1 SUB PUSH1 0x20 ADD SWAP1 KECCAK256 SLOAD SWAP1 POP DUP1 PUSH2 0xBF8 JUMPI PUSH1 0x40 MLOAD PUSH3 0x461BCD PUSH1 0xE5 SHL DUP2 MSTORE PUSH1 0x20 PUSH1 0x4 DUP3 ADD MSTORE PUSH1 0xE PUSH1 0x24 DUP3 ADD MSTORE PUSH14 0x141BDBDB081B9BDD08199BDD5B99 PUSH1 0x92 SHL PUSH1 0x44 DUP3 ADD MSTORE PUSH1 0x64 ADD JUMPDEST PUSH1 0x40 MLOAD DUP1 SWAP2 SUB SWAP1 REVERT JUMPDEST PUSH1 0x40 MLOAD PUSH4 0x23B872DD PUSH1 0xE0 SHL DUP2 MSTORE CALLER PUSH1 0x4 DUP3 ADD MSTORE ADDRESS PUSH1 0x24 DUP3 ADD MSTORE PUSH1 0x44 DUP2 ADD DUP6 SWAP1 MSTORE PUSH1 0x1 PUSH1 0x1 PUSH1 0xA0 SHL SUB DUP7 AND SWAP1 PUSH4 0x23B872DD SWAP1 PUSH1 0x64 ADD PUSH1 0x20 PUSH1 0x40 MLOAD DUP1 DUP4 SUB DUP2 PUSH0 DUP8 GAS CALL ISZERO DUP1 ISZERO PUSH2 0xC48 JUMPI RETURNDATASIZE PUSH0 PUSH0 RETURNDATACOPY RETURNDATASIZE PUSH0 REVERT JUMPDEST POP POP POP POP PUSH1 0x40 MLOAD RETURNDATASIZE PUSH1 0x1F NOT PUSH1 0x1F DUP3 ADD AND DUP3 ADD DUP1 PUSH1 0x40 MSTORE POP DUP2 ADD SWAP1 PUSH2 0xC6C SWAP2 SWAP1 PUSH2 0x2077 JUMP JUMPDEST POP PUSH1 0x4 DUP1 SLOAD PUSH1 0x40 MLOAD PUSH4 0x95EA7B3 PUSH1 0xE0 SHL DUP2 MSTORE PUSH1 0x1 PUSH1 0x1 PUSH1 0xA0 SHL SUB SWAP2 DUP3 AND SWAP3 DUP2 ADD SWAP3 SWAP1 SWAP3 MSTORE PUSH1 0x24 DUP3 ADD DUP7 SWAP1 MSTORE DUP7 AND SWAP1 PUSH4 0x95EA7B3 SWAP1 PUSH1 0x44 ADD PUSH1 0x20 PUSH1 0x40 MLOAD DUP1 DUP4 SUB DUP2 PUSH0 DUP8 GAS CALL ISZERO DUP1 ISZERO PUSH2 0xCBF JUMPI RETURNDATASIZE PUSH0 PUSH0 RETURNDATACOPY RETURNDATASIZE PUSH0 REVERT JUMPDEST POP POP POP POP PUSH1 0x40 MLOAD RETURNDATASIZE PUSH1 0x1F NOT PUSH1 0x1F DUP3 ADD AND DUP3 ADD DUP1 PUSH1 0x40 MSTORE POP DUP2 ADD SWAP1 PUSH2 0xCE3 SWAP2 SWAP1 PUSH2 0x2077 JUMP JUMPDEST POP PUSH1 0x4 DUP1 SLOAD PUSH1 0x40 MLOAD PUSH4 0x4669660F PUSH1 0xE0 SHL DUP2 MSTORE SWAP2 DUP3 ADD DUP4 SWAP1 MSTORE PUSH1 0x1 PUSH1 0x1 PUSH1 0xA0 SHL SUB DUP8 DUP2 AND PUSH1 0x24 DUP5 ADD MSTORE PUSH1 0x44 DUP4 ADD DUP8 SWAP1 MSTORE PUSH1 0x64 DUP4 ADD DUP7 SWAP1 MSTORE AND SWAP1 PUSH4 0x4669660F SWAP1 PUSH1 0x84 ADD PUSH1 0x20 PUSH1 0x40 MLOAD DUP1 DUP4 SUB DUP2 PUSH0 DUP8 GAS CALL ISZERO DUP1 ISZERO PUSH2 0xD40 JUMPI RETURNDATASIZE PUSH0 PUSH0 RETURNDATACOPY RETURNDATASIZE PUSH0 REVERT JUMPDEST POP POP POP POP PUSH1 0x40 MLOAD RETURNDATASIZE PUSH1 0x1F NOT PUSH1 0x1F DUP3 ADD AND DUP3 ADD DUP1 PUSH1 0x40 MSTORE POP DUP2 ADD SWAP1 PUSH2 0xD64 SWAP2 SWAP1 PUSH2 0x1D91 JUMP JUMPDEST PUSH1 0x1 SLOAD SWAP1 SWAP3 POP PUSH0 SWAP1 PUSH1 0x1 PUSH1 0x1 PUSH1 0xA0 SHL SUB DUP8 DUP2 AND SWAP2 AND EQ PUSH2 0xD8F JUMPI PUSH1 0x1 SLOAD PUSH1 0x1 PUSH1 0x1 PUSH1 0xA0 SHL SUB AND PUSH2 0xDB9 JUMP JUMPDEST PUSH1 0x8 DUP8 PUSH1 0x40 MLOAD PUSH2 0xD9F SWAP2 SWAP1 PUSH2 0x1DBF JUMP JUMPDEST SWAP1 DUP2 MSTORE PUSH1 0x40 MLOAD SWAP1 DUP2 SWAP1 SUB PUSH1 0x20 ADD SWAP1 KECCAK256 SLOAD PUSH1 0x1 PUSH1 0x1 PUSH1 0xA0 SHL SUB AND JUMPDEST PUSH1 0x40 MLOAD PUSH4 0xA9059CBB PUSH1 0xE0 SHL DUP2 MSTORE CALLER PUSH1 0x4 DUP3 ADD MSTORE PUSH1 0x24 DUP2 ADD DUP6 SWAP1 MSTORE SWAP1 SWAP2 POP PUSH1 0x1 PUSH1 0x1 PUSH1 0xA0 SHL SUB DUP3 AND SWAP1 PUSH4 0xA9059CBB SWAP1 PUSH1 0x44 ADD PUSH1 0x20 PUSH1 0x40 MLOAD DUP1 DUP4 SUB DUP2 PUSH0 DUP8 GAS CALL ISZERO DUP1 ISZERO PUSH2 0xE06 JUMPI RETURNDATASIZE PUSH0 PUSH0 RETURNDATACOPY RETURNDATASIZE PUSH0 REVERT JUMPDEST POP POP POP POP PUSH1 0x40 MLOAD RETURNDATASIZE PUSH1 0x1F NOT PUSH1 0x1F DUP3 ADD AND DUP3 ADD DUP1 PUSH1 0x40 MSTORE POP DUP2 ADD SWAP1 PUSH2 0xE2A SWAP2 SWAP1 PUSH2 0x2077 JUMP JUMPDEST POP POP POP SWAP5 SWAP4 POP POP POP POP JUMP JUMPDEST PUSH2 0xE6B PUSH1 0x40 MLOAD DUP1 PUSH1 0xC0 ADD PUSH1 0x40 MSTORE DUP1 PUSH0 DUP2 MSTORE PUSH1 0x20 ADD PUSH0 DUP2 MSTORE PUSH1 0x20 ADD PUSH0 DUP2 MSTORE PUSH1 0x20 ADD PUSH0 DUP2 MSTORE PUSH1 0x20 ADD PUSH1 0x60 DUP2 MSTORE PUSH1 0x20 ADD PUSH0 ISZERO ISZERO DUP2 MSTORE POP SWAP1 JUMP JUMPDEST PUSH1 0x2 PUSH0 SWAP1 SLOAD SWAP1 PUSH2 0x100 EXP SWAP1 DIV PUSH1 0x1 PUSH1 0x1 PUSH1 0xA0 SHL SUB AND PUSH1 0x1 PUSH1 0x1 PUSH1 0xA0 SHL SUB AND PUSH4 0x80821C37 PUSH1 0x40 MLOAD DUP2 PUSH4 0xFFFFFFFF AND PUSH1 0xE0 SHL DUP2 MSTORE PUSH1 0x4 ADD PUSH0 PUSH1 0x40 MLOAD DUP1 DUP4 SUB DUP2 DUP7 GAS STATICCALL ISZERO DUP1 ISZERO PUSH2 0xEBA JUMPI RETURNDATASIZE PUSH0 PUSH0 RETURNDATACOPY RETURNDATASIZE PUSH0 REVERT JUMPDEST POP POP POP POP PUSH1 0x40 MLOAD RETURNDATASIZE PUSH0 DUP3 RETURNDATACOPY PUSH1 0x1F RETURNDATASIZE SWAP1 DUP2 ADD PUSH1 0x1F NOT AND DUP3 ADD PUSH1 0x40 MSTORE PUSH2 0x919 SWAP2 SWAP1 DUP2 ADD SWAP1 PUSH2 0x2090 JUMP JUMPDEST PUSH0 PUSH0 PUSH1 0x9 DUP6 PUSH1 0x40 MLOAD PUSH2 0xEF3 SWAP2 SWAP1 PUSH2 0x1DBF JUMP JUMPDEST SWAP1 DUP2 MSTORE PUSH1 0x40 MLOAD SWAP1 DUP2 SWAP1 SUB PUSH1 0x20 ADD DUP2 KECCAK256 SLOAD PUSH1 0x4 DUP1 SLOAD PUSH4 0x3E58A01D PUSH1 0xE1 SHL DUP5 MSTORE SWAP1 DUP4 ADD DUP3 SWAP1 MSTORE PUSH1 0x1 PUSH1 0x1 PUSH1 0xA0 SHL SUB DUP8 DUP2 AND PUSH1 0x24 DUP6 ADD MSTORE PUSH1 0x44 DUP5 ADD DUP8 SWAP1 MSTORE SWAP2 SWAP4 POP AND SWAP1 PUSH4 0x7CB1403A SWAP1 PUSH1 0x64 ADD PUSH1 0x20 PUSH1 0x40 MLOAD DUP1 DUP4 SUB DUP2 DUP7 GAS STATICCALL ISZERO DUP1 ISZERO PUSH2 0xF57 JUMPI RETURNDATASIZE PUSH0 PUSH0 RETURNDATACOPY RETURNDATASIZE PUSH0 REVERT JUMPDEST POP POP POP POP PUSH1 0x40 MLOAD RETURNDATASIZE PUSH1 0x1F NOT PUSH1 0x1F DUP3 ADD AND DUP3 ADD DUP1 PUSH1 0x40 MSTORE POP DUP2 ADD SWAP1 PUSH2 0xF7B SWAP2 SWAP1 PUSH2 0x1D91 JUMP JUMPDEST SWAP6 SWAP5 POP POP POP POP POP JUMP JUMPDEST PUSH1 0x5 SLOAD PUSH1 0x1 PUSH1 0x1 PUSH1 0xA0 SHL SUB AND CALLER EQ DUP1 ISZERO SWAP1 PUSH2 0xFA9 JUMPI POP PUSH0 SLOAD PUSH1 0x1 PUSH1 0x1 PUSH1 0xA0 SHL SUB AND CALLER EQ ISZERO JUMPDEST ISZERO PUSH2 0xFC7 JUMPI PUSH1 0x40 MLOAD PUSH4 0x6BBAA1C1 PUSH1 0xE0 SHL DUP2 MSTORE PUSH1 0x4 ADD PUSH1 0x40 MLOAD DUP1 SWAP2 SUB SWAP1 REVERT JUMPDEST PUSH2 0xFD0 DUP4 PUSH2 0x91E JUMP JUMPDEST PUSH0 JUMPDEST DUP2 DUP2 LT ISZERO PUSH2 0xB78 JUMPI PUSH2 0x100F DUP4 DUP4 DUP4 DUP2 DUP2 LT PUSH2 0xFEF JUMPI PUSH2 0xFEF PUSH2 0x2133 JUMP JUMPDEST SWAP1 POP PUSH1 0x20 MUL DUP2 ADD SWAP1 PUSH2 0x1001 SWAP2 SWAP1 PUSH2 0x2147 JUMP JUMPDEST PUSH2 0x100A SWAP1 PUSH2 0x2165 JUMP JUMPDEST PUSH2 0x11EE JUMP JUMPDEST PUSH1 0x1 ADD PUSH2 0xFD2 JUMP JUMPDEST PUSH0 PUSH0 PUSH0 PUSH1 0x9 DUP5 PUSH1 0x40 MLOAD PUSH2 0x102A SWAP2 SWAP1 PUSH2 0x1DBF JUMP JUMPDEST SWAP1 DUP2 MSTORE PUSH1 0x40 MLOAD SWAP1 DUP2 SWAP1 SUB PUSH1 0x20 ADD DUP2 KECCAK256 SLOAD PUSH1 0x4 DUP1 SLOAD PUSH4 0x14953D31 PUSH1 0xE3 SHL DUP5 MSTORE SWAP1 DUP4 ADD DUP3 SWAP1 MSTORE SWAP1 SWAP3 POP PUSH1 0x1 PUSH1 0x1 PUSH1 0xA0 SHL SUB AND SWAP1 PUSH4 0xA4A9E988 SWAP1 PUSH1 0x24 ADD PUSH1 0x40 DUP1 MLOAD DUP1 DUP4 SUB DUP2 DUP7 GAS STATICCALL ISZERO DUP1 ISZERO PUSH2 0x107E JUMPI RETURNDATASIZE PUSH0 PUSH0 RETURNDATACOPY RETURNDATASIZE PUSH0 REVERT JUMPDEST POP POP POP POP PUSH1 0x40 MLOAD RETURNDATASIZE PUSH1 0x1F NOT PUSH1 0x1F DUP3 ADD AND DUP3 ADD DUP1 PUSH1 0x40 MSTORE POP DUP2 ADD SWAP1 PUSH2 0x10A2 SWAP2 SWAP1 PUSH2 0x2264 JUMP JUMPDEST SWAP3 POP SWAP3 POP POP SWAP2 POP SWAP2 JUMP JUMPDEST PUSH0 PUSH1 0x8 DUP3 PUSH1 0x40 MLOAD PUSH2 0x10BD SWAP2 SWAP1 PUSH2 0x1DBF JUMP JUMPDEST SWAP1 DUP2 MSTORE PUSH1 0x40 MLOAD SWAP1 DUP2 SWAP1 SUB PUSH1 0x20 ADD SWAP1 KECCAK256 SLOAD PUSH1 0x1 PUSH1 0x1 PUSH1 0xA0 SHL SUB AND SWAP3 SWAP2 POP POP JUMP JUMPDEST PUSH2 0x1140 PUSH1 0x40 MLOAD DUP1 PUSH2 0x160 ADD PUSH1 0x40 MSTORE DUP1 PUSH1 0x60 DUP2 MSTORE PUSH1 0x20 ADD PUSH1 0x60 DUP2 MSTORE PUSH1 0x20 ADD PUSH1 0x60 DUP2 MSTORE PUSH1 0x20 ADD PUSH1 0x60 DUP2 MSTORE PUSH1 0x20 ADD PUSH1 0x60 DUP2 MSTORE PUSH1 0x20 ADD PUSH0 DUP2 MSTORE PUSH1 0x20 ADD PUSH0 PUSH1 0x1 PUSH1 0x1 PUSH1 0xA0 SHL SUB AND DUP2 MSTORE PUSH1 0x20 ADD PUSH0 ISZERO ISZERO DUP2 MSTORE PUSH1 0x20 ADD PUSH0 ISZERO ISZERO DUP2 MSTORE PUSH1 0x20 ADD PUSH0 DUP2 MSTORE PUSH1 0x20 ADD PUSH0 DUP2 MSTORE POP SWAP1 JUMP JUMPDEST PUSH1 0x2 SLOAD PUSH1 0x40 MLOAD PUSH4 0x25D3A09D PUSH1 0xE0 SHL DUP2 MSTORE PUSH1 0x1 PUSH1 0x1 PUSH1 0xA0 SHL SUB SWAP1 SWAP2 AND SWAP1 PUSH4 0x25D3A09D SWAP1 PUSH2 0x1170 SWAP1 DUP6 SWAP1 PUSH1 0x4 ADD PUSH2 0x1DCA JUMP JUMPDEST PUSH0 PUSH1 0x40 MLOAD DUP1 DUP4 SUB DUP2 DUP7 GAS STATICCALL ISZERO DUP1 ISZERO PUSH2 0x118A JUMPI RETURNDATASIZE PUSH0 PUSH0 RETURNDATACOPY RETURNDATASIZE PUSH0 REVERT JUMPDEST POP POP POP POP PUSH1 0x40 MLOAD RETURNDATASIZE PUSH0 DUP3 RETURNDATACOPY PUSH1 0x1F RETURNDATASIZE SWAP1 DUP2 ADD PUSH1 0x1F NOT AND DUP3 ADD PUSH1 0x40 MSTORE PUSH2 0x5DA SWAP2 SWAP1 DUP2 ADD SWAP1 PUSH2 0x2291 JUMP JUMPDEST PUSH2 0x11B9 PUSH2 0x1674 JUMP JUMPDEST PUSH1 0x1 PUSH1 0x1 PUSH1 0xA0 SHL SUB DUP2 AND PUSH2 0x11E2 JUMPI PUSH1 0x40 MLOAD PUSH4 0x1E4FBDF7 PUSH1 0xE0 SHL DUP2 MSTORE PUSH0 PUSH1 0x4 DUP3 ADD MSTORE PUSH1 0x24 ADD PUSH2 0xBEF JUMP JUMPDEST PUSH2 0x11EB DUP2 PUSH2 0x16A0 JUMP JUMPDEST POP JUMP JUMPDEST PUSH1 0x3 SLOAD DUP2 MLOAD PUSH1 0x20 DUP1 DUP5 ADD MLOAD PUSH1 0x40 MLOAD PUSH0 SWAP5 PUSH1 0x1 PUSH1 0x1 PUSH1 0xA0 SHL SUB AND SWAP4 PUSH4 0xB591B96C SWAP4 SWAP1 SWAP3 PUSH2 0x121C SWAP3 SWAP1 SWAP2 ADD PUSH2 0x23FB JUMP JUMPDEST PUSH1 0x40 MLOAD PUSH1 0x20 DUP2 DUP4 SUB SUB DUP2 MSTORE SWAP1 PUSH1 0x40 MSTORE DUP6 PUSH0 ADD MLOAD PUSH1 0x40 MLOAD PUSH1 0x20 ADD PUSH2 0x123F SWAP2 SWAP1 PUSH2 0x2415 JUMP JUMPDEST PUSH1 0x40 MLOAD PUSH1 0x20 DUP2 DUP4 SUB SUB DUP2 MSTORE SWAP1 PUSH1 0x40 MSTORE PUSH1 0x40 MLOAD DUP5 PUSH4 0xFFFFFFFF AND PUSH1 0xE0 SHL DUP2 MSTORE PUSH1 0x4 ADD PUSH2 0x126C SWAP4 SWAP3 SWAP2 SWAP1 PUSH2 0x242E JUMP JUMPDEST PUSH1 0x20 PUSH1 0x40 MLOAD DUP1 DUP4 SUB DUP2 PUSH0 DUP8 GAS CALL ISZERO DUP1 ISZERO PUSH2 0x1288 JUMPI RETURNDATASIZE PUSH0 PUSH0 RETURNDATACOPY RETURNDATASIZE PUSH0 REVERT JUMPDEST POP POP POP POP PUSH1 0x40 MLOAD RETURNDATASIZE PUSH1 0x1F NOT PUSH1 0x1F DUP3 ADD AND DUP3 ADD DUP1 PUSH1 0x40 MSTORE POP DUP2 ADD SWAP1 PUSH2 0x12AC SWAP2 SWAP1 PUSH2 0x2466 JUMP JUMPDEST SWAP1 POP DUP1 PUSH1 0x8 DUP4 PUSH0 ADD MLOAD PUSH1 0x40 MLOAD PUSH2 0x12C2 SWAP2 SWAP1 PUSH2 0x1DBF JUMP JUMPDEST SWAP1 DUP2 MSTORE PUSH1 0x40 MLOAD SWAP1 DUP2 SWAP1 SUB PUSH1 0x20 ADD DUP2 KECCAK256 DUP1 SLOAD PUSH1 0x1 PUSH1 0x1 PUSH1 0xA0 SHL SUB SWAP4 DUP5 AND PUSH1 0x1 PUSH1 0x1 PUSH1 0xA0 SHL SUB NOT SWAP1 SWAP2 AND OR SWAP1 SSTORE PUSH1 0x4 DUP1 SLOAD DUP6 MLOAD PUSH1 0x1 SLOAD PUSH4 0x56CD61D7 PUSH1 0xE0 SHL DUP6 MSTORE PUSH0 SWAP6 SWAP3 DUP4 AND SWAP5 PUSH4 0x56CD61D7 SWAP5 PUSH2 0x131D SWAP5 SWAP3 SWAP1 SWAP3 AND SWAP2 DUP9 SWAP2 ADD PUSH2 0x2481 JUMP JUMPDEST PUSH1 0x20 PUSH1 0x40 MLOAD DUP1 DUP4 SUB DUP2 PUSH0 DUP8 GAS CALL ISZERO DUP1 ISZERO PUSH2 0x1339 JUMPI RETURNDATASIZE PUSH0 PUSH0 RETURNDATACOPY RETURNDATASIZE PUSH0 REVERT JUMPDEST POP POP POP POP PUSH1 0x40 MLOAD RETURNDATASIZE PUSH1 0x1F NOT PUSH1 0x1F DUP3 ADD AND DUP3 ADD DUP1 PUSH1 0x40 MSTORE POP DUP2 ADD SWAP1 PUSH2 0x135D SWAP2 SWAP1 PUSH2 0x1D91 JUMP JUMPDEST SWAP1 POP DUP1 PUSH1 0x9 DUP5 PUSH0 ADD MLOAD PUSH1 0x40 MLOAD PUSH2 0x1373 SWAP2 SWAP1 PUSH2 0x1DBF JUMP JUMPDEST SWAP1 DUP2 MSTORE PUSH1 0x40 MLOAD SWAP1 DUP2 SWAP1 SUB PUSH1 0x20 ADD SWAP1 KECCAK256 SSTORE PUSH1 0xC0 DUP4 ADD MLOAD ISZERO PUSH2 0x15B4 JUMPI PUSH1 0x1 SLOAD PUSH1 0xC0 DUP5 ADD MLOAD PUSH1 0x40 MLOAD PUSH4 0x40C10F19 PUSH1 0xE0 SHL DUP2 MSTORE ADDRESS PUSH1 0x4 DUP3 ADD MSTORE PUSH1 0x24 DUP2 ADD SWAP2 SWAP1 SWAP2 MSTORE PUSH1 0x1 PUSH1 0x1 PUSH1 0xA0 SHL SUB SWAP1 SWAP2 AND SWAP1 PUSH4 0x40C10F19 SWAP1 PUSH1 0x44 ADD PUSH0 PUSH1 0x40 MLOAD DUP1 DUP4 SUB DUP2 PUSH0 DUP8 DUP1 EXTCODESIZE ISZERO DUP1 ISZERO PUSH2 0x13DC JUMPI PUSH0 PUSH0 REVERT JUMPDEST POP GAS CALL ISZERO DUP1 ISZERO PUSH2 0x13EE JUMPI RETURNDATASIZE PUSH0 PUSH0 RETURNDATACOPY RETURNDATASIZE PUSH0 REVERT JUMPDEST POP POP POP POP PUSH1 0xC0 DUP4 ADD MLOAD PUSH1 0x40 MLOAD PUSH4 0x40C10F19 PUSH1 0xE0 SHL DUP2 MSTORE ADDRESS PUSH1 0x4 DUP3 ADD MSTORE PUSH1 0x24 DUP2 ADD SWAP2 SWAP1 SWAP2 MSTORE PUSH1 0x1 PUSH1 0x1 PUSH1 0xA0 SHL SUB DUP4 AND SWAP1 PUSH4 0x40C10F19 SWAP1 PUSH1 0x44 ADD PUSH0 PUSH1 0x40 MLOAD DUP1 DUP4 SUB DUP2 PUSH0 DUP8 DUP1 EXTCODESIZE ISZERO DUP1 ISZERO PUSH2 0x143D JUMPI PUSH0 PUSH0 REVERT JUMPDEST POP GAS CALL ISZERO DUP1 ISZERO PUSH2 0x144F JUMPI RETURNDATASIZE PUSH0 PUSH0 RETURNDATACOPY RETURNDATASIZE PUSH0 REVERT JUMPDEST POP POP PUSH1 0x1 SLOAD PUSH1 0x4 DUP1 SLOAD PUSH1 0xC0 DUP9 ADD MLOAD PUSH1 0x40 MLOAD PUSH4 0x95EA7B3 PUSH1 0xE0 SHL DUP2 MSTORE PUSH1 0x1 PUSH1 0x1 PUSH1 0xA0 SHL SUB SWAP3 DUP4 AND SWAP4 DUP2 ADD SWAP4 SWAP1 SWAP4 MSTORE PUSH1 0x24 DUP4 ADD MSTORE SWAP1 SWAP2 AND SWAP3 POP PUSH4 0x95EA7B3 SWAP2 POP PUSH1 0x44 ADD PUSH1 0x20 PUSH1 0x40 MLOAD DUP1 DUP4 SUB DUP2 PUSH0 DUP8 GAS CALL ISZERO DUP1 ISZERO PUSH2 0x14AC JUMPI RETURNDATASIZE PUSH0 PUSH0 RETURNDATACOPY RETURNDATASIZE PUSH0 REVERT JUMPDEST POP POP POP POP PUSH1 0x40 MLOAD RETURNDATASIZE PUSH1 0x1F NOT PUSH1 0x1F DUP3 ADD AND DUP3 ADD DUP1 PUSH1 0x40 MSTORE POP DUP2 ADD SWAP1 PUSH2 0x14D0 SWAP2 SWAP1 PUSH2 0x2077 JUMP JUMPDEST POP PUSH1 0x4 DUP1 SLOAD PUSH1 0xC0 DUP6 ADD MLOAD PUSH1 0x40 MLOAD PUSH4 0x95EA7B3 PUSH1 0xE0 SHL DUP2 MSTORE PUSH1 0x1 PUSH1 0x1 PUSH1 0xA0 SHL SUB SWAP3 DUP4 AND SWAP4 DUP2 ADD SWAP4 SWAP1 SWAP4 MSTORE PUSH1 0x24 DUP4 ADD MSTORE DUP4 AND SWAP1 PUSH4 0x95EA7B3 SWAP1 PUSH1 0x44 ADD PUSH1 0x20 PUSH1 0x40 MLOAD DUP1 DUP4 SUB DUP2 PUSH0 DUP8 GAS CALL ISZERO DUP1 ISZERO PUSH2 0x1526 JUMPI RETURNDATASIZE PUSH0 PUSH0 RETURNDATACOPY RETURNDATASIZE PUSH0 REVERT JUMPDEST POP POP POP POP PUSH1 0x40 MLOAD RETURNDATASIZE PUSH1 0x1F NOT PUSH1 0x1F DUP3 ADD AND DUP3 ADD DUP1 PUSH1 0x40 MSTORE POP DUP2 ADD SWAP1 PUSH2 0x154A SWAP2 SWAP1 PUSH2 0x2077 JUMP JUMPDEST POP PUSH1 0x4 DUP1 SLOAD PUSH1 0xC0 DUP6 ADD MLOAD PUSH1 0x40 MLOAD PUSH4 0x1C6B39FB PUSH1 0xE2 SHL DUP2 MSTORE SWAP3 DUP4 ADD DUP5 SWAP1 MSTORE PUSH1 0x24 DUP4 ADD DUP2 SWAP1 MSTORE PUSH1 0x44 DUP4 ADD MSTORE PUSH1 0x1 PUSH1 0x1 PUSH1 0xA0 SHL SUB AND SWAP1 PUSH4 0x71ACE7EC SWAP1 PUSH1 0x64 ADD PUSH0 PUSH1 0x40 MLOAD DUP1 DUP4 SUB DUP2 PUSH0 DUP8 DUP1 EXTCODESIZE ISZERO DUP1 ISZERO PUSH2 0x159D JUMPI PUSH0 PUSH0 REVERT JUMPDEST POP GAS CALL ISZERO DUP1 ISZERO PUSH2 0x15AF JUMPI RETURNDATASIZE PUSH0 PUSH0 RETURNDATACOPY RETURNDATASIZE PUSH0 REVERT JUMPDEST POP POP POP POP JUMPDEST PUSH1 0x2 SLOAD DUP4 MLOAD PUSH1 0x20 DUP6 ADD MLOAD PUSH1 0x40 DUP1 DUP8 ADD MLOAD PUSH1 0x60 DUP9 ADD MLOAD PUSH1 0x80 DUP10 ADD MLOAD PUSH1 0xA0 DUP11 ADD MLOAD SWAP4 MLOAD PUSH4 0x3AFC7C71 PUSH1 0xE2 SHL DUP2 MSTORE PUSH1 0x1 PUSH1 0x1 PUSH1 0xA0 SHL SUB SWAP1 SWAP8 AND SWAP7 PUSH4 0xEBF1F1C4 SWAP7 PUSH2 0x1606 SWAP7 SWAP1 SWAP6 SWAP1 SWAP5 SWAP4 SWAP3 SWAP2 DUP12 SWAP1 PUSH1 0x4 ADD PUSH2 0x24B3 JUMP JUMPDEST PUSH0 PUSH1 0x40 MLOAD DUP1 DUP4 SUB DUP2 PUSH0 DUP8 DUP1 EXTCODESIZE ISZERO DUP1 ISZERO PUSH2 0x161D JUMPI PUSH0 PUSH0 REVERT JUMPDEST POP GAS CALL ISZERO DUP1 ISZERO PUSH2 0x162F JUMPI RETURNDATASIZE PUSH0 PUSH0 RETURNDATACOPY RETURNDATASIZE PUSH0 REVERT JUMPDEST POP POP DUP5 MLOAD PUSH1 0x40 MLOAD PUSH32 0x617E6C431F9E799BD15607DDE27F4439EEC832F081CE7F16A9DFAF9DC32E162B SWAP4 POP PUSH2 0x1667 SWAP3 POP DUP6 SWAP1 DUP6 SWAP1 PUSH2 0x2538 JUMP JUMPDEST PUSH1 0x40 MLOAD DUP1 SWAP2 SUB SWAP1 LOG1 POP POP POP JUMP JUMPDEST PUSH0 SLOAD PUSH1 0x1 PUSH1 0x1 PUSH1 0xA0 SHL SUB AND CALLER EQ PUSH2 0xB8F JUMPI PUSH1 0x40 MLOAD PUSH4 0x118CDAA7 PUSH1 0xE0 SHL DUP2 MSTORE CALLER PUSH1 0x4 DUP3 ADD MSTORE PUSH1 0x24 ADD PUSH2 0xBEF JUMP JUMPDEST PUSH0 DUP1 SLOAD PUSH1 0x1 PUSH1 0x1 PUSH1 0xA0 SHL SUB DUP4 DUP2 AND PUSH1 0x1 PUSH1 0x1 PUSH1 0xA0 SHL SUB NOT DUP4 AND DUP2 OR DUP5 SSTORE PUSH1 0x40 MLOAD SWAP2 SWAP1 SWAP3 AND SWAP3 DUP4 SWAP2 PUSH32 0x8BE0079C531659141344CD1FD0A4F28419497F9722A3DAAFE3B4186F6B6457E0 SWAP2 SWAP1 LOG3 POP POP JUMP JUMPDEST PUSH4 0x4E487B71 PUSH1 0xE0 SHL PUSH0 MSTORE PUSH1 0x41 PUSH1 0x4 MSTORE PUSH1 0x24 PUSH0 REVERT JUMPDEST PUSH1 0x40 MLOAD PUSH1 0xC0 DUP2 ADD PUSH1 0x1 PUSH1 0x1 PUSH1 0x40 SHL SUB DUP2 GT DUP3 DUP3 LT OR ISZERO PUSH2 0x1725 JUMPI PUSH2 0x1725 PUSH2 0x16EF JUMP JUMPDEST PUSH1 0x40 MSTORE SWAP1 JUMP JUMPDEST PUSH1 0x40 MLOAD PUSH1 0xE0 DUP2 ADD PUSH1 0x1 PUSH1 0x1 PUSH1 0x40 SHL SUB DUP2 GT DUP3 DUP3 LT OR ISZERO PUSH2 0x1725 JUMPI PUSH2 0x1725 PUSH2 0x16EF JUMP JUMPDEST PUSH1 0x40 MLOAD PUSH2 0x160 DUP2 ADD PUSH1 0x1 PUSH1 0x1 PUSH1 0x40 SHL SUB DUP2 GT DUP3 DUP3 LT OR ISZERO PUSH2 0x1725 JUMPI PUSH2 0x1725 PUSH2 0x16EF JUMP JUMPDEST PUSH1 0x40 MLOAD PUSH1 0x1F DUP3 ADD PUSH1 0x1F NOT AND DUP2 ADD PUSH1 0x1 PUSH1 0x1 PUSH1 0x40 SHL SUB DUP2 GT DUP3 DUP3 LT OR ISZERO PUSH2 0x1798 JUMPI PUSH2 0x1798 PUSH2 0x16EF JUMP JUMPDEST PUSH1 0x40 MSTORE SWAP2 SWAP1 POP JUMP JUMPDEST PUSH0 PUSH1 0x1 PUSH1 0x1 PUSH1 0x40 SHL SUB DUP3 GT ISZERO PUSH2 0x17B8 JUMPI PUSH2 0x17B8 PUSH2 0x16EF JUMP JUMPDEST POP PUSH1 0x1F ADD PUSH1 0x1F NOT AND PUSH1 0x20 ADD SWAP1 JUMP JUMPDEST PUSH0 DUP3 PUSH1 0x1F DUP4 ADD SLT PUSH2 0x17D5 JUMPI PUSH0 PUSH0 REVERT JUMPDEST DUP2 CALLDATALOAD PUSH2 0x17E8 PUSH2 0x17E3 DUP3 PUSH2 0x17A0 JUMP JUMPDEST PUSH2 0x1770 JUMP JUMPDEST DUP2 DUP2 MSTORE DUP5 PUSH1 0x20 DUP4 DUP7 ADD ADD GT ISZERO PUSH2 0x17FC JUMPI PUSH0 PUSH0 REVERT JUMPDEST DUP2 PUSH1 0x20 DUP6 ADD PUSH1 0x20 DUP4 ADD CALLDATACOPY PUSH0 SWAP2 DUP2 ADD PUSH1 0x20 ADD SWAP2 SWAP1 SWAP2 MSTORE SWAP4 SWAP3 POP POP POP JUMP JUMPDEST PUSH0 PUSH0 PUSH1 0x40 DUP4 DUP6 SUB SLT ISZERO PUSH2 0x1829 JUMPI PUSH0 PUSH0 REVERT JUMPDEST DUP3 CALLDATALOAD PUSH1 0x1 PUSH1 0x1 PUSH1 0x40 SHL SUB DUP2 GT ISZERO PUSH2 0x183E JUMPI PUSH0 PUSH0 REVERT JUMPDEST PUSH2 0x184A DUP6 DUP3 DUP7 ADD PUSH2 0x17C6 JUMP JUMPDEST SWAP6 PUSH1 0x20 SWAP5 SWAP1 SWAP5 ADD CALLDATALOAD SWAP5 POP POP POP POP JUMP JUMPDEST PUSH1 0x1 PUSH1 0x1 PUSH1 0xA0 SHL SUB DUP2 AND DUP2 EQ PUSH2 0x11EB JUMPI PUSH0 PUSH0 REVERT JUMPDEST PUSH0 PUSH1 0x20 DUP3 DUP5 SUB SLT ISZERO PUSH2 0x187D JUMPI PUSH0 PUSH0 REVERT JUMPDEST DUP2 CALLDATALOAD PUSH2 0x1888 DUP2 PUSH2 0x1859 JUMP JUMPDEST SWAP4 SWAP3 POP POP POP JUMP JUMPDEST PUSH0 PUSH0 PUSH1 0x40 DUP4 DUP6 SUB SLT ISZERO PUSH2 0x18A0 JUMPI PUSH0 PUSH0 REVERT JUMPDEST DUP3 CALLDATALOAD PUSH1 0x1 PUSH1 0x1 PUSH1 0x40 SHL SUB DUP2 GT ISZERO PUSH2 0x18B5 JUMPI PUSH0 PUSH0 REVERT JUMPDEST PUSH2 0x18C1 DUP6 DUP3 DUP7 ADD PUSH2 0x17C6 JUMP JUMPDEST SWAP3 POP POP PUSH1 0x20 DUP4 ADD CALLDATALOAD PUSH2 0x18D2 DUP2 PUSH2 0x1859 JUMP JUMPDEST DUP1 SWAP2 POP POP SWAP3 POP SWAP3 SWAP1 POP JUMP JUMPDEST PUSH0 PUSH1 0x20 DUP3 DUP5 SUB SLT ISZERO PUSH2 0x18ED JUMPI PUSH0 PUSH0 REVERT JUMPDEST DUP2 CALLDATALOAD PUSH1 0x1 PUSH1 0x1 PUSH1 0x40 SHL SUB DUP2 GT ISZERO PUSH2 0x1902 JUMPI PUSH0 PUSH0 REVERT JUMPDEST PUSH2 0x683 DUP5 DUP3 DUP6 ADD PUSH2 0x17C6 JUMP JUMPDEST PUSH0 PUSH0 PUSH0 PUSH0 PUSH0 PUSH0 PUSH0 PUSH1 0xE0 DUP9 DUP11 SUB SLT ISZERO PUSH2 0x1924 JUMPI PUSH0 PUSH0 REVERT JUMPDEST DUP8 CALLDATALOAD PUSH1 0x1 PUSH1 0x1 PUSH1 0x40 SHL SUB DUP2 GT ISZERO PUSH2 0x1939 JUMPI PUSH0 PUSH0 REVERT JUMPDEST PUSH2 0x1945 DUP11 DUP3 DUP12 ADD PUSH2 0x17C6 JUMP JUMPDEST SWAP8 POP POP PUSH1 0x20 DUP9 ADD CALLDATALOAD PUSH1 0x1 PUSH1 0x1 PUSH1 0x40 SHL SUB DUP2 GT ISZERO PUSH2 0x1960 JUMPI PUSH0 PUSH0 REVERT JUMPDEST PUSH2 0x196C DUP11 DUP3 DUP12 ADD PUSH2 0x17C6 JUMP JUMPDEST SWAP7 POP POP PUSH1 0x40 DUP9 ADD CALLDATALOAD PUSH1 0x1 PUSH1 0x1 PUSH1 0x40 SHL SUB DUP2 GT ISZERO PUSH2 0x1987 JUMPI PUSH0 PUSH0 REVERT JUMPDEST PUSH2 0x1993 DUP11 DUP3 DUP12 ADD PUSH2 0x17C6 JUMP JUMPDEST SWAP6 POP POP PUSH1 0x60 DUP9 ADD CALLDATALOAD PUSH1 0x1 PUSH1 0x1 PUSH1 0x40 SHL SUB DUP2 GT ISZERO PUSH2 0x19AE JUMPI PUSH0 PUSH0 REVERT JUMPDEST PUSH2 0x19BA DUP11 DUP3 DUP12 ADD PUSH2 0x17C6 JUMP JUMPDEST SWAP5 POP POP PUSH1 0x80 DUP9 ADD CALLDATALOAD PUSH1 0x1 PUSH1 0x1 PUSH1 0x40 SHL SUB DUP2 GT ISZERO PUSH2 0x19D5 JUMPI PUSH0 PUSH0 REVERT JUMPDEST PUSH2 0x19E1 DUP11 DUP3 DUP12 ADD PUSH2 0x17C6 JUMP JUMPDEST SWAP8 SWAP11 SWAP7 SWAP10 POP SWAP5 SWAP8 SWAP4 SWAP7 SWAP6 PUSH1 0xA0 DUP6 ADD CALLDATALOAD SWAP6 POP PUSH1 0xC0 SWAP1 SWAP5 ADD CALLDATALOAD SWAP4 SWAP3 POP POP POP JUMP JUMPDEST PUSH0 DUP2 MLOAD DUP1 DUP5 MSTORE DUP1 PUSH1 0x20 DUP5 ADD PUSH1 0x20 DUP7 ADD MCOPY PUSH0 PUSH1 0x20 DUP3 DUP7 ADD ADD MSTORE PUSH1 0x20 PUSH1 0x1F NOT PUSH1 0x1F DUP4 ADD AND DUP6 ADD ADD SWAP2 POP POP SWAP3 SWAP2 POP POP JUMP JUMPDEST PUSH0 PUSH1 0x20 DUP3 ADD PUSH1 0x20 DUP4 MSTORE DUP1 DUP5 MLOAD DUP1 DUP4 MSTORE PUSH1 0x40 DUP6 ADD SWAP2 POP PUSH1 0x40 DUP2 PUSH1 0x5 SHL DUP7 ADD ADD SWAP3 POP PUSH1 0x20 DUP7 ADD PUSH0 JUMPDEST DUP3 DUP2 LT ISZERO PUSH2 0x1A84 JUMPI PUSH1 0x3F NOT DUP8 DUP7 SUB ADD DUP5 MSTORE PUSH2 0x1A6F DUP6 DUP4 MLOAD PUSH2 0x19FF JUMP JUMPDEST SWAP5 POP PUSH1 0x20 SWAP4 DUP5 ADD SWAP4 SWAP2 SWAP1 SWAP2 ADD SWAP1 PUSH1 0x1 ADD PUSH2 0x1A53 JUMP JUMPDEST POP SWAP3 SWAP7 SWAP6 POP POP POP POP POP POP JUMP JUMPDEST PUSH0 PUSH1 0x20 DUP3 DUP5 SUB SLT ISZERO PUSH2 0x1AA0 JUMPI PUSH0 PUSH0 REVERT JUMPDEST POP CALLDATALOAD SWAP2 SWAP1 POP JUMP JUMPDEST PUSH0 PUSH0 PUSH0 PUSH0 PUSH1 0x80 DUP6 DUP8 SUB SLT ISZERO PUSH2 0x1ABA JUMPI PUSH0 PUSH0 REVERT JUMPDEST DUP5 CALLDATALOAD PUSH1 0x1 PUSH1 0x1 PUSH1 0x40 SHL SUB DUP2 GT ISZERO PUSH2 0x1ACF JUMPI PUSH0 PUSH0 REVERT JUMPDEST PUSH2 0x1ADB DUP8 DUP3 DUP9 ADD PUSH2 0x17C6 JUMP JUMPDEST SWAP5 POP POP PUSH1 0x20 DUP6 ADD CALLDATALOAD PUSH2 0x1AEC DUP2 PUSH2 0x1859 JUMP JUMPDEST SWAP4 SWAP7 SWAP4 SWAP6 POP POP POP POP PUSH1 0x40 DUP3 ADD CALLDATALOAD SWAP2 PUSH1 0x60 ADD CALLDATALOAD SWAP1 JUMP JUMPDEST PUSH1 0x20 DUP2 MSTORE PUSH0 PUSH1 0xE0 DUP3 ADD DUP4 MLOAD PUSH1 0x20 DUP5 ADD MSTORE PUSH1 0x20 DUP5 ADD MLOAD PUSH1 0x40 DUP5 ADD MSTORE PUSH1 0x40 DUP5 ADD MLOAD PUSH1 0x60 DUP5 ADD MSTORE PUSH1 0x60 DUP5 ADD MLOAD PUSH1 0x80 DUP5 ADD MSTORE PUSH1 0x80 DUP5 ADD MLOAD PUSH1 0xC0 PUSH1 0xA0 DUP6 ADD MSTORE DUP2 DUP2 MLOAD DUP1 DUP5 MSTORE PUSH2 0x100 DUP7 ADD SWAP2 POP PUSH2 0x100 DUP2 PUSH1 0x5 SHL DUP8 ADD ADD SWAP4 POP PUSH1 0x20 DUP4 ADD SWAP3 POP PUSH0 JUMPDEST DUP2 DUP2 LT ISZERO PUSH2 0x1B8D JUMPI PUSH1 0xFF NOT DUP8 DUP7 SUB ADD DUP4 MSTORE PUSH2 0x1B78 DUP6 DUP6 MLOAD PUSH2 0x19FF JUMP JUMPDEST SWAP5 POP PUSH1 0x20 SWAP4 DUP5 ADD SWAP4 SWAP3 SWAP1 SWAP3 ADD SWAP2 PUSH1 0x1 ADD PUSH2 0x1B5C JUMP JUMPDEST POP POP POP POP PUSH1 0xA0 DUP5 ADD MLOAD DUP1 ISZERO ISZERO PUSH1 0xC0 DUP6 ADD MSTORE POP SWAP4 SWAP3 POP POP POP JUMP JUMPDEST PUSH0 PUSH0 PUSH0 PUSH1 0x60 DUP5 DUP7 SUB SLT ISZERO PUSH2 0x1BB8 JUMPI PUSH0 PUSH0 REVERT JUMPDEST DUP4 CALLDATALOAD PUSH1 0x1 PUSH1 0x1 PUSH1 0x40 SHL SUB DUP2 GT ISZERO PUSH2 0x1BCD JUMPI PUSH0 PUSH0 REVERT JUMPDEST PUSH2 0x1BD9 DUP7 DUP3 DUP8 ADD PUSH2 0x17C6 JUMP JUMPDEST SWAP4 POP POP PUSH1 0x20 DUP5 ADD CALLDATALOAD PUSH2 0x1BEA DUP2 PUSH2 0x1859 JUMP JUMPDEST SWAP3 SWAP6 SWAP3 SWAP5 POP POP POP PUSH1 0x40 SWAP2 SWAP1 SWAP2 ADD CALLDATALOAD SWAP1 JUMP JUMPDEST PUSH0 PUSH0 PUSH0 PUSH1 0x40 DUP5 DUP7 SUB SLT ISZERO PUSH2 0x1C0D JUMPI PUSH0 PUSH0 REVERT JUMPDEST DUP4 CALLDATALOAD SWAP3 POP PUSH1 0x20 DUP5 ADD CALLDATALOAD PUSH1 0x1 PUSH1 0x1 PUSH1 0x40 SHL SUB DUP2 GT ISZERO PUSH2 0x1C29 JUMPI PUSH0 PUSH0 REVERT JUMPDEST DUP5 ADD PUSH1 0x1F DUP2 ADD DUP7 SGT PUSH2 0x1C39 JUMPI PUSH0 PUSH0 REVERT JUMPDEST DUP1 CALLDATALOAD PUSH1 0x1 PUSH1 0x1 PUSH1 0x40 SHL SUB DUP2 GT ISZERO PUSH2 0x1C4E JUMPI PUSH0 PUSH0 REVERT JUMPDEST DUP7 PUSH1 0x20 DUP3 PUSH1 0x5 SHL DUP5 ADD ADD GT ISZERO PUSH2 0x1C62 JUMPI PUSH0 PUSH0 REVERT JUMPDEST SWAP4 SWAP7 PUSH1 0x20 SWAP2 SWAP1 SWAP2 ADD SWAP6 POP SWAP3 SWAP4 POP POP POP JUMP JUMPDEST PUSH1 0x20 DUP2 MSTORE PUSH0 DUP3 MLOAD PUSH2 0x160 PUSH1 0x20 DUP5 ADD MSTORE PUSH2 0x1C90 PUSH2 0x180 DUP5 ADD DUP3 PUSH2 0x19FF JUMP JUMPDEST SWAP1 POP PUSH1 0x20 DUP5 ADD MLOAD PUSH1 0x1F NOT DUP5 DUP4 SUB ADD PUSH1 0x40 DUP6 ADD MSTORE PUSH2 0x1CAD DUP3 DUP3 PUSH2 0x19FF JUMP JUMPDEST SWAP2 POP POP PUSH1 0x40 DUP5 ADD MLOAD PUSH1 0x1F NOT DUP5 DUP4 SUB ADD PUSH1 0x60 DUP6 ADD MSTORE PUSH2 0x1CCB DUP3 DUP3 PUSH2 0x19FF JUMP JUMPDEST SWAP2 POP POP PUSH1 0x60 DUP5 ADD MLOAD PUSH1 0x1F NOT DUP5 DUP4 SUB ADD PUSH1 0x80 DUP6 ADD MSTORE PUSH2 0x1CE9 DUP3 DUP3 PUSH2 0x19FF JUMP JUMPDEST SWAP2 POP POP PUSH1 0x80 DUP5 ADD MLOAD PUSH1 0x1F NOT DUP5 DUP4 SUB ADD PUSH1 0xA0 DUP6 ADD MSTORE PUSH2 0x1D07 DUP3 DUP3 PUSH2 0x19FF JUMP JUMPDEST SWAP2 POP POP PUSH1 0xA0 DUP5 ADD MLOAD PUSH1 0xC0 DUP5 ADD MSTORE PUSH1 0xC0 DUP5 ADD MLOAD PUSH2 0x1D2E PUSH1 0xE0 DUP6 ADD DUP3 PUSH1 0x1 PUSH1 0x1 PUSH1 0xA0 SHL SUB AND SWAP1 MSTORE JUMP JUMPDEST POP PUSH1 0xE0 DUP5 ADD MLOAD DUP1 ISZERO ISZERO PUSH2 0x100 DUP6 ADD MSTORE POP PUSH2 0x100 DUP5 ADD MLOAD DUP1 ISZERO ISZERO PUSH2 0x120 DUP6 ADD MSTORE POP PUSH2 0x120 DUP5 ADD MLOAD PUSH2 0x140 DUP5 ADD MSTORE PUSH2 0x140 DUP5 ADD MLOAD PUSH2 0x160 DUP5 ADD MSTORE DUP1 SWAP2 POP POP SWAP3 SWAP2 POP POP JUMP JUMPDEST PUSH1 0x40 DUP2 MSTORE PUSH0 PUSH2 0x1D82 PUSH1 0x40 DUP4 ADD DUP6 PUSH2 0x19FF JUMP JUMPDEST SWAP1 POP DUP3 PUSH1 0x20 DUP4 ADD MSTORE SWAP4 SWAP3 POP POP POP JUMP JUMPDEST PUSH0 PUSH1 0x20 DUP3 DUP5 SUB SLT ISZERO PUSH2 0x1DA1 JUMPI PUSH0 PUSH0 REVERT JUMPDEST POP MLOAD SWAP2 SWAP1 POP JUMP JUMPDEST PUSH0 DUP2 MLOAD DUP1 PUSH1 0x20 DUP5 ADD DUP6 MCOPY PUSH0 SWAP4 ADD SWAP3 DUP4 MSTORE POP SWAP1 SWAP2 SWAP1 POP JUMP JUMPDEST PUSH0 PUSH2 0x1888 DUP3 DUP5 PUSH2 0x1DA8 JUMP JUMPDEST PUSH1 0x20 DUP2 MSTORE PUSH0 PUSH2 0x1888 PUSH1 0x20 DUP4 ADD DUP5 PUSH2 0x19FF JUMP JUMPDEST PUSH0 PUSH1 0x20 DUP3 DUP5 SUB SLT ISZERO PUSH2 0x1DEC JUMPI PUSH0 PUSH0 REVERT JUMPDEST DUP2 MLOAD PUSH1 0xFF DUP2 AND DUP2 EQ PUSH2 0x1888 JUMPI PUSH0 PUSH0 REVERT JUMPDEST PUSH4 0x4E487B71 PUSH1 0xE0 SHL PUSH0 MSTORE PUSH1 0x11 PUSH1 0x4 MSTORE PUSH1 0x24 PUSH0 REVERT JUMPDEST PUSH1 0x1 DUP2 JUMPDEST PUSH1 0x1 DUP5 GT ISZERO PUSH2 0x1E4B JUMPI DUP1 DUP6 DIV DUP2 GT ISZERO PUSH2 0x1E2F JUMPI PUSH2 0x1E2F PUSH2 0x1DFC JUMP JUMPDEST PUSH1 0x1 DUP5 AND ISZERO PUSH2 0x1E3D JUMPI SWAP1 DUP2 MUL SWAP1 JUMPDEST PUSH1 0x1 SWAP4 SWAP1 SWAP4 SHR SWAP3 DUP1 MUL PUSH2 0x1E14 JUMP JUMPDEST SWAP4 POP SWAP4 SWAP2 POP POP JUMP JUMPDEST PUSH0 DUP3 PUSH2 0x1E61 JUMPI POP PUSH1 0x1 PUSH2 0x5DA JUMP JUMPDEST DUP2 PUSH2 0x1E6D JUMPI POP PUSH0 PUSH2 0x5DA JUMP JUMPDEST DUP2 PUSH1 0x1 DUP2 EQ PUSH2 0x1E83 JUMPI PUSH1 0x2 DUP2 EQ PUSH2 0x1E8D JUMPI PUSH2 0x1EA9 JUMP JUMPDEST PUSH1 0x1 SWAP2 POP POP PUSH2 0x5DA JUMP JUMPDEST PUSH1 0xFF DUP5 GT ISZERO PUSH2 0x1E9E JUMPI PUSH2 0x1E9E PUSH2 0x1DFC JUMP JUMPDEST POP POP PUSH1 0x1 DUP3 SHL PUSH2 0x5DA JUMP JUMPDEST POP PUSH1 0x20 DUP4 LT PUSH2 0x133 DUP4 LT AND PUSH1 0x4E DUP5 LT PUSH1 0xB DUP5 LT AND OR ISZERO PUSH2 0x1ECC JUMPI POP DUP2 DUP2 EXP PUSH2 0x5DA JUMP JUMPDEST PUSH2 0x1ED8 PUSH0 NOT DUP5 DUP5 PUSH2 0x1E10 JUMP JUMPDEST DUP1 PUSH0 NOT DIV DUP3 GT ISZERO PUSH2 0x1EEB JUMPI PUSH2 0x1EEB PUSH2 0x1DFC JUMP JUMPDEST MUL SWAP4 SWAP3 POP POP POP JUMP JUMPDEST PUSH0 PUSH2 0x1888 PUSH1 0xFF DUP5 AND DUP4 PUSH2 0x1E53 JUMP JUMPDEST DUP1 DUP3 MUL DUP2 ISZERO DUP3 DUP3 DIV DUP5 EQ OR PUSH2 0x5DA JUMPI PUSH2 0x5DA PUSH2 0x1DFC JUMP JUMPDEST PUSH0 DUP3 PUSH1 0x1F DUP4 ADD SLT PUSH2 0x1F27 JUMPI PUSH0 PUSH0 REVERT JUMPDEST DUP2 MLOAD PUSH2 0x1F35 PUSH2 0x17E3 DUP3 PUSH2 0x17A0 JUMP JUMPDEST DUP2 DUP2 MSTORE DUP5 PUSH1 0x20 DUP4 DUP7 ADD ADD GT ISZERO PUSH2 0x1F49 JUMPI PUSH0 PUSH0 REVERT JUMPDEST DUP2 PUSH1 0x20 DUP6 ADD PUSH1 0x20 DUP4 ADD MCOPY PUSH0 SWAP2 DUP2 ADD PUSH1 0x20 ADD SWAP2 SWAP1 SWAP2 MSTORE SWAP4 SWAP3 POP POP POP JUMP JUMPDEST PUSH0 DUP3 PUSH1 0x1F DUP4 ADD SLT PUSH2 0x1F74 JUMPI PUSH0 PUSH0 REVERT JUMPDEST DUP2 MLOAD PUSH1 0x1 PUSH1 0x1 PUSH1 0x40 SHL SUB DUP2 GT ISZERO PUSH2 0x1F8D JUMPI PUSH2 0x1F8D PUSH2 0x16EF JUMP JUMPDEST DUP1 PUSH1 0x5 SHL PUSH2 0x1F9D PUSH1 0x20 DUP3 ADD PUSH2 0x1770 JUMP JUMPDEST SWAP2 DUP3 MSTORE PUSH1 0x20 DUP2 DUP6 ADD DUP2 ADD SWAP3 SWAP1 DUP2 ADD SWAP1 DUP7 DUP5 GT ISZERO PUSH2 0x1FB8 JUMPI PUSH0 PUSH0 REVERT JUMPDEST PUSH1 0x20 DUP7 ADD SWAP3 POP JUMPDEST DUP4 DUP4 LT ISZERO PUSH2 0x1FFD JUMPI DUP3 MLOAD PUSH1 0x1 PUSH1 0x1 PUSH1 0x40 SHL SUB DUP2 GT ISZERO PUSH2 0x1FDC JUMPI PUSH0 PUSH0 REVERT JUMPDEST PUSH2 0x1FEB DUP9 PUSH1 0x20 DUP4 DUP11 ADD ADD PUSH2 0x1F18 JUMP JUMPDEST DUP4 MSTORE POP PUSH1 0x20 SWAP3 DUP4 ADD SWAP3 SWAP1 SWAP2 ADD SWAP1 PUSH2 0x1FBF JUMP JUMPDEST SWAP7 SWAP6 POP POP POP POP POP POP JUMP JUMPDEST PUSH0 PUSH1 0x20 DUP3 DUP5 SUB SLT ISZERO PUSH2 0x2017 JUMPI PUSH0 PUSH0 REVERT JUMPDEST DUP2 MLOAD PUSH1 0x1 PUSH1 0x1 PUSH1 0x40 SHL SUB DUP2 GT ISZERO PUSH2 0x202C JUMPI PUSH0 PUSH0 REVERT JUMPDEST PUSH2 0x683 DUP5 DUP3 DUP6 ADD PUSH2 0x1F65 JUMP JUMPDEST PUSH0 PUSH1 0x1 DUP3 ADD PUSH2 0x2049 JUMPI PUSH2 0x2049 PUSH2 0x1DFC JUMP JUMPDEST POP PUSH1 0x1 ADD SWAP1 JUMP JUMPDEST DUP1 DUP3 ADD DUP1 DUP3 GT ISZERO PUSH2 0x5DA JUMPI PUSH2 0x5DA PUSH2 0x1DFC JUMP JUMPDEST DUP1 MLOAD DUP1 ISZERO ISZERO DUP2 EQ PUSH2 0x2072 JUMPI PUSH0 PUSH0 REVERT JUMPDEST SWAP2 SWAP1 POP JUMP JUMPDEST PUSH0 PUSH1 0x20 DUP3 DUP5 SUB SLT ISZERO PUSH2 0x2087 JUMPI PUSH0 PUSH0 REVERT JUMPDEST PUSH2 0x1888 DUP3 PUSH2 0x2063 JUMP JUMPDEST PUSH0 PUSH1 0x20 DUP3 DUP5 SUB SLT ISZERO PUSH2 0x20A0 JUMPI PUSH0 PUSH0 REVERT JUMPDEST DUP2 MLOAD PUSH1 0x1 PUSH1 0x1 PUSH1 0x40 SHL SUB DUP2 GT ISZERO PUSH2 0x20B5 JUMPI PUSH0 PUSH0 REVERT JUMPDEST DUP3 ADD PUSH1 0xC0 DUP2 DUP6 SUB SLT ISZERO PUSH2 0x20C6 JUMPI PUSH0 PUSH0 REVERT JUMPDEST PUSH2 0x20CE PUSH2 0x1703 JUMP JUMPDEST DUP2 MLOAD DUP2 MSTORE PUSH1 0x20 DUP1 DUP4 ADD MLOAD SWAP1 DUP3 ADD MSTORE PUSH1 0x40 DUP1 DUP4 ADD MLOAD SWAP1 DUP3 ADD MSTORE PUSH1 0x60 DUP1 DUP4 ADD MLOAD SWAP1 DUP3 ADD MSTORE PUSH1 0x80 DUP3 ADD MLOAD PUSH1 0x1 PUSH1 0x1 PUSH1 0x40 SHL SUB DUP2 GT ISZERO PUSH2 0x2108 JUMPI PUSH0 PUSH0 REVERT JUMPDEST PUSH2 0x2114 DUP7 DUP3 DUP6 ADD PUSH2 0x1F65 JUMP JUMPDEST PUSH1 0x80 DUP4 ADD MSTORE POP PUSH2 0x2126 PUSH1 0xA0 DUP4 ADD PUSH2 0x2063 JUMP JUMPDEST PUSH1 0xA0 DUP3 ADD MSTORE SWAP5 SWAP4 POP POP POP POP JUMP JUMPDEST PUSH4 0x4E487B71 PUSH1 0xE0 SHL PUSH0 MSTORE PUSH1 0x32 PUSH1 0x4 MSTORE PUSH1 0x24 PUSH0 REVERT JUMPDEST PUSH0 DUP3 CALLDATALOAD PUSH1 0xDE NOT DUP4 CALLDATASIZE SUB ADD DUP2 SLT PUSH2 0x215B JUMPI PUSH0 PUSH0 REVERT JUMPDEST SWAP2 SWAP1 SWAP2 ADD SWAP3 SWAP2 POP POP JUMP JUMPDEST PUSH0 PUSH1 0xE0 DUP3 CALLDATASIZE SUB SLT ISZERO PUSH2 0x2175 JUMPI PUSH0 PUSH0 REVERT JUMPDEST PUSH2 0x217D PUSH2 0x172B JUMP JUMPDEST DUP3 CALLDATALOAD PUSH1 0x1 PUSH1 0x1 PUSH1 0x40 SHL SUB DUP2 GT ISZERO PUSH2 0x2192 JUMPI PUSH0 PUSH0 REVERT JUMPDEST PUSH2 0x219E CALLDATASIZE DUP3 DUP7 ADD PUSH2 0x17C6 JUMP JUMPDEST DUP3 MSTORE POP PUSH1 0x20 DUP4 ADD CALLDATALOAD PUSH1 0x1 PUSH1 0x1 PUSH1 0x40 SHL SUB DUP2 GT ISZERO PUSH2 0x21B9 JUMPI PUSH0 PUSH0 REVERT JUMPDEST PUSH2 0x21C5 CALLDATASIZE DUP3 DUP7 ADD PUSH2 0x17C6 JUMP JUMPDEST PUSH1 0x20 DUP4 ADD MSTORE POP PUSH1 0x40 DUP4 ADD CALLDATALOAD PUSH1 0x1 PUSH1 0x1 PUSH1 0x40 SHL SUB DUP2 GT ISZERO PUSH2 0x21E3 JUMPI PUSH0 PUSH0 REVERT JUMPDEST PUSH2 0x21EF CALLDATASIZE DUP3 DUP7 ADD PUSH2 0x17C6 JUMP JUMPDEST PUSH1 0x40 DUP4 ADD MSTORE POP PUSH1 0x60 DUP4 ADD CALLDATALOAD PUSH1 0x1 PUSH1 0x1 PUSH1 0x40 SHL SUB DUP2 GT ISZERO PUSH2 0x220D JUMPI PUSH0 PUSH0 REVERT JUMPDEST PUSH2 0x2219 CALLDATASIZE DUP3 DUP7 ADD PUSH2 0x17C6 JUMP JUMPDEST PUSH1 0x60 DUP4 ADD MSTORE POP PUSH1 0x80 DUP4 ADD CALLDATALOAD PUSH1 0x1 PUSH1 0x1 PUSH1 0x40 SHL SUB DUP2 GT ISZERO PUSH2 0x2237 JUMPI PUSH0 PUSH0 REVERT JUMPDEST PUSH2 0x2243 CALLDATASIZE DUP3 DUP7 ADD PUSH2 0x17C6 JUMP JUMPDEST PUSH1 0x80 DUP4 ADD MSTORE POP PUSH1 0xA0 DUP4 DUP2 ADD CALLDATALOAD SWAP1 DUP3 ADD MSTORE PUSH1 0xC0 SWAP3 DUP4 ADD CALLDATALOAD SWAP3 DUP2 ADD SWAP3 SWAP1 SWAP3 MSTORE POP SWAP1 JUMP JUMPDEST PUSH0 PUSH0 PUSH1 0x40 DUP4 DUP6 SUB SLT ISZERO PUSH2 0x2275 JUMPI PUSH0 PUSH0 REVERT JUMPDEST POP POP DUP1 MLOAD PUSH1 0x20 SWAP1 SWAP2 ADD MLOAD SWAP1 SWAP3 SWAP1 SWAP2 POP JUMP JUMPDEST DUP1 MLOAD PUSH2 0x2072 DUP2 PUSH2 0x1859 JUMP JUMPDEST PUSH0 PUSH1 0x20 DUP3 DUP5 SUB SLT ISZERO PUSH2 0x22A1 JUMPI PUSH0 PUSH0 REVERT JUMPDEST DUP2 MLOAD PUSH1 0x1 PUSH1 0x1 PUSH1 0x40 SHL SUB DUP2 GT ISZERO PUSH2 0x22B6 JUMPI PUSH0 PUSH0 REVERT JUMPDEST DUP3 ADD PUSH2 0x160 DUP2 DUP6 SUB SLT ISZERO PUSH2 0x22C8 JUMPI PUSH0 PUSH0 REVERT JUMPDEST PUSH2 0x22D0 PUSH2 0x174D JUMP JUMPDEST DUP2 MLOAD PUSH1 0x1 PUSH1 0x1 PUSH1 0x40 SHL SUB DUP2 GT ISZERO PUSH2 0x22E5 JUMPI PUSH0 PUSH0 REVERT JUMPDEST PUSH2 0x22F1 DUP7 DUP3 DUP6 ADD PUSH2 0x1F18 JUMP JUMPDEST DUP3 MSTORE POP PUSH1 0x20 DUP3 ADD MLOAD PUSH1 0x1 PUSH1 0x1 PUSH1 0x40 SHL SUB DUP2 GT ISZERO PUSH2 0x230C JUMPI PUSH0 PUSH0 REVERT JUMPDEST PUSH2 0x2318 DUP7 DUP3 DUP6 ADD PUSH2 0x1F18 JUMP JUMPDEST PUSH1 0x20 DUP4 ADD MSTORE POP PUSH1 0x40 DUP3 ADD MLOAD PUSH1 0x1 PUSH1 0x1 PUSH1 0x40 SHL SUB DUP2 GT ISZERO PUSH2 0x2336 JUMPI PUSH0 PUSH0 REVERT JUMPDEST PUSH2 0x2342 DUP7 DUP3 DUP6 ADD PUSH2 0x1F18 JUMP JUMPDEST PUSH1 0x40 DUP4 ADD MSTORE POP PUSH1 0x60 DUP3 ADD MLOAD PUSH1 0x1 PUSH1 0x1 PUSH1 0x40 SHL SUB DUP2 GT ISZERO PUSH2 0x2360 JUMPI PUSH0 PUSH0 REVERT JUMPDEST PUSH2 0x236C DUP7 DUP3 DUP6 ADD PUSH2 0x1F18 JUMP JUMPDEST PUSH1 0x60 DUP4 ADD MSTORE POP PUSH1 0x80 DUP3 ADD MLOAD PUSH1 0x1 PUSH1 0x1 PUSH1 0x40 SHL SUB DUP2 GT ISZERO PUSH2 0x238A JUMPI PUSH0 PUSH0 REVERT JUMPDEST PUSH2 0x2396 DUP7 DUP3 DUP6 ADD PUSH2 0x1F18 JUMP JUMPDEST PUSH1 0x80 DUP4 ADD MSTORE POP PUSH1 0xA0 DUP3 DUP2 ADD MLOAD SWAP1 DUP3 ADD MSTORE PUSH2 0x23B2 PUSH1 0xC0 DUP4 ADD PUSH2 0x2286 JUMP JUMPDEST PUSH1 0xC0 DUP3 ADD MSTORE PUSH2 0x23C3 PUSH1 0xE0 DUP4 ADD PUSH2 0x2063 JUMP JUMPDEST PUSH1 0xE0 DUP3 ADD MSTORE PUSH2 0x23D5 PUSH2 0x100 DUP4 ADD PUSH2 0x2063 JUMP JUMPDEST PUSH2 0x100 DUP3 ADD MSTORE PUSH2 0x120 DUP3 DUP2 ADD MLOAD SWAP1 DUP3 ADD MSTORE PUSH2 0x140 SWAP2 DUP3 ADD MLOAD SWAP2 DUP2 ADD SWAP2 SWAP1 SWAP2 MSTORE SWAP4 SWAP3 POP POP POP JUMP JUMPDEST PUSH6 0x2CA2A990169 PUSH1 0xD5 SHL DUP2 MSTORE PUSH0 PUSH2 0x1888 PUSH1 0x6 DUP4 ADD DUP5 PUSH2 0x1DA8 JUMP JUMPDEST PUSH5 0x765945532D PUSH1 0xD8 SHL DUP2 MSTORE PUSH0 PUSH2 0x1888 PUSH1 0x5 DUP4 ADD DUP5 PUSH2 0x1DA8 JUMP JUMPDEST PUSH1 0x60 DUP2 MSTORE PUSH0 PUSH2 0x2440 PUSH1 0x60 DUP4 ADD DUP7 PUSH2 0x19FF JUMP JUMPDEST DUP3 DUP2 SUB PUSH1 0x20 DUP5 ADD MSTORE PUSH2 0x2452 DUP2 DUP7 PUSH2 0x19FF JUMP JUMPDEST SWAP1 POP DUP3 DUP2 SUB PUSH1 0x40 DUP5 ADD MSTORE PUSH2 0x1FFD DUP2 DUP6 PUSH2 0x19FF JUMP JUMPDEST PUSH0 PUSH1 0x20 DUP3 DUP5 SUB SLT ISZERO PUSH2 0x2476 JUMPI PUSH0 PUSH0 REVERT JUMPDEST DUP2 MLOAD PUSH2 0x1888 DUP2 PUSH2 0x1859 JUMP JUMPDEST PUSH1 0x60 DUP2 MSTORE PUSH0 PUSH2 0x2493 PUSH1 0x60 DUP4 ADD DUP7 PUSH2 0x19FF JUMP JUMPDEST PUSH1 0x1 PUSH1 0x1 PUSH1 0xA0 SHL SUB SWAP5 DUP6 AND PUSH1 0x20 DUP5 ADD MSTORE SWAP3 SWAP1 SWAP4 AND PUSH1 0x40 SWAP1 SWAP2 ADD MSTORE SWAP3 SWAP2 POP POP JUMP JUMPDEST PUSH1 0xE0 DUP2 MSTORE PUSH0 PUSH2 0x24C5 PUSH1 0xE0 DUP4 ADD DUP11 PUSH2 0x19FF JUMP JUMPDEST DUP3 DUP2 SUB PUSH1 0x20 DUP5 ADD MSTORE PUSH2 0x24D7 DUP2 DUP11 PUSH2 0x19FF JUMP JUMPDEST SWAP1 POP DUP3 DUP2 SUB PUSH1 0x40 DUP5 ADD MSTORE PUSH2 0x24EB DUP2 DUP10 PUSH2 0x19FF JUMP JUMPDEST SWAP1 POP DUP3 DUP2 SUB PUSH1 0x60 DUP5 ADD MSTORE PUSH2 0x24FF DUP2 DUP9 PUSH2 0x19FF JUMP JUMPDEST SWAP1 POP DUP3 DUP2 SUB PUSH1 0x80 DUP5 ADD MSTORE PUSH2 0x2513 DUP2 DUP8 PUSH2 0x19FF JUMP JUMPDEST PUSH1 0xA0 DUP5 ADD SWAP6 SWAP1 SWAP6 MSTORE POP POP PUSH1 0x1 PUSH1 0x1 PUSH1 0xA0 SHL SUB SWAP2 SWAP1 SWAP2 AND PUSH1 0xC0 SWAP1 SWAP2 ADD MSTORE SWAP6 SWAP5 POP POP POP POP POP JUMP JUMPDEST PUSH1 0x60 DUP2 MSTORE PUSH0 PUSH2 0x254A PUSH1 0x60 DUP4 ADD DUP7 PUSH2 0x19FF JUMP JUMPDEST PUSH1 0x1 PUSH1 0x1 PUSH1 0xA0 SHL SUB SWAP5 SWAP1 SWAP5 AND PUSH1 0x20 DUP4 ADD MSTORE POP PUSH1 0x40 ADD MSTORE SWAP2 SWAP1 POP JUMP INVALID LOG2 PUSH5 0x6970667358 0x22 SLT KECCAK256 0xBA 0xC2 0xD4 EXTCALL 0xCD EXTCODESIZE 0xBC DUP14 0x29 0xB0 0xCB SWAP15 0xB0 0x23 SLT 0xAF ADD SWAP2 BLOBBASEFEE 0xBF 0xAE EXTCALL 0xD 0xBE 0xA6 PUSH1 0xD ADDRESS SGT MCOPY 0x2F LOG4 PUSH5 0x736F6C6343 STOP ADDMOD 0x1F STOP CALLER PUSH1 0x80 PUSH1 0x40 MSTORE CALLVALUE DUP1 ISZERO PUSH2 0xF JUMPI PUSH0 PUSH0 REVERT JUMPDEST POP CALLER PUSH1 0x40 MLOAD DUP1 PUSH1 0x40 ADD PUSH1 0x40 MSTORE DUP1 PUSH1 0x10 DUP2 MSTORE PUSH1 0x20 ADD PUSH16 0x2B34B93A3AB0B6102AA9A21021B7B4B7 PUSH1 0x81 SHL DUP2 MSTORE POP PUSH1 0x40 MLOAD DUP1 PUSH1 0x40 ADD PUSH1 0x40 MSTORE DUP1 PUSH1 0x5 DUP2 MSTORE PUSH1 0x20 ADD PUSH5 0x7655534443 PUSH1 0xD8 SHL DUP2 MSTORE POP DUP2 PUSH1 0x3 SWAP1 DUP2 PUSH2 0x67 SWAP2 SWAP1 PUSH2 0x31D JUMP JUMPDEST POP PUSH1 0x4 PUSH2 0x74 DUP3 DUP3 PUSH2 0x31D JUMP JUMPDEST POP POP POP PUSH1 0x1 PUSH1 0x1 PUSH1 0xA0 SHL SUB DUP2 AND PUSH2 0xA5 JUMPI PUSH1 0x40 MLOAD PUSH4 0x1E4FBDF7 PUSH1 0xE0 SHL DUP2 MSTORE PUSH0 PUSH1 0x4 DUP3 ADD MSTORE PUSH1 0x24 ADD JUMPDEST PUSH1 0x40 MLOAD DUP1 SWAP2 SUB SWAP1 REVERT JUMPDEST PUSH2 0xAE DUP2 PUSH2 0xD6 JUMP JUMPDEST POP PUSH2 0xD1 CALLER PUSH2 0xBF PUSH1 0x12 PUSH1 0xA PUSH2 0x4D0 JUMP JUMPDEST PUSH2 0xCC SWAP1 PUSH3 0xF4240 PUSH2 0x4E5 JUMP JUMPDEST PUSH2 0x127 JUMP JUMPDEST PUSH2 0x50F JUMP JUMPDEST PUSH1 0x5 DUP1 SLOAD PUSH1 0x1 PUSH1 0x1 PUSH1 0xA0 SHL SUB DUP4 DUP2 AND PUSH1 0x1 PUSH1 0x1 PUSH1 0xA0 SHL SUB NOT DUP4 AND DUP2 OR SWAP1 SWAP4 SSTORE PUSH1 0x40 MLOAD SWAP2 AND SWAP2 SWAP1 DUP3 SWAP1 PUSH32 0x8BE0079C531659141344CD1FD0A4F28419497F9722A3DAAFE3B4186F6B6457E0 SWAP1 PUSH0 SWAP1 LOG3 POP POP JUMP JUMPDEST PUSH1 0x1 PUSH1 0x1 PUSH1 0xA0 SHL SUB DUP3 AND PUSH2 0x150 JUMPI PUSH1 0x40 MLOAD PUSH4 0xEC442F05 PUSH1 0xE0 SHL DUP2 MSTORE PUSH0 PUSH1 0x4 DUP3 ADD MSTORE PUSH1 0x24 ADD PUSH2 0x9C JUMP JUMPDEST PUSH2 0x15B PUSH0 DUP4 DUP4 PUSH2 0x15F JUMP JUMPDEST POP POP JUMP JUMPDEST PUSH1 0x1 PUSH1 0x1 PUSH1 0xA0 SHL SUB DUP4 AND PUSH2 0x189 JUMPI DUP1 PUSH1 0x2 PUSH0 DUP3 DUP3 SLOAD PUSH2 0x17E SWAP2 SWAP1 PUSH2 0x4FC JUMP JUMPDEST SWAP1 SWAP2 SSTORE POP PUSH2 0x1F9 SWAP1 POP JUMP JUMPDEST PUSH1 0x1 PUSH1 0x1 PUSH1 0xA0 SHL SUB DUP4 AND PUSH0 SWAP1 DUP2 MSTORE PUSH1 0x20 DUP2 SWAP1 MSTORE PUSH1 0x40 SWAP1 KECCAK256 SLOAD DUP2 DUP2 LT ISZERO PUSH2 0x1DB JUMPI PUSH1 0x40 MLOAD PUSH4 0x391434E3 PUSH1 0xE2 SHL DUP2 MSTORE PUSH1 0x1 PUSH1 0x1 PUSH1 0xA0 SHL SUB DUP6 AND PUSH1 0x4 DUP3 ADD MSTORE PUSH1 0x24 DUP2 ADD DUP3 SWAP1 MSTORE PUSH1 0x44 DUP2 ADD DUP4 SWAP1 MSTORE PUSH1 0x64 ADD PUSH2 0x9C JUMP JUMPDEST PUSH1 0x1 PUSH1 0x1 PUSH1 0xA0 SHL SUB DUP5 AND PUSH0 SWAP1 DUP2 MSTORE PUSH1 0x20 DUP2 SWAP1 MSTORE PUSH1 0x40 SWAP1 KECCAK256 SWAP1 DUP3 SWAP1 SUB SWAP1 SSTORE JUMPDEST PUSH1 0x1 PUSH1 0x1 PUSH1 0xA0 SHL SUB DUP3 AND PUSH2 0x215 JUMPI PUSH1 0x2 DUP1 SLOAD DUP3 SWAP1 SUB SWAP1 SSTORE PUSH2 0x233 JUMP JUMPDEST PUSH1 0x1 PUSH1 0x1 PUSH1 0xA0 SHL SUB DUP3 AND PUSH0 SWAP1 DUP2 MSTORE PUSH1 0x20 DUP2 SWAP1 MSTORE PUSH1 0x40 SWAP1 KECCAK256 DUP1 SLOAD DUP3 ADD SWAP1 SSTORE JUMPDEST DUP2 PUSH1 0x1 PUSH1 0x1 PUSH1 0xA0 SHL SUB AND DUP4 PUSH1 0x1 PUSH1 0x1 PUSH1 0xA0 SHL SUB AND PUSH32 0xDDF252AD1BE2C89B69C2B068FC378DAA952BA7F163C4A11628F55A4DF523B3EF DUP4 PUSH1 0x40 MLOAD PUSH2 0x278 SWAP2 DUP2 MSTORE PUSH1 0x20 ADD SWAP1 JUMP JUMPDEST PUSH1 0x40 MLOAD DUP1 SWAP2 SUB SWAP1 LOG3 POP POP POP JUMP JUMPDEST PUSH4 0x4E487B71 PUSH1 0xE0 SHL PUSH0 MSTORE PUSH1 0x41 PUSH1 0x4 MSTORE PUSH1 0x24 PUSH0 REVERT JUMPDEST PUSH1 0x1 DUP2 DUP2 SHR SWAP1 DUP3 AND DUP1 PUSH2 0x2AD JUMPI PUSH1 0x7F DUP3 AND SWAP2 POP JUMPDEST PUSH1 0x20 DUP3 LT DUP2 SUB PUSH2 0x2CB JUMPI PUSH4 0x4E487B71 PUSH1 0xE0 SHL PUSH0 MSTORE PUSH1 0x22 PUSH1 0x4 MSTORE PUSH1 0x24 PUSH0 REVERT JUMPDEST POP SWAP2 SWAP1 POP JUMP JUMPDEST PUSH1 0x1F DUP3 GT ISZERO PUSH2 0x318 JUMPI DUP1 PUSH0 MSTORE PUSH1 0x20 PUSH0 KECCAK256 PUSH1 0x1F DUP5 ADD PUSH1 0x5 SHR DUP2 ADD PUSH1 0x20 DUP6 LT ISZERO PUSH2 0x2F6 JUMPI POP DUP1 JUMPDEST PUSH1 0x1F DUP5 ADD PUSH1 0x5 SHR DUP3 ADD SWAP2 POP JUMPDEST DUP2 DUP2 LT ISZERO PUSH2 0x315 JUMPI PUSH0 DUP2 SSTORE PUSH1 0x1 ADD PUSH2 0x302 JUMP JUMPDEST POP POP JUMPDEST POP POP POP JUMP JUMPDEST DUP2 MLOAD PUSH1 0x1 PUSH1 0x1 PUSH1 0x40 SHL SUB DUP2 GT ISZERO PUSH2 0x336 JUMPI PUSH2 0x336 PUSH2 0x285 JUMP JUMPDEST PUSH2 0x34A DUP2 PUSH2 0x344 DUP5 SLOAD PUSH2 0x299 JUMP JUMPDEST DUP5 PUSH2 0x2D1 JUMP JUMPDEST PUSH1 0x20 PUSH1 0x1F DUP3 GT PUSH1 0x1 DUP2 EQ PUSH2 0x37C JUMPI PUSH0 DUP4 ISZERO PUSH2 0x365 JUMPI POP DUP5 DUP3 ADD MLOAD JUMPDEST PUSH0 NOT PUSH1 0x3 DUP6 SWAP1 SHL SHR NOT AND PUSH1 0x1 DUP5 SWAP1 SHL OR DUP5 SSTORE PUSH2 0x315 JUMP JUMPDEST PUSH0 DUP5 DUP2 MSTORE PUSH1 0x20 DUP2 KECCAK256 PUSH1 0x1F NOT DUP6 AND SWAP2 JUMPDEST DUP3 DUP2 LT ISZERO PUSH2 0x3AB JUMPI DUP8 DUP6 ADD MLOAD DUP3 SSTORE PUSH1 0x20 SWAP5 DUP6 ADD SWAP5 PUSH1 0x1 SWAP1 SWAP3 ADD SWAP2 ADD PUSH2 0x38B JUMP JUMPDEST POP DUP5 DUP3 LT ISZERO PUSH2 0x3C8 JUMPI DUP7 DUP5 ADD MLOAD PUSH0 NOT PUSH1 0x3 DUP8 SWAP1 SHL PUSH1 0xF8 AND SHR NOT AND DUP2 SSTORE JUMPDEST POP POP POP POP PUSH1 0x1 SWAP1 DUP2 SHL ADD SWAP1 SSTORE POP JUMP JUMPDEST PUSH4 0x4E487B71 PUSH1 0xE0 SHL PUSH0 MSTORE PUSH1 0x11 PUSH1 0x4 MSTORE PUSH1 0x24 PUSH0 REVERT JUMPDEST PUSH1 0x1 DUP2 JUMPDEST PUSH1 0x1 DUP5 GT ISZERO PUSH2 0x426 JUMPI DUP1 DUP6 DIV DUP2 GT ISZERO PUSH2 0x40A JUMPI PUSH2 0x40A PUSH2 0x3D7 JUMP JUMPDEST PUSH1 0x1 DUP5 AND ISZERO PUSH2 0x418 JUMPI SWAP1 DUP2 MUL SWAP1 JUMPDEST PUSH1 0x1 SWAP4 SWAP1 SWAP4 SHR SWAP3 DUP1 MUL PUSH2 0x3EF JUMP JUMPDEST SWAP4 POP SWAP4 SWAP2 POP POP JUMP JUMPDEST PUSH0 DUP3 PUSH2 0x43C JUMPI POP PUSH1 0x1 PUSH2 0x4CA JUMP JUMPDEST DUP2 PUSH2 0x448 JUMPI POP PUSH0 PUSH2 0x4CA JUMP JUMPDEST DUP2 PUSH1 0x1 DUP2 EQ PUSH2 0x45E JUMPI PUSH1 0x2 DUP2 EQ PUSH2 0x468 JUMPI PUSH2 0x484 JUMP JUMPDEST PUSH1 0x1 SWAP2 POP POP PUSH2 0x4CA JUMP JUMPDEST PUSH1 0xFF DUP5 GT ISZERO PUSH2 0x479 JUMPI PUSH2 0x479 PUSH2 0x3D7 JUMP JUMPDEST POP POP PUSH1 0x1 DUP3 SHL PUSH2 0x4CA JUMP JUMPDEST POP PUSH1 0x20 DUP4 LT PUSH2 0x133 DUP4 LT AND PUSH1 0x4E DUP5 LT PUSH1 0xB DUP5 LT AND OR ISZERO PUSH2 0x4A7 JUMPI POP DUP2 DUP2 EXP PUSH2 0x4CA JUMP JUMPDEST PUSH2 0x4B3 PUSH0 NOT DUP5 DUP5 PUSH2 0x3EB JUMP JUMPDEST DUP1 PUSH0 NOT DIV DUP3 GT ISZERO PUSH2 0x4C6 JUMPI PUSH2 0x4C6 PUSH2 0x3D7 JUMP JUMPDEST MUL SWAP1 POP JUMPDEST SWAP3 SWAP2 POP POP JUMP JUMPDEST PUSH0 PUSH2 0x4DE PUSH1 0xFF DUP5 AND DUP4 PUSH2 0x42E JUMP JUMPDEST SWAP4 SWAP3 POP POP POP JUMP JUMPDEST DUP1 DUP3 MUL DUP2 ISZERO DUP3 DUP3 DIV DUP5 EQ OR PUSH2 0x4CA JUMPI PUSH2 0x4CA PUSH2 0x3D7 JUMP JUMPDEST DUP1 DUP3 ADD DUP1 DUP3 GT ISZERO PUSH2 0x4CA JUMPI PUSH2 0x4CA PUSH2 0x3D7 JUMP JUMPDEST PUSH2 0xDD3 DUP1 PUSH2 0x51C PUSH0 CODECOPY PUSH0 RETURN INVALID PUSH1 0x80 PUSH1 0x40 MSTORE CALLVALUE DUP1 ISZERO PUSH2 0xF JUMPI PUSH0 PUSH0 REVERT JUMPDEST POP PUSH1 0x4 CALLDATASIZE LT PUSH2 0x11C JUMPI PUSH0 CALLDATALOAD PUSH1 0xE0 SHR DUP1 PUSH4 0x715018A6 GT PUSH2 0xA9 JUMPI DUP1 PUSH4 0xAA2FE91B GT PUSH2 0x6E JUMPI DUP1 PUSH4 0xAA2FE91B EQ PUSH2 0x249 JUMPI DUP1 PUSH4 0xCFBD4885 EQ PUSH2 0x26B JUMPI DUP1 PUSH4 0xDD62ED3E EQ PUSH2 0x27E JUMPI DUP1 PUSH4 0xEE67A1E5 EQ PUSH2 0x2B6 JUMPI DUP1 PUSH4 0xF2FDE38B EQ PUSH2 0x2C9 JUMPI PUSH0 PUSH0 REVERT JUMPDEST DUP1 PUSH4 0x715018A6 EQ PUSH2 0x1F8 JUMPI DUP1 PUSH4 0x8DA5CB5B EQ PUSH2 0x200 JUMPI DUP1 PUSH4 0x95D89B41 EQ PUSH2 0x21B JUMPI DUP1 PUSH4 0x9DC29FAC EQ PUSH2 0x223 JUMPI DUP1 PUSH4 0xA9059CBB EQ PUSH2 0x236 JUMPI PUSH0 PUSH0 REVERT JUMPDEST DUP1 PUSH4 0x23B872DD GT PUSH2 0xEF JUMPI DUP1 PUSH4 0x23B872DD EQ PUSH2 0x188 JUMPI DUP1 PUSH4 0x313CE567 EQ PUSH2 0x19B JUMPI DUP1 PUSH4 0x40C10F19 EQ PUSH2 0x1AA JUMPI DUP1 PUSH4 0x57915897 EQ PUSH2 0x1BD JUMPI DUP1 PUSH4 0x70A08231 EQ PUSH2 0x1D0 JUMPI PUSH0 PUSH0 REVERT JUMPDEST DUP1 PUSH4 0x6FDDE03 EQ PUSH2 0x120 JUMPI DUP1 PUSH4 0x95EA7B3 EQ PUSH2 0x13E JUMPI DUP1 PUSH4 0xC984832 EQ PUSH2 0x161 JUMPI DUP1 PUSH4 0x18160DDD EQ PUSH2 0x176 JUMPI JUMPDEST PUSH0 PUSH0 REVERT JUMPDEST PUSH2 0x128 PUSH2 0x2DC JUMP JUMPDEST PUSH1 0x40 MLOAD PUSH2 0x135 SWAP2 SWAP1 PUSH2 0xB1C JUMP JUMPDEST PUSH1 0x40 MLOAD DUP1 SWAP2 SUB SWAP1 RETURN JUMPDEST PUSH2 0x151 PUSH2 0x14C CALLDATASIZE PUSH1 0x4 PUSH2 0xB6C JUMP JUMPDEST PUSH2 0x36C JUMP JUMPDEST PUSH1 0x40 MLOAD SWAP1 ISZERO ISZERO DUP2 MSTORE PUSH1 0x20 ADD PUSH2 0x135 JUMP JUMPDEST PUSH2 0x174 PUSH2 0x16F CALLDATASIZE PUSH1 0x4 PUSH2 0xB94 JUMP JUMPDEST PUSH2 0x385 JUMP JUMPDEST STOP JUMPDEST PUSH1 0x2 SLOAD JUMPDEST PUSH1 0x40 MLOAD SWAP1 DUP2 MSTORE PUSH1 0x20 ADD PUSH2 0x135 JUMP JUMPDEST PUSH2 0x151 PUSH2 0x196 CALLDATASIZE PUSH1 0x4 PUSH2 0xBB4 JUMP JUMPDEST PUSH2 0x42C JUMP JUMPDEST PUSH1 0x40 MLOAD PUSH1 0x12 DUP2 MSTORE PUSH1 0x20 ADD PUSH2 0x135 JUMP JUMPDEST PUSH2 0x174 PUSH2 0x1B8 CALLDATASIZE PUSH1 0x4 PUSH2 0xB6C JUMP JUMPDEST PUSH2 0x44F JUMP JUMPDEST PUSH2 0x174 PUSH2 0x1CB CALLDATASIZE PUSH1 0x4 PUSH2 0xBEE JUMP JUMPDEST PUSH2 0x4F7 JUMP JUMPDEST PUSH2 0x17A PUSH2 0x1DE CALLDATASIZE PUSH1 0x4 PUSH2 0xB94 JUMP JUMPDEST PUSH1 0x1 PUSH1 0x1 PUSH1 0xA0 SHL SUB AND PUSH0 SWAP1 DUP2 MSTORE PUSH1 0x20 DUP2 SWAP1 MSTORE PUSH1 0x40 SWAP1 KECCAK256 SLOAD SWAP1 JUMP JUMPDEST PUSH2 0x174 PUSH2 0x5A0 JUMP JUMPDEST PUSH1 0x5 SLOAD PUSH1 0x40 MLOAD PUSH1 0x1 PUSH1 0x1 PUSH1 0xA0 SHL SUB SWAP1 SWAP2 AND DUP2 MSTORE PUSH1 0x20 ADD PUSH2 0x135 JUMP JUMPDEST PUSH2 0x128 PUSH2 0x5B3 JUMP JUMPDEST PUSH2 0x174 PUSH2 0x231 CALLDATASIZE PUSH1 0x4 PUSH2 0xB6C JUMP JUMPDEST PUSH2 0x5C2 JUMP JUMPDEST PUSH2 0x151 PUSH2 0x244 CALLDATASIZE PUSH1 0x4 PUSH2 0xB6C JUMP JUMPDEST PUSH2 0x65E JUMP JUMPDEST PUSH2 0x151 PUSH2 0x257 CALLDATASIZE PUSH1 0x4 PUSH2 0xB94 JUMP JUMPDEST PUSH1 0x6 PUSH1 0x20 MSTORE PUSH0 SWAP1 DUP2 MSTORE PUSH1 0x40 SWAP1 KECCAK256 SLOAD PUSH1 0xFF AND DUP2 JUMP JUMPDEST PUSH2 0x174 PUSH2 0x279 CALLDATASIZE PUSH1 0x4 PUSH2 0xB94 JUMP JUMPDEST PUSH2 0x66B JUMP JUMPDEST PUSH2 0x17A PUSH2 0x28C CALLDATASIZE PUSH1 0x4 PUSH2 0xC05 JUMP JUMPDEST PUSH1 0x1 PUSH1 0x1 PUSH1 0xA0 SHL SUB SWAP2 DUP3 AND PUSH0 SWAP1 DUP2 MSTORE PUSH1 0x1 PUSH1 0x20 SWAP1 DUP2 MSTORE PUSH1 0x40 DUP1 DUP4 KECCAK256 SWAP4 SWAP1 SWAP5 AND DUP3 MSTORE SWAP2 SWAP1 SWAP2 MSTORE KECCAK256 SLOAD SWAP1 JUMP JUMPDEST PUSH2 0x174 PUSH2 0x2C4 CALLDATASIZE PUSH1 0x4 PUSH2 0xB6C JUMP JUMPDEST PUSH2 0x6BB JUMP JUMPDEST PUSH2 0x174 PUSH2 0x2D7 CALLDATASIZE PUSH1 0x4 PUSH2 0xB94 JUMP JUMPDEST PUSH2 0x712 JUMP JUMPDEST PUSH1 0x60 PUSH1 0x3 DUP1 SLOAD PUSH2 0x2EB SWAP1 PUSH2 0xC36 JUMP JUMPDEST DUP1 PUSH1 0x1F ADD PUSH1 0x20 DUP1 SWAP2 DIV MUL PUSH1 0x20 ADD PUSH1 0x40 MLOAD SWAP1 DUP2 ADD PUSH1 0x40 MSTORE DUP1 SWAP3 SWAP2 SWAP1 DUP2 DUP2 MSTORE PUSH1 0x20 ADD DUP3 DUP1 SLOAD PUSH2 0x317 SWAP1 PUSH2 0xC36 JUMP JUMPDEST DUP1 ISZERO PUSH2 0x362 JUMPI DUP1 PUSH1 0x1F LT PUSH2 0x339 JUMPI PUSH2 0x100 DUP1 DUP4 SLOAD DIV MUL DUP4 MSTORE SWAP2 PUSH1 0x20 ADD SWAP2 PUSH2 0x362 JUMP JUMPDEST DUP3 ADD SWAP2 SWAP1 PUSH0 MSTORE PUSH1 0x20 PUSH0 KECCAK256 SWAP1 JUMPDEST DUP2 SLOAD DUP2 MSTORE SWAP1 PUSH1 0x1 ADD SWAP1 PUSH1 0x20 ADD DUP1 DUP4 GT PUSH2 0x345 JUMPI DUP3 SWAP1 SUB PUSH1 0x1F AND DUP3 ADD SWAP2 JUMPDEST POP POP POP POP POP SWAP1 POP SWAP1 JUMP JUMPDEST PUSH0 CALLER PUSH2 0x379 DUP2 DUP6 DUP6 PUSH2 0x74F JUMP JUMPDEST PUSH1 0x1 SWAP2 POP POP JUMPDEST SWAP3 SWAP2 POP POP JUMP JUMPDEST PUSH2 0x38D PUSH2 0x761 JUMP JUMPDEST PUSH1 0x1 PUSH1 0x1 PUSH1 0xA0 SHL SUB DUP2 AND PUSH2 0x3E1 JUMPI PUSH1 0x40 MLOAD PUSH3 0x461BCD PUSH1 0xE5 SHL DUP2 MSTORE PUSH1 0x20 PUSH1 0x4 DUP3 ADD MSTORE PUSH1 0x16 PUSH1 0x24 DUP3 ADD MSTORE PUSH22 0x496E76616C6964206D696E7465722061646472657373 PUSH1 0x50 SHL PUSH1 0x44 DUP3 ADD MSTORE PUSH1 0x64 ADD JUMPDEST PUSH1 0x40 MLOAD DUP1 SWAP2 SUB SWAP1 REVERT JUMPDEST PUSH1 0x1 PUSH1 0x1 PUSH1 0xA0 SHL SUB DUP2 AND PUSH0 DUP2 DUP2 MSTORE PUSH1 0x6 PUSH1 0x20 MSTORE PUSH1 0x40 DUP1 DUP3 KECCAK256 DUP1 SLOAD PUSH1 0xFF NOT AND PUSH1 0x1 OR SWAP1 SSTORE MLOAD PUSH32 0x83B05B6735ACD4B85E3BDED8E72C851D1A87718F81E3C8E6F0C9D9A2BAA88E46 SWAP2 SWAP1 LOG2 POP JUMP JUMPDEST PUSH0 CALLER PUSH2 0x439 DUP6 DUP3 DUP6 PUSH2 0x78E JUMP JUMPDEST PUSH2 0x444 DUP6 DUP6 DUP6 PUSH2 0x80A JUMP JUMPDEST POP PUSH1 0x1 SWAP5 SWAP4 POP POP POP POP JUMP JUMPDEST CALLER PUSH0 SWAP1 DUP2 MSTORE PUSH1 0x6 PUSH1 0x20 MSTORE PUSH1 0x40 SWAP1 KECCAK256 SLOAD PUSH1 0xFF AND PUSH2 0x4A6 JUMPI PUSH1 0x40 MLOAD PUSH3 0x461BCD PUSH1 0xE5 SHL DUP2 MSTORE PUSH1 0x20 PUSH1 0x4 DUP3 ADD MSTORE PUSH1 0x16 PUSH1 0x24 DUP3 ADD MSTORE PUSH22 0x139BDD08185D5D1A1BDC9A5E9959081D1BC81B5A5B9D PUSH1 0x52 SHL PUSH1 0x44 DUP3 ADD MSTORE PUSH1 0x64 ADD PUSH2 0x3D8 JUMP JUMPDEST PUSH2 0x4B0 DUP3 DUP3 PUSH2 0x867 JUMP JUMPDEST DUP2 PUSH1 0x1 PUSH1 0x1 PUSH1 0xA0 SHL SUB AND PUSH32 0x3F2C9D57C068687834F0DE942A9BABB9E5ACAB57D516D3480A3C16EE165A4273 DUP3 PUSH1 0x40 MLOAD PUSH2 0x4EB SWAP2 DUP2 MSTORE PUSH1 0x20 ADD SWAP1 JUMP JUMPDEST PUSH1 0x40 MLOAD DUP1 SWAP2 SUB SWAP1 LOG2 POP POP JUMP JUMPDEST PUSH2 0x503 PUSH1 0x12 PUSH1 0xA PUSH2 0xD65 JUMP JUMPDEST PUSH2 0x50F SWAP1 PUSH2 0x3E8 PUSH2 0xD73 JUMP JUMPDEST DUP2 GT ISZERO PUSH2 0x55E JUMPI PUSH1 0x40 MLOAD PUSH3 0x461BCD PUSH1 0xE5 SHL DUP2 MSTORE PUSH1 0x20 PUSH1 0x4 DUP3 ADD MSTORE PUSH1 0x18 PUSH1 0x24 DUP3 ADD MSTORE PUSH32 0x4D617820313030302076555344432070657220636C61696D0000000000000000 PUSH1 0x44 DUP3 ADD MSTORE PUSH1 0x64 ADD PUSH2 0x3D8 JUMP JUMPDEST PUSH2 0x568 CALLER DUP3 PUSH2 0x867 JUMP JUMPDEST PUSH1 0x40 MLOAD DUP2 DUP2 MSTORE CALLER SWAP1 PUSH32 0x3F2C9D57C068687834F0DE942A9BABB9E5ACAB57D516D3480A3C16EE165A4273 SWAP1 PUSH1 0x20 ADD PUSH1 0x40 MLOAD DUP1 SWAP2 SUB SWAP1 LOG2 POP JUMP JUMPDEST PUSH2 0x5A8 PUSH2 0x761 JUMP JUMPDEST PUSH2 0x5B1 PUSH0 PUSH2 0x89F JUMP JUMPDEST JUMP JUMPDEST PUSH1 0x60 PUSH1 0x4 DUP1 SLOAD PUSH2 0x2EB SWAP1 PUSH2 0xC36 JUMP JUMPDEST CALLER PUSH0 SWAP1 DUP2 MSTORE PUSH1 0x6 PUSH1 0x20 MSTORE PUSH1 0x40 SWAP1 KECCAK256 SLOAD PUSH1 0xFF AND PUSH2 0x619 JUMPI PUSH1 0x40 MLOAD PUSH3 0x461BCD PUSH1 0xE5 SHL DUP2 MSTORE PUSH1 0x20 PUSH1 0x4 DUP3 ADD MSTORE PUSH1 0x16 PUSH1 0x24 DUP3 ADD MSTORE PUSH22 0x2737BA1030BABA3437B934BD32B2103A3790313AB937 PUSH1 0x51 SHL PUSH1 0x44 DUP3 ADD MSTORE PUSH1 0x64 ADD PUSH2 0x3D8 JUMP JUMPDEST PUSH2 0x623 DUP3 DUP3 PUSH2 0x8F0 JUMP JUMPDEST DUP2 PUSH1 0x1 PUSH1 0x1 PUSH1 0xA0 SHL SUB AND PUSH32 0xFD38818F5291BF0BB3A2A48AADC06BA8757865D1DABD804585338AAB3009DCB6 DUP3 PUSH1 0x40 MLOAD PUSH2 0x4EB SWAP2 DUP2 MSTORE PUSH1 0x20 ADD SWAP1 JUMP JUMPDEST PUSH0 CALLER PUSH2 0x379 DUP2 DUP6 DUP6 PUSH2 0x80A JUMP JUMPDEST PUSH2 0x673 PUSH2 0x761 JUMP JUMPDEST PUSH1 0x1 PUSH1 0x1 PUSH1 0xA0 SHL SUB DUP2 AND PUSH0 DUP2 DUP2 MSTORE PUSH1 0x6 PUSH1 0x20 MSTORE PUSH1 0x40 DUP1 DUP3 KECCAK256 DUP1 SLOAD PUSH1 0xFF NOT AND SWAP1 SSTORE MLOAD PUSH32 0x44F4322F8DAA225D5F4877AD0F7D3DFBA248A774396F3CA99405ED40A044FE81 SWAP2 SWAP1 LOG2 POP JUMP JUMPDEST CALLER PUSH0 SWAP1 DUP2 MSTORE PUSH1 0x6 PUSH1 0x20 MSTORE PUSH1 0x40 SWAP1 KECCAK256 SLOAD PUSH1 0xFF AND PUSH2 0x4A6 JUMPI PUSH1 0x40 MLOAD PUSH3 0x461BCD PUSH1 0xE5 SHL DUP2 MSTORE PUSH1 0x20 PUSH1 0x4 DUP3 ADD MSTORE PUSH1 0x16 PUSH1 0x24 DUP3 ADD MSTORE PUSH22 0x27B7363C9030BABA3437B934BD32B2103937BABA32B9 PUSH1 0x51 SHL PUSH1 0x44 DUP3 ADD MSTORE PUSH1 0x64 ADD PUSH2 0x3D8 JUMP JUMPDEST PUSH2 0x71A PUSH2 0x761 JUMP JUMPDEST PUSH1 0x1 PUSH1 0x1 PUSH1 0xA0 SHL SUB DUP2 AND PUSH2 0x743 JUMPI PUSH1 0x40 MLOAD PUSH4 0x1E4FBDF7 PUSH1 0xE0 SHL DUP2 MSTORE PUSH0 PUSH1 0x4 DUP3 ADD MSTORE PUSH1 0x24 ADD PUSH2 0x3D8 JUMP JUMPDEST PUSH2 0x74C DUP2 PUSH2 0x89F JUMP JUMPDEST POP JUMP JUMPDEST PUSH2 0x75C DUP4 DUP4 DUP4 PUSH1 0x1 PUSH2 0x924 JUMP JUMPDEST POP POP POP JUMP JUMPDEST PUSH1 0x5 SLOAD PUSH1 0x1 PUSH1 0x1 PUSH1 0xA0 SHL SUB AND CALLER EQ PUSH2 0x5B1 JUMPI PUSH1 0x40 MLOAD PUSH4 0x118CDAA7 PUSH1 0xE0 SHL DUP2 MSTORE CALLER PUSH1 0x4 DUP3 ADD MSTORE PUSH1 0x24 ADD PUSH2 0x3D8 JUMP JUMPDEST PUSH1 0x1 PUSH1 0x1 PUSH1 0xA0 SHL SUB DUP4 DUP2 AND PUSH0 SWAP1 DUP2 MSTORE PUSH1 0x1 PUSH1 0x20 SWAP1 DUP2 MSTORE PUSH1 0x40 DUP1 DUP4 KECCAK256 SWAP4 DUP7 AND DUP4 MSTORE SWAP3 SWAP1 MSTORE KECCAK256 SLOAD PUSH0 NOT DUP2 LT ISZERO PUSH2 0x804 JUMPI DUP2 DUP2 LT ISZERO PUSH2 0x7F6 JUMPI PUSH1 0x40 MLOAD PUSH4 0x7DC7A0D9 PUSH1 0xE1 SHL DUP2 MSTORE PUSH1 0x1 PUSH1 0x1 PUSH1 0xA0 SHL SUB DUP5 AND PUSH1 0x4 DUP3 ADD MSTORE PUSH1 0x24 DUP2 ADD DUP3 SWAP1 MSTORE PUSH1 0x44 DUP2 ADD DUP4 SWAP1 MSTORE PUSH1 0x64 ADD PUSH2 0x3D8 JUMP JUMPDEST PUSH2 0x804 DUP5 DUP5 DUP5 DUP5 SUB PUSH0 PUSH2 0x924 JUMP JUMPDEST POP POP POP POP JUMP JUMPDEST PUSH1 0x1 PUSH1 0x1 PUSH1 0xA0 SHL SUB DUP4 AND PUSH2 0x833 JUMPI PUSH1 0x40 MLOAD PUSH4 0x4B637E8F PUSH1 0xE1 SHL DUP2 MSTORE PUSH0 PUSH1 0x4 DUP3 ADD MSTORE PUSH1 0x24 ADD PUSH2 0x3D8 JUMP JUMPDEST PUSH1 0x1 PUSH1 0x1 PUSH1 0xA0 SHL SUB DUP3 AND PUSH2 0x85C JUMPI PUSH1 0x40 MLOAD PUSH4 0xEC442F05 PUSH1 0xE0 SHL DUP2 MSTORE PUSH0 PUSH1 0x4 DUP3 ADD MSTORE PUSH1 0x24 ADD PUSH2 0x3D8 JUMP JUMPDEST PUSH2 0x75C DUP4 DUP4 DUP4 PUSH2 0x9F6 JUMP JUMPDEST PUSH1 0x1 PUSH1 0x1 PUSH1 0xA0 SHL SUB DUP3 AND PUSH2 0x890 JUMPI PUSH1 0x40 MLOAD PUSH4 0xEC442F05 PUSH1 0xE0 SHL DUP2 MSTORE PUSH0 PUSH1 0x4 DUP3 ADD MSTORE PUSH1 0x24 ADD PUSH2 0x3D8 JUMP JUMPDEST PUSH2 0x89B PUSH0 DUP4 DUP4 PUSH2 0x9F6 JUMP JUMPDEST POP POP JUMP JUMPDEST PUSH1 0x5 DUP1 SLOAD PUSH1 0x1 PUSH1 0x1 PUSH1 0xA0 SHL SUB DUP4 DUP2 AND PUSH1 0x1 PUSH1 0x1 PUSH1 0xA0 SHL SUB NOT DUP4 AND DUP2 OR SWAP1 SWAP4 SSTORE PUSH1 0x40 MLOAD SWAP2 AND SWAP2 SWAP1 DUP3 SWAP1 PUSH32 0x8BE0079C531659141344CD1FD0A4F28419497F9722A3DAAFE3B4186F6B6457E0 SWAP1 PUSH0 SWAP1 LOG3 POP POP JUMP JUMPDEST PUSH1 0x1 PUSH1 0x1 PUSH1 0xA0 SHL SUB DUP3 AND PUSH2 0x919 JUMPI PUSH1 0x40 MLOAD PUSH4 0x4B637E8F PUSH1 0xE1 SHL DUP2 MSTORE PUSH0 PUSH1 0x4 DUP3 ADD MSTORE PUSH1 0x24 ADD PUSH2 0x3D8 JUMP JUMPDEST PUSH2 0x89B DUP3 PUSH0 DUP4 PUSH2 0x9F6 JUMP JUMPDEST PUSH1 0x1 PUSH1 0x1 PUSH1 0xA0 SHL SUB DUP5 AND PUSH2 0x94D JUMPI PUSH1 0x40 MLOAD PUSH4 0xE602DF05 PUSH1 0xE0 SHL DUP2 MSTORE PUSH0 PUSH1 0x4 DUP3 ADD MSTORE PUSH1 0x24 ADD PUSH2 0x3D8 JUMP JUMPDEST PUSH1 0x1 PUSH1 0x1 PUSH1 0xA0 SHL SUB DUP4 AND PUSH2 0x976 JUMPI PUSH1 0x40 MLOAD PUSH4 0x4A1406B1 PUSH1 0xE1 SHL DUP2 MSTORE PUSH0 PUSH1 0x4 DUP3 ADD MSTORE PUSH1 0x24 ADD PUSH2 0x3D8 JUMP JUMPDEST PUSH1 0x1 PUSH1 0x1 PUSH1 0xA0 SHL SUB DUP1 DUP6 AND PUSH0 SWAP1 DUP2 MSTORE PUSH1 0x1 PUSH1 0x20 SWAP1 DUP2 MSTORE PUSH1 0x40 DUP1 DUP4 KECCAK256 SWAP4 DUP8 AND DUP4 MSTORE SWAP3 SWAP1 MSTORE KECCAK256 DUP3 SWAP1 SSTORE DUP1 ISZERO PUSH2 0x804 JUMPI DUP3 PUSH1 0x1 PUSH1 0x1 PUSH1 0xA0 SHL SUB AND DUP5 PUSH1 0x1 PUSH1 0x1 PUSH1 0xA0 SHL SUB AND PUSH32 0x8C5BE1E5EBEC7D5BD14F71427D1E84F3DD0314C0F7B2291E5B200AC8C7C3B925 DUP5 PUSH1 0x40 MLOAD PUSH2 0x9E8 SWAP2 DUP2 MSTORE PUSH1 0x20 ADD SWAP1 JUMP JUMPDEST PUSH1 0x40 MLOAD DUP1 SWAP2 SUB SWAP1 LOG3 POP POP POP POP JUMP JUMPDEST PUSH1 0x1 PUSH1 0x1 PUSH1 0xA0 SHL SUB DUP4 AND PUSH2 0xA20 JUMPI DUP1 PUSH1 0x2 PUSH0 DUP3 DUP3 SLOAD PUSH2 0xA15 SWAP2 SWAP1 PUSH2 0xD8A JUMP JUMPDEST SWAP1 SWAP2 SSTORE POP PUSH2 0xA90 SWAP1 POP JUMP JUMPDEST PUSH1 0x1 PUSH1 0x1 PUSH1 0xA0 SHL SUB DUP4 AND PUSH0 SWAP1 DUP2 MSTORE PUSH1 0x20 DUP2 SWAP1 MSTORE PUSH1 0x40 SWAP1 KECCAK256 SLOAD DUP2 DUP2 LT ISZERO PUSH2 0xA72 JUMPI PUSH1 0x40 MLOAD PUSH4 0x391434E3 PUSH1 0xE2 SHL DUP2 MSTORE PUSH1 0x1 PUSH1 0x1 PUSH1 0xA0 SHL SUB DUP6 AND PUSH1 0x4 DUP3 ADD MSTORE PUSH1 0x24 DUP2 ADD DUP3 SWAP1 MSTORE PUSH1 0x44 DUP2 ADD DUP4 SWAP1 MSTORE PUSH1 0x64 ADD PUSH2 0x3D8 JUMP JUMPDEST PUSH1 0x1 PUSH1 0x1 PUSH1 0xA0 SHL SUB DUP5 AND PUSH0 SWAP1 DUP2 MSTORE PUSH1 0x20 DUP2 SWAP1 MSTORE PUSH1 0x40 SWAP1 KECCAK256 SWAP1 DUP3 SWAP1 SUB SWAP1 SSTORE JUMPDEST PUSH1 0x1 PUSH1 0x1 PUSH1 0xA0 SHL SUB DUP3 AND PUSH2 0xAAC JUMPI PUSH1 0x2 DUP1 SLOAD DUP3 SWAP1 SUB SWAP1 SSTORE PUSH2 0xACA JUMP JUMPDEST PUSH1 0x1 PUSH1 0x1 PUSH1 0xA0 SHL SUB DUP3 AND PUSH0 SWAP1 DUP2 MSTORE PUSH1 0x20 DUP2 SWAP1 MSTORE PUSH1 0x40 SWAP1 KECCAK256 DUP1 SLOAD DUP3 ADD SWAP1 SSTORE JUMPDEST DUP2 PUSH1 0x1 PUSH1 0x1 PUSH1 0xA0 SHL SUB AND DUP4 PUSH1 0x1 PUSH1 0x1 PUSH1 0xA0 SHL SUB AND PUSH32 0xDDF252AD1BE2C89B69C2B068FC378DAA952BA7F163C4A11628F55A4DF523B3EF DUP4 PUSH1 0x40 MLOAD PUSH2 0xB0F SWAP2 DUP2 MSTORE PUSH1 0x20 ADD SWAP1 JUMP JUMPDEST PUSH1 0x40 MLOAD DUP1 SWAP2 SUB SWAP1 LOG3 POP POP POP JUMP JUMPDEST PUSH1 0x20 DUP2 MSTORE PUSH0 DUP3 MLOAD DUP1 PUSH1 0x20 DUP5 ADD MSTORE DUP1 PUSH1 0x20 DUP6 ADD PUSH1 0x40 DUP6 ADD MCOPY PUSH0 PUSH1 0x40 DUP3 DUP6 ADD ADD MSTORE PUSH1 0x40 PUSH1 0x1F NOT PUSH1 0x1F DUP4 ADD AND DUP5 ADD ADD SWAP2 POP POP SWAP3 SWAP2 POP POP JUMP JUMPDEST DUP1 CALLDATALOAD PUSH1 0x1 PUSH1 0x1 PUSH1 0xA0 SHL SUB DUP2 AND DUP2 EQ PUSH2 0xB67 JUMPI PUSH0 PUSH0 REVERT JUMPDEST SWAP2 SWAP1 POP JUMP JUMPDEST PUSH0 PUSH0 PUSH1 0x40 DUP4 DUP6 SUB SLT ISZERO PUSH2 0xB7D JUMPI PUSH0 PUSH0 REVERT JUMPDEST PUSH2 0xB86 DUP4 PUSH2 0xB51 JUMP JUMPDEST SWAP5 PUSH1 0x20 SWAP4 SWAP1 SWAP4 ADD CALLDATALOAD SWAP4 POP POP POP JUMP JUMPDEST PUSH0 PUSH1 0x20 DUP3 DUP5 SUB SLT ISZERO PUSH2 0xBA4 JUMPI PUSH0 PUSH0 REVERT JUMPDEST PUSH2 0xBAD DUP3 PUSH2 0xB51 JUMP JUMPDEST SWAP4 SWAP3 POP POP POP JUMP JUMPDEST PUSH0 PUSH0 PUSH0 PUSH1 0x60 DUP5 DUP7 SUB SLT ISZERO PUSH2 0xBC6 JUMPI PUSH0 PUSH0 REVERT JUMPDEST PUSH2 0xBCF DUP5 PUSH2 0xB51 JUMP JUMPDEST SWAP3 POP PUSH2 0xBDD PUSH1 0x20 DUP6 ADD PUSH2 0xB51 JUMP JUMPDEST SWAP3 SWAP6 SWAP3 SWAP5 POP POP POP PUSH1 0x40 SWAP2 SWAP1 SWAP2 ADD CALLDATALOAD SWAP1 JUMP JUMPDEST PUSH0 PUSH1 0x20 DUP3 DUP5 SUB SLT ISZERO PUSH2 0xBFE JUMPI PUSH0 PUSH0 REVERT JUMPDEST POP CALLDATALOAD SWAP2 SWAP1 POP JUMP JUMPDEST PUSH0 PUSH0 PUSH1 0x40 DUP4 DUP6 SUB SLT ISZERO PUSH2 0xC16 JUMPI PUSH0 PUSH0 REVERT JUMPDEST PUSH2 0xC1F DUP4 PUSH2 0xB51 JUMP JUMPDEST SWAP2 POP PUSH2 0xC2D PUSH1 0x20 DUP5 ADD PUSH2 0xB51 JUMP JUMPDEST SWAP1 POP SWAP3 POP SWAP3 SWAP1 POP JUMP JUMPDEST PUSH1 0x1 DUP2 DUP2 SHR SWAP1 DUP3 AND DUP1 PUSH2 0xC4A JUMPI PUSH1 0x7F DUP3 AND SWAP2 POP JUMPDEST PUSH1 0x20 DUP3 LT DUP2 SUB PUSH2 0xC68 JUMPI PUSH4 0x4E487B71 PUSH1 0xE0 SHL PUSH0 MSTORE PUSH1 0x22 PUSH1 0x4 MSTORE PUSH1 0x24 PUSH0 REVERT JUMPDEST POP SWAP2 SWAP1 POP JUMP JUMPDEST PUSH4 0x4E487B71 PUSH1 0xE0 SHL PUSH0 MSTORE PUSH1 0x11 PUSH1 0x4 MSTORE PUSH1 0x24 PUSH0 REVERT JUMPDEST PUSH1 0x1 DUP2 JUMPDEST PUSH1 0x1 DUP5 GT ISZERO PUSH2 0xCBD JUMPI DUP1 DUP6 DIV DUP2 GT ISZERO PUSH2 0xCA1 JUMPI PUSH2 0xCA1 PUSH2 0xC6E JUMP JUMPDEST PUSH1 0x1 DUP5 AND ISZERO PUSH2 0xCAF JUMPI SWAP1 DUP2 MUL SWAP1 JUMPDEST PUSH1 0x1 SWAP4 SWAP1 SWAP4 SHR SWAP3 DUP1 MUL PUSH2 0xC86 JUMP JUMPDEST SWAP4 POP SWAP4 SWAP2 POP POP JUMP JUMPDEST PUSH0 DUP3 PUSH2 0xCD3 JUMPI POP PUSH1 0x1 PUSH2 0x37F JUMP JUMPDEST DUP2 PUSH2 0xCDF JUMPI POP PUSH0 PUSH2 0x37F JUMP JUMPDEST DUP2 PUSH1 0x1 DUP2 EQ PUSH2 0xCF5 JUMPI PUSH1 0x2 DUP2 EQ PUSH2 0xCFF JUMPI PUSH2 0xD1B JUMP JUMPDEST PUSH1 0x1 SWAP2 POP POP PUSH2 0x37F JUMP JUMPDEST PUSH1 0xFF DUP5 GT ISZERO PUSH2 0xD10 JUMPI PUSH2 0xD10 PUSH2 0xC6E JUMP JUMPDEST POP POP PUSH1 0x1 DUP3 SHL PUSH2 0x37F JUMP JUMPDEST POP PUSH1 0x20 DUP4 LT PUSH2 0x133 DUP4 LT AND PUSH1 0x4E DUP5 LT PUSH1 0xB DUP5 LT AND OR ISZERO PUSH2 0xD3E JUMPI POP DUP2 DUP2 EXP PUSH2 0x37F JUMP JUMPDEST PUSH2 0xD4A PUSH0 NOT DUP5 DUP5 PUSH2 0xC82 JUMP JUMPDEST DUP1 PUSH0 NOT DIV DUP3 GT ISZERO PUSH2 0xD5D JUMPI PUSH2 0xD5D PUSH2 0xC6E JUMP JUMPDEST MUL SWAP4 SWAP3 POP POP POP JUMP JUMPDEST PUSH0 PUSH2 0xBAD PUSH1 0xFF DUP5 AND DUP4 PUSH2 0xCC5 JUMP JUMPDEST DUP1 DUP3 MUL DUP2 ISZERO DUP3 DUP3 DIV DUP5 EQ OR PUSH2 0x37F JUMPI PUSH2 0x37F PUSH2 0xC6E JUMP JUMPDEST DUP1 DUP3 ADD DUP1 DUP3 GT ISZERO PUSH2 0x37F JUMPI PUSH2 0x37F PUSH2 0xC6E JUMP INVALID LOG2 PUSH5 0x6970667358 0x22 SLT KECCAK256 NUMBER 0xCD PUSH30 0x7A5632CD3347847F33E0BFD174FFBCF46111A98F002D4870B8A5A1F5E564 PUSH20 0x6F6C634300081F00336080604052348015600E57 PUSH0 PUSH0 REVERT JUMPDEST POP PUSH0 DUP1 SLOAD PUSH1 0x1 PUSH1 0x1 PUSH1 0xA0 SHL SUB NOT AND CALLER OR SWAP1 SSTORE PUSH2 0x1E3A DUP1 PUSH2 0x2D PUSH0 CODECOPY PUSH0 RETURN INVALID PUSH1 0x80 PUSH1 0x40 MSTORE CALLVALUE DUP1 ISZERO PUSH2 0xF JUMPI PUSH0 PUSH0 REVERT JUMPDEST POP PUSH1 0x4 CALLDATASIZE LT PUSH2 0x110 JUMPI PUSH0 CALLDATALOAD PUSH1 0xE0 SHR DUP1 PUSH4 0x9D13A9F4 GT PUSH2 0x9E JUMPI DUP1 PUSH4 0xDAC6270D GT PUSH2 0x6E JUMPI DUP1 PUSH4 0xDAC6270D EQ PUSH2 0x277 JUMPI DUP1 PUSH4 0xEBF1F1C4 EQ PUSH2 0x28D JUMPI DUP1 PUSH4 0xF85EA2AB EQ PUSH2 0x2A0 JUMPI DUP1 PUSH4 0xFC81587A EQ PUSH2 0x2B3 JUMPI DUP1 PUSH4 0xFFA0D2A4 EQ PUSH2 0x2BB JUMPI PUSH0 PUSH0 REVERT JUMPDEST DUP1 PUSH4 0x9D13A9F4 EQ PUSH2 0x1F7 JUMPI DUP1 PUSH4 0xA1794BCD EQ PUSH2 0x20A JUMPI DUP1 PUSH4 0xC6675CC9 EQ PUSH2 0x21D JUMPI DUP1 PUSH4 0xC7604FEC EQ PUSH2 0x264 JUMPI PUSH0 PUSH0 REVERT JUMPDEST DUP1 PUSH4 0x50C9457C GT PUSH2 0xE4 JUMPI DUP1 PUSH4 0x50C9457C EQ PUSH2 0x17A JUMPI DUP1 PUSH4 0x5584C4F9 EQ PUSH2 0x19A JUMPI DUP1 PUSH4 0x613ACE16 EQ PUSH2 0x1A2 JUMPI DUP1 PUSH4 0x80821C37 EQ PUSH2 0x1B8 JUMPI DUP1 PUSH4 0x8DA5CB5B EQ PUSH2 0x1CD JUMPI PUSH0 PUSH0 REVERT JUMPDEST DUP1 PUSH3 0xC88C06 EQ PUSH2 0x114 JUMPI DUP1 PUSH4 0x446C3E6 EQ PUSH2 0x129 JUMPI DUP1 PUSH4 0x25D3A09D EQ PUSH2 0x13C JUMPI DUP1 PUSH4 0x45EE99A9 EQ PUSH2 0x165 JUMPI JUMPDEST PUSH0 PUSH0 REVERT JUMPDEST PUSH2 0x127 PUSH2 0x122 CALLDATASIZE PUSH1 0x4 PUSH2 0x1695 JUMP JUMPDEST PUSH2 0x2E5 JUMP JUMPDEST STOP JUMPDEST PUSH2 0x127 PUSH2 0x137 CALLDATASIZE PUSH1 0x4 PUSH2 0x16D7 JUMP JUMPDEST PUSH2 0x48C JUMP JUMPDEST PUSH2 0x14F PUSH2 0x14A CALLDATASIZE PUSH1 0x4 PUSH2 0x16D7 JUMP JUMPDEST PUSH2 0x543 JUMP JUMPDEST PUSH1 0x40 MLOAD PUSH2 0x15C SWAP2 SWAP1 PUSH2 0x173F JUMP JUMPDEST PUSH1 0x40 MLOAD DUP1 SWAP2 SUB SWAP1 RETURN JUMPDEST PUSH2 0x16D PUSH2 0x8FB JUMP JUMPDEST PUSH1 0x40 MLOAD PUSH2 0x15C SWAP2 SWAP1 PUSH2 0x183C JUMP JUMPDEST PUSH2 0x18D PUSH2 0x188 CALLDATASIZE PUSH1 0x4 PUSH2 0x189F JUMP JUMPDEST PUSH2 0x9CF JUMP JUMPDEST PUSH1 0x40 MLOAD PUSH2 0x15C SWAP2 SWAP1 PUSH2 0x18B6 JUMP JUMPDEST PUSH2 0x16D PUSH2 0xA75 JUMP JUMPDEST PUSH1 0x7 SLOAD PUSH1 0xFF AND PUSH1 0x40 MLOAD SWAP1 ISZERO ISZERO DUP2 MSTORE PUSH1 0x20 ADD PUSH2 0x15C JUMP JUMPDEST PUSH2 0x1C0 PUSH2 0xB40 JUMP JUMPDEST PUSH1 0x40 MLOAD PUSH2 0x15C SWAP2 SWAP1 PUSH2 0x18CF JUMP JUMPDEST PUSH0 SLOAD PUSH2 0x1DF SWAP1 PUSH1 0x1 PUSH1 0x1 PUSH1 0xA0 SHL SUB AND DUP2 JUMP JUMPDEST PUSH1 0x40 MLOAD PUSH1 0x1 PUSH1 0x1 PUSH1 0xA0 SHL SUB SWAP1 SWAP2 AND DUP2 MSTORE PUSH1 0x20 ADD PUSH2 0x15C JUMP JUMPDEST PUSH2 0x18D PUSH2 0x205 CALLDATASIZE PUSH1 0x4 PUSH2 0x189F JUMP JUMPDEST PUSH2 0xC89 JUMP JUMPDEST PUSH1 0x1 SLOAD PUSH2 0x1DF SWAP1 PUSH1 0x1 PUSH1 0x1 PUSH1 0xA0 SHL SUB AND DUP2 JUMP JUMPDEST PUSH1 0x2 SLOAD PUSH1 0x3 SLOAD PUSH1 0x4 SLOAD PUSH1 0x5 SLOAD PUSH1 0x7 SLOAD PUSH2 0x23A SWAP5 SWAP4 SWAP3 SWAP2 SWAP1 PUSH1 0xFF AND DUP6 JUMP JUMPDEST PUSH1 0x40 DUP1 MLOAD SWAP6 DUP7 MSTORE PUSH1 0x20 DUP7 ADD SWAP5 SWAP1 SWAP5 MSTORE SWAP3 DUP5 ADD SWAP2 SWAP1 SWAP2 MSTORE PUSH1 0x60 DUP4 ADD MSTORE ISZERO ISZERO PUSH1 0x80 DUP3 ADD MSTORE PUSH1 0xA0 ADD PUSH2 0x15C JUMP JUMPDEST PUSH2 0x127 PUSH2 0x272 CALLDATASIZE PUSH1 0x4 PUSH2 0x1974 JUMP JUMPDEST PUSH2 0xC98 JUMP JUMPDEST PUSH2 0x27F PUSH2 0xDC7 JUMP JUMPDEST PUSH1 0x40 MLOAD SWAP1 DUP2 MSTORE PUSH1 0x20 ADD PUSH2 0x15C JUMP JUMPDEST PUSH2 0x127 PUSH2 0x29B CALLDATASIZE PUSH1 0x4 PUSH2 0x19AF JUMP JUMPDEST PUSH2 0xDFA JUMP JUMPDEST PUSH2 0x127 PUSH2 0x2AE CALLDATASIZE PUSH1 0x4 PUSH2 0x1AAB JUMP JUMPDEST PUSH2 0x10D6 JUMP JUMPDEST PUSH2 0x127 PUSH2 0x1186 JUMP JUMPDEST PUSH2 0x2CE PUSH2 0x2C9 CALLDATASIZE PUSH1 0x4 PUSH2 0x16D7 JUMP JUMPDEST PUSH2 0x1212 JUMP JUMPDEST PUSH1 0x40 MLOAD PUSH2 0x15C SWAP12 SWAP11 SWAP10 SWAP9 SWAP8 SWAP7 SWAP6 SWAP5 SWAP4 SWAP3 SWAP2 SWAP1 PUSH2 0x1AC4 JUMP JUMPDEST PUSH1 0x1 SLOAD PUSH1 0x1 PUSH1 0x1 PUSH1 0xA0 SHL SUB AND CALLER EQ PUSH2 0x318 JUMPI PUSH1 0x40 MLOAD PUSH3 0x461BCD PUSH1 0xE5 SHL DUP2 MSTORE PUSH1 0x4 ADD PUSH2 0x30F SWAP1 PUSH2 0x1B71 JUMP JUMPDEST PUSH1 0x40 MLOAD DUP1 SWAP2 SUB SWAP1 REVERT JUMPDEST PUSH0 PUSH1 0x8 DUP4 PUSH1 0x40 MLOAD PUSH2 0x329 SWAP2 SWAP1 PUSH2 0x1B9F JUMP JUMPDEST SWAP1 DUP2 MSTORE PUSH1 0x20 ADD PUSH1 0x40 MLOAD DUP1 SWAP2 SUB SWAP1 KECCAK256 SWAP1 POP PUSH0 DUP2 PUSH0 ADD DUP1 SLOAD PUSH2 0x348 SWAP1 PUSH2 0x1BB5 JUMP JUMPDEST SWAP1 POP GT PUSH2 0x38C JUMPI PUSH1 0x40 MLOAD PUSH3 0x461BCD PUSH1 0xE5 SHL DUP2 MSTORE PUSH1 0x20 PUSH1 0x4 DUP3 ADD MSTORE PUSH1 0x12 PUSH1 0x24 DUP3 ADD MSTORE PUSH18 0x141C9BDC1BDCD85B081B9BDD08199BDD5B99 PUSH1 0x72 SHL PUSH1 0x44 DUP3 ADD MSTORE PUSH1 0x64 ADD PUSH2 0x30F JUMP JUMPDEST PUSH1 0x6 DUP2 ADD SLOAD PUSH1 0x1 PUSH1 0xA0 SHL SWAP1 DIV PUSH1 0xFF AND ISZERO PUSH2 0x3DB JUMPI PUSH1 0x40 MLOAD PUSH3 0x461BCD PUSH1 0xE5 SHL DUP2 MSTORE PUSH1 0x20 PUSH1 0x4 DUP3 ADD MSTORE PUSH1 0x10 PUSH1 0x24 DUP3 ADD MSTORE PUSH16 0x105B1C9958591E481C995CDBDB1D9959 PUSH1 0x82 SHL PUSH1 0x44 DUP3 ADD MSTORE PUSH1 0x64 ADD PUSH2 0x30F JUMP JUMPDEST PUSH1 0x6 DUP2 ADD DUP1 SLOAD PUSH2 0xFFFF PUSH1 0xA0 SHL NOT AND PUSH2 0x101 PUSH1 0xA0 SHL OR SWAP1 SSTORE PUSH1 0x7 DUP2 ADD DUP3 SWAP1 SSTORE PUSH1 0x9 DUP1 SLOAD PUSH1 0x1 DUP2 ADD DUP3 SSTORE PUSH0 SWAP2 SWAP1 SWAP2 MSTORE PUSH32 0x6E1540171B6C0C960B71A7020D9F60077F6AF931A8BBF590DA0223DACF75C7AF ADD PUSH2 0x434 DUP5 DUP3 PUSH2 0x1C39 JUMP JUMPDEST POP DUP3 PUSH1 0x40 MLOAD PUSH2 0x443 SWAP2 SWAP1 PUSH2 0x1B9F JUMP JUMPDEST PUSH1 0x40 MLOAD DUP1 SWAP2 SUB SWAP1 KECCAK256 PUSH32 0x31856AA0754657ABC49198C86057D12DA4AD8B4986472692AA330310682DA1C6 DUP3 PUSH1 0x1 ADD DUP5 PUSH1 0x40 MLOAD PUSH2 0x47F SWAP3 SWAP2 SWAP1 PUSH2 0x1CF4 JUMP JUMPDEST PUSH1 0x40 MLOAD DUP1 SWAP2 SUB SWAP1 LOG2 POP POP POP JUMP JUMPDEST PUSH1 0x1 SLOAD PUSH1 0x1 PUSH1 0x1 PUSH1 0xA0 SHL SUB AND CALLER EQ PUSH2 0x4B6 JUMPI PUSH1 0x40 MLOAD PUSH3 0x461BCD PUSH1 0xE5 SHL DUP2 MSTORE PUSH1 0x4 ADD PUSH2 0x30F SWAP1 PUSH2 0x1B71 JUMP JUMPDEST PUSH1 0x7 SLOAD PUSH1 0xFF AND PUSH2 0x4FB JUMPI PUSH1 0x40 MLOAD PUSH3 0x461BCD PUSH1 0xE5 SHL DUP2 MSTORE PUSH1 0x20 PUSH1 0x4 DUP3 ADD MSTORE PUSH1 0x10 PUSH1 0x24 DUP3 ADD MSTORE PUSH16 0x139BC81858DD1A5D99481B585C9AD95D PUSH1 0x82 SHL PUSH1 0x44 DUP3 ADD MSTORE PUSH1 0x64 ADD PUSH2 0x30F JUMP JUMPDEST PUSH1 0x7 DUP1 SLOAD PUSH1 0xFF NOT AND SWAP1 SSTORE PUSH1 0x2 SLOAD PUSH1 0x40 MLOAD PUSH32 0x2EC1F84B4079525F1AB2216F53A16F520EFEC75C91C517667151E55BBEA7B9EC SWAP2 PUSH2 0x538 SWAP2 DUP5 SWAP1 PUSH2 0x1D83 JUMP JUMPDEST PUSH1 0x40 MLOAD DUP1 SWAP2 SUB SWAP1 LOG1 POP JUMP JUMPDEST PUSH2 0x5A7 PUSH1 0x40 MLOAD DUP1 PUSH2 0x160 ADD PUSH1 0x40 MSTORE DUP1 PUSH1 0x60 DUP2 MSTORE PUSH1 0x20 ADD PUSH1 0x60 DUP2 MSTORE PUSH1 0x20 ADD PUSH1 0x60 DUP2 MSTORE PUSH1 0x20 ADD PUSH1 0x60 DUP2 MSTORE PUSH1 0x20 ADD PUSH1 0x60 DUP2 MSTORE PUSH1 0x20 ADD PUSH0 DUP2 MSTORE PUSH1 0x20 ADD PUSH0 PUSH1 0x1 PUSH1 0x1 PUSH1 0xA0 SHL SUB AND DUP2 MSTORE PUSH1 0x20 ADD PUSH0 ISZERO ISZERO DUP2 MSTORE PUSH1 0x20 ADD PUSH0 ISZERO ISZERO DUP2 MSTORE PUSH1 0x20 ADD PUSH0 DUP2 MSTORE PUSH1 0x20 ADD PUSH0 DUP2 MSTORE POP SWAP1 JUMP JUMPDEST PUSH1 0x8 DUP3 PUSH1 0x40 MLOAD PUSH2 0x5B7 SWAP2 SWAP1 PUSH2 0x1B9F JUMP JUMPDEST SWAP1 DUP2 MSTORE PUSH1 0x20 ADD PUSH1 0x40 MLOAD DUP1 SWAP2 SUB SWAP1 KECCAK256 PUSH1 0x40 MLOAD DUP1 PUSH2 0x160 ADD PUSH1 0x40 MSTORE SWAP1 DUP2 PUSH0 DUP3 ADD DUP1 SLOAD PUSH2 0x5E0 SWAP1 PUSH2 0x1BB5 JUMP JUMPDEST DUP1 PUSH1 0x1F ADD PUSH1 0x20 DUP1 SWAP2 DIV MUL PUSH1 0x20 ADD PUSH1 0x40 MLOAD SWAP1 DUP2 ADD PUSH1 0x40 MSTORE DUP1 SWAP3 SWAP2 SWAP1 DUP2 DUP2 MSTORE PUSH1 0x20 ADD DUP3 DUP1 SLOAD PUSH2 0x60C SWAP1 PUSH2 0x1BB5 JUMP JUMPDEST DUP1 ISZERO PUSH2 0x657 JUMPI DUP1 PUSH1 0x1F LT PUSH2 0x62E JUMPI PUSH2 0x100 DUP1 DUP4 SLOAD DIV MUL DUP4 MSTORE SWAP2 PUSH1 0x20 ADD SWAP2 PUSH2 0x657 JUMP JUMPDEST DUP3 ADD SWAP2 SWAP1 PUSH0 MSTORE PUSH1 0x20 PUSH0 KECCAK256 SWAP1 JUMPDEST DUP2 SLOAD DUP2 MSTORE SWAP1 PUSH1 0x1 ADD SWAP1 PUSH1 0x20 ADD DUP1 DUP4 GT PUSH2 0x63A JUMPI DUP3 SWAP1 SUB PUSH1 0x1F AND DUP3 ADD SWAP2 JUMPDEST POP POP POP POP POP DUP2 MSTORE PUSH1 0x20 ADD PUSH1 0x1 DUP3 ADD DUP1 SLOAD PUSH2 0x670 SWAP1 PUSH2 0x1BB5 JUMP JUMPDEST DUP1 PUSH1 0x1F ADD PUSH1 0x20 DUP1 SWAP2 DIV MUL PUSH1 0x20 ADD PUSH1 0x40 MLOAD SWAP1 DUP2 ADD PUSH1 0x40 MSTORE DUP1 SWAP3 SWAP2 SWAP1 DUP2 DUP2 MSTORE PUSH1 0x20 ADD DUP3 DUP1 SLOAD PUSH2 0x69C SWAP1 PUSH2 0x1BB5 JUMP JUMPDEST DUP1 ISZERO PUSH2 0x6E7 JUMPI DUP1 PUSH1 0x1F LT PUSH2 0x6BE JUMPI PUSH2 0x100 DUP1 DUP4 SLOAD DIV MUL DUP4 MSTORE SWAP2 PUSH1 0x20 ADD SWAP2 PUSH2 0x6E7 JUMP JUMPDEST DUP3 ADD SWAP2 SWAP1 PUSH0 MSTORE PUSH1 0x20 PUSH0 KECCAK256 SWAP1 JUMPDEST DUP2 SLOAD DUP2 MSTORE SWAP1 PUSH1 0x1 ADD SWAP1 PUSH1 0x20 ADD DUP1 DUP4 GT PUSH2 0x6CA JUMPI DUP3 SWAP1 SUB PUSH1 0x1F AND DUP3 ADD SWAP2 JUMPDEST POP POP POP POP POP DUP2 MSTORE PUSH1 0x20 ADD PUSH1 0x2 DUP3 ADD DUP1 SLOAD PUSH2 0x700 SWAP1 PUSH2 0x1BB5 JUMP JUMPDEST DUP1 PUSH1 0x1F ADD PUSH1 0x20 DUP1 SWAP2 DIV MUL PUSH1 0x20 ADD PUSH1 0x40 MLOAD SWAP1 DUP2 ADD PUSH1 0x40 MSTORE DUP1 SWAP3 SWAP2 SWAP1 DUP2 DUP2 MSTORE PUSH1 0x20 ADD DUP3 DUP1 SLOAD PUSH2 0x72C SWAP1 PUSH2 0x1BB5 JUMP JUMPDEST DUP1 ISZERO PUSH2 0x777 JUMPI DUP1 PUSH1 0x1F LT PUSH2 0x74E JUMPI PUSH2 0x100 DUP1 DUP4 SLOAD DIV MUL DUP4 MSTORE SWAP2 PUSH1 0x20 ADD SWAP2 PUSH2 0x777 JUMP JUMPDEST DUP3 ADD SWAP2 SWAP1 PUSH0 MSTORE PUSH1 0x20 PUSH0 KECCAK256 SWAP1 JUMPDEST DUP2 SLOAD DUP2 MSTORE SWAP1 PUSH1 0x1 ADD SWAP1 PUSH1 0x20 ADD DUP1 DUP4 GT PUSH2 0x75A JUMPI DUP3 SWAP1 SUB PUSH1 0x1F AND DUP3 ADD SWAP2 JUMPDEST POP POP POP POP POP DUP2 MSTORE PUSH1 0x20 ADD PUSH1 0x3 DUP3 ADD DUP1 SLOAD PUSH2 0x790 SWAP1 PUSH2 0x1BB5 JUMP JUMPDEST DUP1 PUSH1 0x1F ADD PUSH1 0x20 DUP1 SWAP2 DIV MUL PUSH1 0x20 ADD PUSH1 0x40 MLOAD SWAP1 DUP2 ADD PUSH1 0x40 MSTORE DUP1 SWAP3 SWAP2 SWAP1 DUP2 DUP2 MSTORE PUSH1 0x20 ADD DUP3 DUP1 SLOAD PUSH2 0x7BC SWAP1 PUSH2 0x1BB5 JUMP JUMPDEST DUP1 ISZERO PUSH2 0x807 JUMPI DUP1 PUSH1 0x1F LT PUSH2 0x7DE JUMPI PUSH2 0x100 DUP1 DUP4 SLOAD DIV MUL DUP4 MSTORE SWAP2 PUSH1 0x20 ADD SWAP2 PUSH2 0x807 JUMP JUMPDEST DUP3 ADD SWAP2 SWAP1 PUSH0 MSTORE PUSH1 0x20 PUSH0 KECCAK256 SWAP1 JUMPDEST DUP2 SLOAD DUP2 MSTORE SWAP1 PUSH1 0x1 ADD SWAP1 PUSH1 0x20 ADD DUP1 DUP4 GT PUSH2 0x7EA JUMPI DUP3 SWAP1 SUB PUSH1 0x1F AND DUP3 ADD SWAP2 JUMPDEST POP POP POP POP POP DUP2 MSTORE PUSH1 0x20 ADD PUSH1 0x4 DUP3 ADD DUP1 SLOAD PUSH2 0x820 SWAP1 PUSH2 0x1BB5 JUMP JUMPDEST DUP1 PUSH1 0x1F ADD PUSH1 0x20 DUP1 SWAP2 DIV MUL PUSH1 0x20 ADD PUSH1 0x40 MLOAD SWAP1 DUP2 ADD PUSH1 0x40 MSTORE DUP1 SWAP3 SWAP2 SWAP1 DUP2 DUP2 MSTORE PUSH1 0x20 ADD DUP3 DUP1 SLOAD PUSH2 0x84C SWAP1 PUSH2 0x1BB5 JUMP JUMPDEST DUP1 ISZERO PUSH2 0x897 JUMPI DUP1 PUSH1 0x1F LT PUSH2 0x86E JUMPI PUSH2 0x100 DUP1 DUP4 SLOAD DIV MUL DUP4 MSTORE SWAP2 PUSH1 0x20 ADD SWAP2 PUSH2 0x897 JUMP JUMPDEST DUP3 ADD SWAP2 SWAP1 PUSH0 MSTORE PUSH1 0x20 PUSH0 KECCAK256 SWAP1 JUMPDEST DUP2 SLOAD DUP2 MSTORE SWAP1 PUSH1 0x1 ADD SWAP1 PUSH1 0x20 ADD DUP1 DUP4 GT PUSH2 0x87A JUMPI DUP3 SWAP1 SUB PUSH1 0x1F AND DUP3 ADD SWAP2 JUMPDEST POP POP POP SWAP2 DUP4 MSTORE POP POP PUSH1 0x5 DUP3 ADD SLOAD PUSH1 0x20 DUP3 ADD MSTORE PUSH1 0x6 DUP3 ADD SLOAD PUSH1 0x1 PUSH1 0x1 PUSH1 0xA0 SHL SUB DUP2 AND PUSH1 0x40 DUP4 ADD MSTORE PUSH1 0xFF PUSH1 0x1 PUSH1 0xA0 SHL DUP3 DIV DUP2 AND ISZERO ISZERO PUSH1 0x60 DUP5 ADD MSTORE PUSH1 0x1 PUSH1 0xA8 SHL SWAP1 SWAP2 DIV AND ISZERO ISZERO PUSH1 0x80 DUP3 ADD MSTORE PUSH1 0x7 DUP3 ADD SLOAD PUSH1 0xA0 DUP3 ADD MSTORE PUSH1 0x8 SWAP1 SWAP2 ADD SLOAD PUSH1 0xC0 SWAP1 SWAP2 ADD MSTORE SWAP3 SWAP2 POP POP JUMP JUMPDEST PUSH1 0x60 PUSH1 0x9 DUP1 SLOAD DUP1 PUSH1 0x20 MUL PUSH1 0x20 ADD PUSH1 0x40 MLOAD SWAP1 DUP2 ADD PUSH1 0x40 MSTORE DUP1 SWAP3 SWAP2 SWAP1 DUP2 DUP2 MSTORE PUSH1 0x20 ADD PUSH0 SWAP1 JUMPDEST DUP3 DUP3 LT ISZERO PUSH2 0x9C6 JUMPI DUP4 DUP3 SWAP1 PUSH0 MSTORE PUSH1 0x20 PUSH0 KECCAK256 ADD DUP1 SLOAD PUSH2 0x93B SWAP1 PUSH2 0x1BB5 JUMP JUMPDEST DUP1 PUSH1 0x1F ADD PUSH1 0x20 DUP1 SWAP2 DIV MUL PUSH1 0x20 ADD PUSH1 0x40 MLOAD SWAP1 DUP2 ADD PUSH1 0x40 MSTORE DUP1 SWAP3 SWAP2 SWAP1 DUP2 DUP2 MSTORE PUSH1 0x20 ADD DUP3 DUP1 SLOAD PUSH2 0x967 SWAP1 PUSH2 0x1BB5 JUMP JUMPDEST DUP1 ISZERO PUSH2 0x9B2 JUMPI DUP1 PUSH1 0x1F LT PUSH2 0x989 JUMPI PUSH2 0x100 DUP1 DUP4 SLOAD DIV MUL DUP4 MSTORE SWAP2 PUSH1 0x20 ADD SWAP2 PUSH2 0x9B2 JUMP JUMPDEST DUP3 ADD SWAP2 SWAP1 PUSH0 MSTORE PUSH1 0x20 PUSH0 KECCAK256 SWAP1 JUMPDEST DUP2 SLOAD DUP2 MSTORE SWAP1 PUSH1 0x1 ADD SWAP1 PUSH1 0x20 ADD DUP1 DUP4 GT PUSH2 0x995 JUMPI DUP3 SWAP1 SUB PUSH1 0x1F AND DUP3 ADD SWAP2 JUMPDEST POP POP POP POP POP DUP2 MSTORE PUSH1 0x20 ADD SWAP1 PUSH1 0x1 ADD SWAP1 PUSH2 0x91E JUMP JUMPDEST POP POP POP POP SWAP1 POP SWAP1 JUMP JUMPDEST PUSH1 0xA DUP2 DUP2 SLOAD DUP2 LT PUSH2 0x9DE JUMPI PUSH0 DUP1 REVERT JUMPDEST SWAP1 PUSH0 MSTORE PUSH1 0x20 PUSH0 KECCAK256 ADD PUSH0 SWAP2 POP SWAP1 POP DUP1 SLOAD PUSH2 0x9F6 SWAP1 PUSH2 0x1BB5 JUMP JUMPDEST DUP1 PUSH1 0x1F ADD PUSH1 0x20 DUP1 SWAP2 DIV MUL PUSH1 0x20 ADD PUSH1 0x40 MLOAD SWAP1 DUP2 ADD PUSH1 0x40 MSTORE DUP1 SWAP3 SWAP2 SWAP1 DUP2 DUP2 MSTORE PUSH1 0x20 ADD DUP3 DUP1 SLOAD PUSH2 0xA22 SWAP1 PUSH2 0x1BB5 JUMP JUMPDEST DUP1 ISZERO PUSH2 0xA6D JUMPI DUP1 PUSH1 0x1F LT PUSH2 0xA44 JUMPI PUSH2 0x100 DUP1 DUP4 SLOAD DIV MUL DUP4 MSTORE SWAP2 PUSH1 0x20 ADD SWAP2 PUSH2 0xA6D JUMP JUMPDEST DUP3 ADD SWAP2 SWAP1 PUSH0 MSTORE PUSH1 0x20 PUSH0 KECCAK256 SWAP1 JUMPDEST DUP2 SLOAD DUP2 MSTORE SWAP1 PUSH1 0x1 ADD SWAP1 PUSH1 0x20 ADD DUP1 DUP4 GT PUSH2 0xA50 JUMPI DUP3 SWAP1 SUB PUSH1 0x1F AND DUP3 ADD SWAP2 JUMPDEST POP POP POP POP POP DUP2 JUMP JUMPDEST PUSH1 0x60 PUSH1 0xA DUP1 SLOAD DUP1 PUSH1 0x20 MUL PUSH1 0x20 ADD PUSH1 0x40 MLOAD SWAP1 DUP2 ADD PUSH1 0x40 MSTORE DUP1 SWAP3 SWAP2 SWAP1 DUP2 DUP2 MSTORE PUSH1 0x20 ADD PUSH0 SWAP1 JUMPDEST DUP3 DUP3 LT ISZERO PUSH2 0x9C6 JUMPI DUP4 DUP3 SWAP1 PUSH0 MSTORE PUSH1 0x20 PUSH0 KECCAK256 ADD DUP1 SLOAD PUSH2 0xAB5 SWAP1 PUSH2 0x1BB5 JUMP JUMPDEST DUP1 PUSH1 0x1F ADD PUSH1 0x20 DUP1 SWAP2 DIV MUL PUSH1 0x20 ADD PUSH1 0x40 MLOAD SWAP1 DUP2 ADD PUSH1 0x40 MSTORE DUP1 SWAP3 SWAP2 SWAP1 DUP2 DUP2 MSTORE PUSH1 0x20 ADD DUP3 DUP1 SLOAD PUSH2 0xAE1 SWAP1 PUSH2 0x1BB5 JUMP JUMPDEST DUP1 ISZERO PUSH2 0xB2C JUMPI DUP1 PUSH1 0x1F LT PUSH2 0xB03 JUMPI PUSH2 0x100 DUP1 DUP4 SLOAD DIV MUL DUP4 MSTORE SWAP2 PUSH1 0x20 ADD SWAP2 PUSH2 0xB2C JUMP JUMPDEST DUP3 ADD SWAP2 SWAP1 PUSH0 MSTORE PUSH1 0x20 PUSH0 KECCAK256 SWAP1 JUMPDEST DUP2 SLOAD DUP2 MSTORE SWAP1 PUSH1 0x1 ADD SWAP1 PUSH1 0x20 ADD DUP1 DUP4 GT PUSH2 0xB0F JUMPI DUP3 SWAP1 SUB PUSH1 0x1F AND DUP3 ADD SWAP2 JUMPDEST POP POP POP POP POP DUP2 MSTORE PUSH1 0x20 ADD SWAP1 PUSH1 0x1 ADD SWAP1 PUSH2 0xA98 JUMP JUMPDEST PUSH2 0xB76 PUSH1 0x40 MLOAD DUP1 PUSH1 0xC0 ADD PUSH1 0x40 MSTORE DUP1 PUSH0 DUP2 MSTORE PUSH1 0x20 ADD PUSH0 DUP2 MSTORE PUSH1 0x20 ADD PUSH0 DUP2 MSTORE PUSH1 0x20 ADD PUSH0 DUP2 MSTORE PUSH1 0x20 ADD PUSH1 0x60 DUP2 MSTORE PUSH1 0x20 ADD PUSH0 ISZERO ISZERO DUP2 MSTORE POP SWAP1 JUMP JUMPDEST PUSH1 0x40 DUP1 MLOAD PUSH1 0xC0 DUP2 ADD DUP3 MSTORE PUSH1 0x2 DUP1 SLOAD DUP3 MSTORE PUSH1 0x3 SLOAD PUSH1 0x20 DUP1 DUP5 ADD SWAP2 SWAP1 SWAP2 MSTORE PUSH1 0x4 SLOAD DUP4 DUP6 ADD MSTORE PUSH1 0x5 SLOAD PUSH1 0x60 DUP5 ADD MSTORE PUSH1 0x6 DUP1 SLOAD DUP6 MLOAD DUP2 DUP5 MUL DUP2 ADD DUP5 ADD SWAP1 SWAP7 MSTORE DUP1 DUP7 MSTORE SWAP4 SWAP5 SWAP3 SWAP4 PUSH1 0x80 DUP7 ADD SWAP4 SWAP3 PUSH0 SWAP1 DUP5 ADD JUMPDEST DUP3 DUP3 LT ISZERO PUSH2 0xC6B JUMPI DUP4 DUP3 SWAP1 PUSH0 MSTORE PUSH1 0x20 PUSH0 KECCAK256 ADD DUP1 SLOAD PUSH2 0xBE0 SWAP1 PUSH2 0x1BB5 JUMP JUMPDEST DUP1 PUSH1 0x1F ADD PUSH1 0x20 DUP1 SWAP2 DIV MUL PUSH1 0x20 ADD PUSH1 0x40 MLOAD SWAP1 DUP2 ADD PUSH1 0x40 MSTORE DUP1 SWAP3 SWAP2 SWAP1 DUP2 DUP2 MSTORE PUSH1 0x20 ADD DUP3 DUP1 SLOAD PUSH2 0xC0C SWAP1 PUSH2 0x1BB5 JUMP JUMPDEST DUP1 ISZERO PUSH2 0xC57 JUMPI DUP1 PUSH1 0x1F LT PUSH2 0xC2E JUMPI PUSH2 0x100 DUP1 DUP4 SLOAD DIV MUL DUP4 MSTORE SWAP2 PUSH1 0x20 ADD SWAP2 PUSH2 0xC57 JUMP JUMPDEST DUP3 ADD SWAP2 SWAP1 PUSH0 MSTORE PUSH1 0x20 PUSH0 KECCAK256 SWAP1 JUMPDEST DUP2 SLOAD DUP2 MSTORE SWAP1 PUSH1 0x1 ADD SWAP1 PUSH1 0x20 ADD DUP1 DUP4 GT PUSH2 0xC3A JUMPI DUP3 SWAP1 SUB PUSH1 0x1F AND DUP3 ADD SWAP2 JUMPDEST POP POP POP POP POP DUP2 MSTORE PUSH1 0x20 ADD SWAP1 PUSH1 0x1 ADD SWAP1 PUSH2 0xBC3 JUMP JUMPDEST POP POP POP SWAP1 DUP3 MSTORE POP PUSH1 0x5 SWAP2 SWAP1 SWAP2 ADD SLOAD PUSH1 0xFF AND ISZERO ISZERO PUSH1 0x20 SWAP1 SWAP2 ADD MSTORE SWAP2 SWAP1 POP JUMP JUMPDEST PUSH1 0x9 DUP2 DUP2 SLOAD DUP2 LT PUSH2 0x9DE JUMPI PUSH0 DUP1 REVERT JUMPDEST PUSH1 0x1 SLOAD PUSH1 0x1 PUSH1 0x1 PUSH1 0xA0 SHL SUB AND CALLER EQ PUSH2 0xCC2 JUMPI PUSH1 0x40 MLOAD PUSH3 0x461BCD PUSH1 0xE5 SHL DUP2 MSTORE PUSH1 0x4 ADD PUSH2 0x30F SWAP1 PUSH2 0x1B71 JUMP JUMPDEST PUSH1 0x40 MLOAD DUP1 PUSH1 0xC0 ADD PUSH1 0x40 MSTORE DUP1 DUP4 DUP2 MSTORE PUSH1 0x20 ADD TIMESTAMP DUP2 MSTORE PUSH1 0x20 ADD DUP3 TIMESTAMP PUSH2 0xCE5 SWAP2 SWAP1 PUSH2 0x1DAF JUMP JUMPDEST DUP2 MSTORE PUSH1 0x20 DUP1 DUP3 ADD DUP5 SWAP1 MSTORE PUSH1 0x40 DUP1 MLOAD PUSH0 DUP1 DUP3 MSTORE SWAP3 DUP2 ADD DUP3 MSTORE SWAP3 ADD SWAP2 SWAP1 PUSH2 0xD1A JUMP JUMPDEST PUSH1 0x60 DUP2 MSTORE PUSH1 0x20 ADD SWAP1 PUSH1 0x1 SWAP1 SUB SWAP1 DUP2 PUSH2 0xD05 JUMPI SWAP1 POP JUMPDEST POP DUP2 MSTORE PUSH1 0x1 PUSH1 0x20 SWAP2 DUP3 ADD MSTORE DUP2 MLOAD PUSH1 0x2 SWAP1 DUP2 SSTORE DUP3 DUP3 ADD MLOAD PUSH1 0x3 SSTORE PUSH1 0x40 DUP4 ADD MLOAD PUSH1 0x4 SSTORE PUSH1 0x60 DUP4 ADD MLOAD PUSH1 0x5 SSTORE PUSH1 0x80 DUP4 ADD MLOAD DUP1 MLOAD SWAP2 SWAP3 PUSH2 0xD5C SWAP3 PUSH1 0x6 SWAP3 SWAP1 SWAP2 ADD SWAP1 PUSH2 0x1522 JUMP JUMPDEST POP PUSH1 0xA0 SWAP2 SWAP1 SWAP2 ADD MLOAD PUSH1 0x5 SWAP1 SWAP2 ADD DUP1 SLOAD PUSH1 0xFF NOT AND SWAP2 ISZERO ISZERO SWAP2 SWAP1 SWAP2 OR SWAP1 SSTORE PUSH32 0xED25EC23D979BEBC7C6A7E5FFEBB0FBD64B71F7E6DC13DEC21F220F5B91081B9 DUP3 TIMESTAMP PUSH2 0xDA5 DUP5 DUP3 PUSH2 0x1DAF JUMP JUMPDEST PUSH1 0x40 DUP1 MLOAD SWAP4 DUP5 MSTORE PUSH1 0x20 DUP5 ADD SWAP3 SWAP1 SWAP3 MSTORE SWAP1 DUP3 ADD MSTORE PUSH1 0x60 ADD PUSH1 0x40 MLOAD DUP1 SWAP2 SUB SWAP1 LOG1 POP POP JUMP JUMPDEST PUSH1 0x7 SLOAD PUSH0 SWAP1 PUSH1 0xFF AND ISZERO DUP1 PUSH2 0xDDD JUMPI POP PUSH1 0x4 SLOAD TIMESTAMP LT ISZERO JUMPDEST ISZERO PUSH2 0xDE7 JUMPI POP PUSH0 SWAP1 JUMP JUMPDEST PUSH1 0x4 SLOAD PUSH2 0xDF5 SWAP1 TIMESTAMP SWAP1 PUSH2 0x1DC8 JUMP JUMPDEST SWAP1 POP SWAP1 JUMP JUMPDEST PUSH1 0x1 SLOAD PUSH1 0x1 PUSH1 0x1 PUSH1 0xA0 SHL SUB AND CALLER EQ PUSH2 0xE24 JUMPI PUSH1 0x40 MLOAD PUSH3 0x461BCD PUSH1 0xE5 SHL DUP2 MSTORE PUSH1 0x4 ADD PUSH2 0x30F SWAP1 PUSH2 0x1B71 JUMP JUMPDEST PUSH1 0x7 SLOAD PUSH1 0xFF AND PUSH2 0xE69 JUMPI PUSH1 0x40 MLOAD PUSH3 0x461BCD PUSH1 0xE5 SHL DUP2 MSTORE PUSH1 0x20 PUSH1 0x4 DUP3 ADD MSTORE PUSH1 0x10 PUSH1 0x24 DUP3 ADD MSTORE PUSH16 0x139BC81858DD1A5D99481B585C9AD95D PUSH1 0x82 SHL PUSH1 0x44 DUP3 ADD MSTORE PUSH1 0x64 ADD PUSH2 0x30F JUMP JUMPDEST PUSH1 0x1 PUSH1 0x1 PUSH1 0xA0 SHL SUB DUP2 AND PUSH2 0xEB6 JUMPI PUSH1 0x40 MLOAD PUSH3 0x461BCD PUSH1 0xE5 SHL DUP2 MSTORE PUSH1 0x20 PUSH1 0x4 DUP3 ADD MSTORE PUSH1 0x14 PUSH1 0x24 DUP3 ADD MSTORE PUSH20 0x496E76616C696420706F6F6C2061646472657373 PUSH1 0x60 SHL PUSH1 0x44 DUP3 ADD MSTORE PUSH1 0x64 ADD PUSH2 0x30F JUMP JUMPDEST PUSH1 0x40 MLOAD DUP1 PUSH2 0x160 ADD PUSH1 0x40 MSTORE DUP1 DUP9 DUP2 MSTORE PUSH1 0x20 ADD DUP8 DUP2 MSTORE PUSH1 0x20 ADD DUP7 DUP2 MSTORE PUSH1 0x20 ADD DUP6 DUP2 MSTORE PUSH1 0x20 ADD DUP5 DUP2 MSTORE PUSH1 0x20 ADD DUP4 DUP2 MSTORE PUSH1 0x20 ADD DUP3 PUSH1 0x1 PUSH1 0x1 PUSH1 0xA0 SHL SUB AND DUP2 MSTORE PUSH1 0x20 ADD PUSH0 ISZERO ISZERO DUP2 MSTORE PUSH1 0x20 ADD PUSH0 ISZERO ISZERO DUP2 MSTORE PUSH1 0x20 ADD PUSH0 DUP2 MSTORE PUSH1 0x20 ADD TIMESTAMP DUP2 MSTORE POP PUSH1 0x8 DUP9 PUSH1 0x40 MLOAD PUSH2 0xF1F SWAP2 SWAP1 PUSH2 0x1B9F JUMP JUMPDEST SWAP1 DUP2 MSTORE PUSH1 0x40 MLOAD SWAP1 DUP2 SWAP1 SUB PUSH1 0x20 ADD SWAP1 KECCAK256 DUP2 MLOAD DUP2 SWAP1 PUSH2 0xF3C SWAP1 DUP3 PUSH2 0x1C39 JUMP JUMPDEST POP PUSH1 0x20 DUP3 ADD MLOAD PUSH1 0x1 DUP3 ADD SWAP1 PUSH2 0xF51 SWAP1 DUP3 PUSH2 0x1C39 JUMP JUMPDEST POP PUSH1 0x40 DUP3 ADD MLOAD PUSH1 0x2 DUP3 ADD SWAP1 PUSH2 0xF66 SWAP1 DUP3 PUSH2 0x1C39 JUMP JUMPDEST POP PUSH1 0x60 DUP3 ADD MLOAD PUSH1 0x3 DUP3 ADD SWAP1 PUSH2 0xF7B SWAP1 DUP3 PUSH2 0x1C39 JUMP JUMPDEST POP PUSH1 0x80 DUP3 ADD MLOAD PUSH1 0x4 DUP3 ADD SWAP1 PUSH2 0xF90 SWAP1 DUP3 PUSH2 0x1C39 JUMP JUMPDEST POP PUSH1 0xA0 DUP3 ADD MLOAD PUSH1 0x5 DUP3 ADD SSTORE PUSH1 0xC0 DUP3 ADD MLOAD PUSH1 0x6 DUP1 DUP4 ADD DUP1 SLOAD PUSH1 0xE0 DUP7 ADD MLOAD PUSH2 0x100 DUP8 ADD MLOAD ISZERO ISZERO PUSH1 0x1 PUSH1 0xA8 SHL MUL PUSH1 0xFF PUSH1 0xA8 SHL NOT SWAP2 ISZERO ISZERO PUSH1 0x1 PUSH1 0xA0 SHL MUL PUSH1 0x1 PUSH1 0x1 PUSH1 0xA8 SHL SUB NOT SWAP1 SWAP4 AND PUSH1 0x1 PUSH1 0x1 PUSH1 0xA0 SHL SUB SWAP1 SWAP7 AND SWAP6 SWAP1 SWAP6 OR SWAP2 SWAP1 SWAP2 OR AND SWAP3 SWAP1 SWAP3 OR SWAP1 SWAP2 SSTORE PUSH2 0x120 DUP4 ADD MLOAD PUSH1 0x7 DUP4 ADD SSTORE PUSH2 0x140 SWAP1 SWAP3 ADD MLOAD PUSH1 0x8 SWAP1 SWAP2 ADD SSTORE DUP1 SLOAD PUSH1 0x1 DUP2 ADD DUP3 SSTORE PUSH0 SWAP2 SWAP1 SWAP2 MSTORE PUSH32 0xF652222313E28459528D920B65115C16C04F3EFC82AAEDC97BE59F3F377C0D3F ADD PUSH2 0x1041 DUP9 DUP3 PUSH2 0x1C39 JUMP JUMPDEST POP PUSH1 0xA DUP1 SLOAD PUSH1 0x1 DUP2 ADD DUP3 SSTORE PUSH0 SWAP2 SWAP1 SWAP2 MSTORE PUSH32 0xC65A7BB8D6351C1CF70C95A316CC6A92839C986682D98BC35F958F4883F9D2A8 ADD PUSH2 0x107D DUP9 DUP3 PUSH2 0x1C39 JUMP JUMPDEST POP DUP7 PUSH1 0x40 MLOAD PUSH2 0x108C SWAP2 SWAP1 PUSH2 0x1B9F JUMP JUMPDEST PUSH1 0x40 MLOAD DUP1 SWAP2 SUB SWAP1 KECCAK256 PUSH32 0x1958207786F309ABB6DB88F2A47C5D0BACD26F5196F358E7E73DDA7F514FE669 DUP8 DUP4 PUSH1 0x40 MLOAD PUSH2 0x10C5 SWAP3 SWAP2 SWAP1 PUSH2 0x1DDB JUMP JUMPDEST PUSH1 0x40 MLOAD DUP1 SWAP2 SUB SWAP1 LOG2 POP POP POP POP POP POP POP JUMP JUMPDEST PUSH0 SLOAD PUSH1 0x1 PUSH1 0x1 PUSH1 0xA0 SHL SUB AND CALLER EQ PUSH2 0x111C JUMPI PUSH1 0x40 MLOAD PUSH3 0x461BCD PUSH1 0xE5 SHL DUP2 MSTORE PUSH1 0x20 PUSH1 0x4 DUP3 ADD MSTORE PUSH1 0xA PUSH1 0x24 DUP3 ADD MSTORE PUSH10 0x27B7363C9037BBB732B9 PUSH1 0xB1 SHL PUSH1 0x44 DUP3 ADD MSTORE PUSH1 0x64 ADD PUSH2 0x30F JUMP JUMPDEST PUSH1 0x1 PUSH1 0x1 PUSH1 0xA0 SHL SUB DUP2 AND PUSH2 0x1164 JUMPI PUSH1 0x40 MLOAD PUSH3 0x461BCD PUSH1 0xE5 SHL DUP2 MSTORE PUSH1 0x20 PUSH1 0x4 DUP3 ADD MSTORE PUSH1 0xF PUSH1 0x24 DUP3 ADD MSTORE PUSH15 0x496E76616C69642061646472657373 PUSH1 0x88 SHL PUSH1 0x44 DUP3 ADD MSTORE PUSH1 0x64 ADD PUSH2 0x30F JUMP JUMPDEST PUSH1 0x1 DUP1 SLOAD PUSH1 0x1 PUSH1 0x1 PUSH1 0xA0 SHL SUB NOT AND PUSH1 0x1 PUSH1 0x1 PUSH1 0xA0 SHL SUB SWAP3 SWAP1 SWAP3 AND SWAP2 SWAP1 SWAP2 OR SWAP1 SSTORE JUMP JUMPDEST PUSH1 0x1 SLOAD PUSH1 0x1 PUSH1 0x1 PUSH1 0xA0 SHL SUB AND CALLER EQ PUSH2 0x11B0 JUMPI PUSH1 0x40 MLOAD PUSH3 0x461BCD PUSH1 0xE5 SHL DUP2 MSTORE PUSH1 0x4 ADD PUSH2 0x30F SWAP1 PUSH2 0x1B71 JUMP JUMPDEST PUSH2 0x11BB PUSH1 0xA PUSH0 PUSH2 0x1576 JUMP JUMPDEST PUSH0 PUSH1 0x2 DUP2 DUP2 SSTORE PUSH1 0x3 DUP3 SWAP1 SSTORE PUSH1 0x4 DUP3 SWAP1 SSTORE PUSH1 0x5 DUP3 SWAP1 SSTORE SWAP1 PUSH2 0x11DC PUSH1 0x6 DUP3 PUSH2 0x1576 JUMP JUMPDEST POP PUSH1 0x5 ADD DUP1 SLOAD PUSH1 0xFF NOT AND SWAP1 SSTORE PUSH1 0x40 MLOAD PUSH32 0xEFD8790E3797F9C35FDC61425CC413C2108EF625EC8ABDD75E1ABDBCC9D7CC92 SWAP1 PUSH0 SWAP1 LOG1 JUMP JUMPDEST DUP1 MLOAD PUSH1 0x20 DUP2 DUP4 ADD DUP2 ADD DUP1 MLOAD PUSH1 0x8 DUP3 MSTORE SWAP3 DUP3 ADD SWAP2 SWAP1 SWAP4 ADD KECCAK256 SWAP2 MSTORE DUP1 SLOAD DUP2 SWAP1 PUSH2 0x1238 SWAP1 PUSH2 0x1BB5 JUMP JUMPDEST DUP1 PUSH1 0x1F ADD PUSH1 0x20 DUP1 SWAP2 DIV MUL PUSH1 0x20 ADD PUSH1 0x40 MLOAD SWAP1 DUP2 ADD PUSH1 0x40 MSTORE DUP1 SWAP3 SWAP2 SWAP1 DUP2 DUP2 MSTORE PUSH1 0x20 ADD DUP3 DUP1 SLOAD PUSH2 0x1264 SWAP1 PUSH2 0x1BB5 JUMP JUMPDEST DUP1 ISZERO PUSH2 0x12AF JUMPI DUP1 PUSH1 0x1F LT PUSH2 0x1286 JUMPI PUSH2 0x100 DUP1 DUP4 SLOAD DIV MUL DUP4 MSTORE SWAP2 PUSH1 0x20 ADD SWAP2 PUSH2 0x12AF JUMP JUMPDEST DUP3 ADD SWAP2 SWAP1 PUSH0 MSTORE PUSH1 0x20 PUSH0 KECCAK256 SWAP1 JUMPDEST DUP2 SLOAD DUP2 MSTORE SWAP1 PUSH1 0x1 ADD SWAP1 PUSH1 0x20 ADD DUP1 DUP4 GT PUSH2 0x1292 JUMPI DUP3 SWAP1 SUB PUSH1 0x1F AND DUP3 ADD SWAP2 JUMPDEST POP POP POP POP POP SWAP1 DUP1 PUSH1 0x1 ADD DUP1 SLOAD PUSH2 0x12C4 SWAP1 PUSH2 0x1BB5 JUMP JUMPDEST DUP1 PUSH1 0x1F ADD PUSH1 0x20 DUP1 SWAP2 DIV MUL PUSH1 0x20 ADD PUSH1 0x40 MLOAD SWAP1 DUP2 ADD PUSH1 0x40 MSTORE DUP1 SWAP3 SWAP2 SWAP1 DUP2 DUP2 MSTORE PUSH1 0x20 ADD DUP3 DUP1 SLOAD PUSH2 0x12F0 SWAP1 PUSH2 0x1BB5 JUMP JUMPDEST DUP1 ISZERO PUSH2 0x133B JUMPI DUP1 PUSH1 0x1F LT PUSH2 0x1312 JUMPI PUSH2 0x100 DUP1 DUP4 SLOAD DIV MUL DUP4 MSTORE SWAP2 PUSH1 0x20 ADD SWAP2 PUSH2 0x133B JUMP JUMPDEST DUP3 ADD SWAP2 SWAP1 PUSH0 MSTORE PUSH1 0x20 PUSH0 KECCAK256 SWAP1 JUMPDEST DUP2 SLOAD DUP2 MSTORE SWAP1 PUSH1 0x1 ADD SWAP1 PUSH1 0x20 ADD DUP1 DUP4 GT PUSH2 0x131E JUMPI DUP3 SWAP1 SUB PUSH1 0x1F AND DUP3 ADD SWAP2 JUMPDEST POP POP POP POP POP SWAP1 DUP1 PUSH1 0x2 ADD DUP1 SLOAD PUSH2 0x1350 SWAP1 PUSH2 0x1BB5 JUMP JUMPDEST DUP1 PUSH1 0x1F ADD PUSH1 0x20 DUP1 SWAP2 DIV MUL PUSH1 0x20 ADD PUSH1 0x40 MLOAD SWAP1 DUP2 ADD PUSH1 0x40 MSTORE DUP1 SWAP3 SWAP2 SWAP1 DUP2 DUP2 MSTORE PUSH1 0x20 ADD DUP3 DUP1 SLOAD PUSH2 0x137C SWAP1 PUSH2 0x1BB5 JUMP JUMPDEST DUP1 ISZERO PUSH2 0x13C7 JUMPI DUP1 PUSH1 0x1F LT PUSH2 0x139E JUMPI PUSH2 0x100 DUP1 DUP4 SLOAD DIV MUL DUP4 MSTORE SWAP2 PUSH1 0x20 ADD SWAP2 PUSH2 0x13C7 JUMP JUMPDEST DUP3 ADD SWAP2 SWAP1 PUSH0 MSTORE PUSH1 0x20 PUSH0 KECCAK256 SWAP1 JUMPDEST DUP2 SLOAD DUP2 MSTORE SWAP1 PUSH1 0x1 ADD SWAP1 PUSH1 0x20 ADD DUP1 DUP4 GT PUSH2 0x13AA JUMPI DUP3 SWAP1 SUB PUSH1 0x1F AND DUP3 ADD SWAP2 JUMPDEST POP POP POP POP POP SWAP1 DUP1 PUSH1 0x3 ADD DUP1 SLOAD PUSH2 0x13DC SWAP1 PUSH2 0x1BB5 JUMP JUMPDEST DUP1 PUSH1 0x1F ADD PUSH1 0x20 DUP1 SWAP2 DIV MUL PUSH1 0x20 ADD PUSH1 0x40 MLOAD SWAP1 DUP2 ADD PUSH1 0x40 MSTORE DUP1 SWAP3 SWAP2 SWAP1 DUP2 DUP2 MSTORE PUSH1 0x20 ADD DUP3 DUP1 SLOAD PUSH2 0x1408 SWAP1 PUSH2 0x1BB5 JUMP JUMPDEST DUP1 ISZERO PUSH2 0x1453 JUMPI DUP1 PUSH1 0x1F LT PUSH2 0x142A JUMPI PUSH2 0x100 DUP1 DUP4 SLOAD DIV MUL DUP4 MSTORE SWAP2 PUSH1 0x20 ADD SWAP2 PUSH2 0x1453 JUMP JUMPDEST DUP3 ADD SWAP2 SWAP1 PUSH0 MSTORE PUSH1 0x20 PUSH0 KECCAK256 SWAP1 JUMPDEST DUP2 SLOAD DUP2 MSTORE SWAP1 PUSH1 0x1 ADD SWAP1 PUSH1 0x20 ADD DUP1 DUP4 GT PUSH2 0x1436 JUMPI DUP3 SWAP1 SUB PUSH1 0x1F AND DUP3 ADD SWAP2 JUMPDEST POP POP POP POP POP SWAP1 DUP1 PUSH1 0x4 ADD DUP1 SLOAD PUSH2 0x1468 SWAP1 PUSH2 0x1BB5 JUMP JUMPDEST DUP1 PUSH1 0x1F ADD PUSH1 0x20 DUP1 SWAP2 DIV MUL PUSH1 0x20 ADD PUSH1 0x40 MLOAD SWAP1 DUP2 ADD PUSH1 0x40 MSTORE DUP1 SWAP3 SWAP2 SWAP1 DUP2 DUP2 MSTORE PUSH1 0x20 ADD DUP3 DUP1 SLOAD PUSH2 0x1494 SWAP1 PUSH2 0x1BB5 JUMP JUMPDEST DUP1 ISZERO PUSH2 0x14DF JUMPI DUP1 PUSH1 0x1F LT PUSH2 0x14B6 JUMPI PUSH2 0x100 DUP1 DUP4 SLOAD DIV MUL DUP4 MSTORE SWAP2 PUSH1 0x20 ADD SWAP2 PUSH2 0x14DF JUMP JUMPDEST DUP3 ADD SWAP2 SWAP1 PUSH0 MSTORE PUSH1 0x20 PUSH0 KECCAK256 SWAP1 JUMPDEST DUP2 SLOAD DUP2 MSTORE SWAP1 PUSH1 0x1 ADD SWAP1 PUSH1 0x20 ADD DUP1 DUP4 GT PUSH2 0x14C2 JUMPI DUP3 SWAP1 SUB PUSH1 0x1F AND DUP3 ADD SWAP2 JUMPDEST POP POP POP POP PUSH1 0x5 DUP4 ADD SLOAD PUSH1 0x6 DUP5 ADD SLOAD PUSH1 0x7 DUP6 ADD SLOAD PUSH1 0x8 SWAP1 SWAP6 ADD SLOAD SWAP4 SWAP5 SWAP2 SWAP4 PUSH1 0x1 PUSH1 0x1 PUSH1 0xA0 SHL SUB DUP3 AND SWAP4 POP PUSH1 0xFF PUSH1 0x1 PUSH1 0xA0 SHL DUP4 DIV DUP2 AND SWAP4 PUSH1 0x1 PUSH1 0xA8 SHL SWAP1 SWAP4 DIV AND SWAP2 SWAP1 DUP12 JUMP JUMPDEST DUP3 DUP1 SLOAD DUP3 DUP3 SSTORE SWAP1 PUSH0 MSTORE PUSH1 0x20 PUSH0 KECCAK256 SWAP1 DUP2 ADD SWAP3 DUP3 ISZERO PUSH2 0x1566 JUMPI SWAP2 PUSH1 0x20 MUL DUP3 ADD JUMPDEST DUP3 DUP2 GT ISZERO PUSH2 0x1566 JUMPI DUP3 MLOAD DUP3 SWAP1 PUSH2 0x1556 SWAP1 DUP3 PUSH2 0x1C39 JUMP JUMPDEST POP SWAP2 PUSH1 0x20 ADD SWAP2 SWAP1 PUSH1 0x1 ADD SWAP1 PUSH2 0x1540 JUMP JUMPDEST POP PUSH2 0x1572 SWAP3 SWAP2 POP PUSH2 0x1594 JUMP JUMPDEST POP SWAP1 JUMP JUMPDEST POP DUP1 SLOAD PUSH0 DUP3 SSTORE SWAP1 PUSH0 MSTORE PUSH1 0x20 PUSH0 KECCAK256 SWAP1 DUP2 ADD SWAP1 PUSH2 0x1591 SWAP2 SWAP1 PUSH2 0x1594 JUMP JUMPDEST POP JUMP JUMPDEST DUP1 DUP3 GT ISZERO PUSH2 0x1572 JUMPI PUSH0 PUSH2 0x15A7 DUP3 DUP3 PUSH2 0x15B0 JUMP JUMPDEST POP PUSH1 0x1 ADD PUSH2 0x1594 JUMP JUMPDEST POP DUP1 SLOAD PUSH2 0x15BC SWAP1 PUSH2 0x1BB5 JUMP JUMPDEST PUSH0 DUP3 SSTORE DUP1 PUSH1 0x1F LT PUSH2 0x15CB JUMPI POP POP JUMP JUMPDEST PUSH1 0x1F ADD PUSH1 0x20 SWAP1 DIV SWAP1 PUSH0 MSTORE PUSH1 0x20 PUSH0 KECCAK256 SWAP1 DUP2 ADD SWAP1 PUSH2 0x1591 SWAP2 SWAP1 JUMPDEST DUP1 DUP3 GT ISZERO PUSH2 0x1572 JUMPI PUSH0 DUP2 SSTORE PUSH1 0x1 ADD PUSH2 0x15E3 JUMP JUMPDEST PUSH4 0x4E487B71 PUSH1 0xE0 SHL PUSH0 MSTORE PUSH1 0x41 PUSH1 0x4 MSTORE PUSH1 0x24 PUSH0 REVERT JUMPDEST PUSH0 DUP3 PUSH1 0x1F DUP4 ADD SLT PUSH2 0x1619 JUMPI PUSH0 PUSH0 REVERT JUMPDEST DUP2 CALLDATALOAD PUSH8 0xFFFFFFFFFFFFFFFF DUP2 GT ISZERO PUSH2 0x1633 JUMPI PUSH2 0x1633 PUSH2 0x15F6 JUMP JUMPDEST PUSH1 0x40 MLOAD PUSH1 0x1F DUP3 ADD PUSH1 0x1F NOT SWAP1 DUP2 AND PUSH1 0x3F ADD AND DUP2 ADD PUSH8 0xFFFFFFFFFFFFFFFF DUP2 GT DUP3 DUP3 LT OR ISZERO PUSH2 0x1662 JUMPI PUSH2 0x1662 PUSH2 0x15F6 JUMP JUMPDEST PUSH1 0x40 MSTORE DUP2 DUP2 MSTORE DUP4 DUP3 ADD PUSH1 0x20 ADD DUP6 LT ISZERO PUSH2 0x1679 JUMPI PUSH0 PUSH0 REVERT JUMPDEST DUP2 PUSH1 0x20 DUP6 ADD PUSH1 0x20 DUP4 ADD CALLDATACOPY PUSH0 SWAP2 DUP2 ADD PUSH1 0x20 ADD SWAP2 SWAP1 SWAP2 MSTORE SWAP4 SWAP3 POP POP POP JUMP JUMPDEST PUSH0 PUSH0 PUSH1 0x40 DUP4 DUP6 SUB SLT ISZERO PUSH2 0x16A6 JUMPI PUSH0 PUSH0 REVERT JUMPDEST DUP3 CALLDATALOAD PUSH8 0xFFFFFFFFFFFFFFFF DUP2 GT ISZERO PUSH2 0x16BC JUMPI PUSH0 PUSH0 REVERT JUMPDEST PUSH2 0x16C8 DUP6 DUP3 DUP7 ADD PUSH2 0x160A JUMP JUMPDEST SWAP6 PUSH1 0x20 SWAP5 SWAP1 SWAP5 ADD CALLDATALOAD SWAP5 POP POP POP POP JUMP JUMPDEST PUSH0 PUSH1 0x20 DUP3 DUP5 SUB SLT ISZERO PUSH2 0x16E7 JUMPI PUSH0 PUSH0 REVERT JUMPDEST DUP2 CALLDATALOAD PUSH8 0xFFFFFFFFFFFFFFFF DUP2 GT ISZERO PUSH2 0x16FD JUMPI PUSH0 PUSH0 REVERT JUMPDEST PUSH2 0x1709 DUP5 DUP3 DUP6 ADD PUSH2 0x160A JUMP JUMPDEST SWAP5 SWAP4 POP POP POP POP JUMP JUMPDEST PUSH0 DUP2 MLOAD DUP1 DUP5 MSTORE DUP1 PUSH1 0x20 DUP5 ADD PUSH1 0x20 DUP7 ADD MCOPY PUSH0 PUSH1 0x20 DUP3 DUP7 ADD ADD MSTORE PUSH1 0x20 PUSH1 0x1F NOT PUSH1 0x1F DUP4 ADD AND DUP6 ADD ADD SWAP2 POP POP SWAP3 SWAP2 POP POP JUMP JUMPDEST PUSH1 0x20 DUP2 MSTORE PUSH0 DUP3 MLOAD PUSH2 0x160 PUSH1 0x20 DUP5 ADD MSTORE PUSH2 0x175C PUSH2 0x180 DUP5 ADD DUP3 PUSH2 0x1711 JUMP JUMPDEST SWAP1 POP PUSH1 0x20 DUP5 ADD MLOAD PUSH1 0x1F NOT DUP5 DUP4 SUB ADD PUSH1 0x40 DUP6 ADD MSTORE PUSH2 0x1779 DUP3 DUP3 PUSH2 0x1711 JUMP JUMPDEST SWAP2 POP POP PUSH1 0x40 DUP5 ADD MLOAD PUSH1 0x1F NOT DUP5 DUP4 SUB ADD PUSH1 0x60 DUP6 ADD MSTORE PUSH2 0x1797 DUP3 DUP3 PUSH2 0x1711 JUMP JUMPDEST SWAP2 POP POP PUSH1 0x60 DUP5 ADD MLOAD PUSH1 0x1F NOT DUP5 DUP4 SUB ADD PUSH1 0x80 DUP6 ADD MSTORE PUSH2 0x17B5 DUP3 DUP3 PUSH2 0x1711 JUMP JUMPDEST SWAP2 POP POP PUSH1 0x80 DUP5 ADD MLOAD PUSH1 0x1F NOT DUP5 DUP4 SUB ADD PUSH1 0xA0 DUP6 ADD MSTORE PUSH2 0x17D3 DUP3 DUP3 PUSH2 0x1711 JUMP JUMPDEST SWAP2 POP POP PUSH1 0xA0 DUP5 ADD MLOAD PUSH1 0xC0 DUP5 ADD MSTORE PUSH1 0xC0 DUP5 ADD MLOAD PUSH2 0x17FA PUSH1 0xE0 DUP6 ADD DUP3 PUSH1 0x1 PUSH1 0x1 PUSH1 0xA0 SHL SUB AND SWAP1 MSTORE JUMP JUMPDEST POP PUSH1 0xE0 DUP5 ADD MLOAD DUP1 ISZERO ISZERO PUSH2 0x100 DUP6 ADD MSTORE POP PUSH2 0x100 DUP5 ADD MLOAD DUP1 ISZERO ISZERO PUSH2 0x120 DUP6 ADD MSTORE POP PUSH2 0x120 DUP5 ADD MLOAD PUSH2 0x140 DUP5 ADD MSTORE PUSH2 0x140 DUP5 ADD MLOAD PUSH2 0x160 DUP5 ADD MSTORE DUP1 SWAP2 POP POP SWAP3 SWAP2 POP POP JUMP JUMPDEST PUSH0 PUSH1 0x20 DUP3 ADD PUSH1 0x20 DUP4 MSTORE DUP1 DUP5 MLOAD DUP1 DUP4 MSTORE PUSH1 0x40 DUP6 ADD SWAP2 POP PUSH1 0x40 DUP2 PUSH1 0x5 SHL DUP7 ADD ADD SWAP3 POP PUSH1 0x20 DUP7 ADD PUSH0 JUMPDEST DUP3 DUP2 LT ISZERO PUSH2 0x1893 JUMPI PUSH1 0x3F NOT DUP8 DUP7 SUB ADD DUP5 MSTORE PUSH2 0x187E DUP6 DUP4 MLOAD PUSH2 0x1711 JUMP JUMPDEST SWAP5 POP PUSH1 0x20 SWAP4 DUP5 ADD SWAP4 SWAP2 SWAP1 SWAP2 ADD SWAP1 PUSH1 0x1 ADD PUSH2 0x1862 JUMP JUMPDEST POP SWAP3 SWAP7 SWAP6 POP POP POP POP POP POP JUMP JUMPDEST PUSH0 PUSH1 0x20 DUP3 DUP5 SUB SLT ISZERO PUSH2 0x18AF JUMPI PUSH0 PUSH0 REVERT JUMPDEST POP CALLDATALOAD SWAP2 SWAP1 POP JUMP JUMPDEST PUSH1 0x20 DUP2 MSTORE PUSH0 PUSH2 0x18C8 PUSH1 0x20 DUP4 ADD DUP5 PUSH2 0x1711 JUMP JUMPDEST SWAP4 SWAP3 POP POP POP JUMP JUMPDEST PUSH1 0x20 DUP2 MSTORE PUSH0 PUSH1 0xE0 DUP3 ADD DUP4 MLOAD PUSH1 0x20 DUP5 ADD MSTORE PUSH1 0x20 DUP5 ADD MLOAD PUSH1 0x40 DUP5 ADD MSTORE PUSH1 0x40 DUP5 ADD MLOAD PUSH1 0x60 DUP5 ADD MSTORE PUSH1 0x60 DUP5 ADD MLOAD PUSH1 0x80 DUP5 ADD MSTORE PUSH1 0x80 DUP5 ADD MLOAD PUSH1 0xC0 PUSH1 0xA0 DUP6 ADD MSTORE DUP2 DUP2 MLOAD DUP1 DUP5 MSTORE PUSH2 0x100 DUP7 ADD SWAP2 POP PUSH2 0x100 DUP2 PUSH1 0x5 SHL DUP8 ADD ADD SWAP4 POP PUSH1 0x20 DUP4 ADD SWAP3 POP PUSH0 JUMPDEST DUP2 DUP2 LT ISZERO PUSH2 0x195B JUMPI PUSH1 0xFF NOT DUP8 DUP7 SUB ADD DUP4 MSTORE PUSH2 0x1946 DUP6 DUP6 MLOAD PUSH2 0x1711 JUMP JUMPDEST SWAP5 POP PUSH1 0x20 SWAP4 DUP5 ADD SWAP4 SWAP3 SWAP1 SWAP3 ADD SWAP2 PUSH1 0x1 ADD PUSH2 0x192A JUMP JUMPDEST POP POP POP POP PUSH1 0xA0 DUP5 ADD MLOAD DUP1 ISZERO ISZERO PUSH1 0xC0 DUP6 ADD MSTORE POP SWAP4 SWAP3 POP POP POP JUMP JUMPDEST PUSH0 PUSH0 PUSH1 0x40 DUP4 DUP6 SUB SLT ISZERO PUSH2 0x1985 JUMPI PUSH0 PUSH0 REVERT JUMPDEST POP POP DUP1 CALLDATALOAD SWAP3 PUSH1 0x20 SWAP1 SWAP2 ADD CALLDATALOAD SWAP2 POP JUMP JUMPDEST DUP1 CALLDATALOAD PUSH1 0x1 PUSH1 0x1 PUSH1 0xA0 SHL SUB DUP2 AND DUP2 EQ PUSH2 0x19AA JUMPI PUSH0 PUSH0 REVERT JUMPDEST SWAP2 SWAP1 POP JUMP JUMPDEST PUSH0 PUSH0 PUSH0 PUSH0 PUSH0 PUSH0 PUSH0 PUSH1 0xE0 DUP9 DUP11 SUB SLT ISZERO PUSH2 0x19C5 JUMPI PUSH0 PUSH0 REVERT JUMPDEST DUP8 CALLDATALOAD PUSH8 0xFFFFFFFFFFFFFFFF DUP2 GT ISZERO PUSH2 0x19DB JUMPI PUSH0 PUSH0 REVERT JUMPDEST PUSH2 0x19E7 DUP11 DUP3 DUP12 ADD PUSH2 0x160A JUMP JUMPDEST SWAP8 POP POP PUSH1 0x20 DUP9 ADD CALLDATALOAD PUSH8 0xFFFFFFFFFFFFFFFF DUP2 GT ISZERO PUSH2 0x1A03 JUMPI PUSH0 PUSH0 REVERT JUMPDEST PUSH2 0x1A0F DUP11 DUP3 DUP12 ADD PUSH2 0x160A JUMP JUMPDEST SWAP7 POP POP PUSH1 0x40 DUP9 ADD CALLDATALOAD PUSH8 0xFFFFFFFFFFFFFFFF DUP2 GT ISZERO PUSH2 0x1A2B JUMPI PUSH0 PUSH0 REVERT JUMPDEST PUSH2 0x1A37 DUP11 DUP3 DUP12 ADD PUSH2 0x160A JUMP JUMPDEST SWAP6 POP POP PUSH1 0x60 DUP9 ADD CALLDATALOAD PUSH8 0xFFFFFFFFFFFFFFFF DUP2 GT ISZERO PUSH2 0x1A53 JUMPI PUSH0 PUSH0 REVERT JUMPDEST PUSH2 0x1A5F DUP11 DUP3 DUP12 ADD PUSH2 0x160A JUMP JUMPDEST SWAP5 POP POP PUSH1 0x80 DUP9 ADD CALLDATALOAD PUSH8 0xFFFFFFFFFFFFFFFF DUP2 GT ISZERO PUSH2 0x1A7B JUMPI PUSH0 PUSH0 REVERT JUMPDEST PUSH2 0x1A87 DUP11 DUP3 DUP12 ADD PUSH2 0x160A JUMP JUMPDEST SWAP4 POP POP PUSH1 0xA0 DUP9 ADD CALLDATALOAD SWAP2 POP PUSH2 0x1A9D PUSH1 0xC0 DUP10 ADD PUSH2 0x1994 JUMP JUMPDEST SWAP1 POP SWAP3 SWAP6 SWAP9 SWAP2 SWAP5 SWAP8 POP SWAP3 SWAP6 POP JUMP JUMPDEST PUSH0 PUSH1 0x20 DUP3 DUP5 SUB SLT ISZERO PUSH2 0x1ABB JUMPI PUSH0 PUSH0 REVERT JUMPDEST PUSH2 0x18C8 DUP3 PUSH2 0x1994 JUMP JUMPDEST PUSH2 0x160 DUP2 MSTORE PUSH0 PUSH2 0x1AD8 PUSH2 0x160 DUP4 ADD DUP15 PUSH2 0x1711 JUMP JUMPDEST DUP3 DUP2 SUB PUSH1 0x20 DUP5 ADD MSTORE PUSH2 0x1AEA DUP2 DUP15 PUSH2 0x1711 JUMP JUMPDEST SWAP1 POP DUP3 DUP2 SUB PUSH1 0x40 DUP5 ADD MSTORE PUSH2 0x1AFE DUP2 DUP14 PUSH2 0x1711 JUMP JUMPDEST SWAP1 POP DUP3 DUP2 SUB PUSH1 0x60 DUP5 ADD MSTORE PUSH2 0x1B12 DUP2 DUP13 PUSH2 0x1711 JUMP JUMPDEST SWAP1 POP DUP3 DUP2 SUB PUSH1 0x80 DUP5 ADD MSTORE PUSH2 0x1B26 DUP2 DUP12 PUSH2 0x1711 JUMP JUMPDEST PUSH1 0xA0 DUP5 ADD DUP11 SWAP1 MSTORE PUSH1 0x1 PUSH1 0x1 PUSH1 0xA0 SHL SUB DUP10 AND PUSH1 0xC0 DUP6 ADD MSTORE DUP8 ISZERO ISZERO PUSH1 0xE0 DUP6 ADD MSTORE DUP7 ISZERO ISZERO PUSH2 0x100 DUP6 ADD MSTORE SWAP2 POP PUSH2 0x1B56 SWAP1 POP JUMP JUMPDEST PUSH2 0x120 DUP3 ADD SWAP4 SWAP1 SWAP4 MSTORE PUSH2 0x140 ADD MSTORE SWAP10 SWAP9 POP POP POP POP POP POP POP POP POP JUMP JUMPDEST PUSH1 0x20 DUP1 DUP3 MSTORE PUSH1 0x14 SWAP1 DUP3 ADD MSTORE PUSH20 0x13DB9B1E481B585C9AD95D0818DBDB9D1C9858DD PUSH1 0x62 SHL PUSH1 0x40 DUP3 ADD MSTORE PUSH1 0x60 ADD SWAP1 JUMP JUMPDEST PUSH0 DUP3 MLOAD DUP1 PUSH1 0x20 DUP6 ADD DUP5 MCOPY PUSH0 SWAP3 ADD SWAP2 DUP3 MSTORE POP SWAP2 SWAP1 POP JUMP JUMPDEST PUSH1 0x1 DUP2 DUP2 SHR SWAP1 DUP3 AND DUP1 PUSH2 0x1BC9 JUMPI PUSH1 0x7F DUP3 AND SWAP2 POP JUMPDEST PUSH1 0x20 DUP3 LT DUP2 SUB PUSH2 0x1BE7 JUMPI PUSH4 0x4E487B71 PUSH1 0xE0 SHL PUSH0 MSTORE PUSH1 0x22 PUSH1 0x4 MSTORE PUSH1 0x24 PUSH0 REVERT JUMPDEST POP SWAP2 SWAP1 POP JUMP JUMPDEST PUSH1 0x1F DUP3 GT ISZERO PUSH2 0x1C34 JUMPI DUP1 PUSH0 MSTORE PUSH1 0x20 PUSH0 KECCAK256 PUSH1 0x1F DUP5 ADD PUSH1 0x5 SHR DUP2 ADD PUSH1 0x20 DUP6 LT ISZERO PUSH2 0x1C12 JUMPI POP DUP1 JUMPDEST PUSH1 0x1F DUP5 ADD PUSH1 0x5 SHR DUP3 ADD SWAP2 POP JUMPDEST DUP2 DUP2 LT ISZERO PUSH2 0x1C31 JUMPI PUSH0 DUP2 SSTORE PUSH1 0x1 ADD PUSH2 0x1C1E JUMP JUMPDEST POP POP JUMPDEST POP POP POP JUMP JUMPDEST DUP2 MLOAD PUSH8 0xFFFFFFFFFFFFFFFF DUP2 GT ISZERO PUSH2 0x1C53 JUMPI PUSH2 0x1C53 PUSH2 0x15F6 JUMP JUMPDEST PUSH2 0x1C67 DUP2 PUSH2 0x1C61 DUP5 SLOAD PUSH2 0x1BB5 JUMP JUMPDEST DUP5 PUSH2 0x1BED JUMP JUMPDEST PUSH1 0x20 PUSH1 0x1F DUP3 GT PUSH1 0x1 DUP2 EQ PUSH2 0x1C99 JUMPI PUSH0 DUP4 ISZERO PUSH2 0x1C82 JUMPI POP DUP5 DUP3 ADD MLOAD JUMPDEST PUSH0 NOT PUSH1 0x3 DUP6 SWAP1 SHL SHR NOT AND PUSH1 0x1 DUP5 SWAP1 SHL OR DUP5 SSTORE PUSH2 0x1C31 JUMP JUMPDEST PUSH0 DUP5 DUP2 MSTORE PUSH1 0x20 DUP2 KECCAK256 PUSH1 0x1F NOT DUP6 AND SWAP2 JUMPDEST DUP3 DUP2 LT ISZERO PUSH2 0x1CC8 JUMPI DUP8 DUP6 ADD MLOAD DUP3 SSTORE PUSH1 0x20 SWAP5 DUP6 ADD SWAP5 PUSH1 0x1 SWAP1 SWAP3 ADD SWAP2 ADD PUSH2 0x1CA8 JUMP JUMPDEST POP DUP5 DUP3 LT ISZERO PUSH2 0x1CE5 JUMPI DUP7 DUP5 ADD MLOAD PUSH0 NOT PUSH1 0x3 DUP8 SWAP1 SHL PUSH1 0xF8 AND SHR NOT AND DUP2 SSTORE JUMPDEST POP POP POP POP PUSH1 0x1 SWAP1 DUP2 SHL ADD SWAP1 SSTORE POP JUMP JUMPDEST PUSH1 0x40 DUP2 MSTORE PUSH0 PUSH0 DUP5 SLOAD PUSH2 0x1D05 DUP2 PUSH2 0x1BB5 JUMP JUMPDEST DUP1 PUSH1 0x40 DUP7 ADD MSTORE PUSH1 0x1 DUP3 AND PUSH0 DUP2 EQ PUSH2 0x1D23 JUMPI PUSH1 0x1 DUP2 EQ PUSH2 0x1D3F JUMPI PUSH2 0x1D70 JUMP JUMPDEST PUSH1 0xFF NOT DUP4 AND PUSH1 0x60 DUP8 ADD MSTORE PUSH1 0x60 DUP3 ISZERO ISZERO PUSH1 0x5 SHL DUP8 ADD ADD SWAP4 POP PUSH2 0x1D70 JUMP JUMPDEST DUP8 PUSH0 MSTORE PUSH1 0x20 PUSH0 KECCAK256 PUSH0 JUMPDEST DUP4 DUP2 LT ISZERO PUSH2 0x1D67 JUMPI DUP2 SLOAD DUP9 DUP3 ADD PUSH1 0x60 ADD MSTORE PUSH1 0x1 SWAP1 SWAP2 ADD SWAP1 PUSH1 0x20 ADD PUSH2 0x1D48 JUMP JUMPDEST DUP8 ADD PUSH1 0x60 ADD SWAP5 POP POP JUMPDEST POP POP POP PUSH1 0x20 SWAP3 SWAP1 SWAP3 ADD SWAP3 SWAP1 SWAP3 MSTORE SWAP3 SWAP2 POP POP JUMP JUMPDEST DUP3 DUP2 MSTORE PUSH1 0x40 PUSH1 0x20 DUP3 ADD MSTORE PUSH0 PUSH2 0x1709 PUSH1 0x40 DUP4 ADD DUP5 PUSH2 0x1711 JUMP JUMPDEST PUSH4 0x4E487B71 PUSH1 0xE0 SHL PUSH0 MSTORE PUSH1 0x11 PUSH1 0x4 MSTORE PUSH1 0x24 PUSH0 REVERT JUMPDEST DUP1 DUP3 ADD DUP1 DUP3 GT ISZERO PUSH2 0x1DC2 JUMPI PUSH2 0x1DC2 PUSH2 0x1D9B JUMP JUMPDEST SWAP3 SWAP2 POP POP JUMP JUMPDEST DUP2 DUP2 SUB DUP2 DUP2 GT ISZERO PUSH2 0x1DC2 JUMPI PUSH2 0x1DC2 PUSH2 0x1D9B JUMP JUMPDEST PUSH1 0x40 DUP2 MSTORE PUSH0 PUSH2 0x1DED PUSH1 0x40 DUP4 ADD DUP6 PUSH2 0x1711 JUMP JUMPDEST SWAP1 POP PUSH1 0x1 DUP1 PUSH1 0xA0 SHL SUB DUP4 AND PUSH1 0x20 DUP4 ADD MSTORE SWAP4 SWAP3 POP POP POP JUMP INVALID LOG2 PUSH5 0x6970667358 0x22 SLT KECCAK256 SWAP3 CREATE KECCAK256 0x24 0x22 TIMESTAMP MOD PUSH13 0x1BCB4488B718FBF6D3A15A6C9C LOG4 DUPN 0xBC 0xB2 0xDA PC SELFBALANCE PUSH29 0xC9F13C64736F6C634300081F00336080604052348015600E575F5FFD5B POP CALLER DUP1 PUSH1 0x33 JUMPI PUSH1 0x40 MLOAD PUSH4 0x1E4FBDF7 PUSH1 0xE0 SHL DUP2 MSTORE PUSH0 PUSH1 0x4 DUP3 ADD MSTORE PUSH1 0x24 ADD PUSH1 0x40 MLOAD DUP1 SWAP2 SUB SWAP1 REVERT JUMPDEST PUSH1 0x3A DUP2 PUSH1 0x3F JUMP JUMPDEST POP PUSH1 0x8E JUMP JUMPDEST PUSH0 DUP1 SLOAD PUSH1 0x1 PUSH1 0x1 PUSH1 0xA0 SHL SUB DUP4 DUP2 AND PUSH1 0x1 PUSH1 0x1 PUSH1 0xA0 SHL SUB NOT DUP4 AND DUP2 OR DUP5 SSTORE PUSH1 0x40 MLOAD SWAP2 SWAP1 SWAP3 AND SWAP3 DUP4 SWAP2 PUSH32 0x8BE0079C531659141344CD1FD0A4F28419497F9722A3DAAFE3B4186F6B6457E0 SWAP2 SWAP1 LOG3 POP POP JUMP JUMPDEST PUSH2 0x1765 DUP1 PUSH2 0x9B PUSH0 CODECOPY PUSH0 RETURN INVALID PUSH1 0x80 PUSH1 0x40 MSTORE CALLVALUE DUP1 ISZERO PUSH2 0xF JUMPI PUSH0 PUSH0 REVERT JUMPDEST POP PUSH1 0x4 CALLDATASIZE LT PUSH2 0xA6 JUMPI PUSH0 CALLDATALOAD PUSH1 0xE0 SHR DUP1 PUSH4 0x8DA5CB5B GT PUSH2 0x6E JUMPI DUP1 PUSH4 0x8DA5CB5B EQ PUSH2 0x13C JUMPI DUP1 PUSH4 0x96CFACB1 EQ PUSH2 0x14C JUMPI DUP1 PUSH4 0xA1794BCD EQ PUSH2 0x161 JUMPI DUP1 PUSH4 0xB591B96C EQ PUSH2 0x174 JUMPI DUP1 PUSH4 0xF2FDE38B EQ PUSH2 0x187 JUMPI DUP1 PUSH4 0xF85EA2AB EQ PUSH2 0x19A JUMPI PUSH0 PUSH0 REVERT JUMPDEST DUP1 PUSH4 0x1A713103 EQ PUSH2 0xAA JUMPI DUP1 PUSH4 0x715018A6 EQ PUSH2 0xDA JUMPI DUP1 PUSH4 0x74495C7A EQ PUSH2 0xE4 JUMPI DUP1 PUSH4 0x78A89567 EQ PUSH2 0xF7 JUMPI DUP1 PUSH4 0x88ABB85F EQ PUSH2 0x108 JUMPI JUMPDEST PUSH0 PUSH0 REVERT JUMPDEST PUSH2 0xBD PUSH2 0xB8 CALLDATASIZE PUSH1 0x4 PUSH2 0x5C5 JUMP JUMPDEST PUSH2 0x1AD JUMP JUMPDEST PUSH1 0x40 MLOAD PUSH1 0x1 PUSH1 0x1 PUSH1 0xA0 SHL SUB SWAP1 SWAP2 AND DUP2 MSTORE PUSH1 0x20 ADD JUMPDEST PUSH1 0x40 MLOAD DUP1 SWAP2 SUB SWAP1 RETURN JUMPDEST PUSH2 0xE2 PUSH2 0x1D5 JUMP JUMPDEST STOP JUMPDEST PUSH2 0xBD PUSH2 0xF2 CALLDATASIZE PUSH1 0x4 PUSH2 0x67B JUMP JUMPDEST PUSH2 0x1E8 JUMP JUMPDEST PUSH1 0x2 SLOAD PUSH1 0x40 MLOAD SWAP1 DUP2 MSTORE PUSH1 0x20 ADD PUSH2 0xD1 JUMP JUMPDEST PUSH2 0xBD PUSH2 0x116 CALLDATASIZE PUSH1 0x4 PUSH2 0x67B JUMP JUMPDEST DUP1 MLOAD PUSH1 0x20 DUP2 DUP4 ADD DUP2 ADD DUP1 MLOAD PUSH1 0x1 DUP3 MSTORE SWAP3 DUP3 ADD SWAP2 SWAP1 SWAP4 ADD KECCAK256 SWAP2 MSTORE SLOAD PUSH1 0x1 PUSH1 0x1 PUSH1 0xA0 SHL SUB AND DUP2 JUMP JUMPDEST PUSH0 SLOAD PUSH1 0x1 PUSH1 0x1 PUSH1 0xA0 SHL SUB AND PUSH2 0xBD JUMP JUMPDEST PUSH2 0x154 PUSH2 0x218 JUMP JUMPDEST PUSH1 0x40 MLOAD PUSH2 0xD1 SWAP2 SWAP1 PUSH2 0x6B5 JUMP JUMPDEST PUSH1 0x3 SLOAD PUSH2 0xBD SWAP1 PUSH1 0x1 PUSH1 0x1 PUSH1 0xA0 SHL SUB AND DUP2 JUMP JUMPDEST PUSH2 0xBD PUSH2 0x182 CALLDATASIZE PUSH1 0x4 PUSH2 0x700 JUMP JUMPDEST PUSH2 0x278 JUMP JUMPDEST PUSH2 0xE2 PUSH2 0x195 CALLDATASIZE PUSH1 0x4 PUSH2 0x78E JUMP JUMPDEST PUSH2 0x48E JUMP JUMPDEST PUSH2 0xE2 PUSH2 0x1A8 CALLDATASIZE PUSH1 0x4 PUSH2 0x78E JUMP JUMPDEST PUSH2 0x4CB JUMP JUMPDEST PUSH1 0x2 DUP2 DUP2 SLOAD DUP2 LT PUSH2 0x1BC JUMPI PUSH0 DUP1 REVERT JUMPDEST PUSH0 SWAP2 DUP3 MSTORE PUSH1 0x20 SWAP1 SWAP2 KECCAK256 ADD SLOAD PUSH1 0x1 PUSH1 0x1 PUSH1 0xA0 SHL SUB AND SWAP1 POP DUP2 JUMP JUMPDEST PUSH2 0x1DD PUSH2 0x53D JUMP JUMPDEST PUSH2 0x1E6 PUSH0 PUSH2 0x569 JUMP JUMPDEST JUMP JUMPDEST PUSH0 PUSH1 0x1 DUP3 PUSH1 0x40 MLOAD PUSH2 0x1F9 SWAP2 SWAP1 PUSH2 0x7BB JUMP JUMPDEST SWAP1 DUP2 MSTORE PUSH1 0x40 MLOAD SWAP1 DUP2 SWAP1 SUB PUSH1 0x20 ADD SWAP1 KECCAK256 SLOAD PUSH1 0x1 PUSH1 0x1 PUSH1 0xA0 SHL SUB AND SWAP3 SWAP2 POP POP JUMP JUMPDEST PUSH1 0x60 PUSH1 0x2 DUP1 SLOAD DUP1 PUSH1 0x20 MUL PUSH1 0x20 ADD PUSH1 0x40 MLOAD SWAP1 DUP2 ADD PUSH1 0x40 MSTORE DUP1 SWAP3 SWAP2 SWAP1 DUP2 DUP2 MSTORE PUSH1 0x20 ADD DUP3 DUP1 SLOAD DUP1 ISZERO PUSH2 0x26E JUMPI PUSH1 0x20 MUL DUP3 ADD SWAP2 SWAP1 PUSH0 MSTORE PUSH1 0x20 PUSH0 KECCAK256 SWAP1 JUMPDEST DUP2 SLOAD PUSH1 0x1 PUSH1 0x1 PUSH1 0xA0 SHL SUB AND DUP2 MSTORE PUSH1 0x1 SWAP1 SWAP2 ADD SWAP1 PUSH1 0x20 ADD DUP1 DUP4 GT PUSH2 0x250 JUMPI JUMPDEST POP POP POP POP POP SWAP1 POP SWAP1 JUMP JUMPDEST PUSH1 0x3 SLOAD PUSH0 SWAP1 PUSH1 0x1 PUSH1 0x1 PUSH1 0xA0 SHL SUB AND CALLER EQ PUSH2 0x2D0 JUMPI PUSH1 0x40 MLOAD PUSH3 0x461BCD PUSH1 0xE5 SHL DUP2 MSTORE PUSH1 0x20 PUSH1 0x4 DUP3 ADD MSTORE PUSH1 0x14 PUSH1 0x24 DUP3 ADD MSTORE PUSH20 0x13DB9B1E481B585C9AD95D0818DBDB9D1C9858DD PUSH1 0x62 SHL PUSH1 0x44 DUP3 ADD MSTORE PUSH1 0x64 ADD JUMPDEST PUSH1 0x40 MLOAD DUP1 SWAP2 SUB SWAP1 REVERT JUMPDEST PUSH0 DUP4 DUP4 DUP7 PUSH1 0x40 MLOAD PUSH2 0x2E0 SWAP1 PUSH2 0x5B8 JUMP JUMPDEST PUSH2 0x2EC SWAP4 SWAP3 SWAP2 SWAP1 PUSH2 0x7FF JUMP JUMPDEST PUSH1 0x40 MLOAD DUP1 SWAP2 SUB SWAP1 PUSH0 CREATE DUP1 ISZERO DUP1 ISZERO PUSH2 0x305 JUMPI RETURNDATASIZE PUSH0 PUSH0 RETURNDATACOPY RETURNDATASIZE PUSH0 REVERT JUMPDEST POP PUSH1 0x3 SLOAD PUSH1 0x40 MLOAD PUSH4 0xF85EA2AB PUSH1 0xE0 SHL DUP2 MSTORE PUSH1 0x1 PUSH1 0x1 PUSH1 0xA0 SHL SUB SWAP2 DUP3 AND PUSH1 0x4 DUP3 ADD MSTORE SWAP2 SWAP3 POP DUP3 AND SWAP1 PUSH4 0xF85EA2AB SWAP1 PUSH1 0x24 ADD PUSH0 PUSH1 0x40 MLOAD DUP1 DUP4 SUB DUP2 PUSH0 DUP8 DUP1 EXTCODESIZE ISZERO DUP1 ISZERO PUSH2 0x34C JUMPI PUSH0 PUSH0 REVERT JUMPDEST POP GAS CALL ISZERO DUP1 ISZERO PUSH2 0x35E JUMPI RETURNDATASIZE PUSH0 PUSH0 RETURNDATACOPY RETURNDATASIZE PUSH0 REVERT JUMPDEST POP POP PUSH1 0x3 SLOAD PUSH1 0x40 MLOAD PUSH4 0xF2FDE38B PUSH1 0xE0 SHL DUP2 MSTORE PUSH1 0x1 PUSH1 0x1 PUSH1 0xA0 SHL SUB SWAP2 DUP3 AND PUSH1 0x4 DUP3 ADD MSTORE SWAP1 DUP5 AND SWAP3 POP PUSH4 0xF2FDE38B SWAP2 POP PUSH1 0x24 ADD PUSH0 PUSH1 0x40 MLOAD DUP1 DUP4 SUB DUP2 PUSH0 DUP8 DUP1 EXTCODESIZE ISZERO DUP1 ISZERO PUSH2 0x3A6 JUMPI PUSH0 PUSH0 REVERT JUMPDEST POP GAS CALL ISZERO DUP1 ISZERO PUSH2 0x3B8 JUMPI RETURNDATASIZE PUSH0 PUSH0 RETURNDATACOPY RETURNDATASIZE PUSH0 REVERT JUMPDEST POP POP POP POP DUP1 SWAP2 POP DUP2 PUSH1 0x1 DUP7 PUSH1 0x40 MLOAD PUSH2 0x3D0 SWAP2 SWAP1 PUSH2 0x7BB JUMP JUMPDEST SWAP1 DUP2 MSTORE PUSH1 0x40 MLOAD SWAP1 DUP2 SWAP1 SUB PUSH1 0x20 ADD DUP2 KECCAK256 DUP1 SLOAD PUSH1 0x1 PUSH1 0x1 PUSH1 0xA0 SHL SUB SWAP4 DUP5 AND PUSH1 0x1 PUSH1 0x1 PUSH1 0xA0 SHL SUB NOT SWAP2 DUP3 AND OR SWAP1 SWAP2 SSTORE PUSH1 0x2 DUP1 SLOAD PUSH1 0x1 DUP2 ADD DUP3 SSTORE PUSH0 SWAP2 SWAP1 SWAP2 MSTORE PUSH32 0x405787FA12A823E0F2B7631CC41B3BA8828B3321CA811111FA75CD3AA3BB5ACE ADD DUP1 SLOAD SWAP4 DUP7 AND SWAP4 SWAP1 SWAP2 AND DUP4 OR SWAP1 SSTORE PUSH2 0x445 SWAP1 DUP8 SWAP1 PUSH2 0x7BB JUMP JUMPDEST PUSH1 0x40 MLOAD DUP1 SWAP2 SUB SWAP1 KECCAK256 PUSH32 0xCB67F4244FDB0D056D8D8D1C81E7D391725E948C66D829177657CF8E196A6863 DUP7 DUP7 PUSH1 0x40 MLOAD PUSH2 0x47E SWAP3 SWAP2 SWAP1 PUSH2 0x841 JUMP JUMPDEST PUSH1 0x40 MLOAD DUP1 SWAP2 SUB SWAP1 LOG3 POP SWAP4 SWAP3 POP POP POP JUMP JUMPDEST PUSH2 0x496 PUSH2 0x53D JUMP JUMPDEST PUSH1 0x1 PUSH1 0x1 PUSH1 0xA0 SHL SUB DUP2 AND PUSH2 0x4BF JUMPI PUSH1 0x40 MLOAD PUSH4 0x1E4FBDF7 PUSH1 0xE0 SHL DUP2 MSTORE PUSH0 PUSH1 0x4 DUP3 ADD MSTORE PUSH1 0x24 ADD PUSH2 0x2C7 JUMP JUMPDEST PUSH2 0x4C8 DUP2 PUSH2 0x569 JUMP JUMPDEST POP JUMP JUMPDEST PUSH2 0x4D3 PUSH2 0x53D JUMP JUMPDEST PUSH1 0x1 PUSH1 0x1 PUSH1 0xA0 SHL SUB DUP2 AND PUSH2 0x51B JUMPI PUSH1 0x40 MLOAD PUSH3 0x461BCD PUSH1 0xE5 SHL DUP2 MSTORE PUSH1 0x20 PUSH1 0x4 DUP3 ADD MSTORE PUSH1 0xF PUSH1 0x24 DUP3 ADD MSTORE PUSH15 0x496E76616C69642061646472657373 PUSH1 0x88 SHL PUSH1 0x44 DUP3 ADD MSTORE PUSH1 0x64 ADD PUSH2 0x2C7 JUMP JUMPDEST PUSH1 0x3 DUP1 SLOAD PUSH1 0x1 PUSH1 0x1 PUSH1 0xA0 SHL SUB NOT AND PUSH1 0x1 PUSH1 0x1 PUSH1 0xA0 SHL SUB SWAP3 SWAP1 SWAP3 AND SWAP2 SWAP1 SWAP2 OR SWAP1 SSTORE JUMP JUMPDEST PUSH0 SLOAD PUSH1 0x1 PUSH1 0x1 PUSH1 0xA0 SHL SUB AND CALLER EQ PUSH2 0x1E6 JUMPI PUSH1 0x40 MLOAD PUSH4 0x118CDAA7 PUSH1 0xE0 SHL DUP2 MSTORE CALLER PUSH1 0x4 DUP3 ADD MSTORE PUSH1 0x24 ADD PUSH2 0x2C7 JUMP JUMPDEST PUSH0 DUP1 SLOAD PUSH1 0x1 PUSH1 0x1 PUSH1 0xA0 SHL SUB DUP4 DUP2 AND PUSH1 0x1 PUSH1 0x1 PUSH1 0xA0 SHL SUB NOT DUP4 AND DUP2 OR DUP5 SSTORE PUSH1 0x40 MLOAD SWAP2 SWAP1 SWAP3 AND SWAP3 DUP4 SWAP2 PUSH32 0x8BE0079C531659141344CD1FD0A4F28419497F9722A3DAAFE3B4186F6B6457E0 SWAP2 SWAP1 LOG3 POP POP JUMP JUMPDEST PUSH2 0xEC1 DUP1 PUSH2 0x86F DUP4 CODECOPY ADD SWAP1 JUMP JUMPDEST PUSH0 PUSH1 0x20 DUP3 DUP5 SUB SLT ISZERO PUSH2 0x5D5 JUMPI PUSH0 PUSH0 REVERT JUMPDEST POP CALLDATALOAD SWAP2 SWAP1 POP JUMP JUMPDEST PUSH4 0x4E487B71 PUSH1 0xE0 SHL PUSH0 MSTORE PUSH1 0x41 PUSH1 0x4 MSTORE PUSH1 0x24 PUSH0 REVERT JUMPDEST PUSH0 DUP3 PUSH1 0x1F DUP4 ADD SLT PUSH2 0x5FF JUMPI PUSH0 PUSH0 REVERT JUMPDEST DUP2 CALLDATALOAD PUSH8 0xFFFFFFFFFFFFFFFF DUP2 GT ISZERO PUSH2 0x619 JUMPI PUSH2 0x619 PUSH2 0x5DC JUMP JUMPDEST PUSH1 0x40 MLOAD PUSH1 0x1F DUP3 ADD PUSH1 0x1F NOT SWAP1 DUP2 AND PUSH1 0x3F ADD AND DUP2 ADD PUSH8 0xFFFFFFFFFFFFFFFF DUP2 GT DUP3 DUP3 LT OR ISZERO PUSH2 0x648 JUMPI PUSH2 0x648 PUSH2 0x5DC JUMP JUMPDEST PUSH1 0x40 MSTORE DUP2 DUP2 MSTORE DUP4 DUP3 ADD PUSH1 0x20 ADD DUP6 LT ISZERO PUSH2 0x65F JUMPI PUSH0 PUSH0 REVERT JUMPDEST DUP2 PUSH1 0x20 DUP6 ADD PUSH1 0x20 DUP4 ADD CALLDATACOPY PUSH0 SWAP2 DUP2 ADD PUSH1 0x20 ADD SWAP2 SWAP1 SWAP2 MSTORE SWAP4 SWAP3 POP POP POP JUMP JUMPDEST PUSH0 PUSH1 0x20 DUP3 DUP5 SUB SLT ISZERO PUSH2 0x68B JUMPI PUSH0 PUSH0 REVERT JUMPDEST DUP2 CALLDATALOAD PUSH8 0xFFFFFFFFFFFFFFFF DUP2 GT ISZERO PUSH2 0x6A1 JUMPI PUSH0 PUSH0 REVERT JUMPDEST PUSH2 0x6AD DUP5 DUP3 DUP6 ADD PUSH2 0x5F0 JUMP JUMPDEST SWAP5 SWAP4 POP POP POP POP JUMP JUMPDEST PUSH1 0x20 DUP1 DUP3 MSTORE DUP3 MLOAD DUP3 DUP3 ADD DUP2 SWAP1 MSTORE PUSH0 SWAP2 DUP5 ADD SWAP1 PUSH1 0x40 DUP5 ADD SWAP1 DUP4 JUMPDEST DUP2 DUP2 LT ISZERO PUSH2 0x6F5 JUMPI DUP4 MLOAD PUSH1 0x1 PUSH1 0x1 PUSH1 0xA0 SHL SUB AND DUP4 MSTORE PUSH1 0x20 SWAP4 DUP5 ADD SWAP4 SWAP1 SWAP3 ADD SWAP2 PUSH1 0x1 ADD PUSH2 0x6CE JUMP JUMPDEST POP SWAP1 SWAP6 SWAP5 POP POP POP POP POP JUMP JUMPDEST PUSH0 PUSH0 PUSH0 PUSH1 0x60 DUP5 DUP7 SUB SLT ISZERO PUSH2 0x712 JUMPI PUSH0 PUSH0 REVERT JUMPDEST DUP4 CALLDATALOAD PUSH8 0xFFFFFFFFFFFFFFFF DUP2 GT ISZERO PUSH2 0x728 JUMPI PUSH0 PUSH0 REVERT JUMPDEST PUSH2 0x734 DUP7 DUP3 DUP8 ADD PUSH2 0x5F0 JUMP JUMPDEST SWAP4 POP POP PUSH1 0x20 DUP5 ADD CALLDATALOAD PUSH8 0xFFFFFFFFFFFFFFFF DUP2 GT ISZERO PUSH2 0x750 JUMPI PUSH0 PUSH0 REVERT JUMPDEST PUSH2 0x75C DUP7 DUP3 DUP8 ADD PUSH2 0x5F0 JUMP JUMPDEST SWAP3 POP POP PUSH1 0x40 DUP5 ADD CALLDATALOAD PUSH8 0xFFFFFFFFFFFFFFFF DUP2 GT ISZERO PUSH2 0x778 JUMPI PUSH0 PUSH0 REVERT JUMPDEST PUSH2 0x784 DUP7 DUP3 DUP8 ADD PUSH2 0x5F0 JUMP JUMPDEST SWAP2 POP POP SWAP3 POP SWAP3 POP SWAP3 JUMP JUMPDEST PUSH0 PUSH1 0x20 DUP3 DUP5 SUB SLT ISZERO PUSH2 0x79E JUMPI PUSH0 PUSH0 REVERT JUMPDEST DUP2 CALLDATALOAD PUSH1 0x1 PUSH1 0x1 PUSH1 0xA0 SHL SUB DUP2 AND DUP2 EQ PUSH2 0x7B4 JUMPI PUSH0 PUSH0 REVERT JUMPDEST SWAP4 SWAP3 POP POP POP JUMP JUMPDEST PUSH0 DUP3 MLOAD DUP1 PUSH1 0x20 DUP6 ADD DUP5 MCOPY PUSH0 SWAP3 ADD SWAP2 DUP3 MSTORE POP SWAP2 SWAP1 POP JUMP JUMPDEST PUSH0 DUP2 MLOAD DUP1 DUP5 MSTORE DUP1 PUSH1 0x20 DUP5 ADD PUSH1 0x20 DUP7 ADD MCOPY PUSH0 PUSH1 0x20 DUP3 DUP7 ADD ADD MSTORE PUSH1 0x20 PUSH1 0x1F NOT PUSH1 0x1F DUP4 ADD AND DUP6 ADD ADD SWAP2 POP POP SWAP3 SWAP2 POP POP JUMP JUMPDEST PUSH1 0x60 DUP2 MSTORE PUSH0 PUSH2 0x811 PUSH1 0x60 DUP4 ADD DUP7 PUSH2 0x7D1 JUMP JUMPDEST DUP3 DUP2 SUB PUSH1 0x20 DUP5 ADD MSTORE PUSH2 0x823 DUP2 DUP7 PUSH2 0x7D1 JUMP JUMPDEST SWAP1 POP DUP3 DUP2 SUB PUSH1 0x40 DUP5 ADD MSTORE PUSH2 0x837 DUP2 DUP6 PUSH2 0x7D1 JUMP JUMPDEST SWAP7 SWAP6 POP POP POP POP POP POP JUMP JUMPDEST PUSH1 0x40 DUP2 MSTORE PUSH0 PUSH2 0x853 PUSH1 0x40 DUP4 ADD DUP6 PUSH2 0x7D1 JUMP JUMPDEST DUP3 DUP2 SUB PUSH1 0x20 DUP5 ADD MSTORE PUSH2 0x865 DUP2 DUP6 PUSH2 0x7D1 JUMP JUMPDEST SWAP6 SWAP5 POP POP POP POP POP JUMP INVALID PUSH1 0x80 PUSH1 0x40 MSTORE CALLVALUE DUP1 ISZERO PUSH2 0xF JUMPI PUSH0 PUSH0 REVERT JUMPDEST POP PUSH1 0x40 MLOAD PUSH2 0xEC1 CODESIZE SUB DUP1 PUSH2 0xEC1 DUP4 CODECOPY DUP2 ADD PUSH1 0x40 DUP2 SWAP1 MSTORE PUSH2 0x2E SWAP2 PUSH2 0x187 JUMP JUMPDEST CALLER DUP4 DUP4 PUSH1 0x3 PUSH2 0x3D DUP4 DUP3 PUSH2 0x29A JUMP JUMPDEST POP PUSH1 0x4 PUSH2 0x4A DUP3 DUP3 PUSH2 0x29A JUMP JUMPDEST POP POP POP PUSH1 0x1 PUSH1 0x1 PUSH1 0xA0 SHL SUB DUP2 AND PUSH2 0x7A JUMPI PUSH1 0x40 MLOAD PUSH4 0x1E4FBDF7 PUSH1 0xE0 SHL DUP2 MSTORE PUSH0 PUSH1 0x4 DUP3 ADD MSTORE PUSH1 0x24 ADD PUSH1 0x40 MLOAD DUP1 SWAP2 SUB SWAP1 REVERT JUMPDEST PUSH2 0x83 DUP2 PUSH2 0x99 JUMP JUMPDEST POP PUSH1 0x6 PUSH2 0x90 DUP3 DUP3 PUSH2 0x29A JUMP JUMPDEST POP POP POP POP PUSH2 0x354 JUMP JUMPDEST PUSH1 0x5 DUP1 SLOAD PUSH1 0x1 PUSH1 0x1 PUSH1 0xA0 SHL SUB DUP4 DUP2 AND PUSH1 0x1 PUSH1 0x1 PUSH1 0xA0 SHL SUB NOT DUP4 AND DUP2 OR SWAP1 SWAP4 SSTORE PUSH1 0x40 MLOAD SWAP2 AND SWAP2 SWAP1 DUP3 SWAP1 PUSH32 0x8BE0079C531659141344CD1FD0A4F28419497F9722A3DAAFE3B4186F6B6457E0 SWAP1 PUSH0 SWAP1 LOG3 POP POP JUMP JUMPDEST PUSH4 0x4E487B71 PUSH1 0xE0 SHL PUSH0 MSTORE PUSH1 0x41 PUSH1 0x4 MSTORE PUSH1 0x24 PUSH0 REVERT JUMPDEST PUSH0 DUP3 PUSH1 0x1F DUP4 ADD SLT PUSH2 0x10D JUMPI PUSH0 PUSH0 REVERT JUMPDEST DUP2 MLOAD PUSH1 0x1 PUSH1 0x1 PUSH1 0x40 SHL SUB DUP2 GT ISZERO PUSH2 0x126 JUMPI PUSH2 0x126 PUSH2 0xEA JUMP JUMPDEST PUSH1 0x40 MLOAD PUSH1 0x1F DUP3 ADD PUSH1 0x1F NOT SWAP1 DUP2 AND PUSH1 0x3F ADD AND DUP2 ADD PUSH1 0x1 PUSH1 0x1 PUSH1 0x40 SHL SUB DUP2 GT DUP3 DUP3 LT OR ISZERO PUSH2 0x154 JUMPI PUSH2 0x154 PUSH2 0xEA JUMP JUMPDEST PUSH1 0x40 MSTORE DUP2 DUP2 MSTORE DUP4 DUP3 ADD PUSH1 0x20 ADD DUP6 LT ISZERO PUSH2 0x16B JUMPI PUSH0 PUSH0 REVERT JUMPDEST DUP2 PUSH1 0x20 DUP6 ADD PUSH1 0x20 DUP4 ADD MCOPY PUSH0 SWAP2 DUP2 ADD PUSH1 0x20 ADD SWAP2 SWAP1 SWAP2 MSTORE SWAP4 SWAP3 POP POP POP JUMP JUMPDEST PUSH0 PUSH0 PUSH0 PUSH1 0x60 DUP5 DUP7 SUB SLT ISZERO PUSH2 0x199 JUMPI PUSH0 PUSH0 REVERT JUMPDEST DUP4 MLOAD PUSH1 0x1 PUSH1 0x1 PUSH1 0x40 SHL SUB DUP2 GT ISZERO PUSH2 0x1AE JUMPI PUSH0 PUSH0 REVERT JUMPDEST PUSH2 0x1BA DUP7 DUP3 DUP8 ADD PUSH2 0xFE JUMP JUMPDEST PUSH1 0x20 DUP7 ADD MLOAD SWAP1 SWAP5 POP SWAP1 POP PUSH1 0x1 PUSH1 0x1 PUSH1 0x40 SHL SUB DUP2 GT ISZERO PUSH2 0x1D7 JUMPI PUSH0 PUSH0 REVERT JUMPDEST PUSH2 0x1E3 DUP7 DUP3 DUP8 ADD PUSH2 0xFE JUMP JUMPDEST PUSH1 0x40 DUP7 ADD MLOAD SWAP1 SWAP4 POP SWAP1 POP PUSH1 0x1 PUSH1 0x1 PUSH1 0x40 SHL SUB DUP2 GT ISZERO PUSH2 0x200 JUMPI PUSH0 PUSH0 REVERT JUMPDEST PUSH2 0x20C DUP7 DUP3 DUP8 ADD PUSH2 0xFE JUMP JUMPDEST SWAP2 POP POP SWAP3 POP SWAP3 POP SWAP3 JUMP JUMPDEST PUSH1 0x1 DUP2 DUP2 SHR SWAP1 DUP3 AND DUP1 PUSH2 0x22A JUMPI PUSH1 0x7F DUP3 AND SWAP2 POP JUMPDEST PUSH1 0x20 DUP3 LT DUP2 SUB PUSH2 0x248 JUMPI PUSH4 0x4E487B71 PUSH1 0xE0 SHL PUSH0 MSTORE PUSH1 0x22 PUSH1 0x4 MSTORE PUSH1 0x24 PUSH0 REVERT JUMPDEST POP SWAP2 SWAP1 POP JUMP JUMPDEST PUSH1 0x1F DUP3 GT ISZERO PUSH2 0x295 JUMPI DUP1 PUSH0 MSTORE PUSH1 0x20 PUSH0 KECCAK256 PUSH1 0x1F DUP5 ADD PUSH1 0x5 SHR DUP2 ADD PUSH1 0x20 DUP6 LT ISZERO PUSH2 0x273 JUMPI POP DUP1 JUMPDEST PUSH1 0x1F DUP5 ADD PUSH1 0x5 SHR DUP3 ADD SWAP2 POP JUMPDEST DUP2 DUP2 LT ISZERO PUSH2 0x292 JUMPI PUSH0 DUP2 SSTORE PUSH1 0x1 ADD PUSH2 0x27F JUMP JUMPDEST POP POP JUMPDEST POP POP POP JUMP JUMPDEST DUP2 MLOAD PUSH1 0x1 PUSH1 0x1 PUSH1 0x40 SHL SUB DUP2 GT ISZERO PUSH2 0x2B3 JUMPI PUSH2 0x2B3 PUSH2 0xEA JUMP JUMPDEST PUSH2 0x2C7 DUP2 PUSH2 0x2C1 DUP5 SLOAD PUSH2 0x216 JUMP JUMPDEST DUP5 PUSH2 0x24E JUMP JUMPDEST PUSH1 0x20 PUSH1 0x1F DUP3 GT PUSH1 0x1 DUP2 EQ PUSH2 0x2F9 JUMPI PUSH0 DUP4 ISZERO PUSH2 0x2E2 JUMPI POP DUP5 DUP3 ADD MLOAD JUMPDEST PUSH0 NOT PUSH1 0x3 DUP6 SWAP1 SHL SHR NOT AND PUSH1 0x1 DUP5 SWAP1 SHL OR DUP5 SSTORE PUSH2 0x292 JUMP JUMPDEST PUSH0 DUP5 DUP2 MSTORE PUSH1 0x20 DUP2 KECCAK256 PUSH1 0x1F NOT DUP6 AND SWAP2 JUMPDEST DUP3 DUP2 LT ISZERO PUSH2 0x328 JUMPI DUP8 DUP6 ADD MLOAD DUP3 SSTORE PUSH1 0x20 SWAP5 DUP6 ADD SWAP5 PUSH1 0x1 SWAP1 SWAP3 ADD SWAP2 ADD PUSH2 0x308 JUMP JUMPDEST POP DUP5 DUP3 LT ISZERO PUSH2 0x345 JUMPI DUP7 DUP5 ADD MLOAD PUSH0 NOT PUSH1 0x3 DUP8 SWAP1 SHL PUSH1 0xF8 AND SHR NOT AND DUP2 SSTORE JUMPDEST POP POP POP POP PUSH1 0x1 SWAP1 DUP2 SHL ADD SWAP1 SSTORE POP JUMP JUMPDEST PUSH2 0xB60 DUP1 PUSH2 0x361 PUSH0 CODECOPY PUSH0 RETURN INVALID PUSH1 0x80 PUSH1 0x40 MSTORE CALLVALUE DUP1 ISZERO PUSH2 0xF JUMPI PUSH0 PUSH0 REVERT JUMPDEST POP PUSH1 0x4 CALLDATASIZE LT PUSH2 0x106 JUMPI PUSH0 CALLDATALOAD PUSH1 0xE0 SHR DUP1 PUSH4 0x715018A6 GT PUSH2 0x9E JUMPI DUP1 PUSH4 0xA1794BCD GT PUSH2 0x6E JUMPI DUP1 PUSH4 0xA1794BCD EQ PUSH2 0x20C JUMPI DUP1 PUSH4 0xA9059CBB EQ PUSH2 0x21F JUMPI DUP1 PUSH4 0xDD62ED3E EQ PUSH2 0x232 JUMPI DUP1 PUSH4 0xF2FDE38B EQ PUSH2 0x26A JUMPI DUP1 PUSH4 0xF85EA2AB EQ PUSH2 0x27D JUMPI PUSH0 PUSH0 REVERT JUMPDEST DUP1 PUSH4 0x715018A6 EQ PUSH2 0x1C4 JUMPI DUP1 PUSH4 0x8DA5CB5B EQ PUSH2 0x1CC JUMPI DUP1 PUSH4 0x95D89B41 EQ PUSH2 0x1F1 JUMPI DUP1 PUSH4 0x9DC29FAC EQ PUSH2 0x1F9 JUMPI PUSH0 PUSH0 REVERT JUMPDEST DUP1 PUSH4 0x2DFCA445 GT PUSH2 0xD9 JUMPI DUP1 PUSH4 0x2DFCA445 EQ PUSH2 0x170 JUMPI DUP1 PUSH4 0x313CE567 EQ PUSH2 0x178 JUMPI DUP1 PUSH4 0x40C10F19 EQ PUSH2 0x187 JUMPI DUP1 PUSH4 0x70A08231 EQ PUSH2 0x19C JUMPI PUSH0 PUSH0 REVERT JUMPDEST DUP1 PUSH4 0x6FDDE03 EQ PUSH2 0x10A JUMPI DUP1 PUSH4 0x95EA7B3 EQ PUSH2 0x128 JUMPI DUP1 PUSH4 0x18160DDD EQ PUSH2 0x14B JUMPI DUP1 PUSH4 0x23B872DD EQ PUSH2 0x15D JUMPI JUMPDEST PUSH0 PUSH0 REVERT JUMPDEST PUSH2 0x112 PUSH2 0x290 JUMP JUMPDEST PUSH1 0x40 MLOAD PUSH2 0x11F SWAP2 SWAP1 PUSH2 0x9D0 JUMP JUMPDEST PUSH1 0x40 MLOAD DUP1 SWAP2 SUB SWAP1 RETURN JUMPDEST PUSH2 0x13B PUSH2 0x136 CALLDATASIZE PUSH1 0x4 PUSH2 0xA20 JUMP JUMPDEST PUSH2 0x320 JUMP JUMPDEST PUSH1 0x40 MLOAD SWAP1 ISZERO ISZERO DUP2 MSTORE PUSH1 0x20 ADD PUSH2 0x11F JUMP JUMPDEST PUSH1 0x2 SLOAD JUMPDEST PUSH1 0x40 MLOAD SWAP1 DUP2 MSTORE PUSH1 0x20 ADD PUSH2 0x11F JUMP JUMPDEST PUSH2 0x13B PUSH2 0x16B CALLDATASIZE PUSH1 0x4 PUSH2 0xA48 JUMP JUMPDEST PUSH2 0x339 JUMP JUMPDEST PUSH2 0x112 PUSH2 0x35C JUMP JUMPDEST PUSH1 0x40 MLOAD PUSH1 0x12 DUP2 MSTORE PUSH1 0x20 ADD PUSH2 0x11F JUMP JUMPDEST PUSH2 0x19A PUSH2 0x195 CALLDATASIZE PUSH1 0x4 PUSH2 0xA20 JUMP JUMPDEST PUSH2 0x3E8 JUMP JUMPDEST STOP JUMPDEST PUSH2 0x14F PUSH2 0x1AA CALLDATASIZE PUSH1 0x4 PUSH2 0xA82 JUMP JUMPDEST PUSH1 0x1 PUSH1 0x1 PUSH1 0xA0 SHL SUB AND PUSH0 SWAP1 DUP2 MSTORE PUSH1 0x20 DUP2 SWAP1 MSTORE PUSH1 0x40 SWAP1 KECCAK256 SLOAD SWAP1 JUMP JUMPDEST PUSH2 0x19A PUSH2 0x48F JUMP JUMPDEST PUSH1 0x5 SLOAD PUSH1 0x1 PUSH1 0x1 PUSH1 0xA0 SHL SUB AND JUMPDEST PUSH1 0x40 MLOAD PUSH1 0x1 PUSH1 0x1 PUSH1 0xA0 SHL SUB SWAP1 SWAP2 AND DUP2 MSTORE PUSH1 0x20 ADD PUSH2 0x11F JUMP JUMPDEST PUSH2 0x112 PUSH2 0x4A2 JUMP JUMPDEST PUSH2 0x19A PUSH2 0x207 CALLDATASIZE PUSH1 0x4 PUSH2 0xA20 JUMP JUMPDEST PUSH2 0x4B1 JUMP JUMPDEST PUSH1 0x7 SLOAD PUSH2 0x1D9 SWAP1 PUSH1 0x1 PUSH1 0x1 PUSH1 0xA0 SHL SUB AND DUP2 JUMP JUMPDEST PUSH2 0x13B PUSH2 0x22D CALLDATASIZE PUSH1 0x4 PUSH2 0xA20 JUMP JUMPDEST PUSH2 0x547 JUMP JUMPDEST PUSH2 0x14F PUSH2 0x240 CALLDATASIZE PUSH1 0x4 PUSH2 0xAA2 JUMP JUMPDEST PUSH1 0x1 PUSH1 0x1 PUSH1 0xA0 SHL SUB SWAP2 DUP3 AND PUSH0 SWAP1 DUP2 MSTORE PUSH1 0x1 PUSH1 0x20 SWAP1 DUP2 MSTORE PUSH1 0x40 DUP1 DUP4 KECCAK256 SWAP4 SWAP1 SWAP5 AND DUP3 MSTORE SWAP2 SWAP1 SWAP2 MSTORE KECCAK256 SLOAD SWAP1 JUMP JUMPDEST PUSH2 0x19A PUSH2 0x278 CALLDATASIZE PUSH1 0x4 PUSH2 0xA82 JUMP JUMPDEST PUSH2 0x554 JUMP JUMPDEST PUSH2 0x19A PUSH2 0x28B CALLDATASIZE PUSH1 0x4 PUSH2 0xA82 JUMP JUMPDEST PUSH2 0x591 JUMP JUMPDEST PUSH1 0x60 PUSH1 0x3 DUP1 SLOAD PUSH2 0x29F SWAP1 PUSH2 0xAD3 JUMP JUMPDEST DUP1 PUSH1 0x1F ADD PUSH1 0x20 DUP1 SWAP2 DIV MUL PUSH1 0x20 ADD PUSH1 0x40 MLOAD SWAP1 DUP2 ADD PUSH1 0x40 MSTORE DUP1 SWAP3 SWAP2 SWAP1 DUP2 DUP2 MSTORE PUSH1 0x20 ADD DUP3 DUP1 SLOAD PUSH2 0x2CB SWAP1 PUSH2 0xAD3 JUMP JUMPDEST DUP1 ISZERO PUSH2 0x316 JUMPI DUP1 PUSH1 0x1F LT PUSH2 0x2ED JUMPI PUSH2 0x100 DUP1 DUP4 SLOAD DIV MUL DUP4 MSTORE SWAP2 PUSH1 0x20 ADD SWAP2 PUSH2 0x316 JUMP JUMPDEST DUP3 ADD SWAP2 SWAP1 PUSH0 MSTORE PUSH1 0x20 PUSH0 KECCAK256 SWAP1 JUMPDEST DUP2 SLOAD DUP2 MSTORE SWAP1 PUSH1 0x1 ADD SWAP1 PUSH1 0x20 ADD DUP1 DUP4 GT PUSH2 0x2F9 JUMPI DUP3 SWAP1 SUB PUSH1 0x1F AND DUP3 ADD SWAP2 JUMPDEST POP POP POP POP POP SWAP1 POP SWAP1 JUMP JUMPDEST PUSH0 CALLER PUSH2 0x32D DUP2 DUP6 DUP6 PUSH2 0x603 JUMP JUMPDEST PUSH1 0x1 SWAP2 POP POP JUMPDEST SWAP3 SWAP2 POP POP JUMP JUMPDEST PUSH0 CALLER PUSH2 0x346 DUP6 DUP3 DUP6 PUSH2 0x615 JUMP JUMPDEST PUSH2 0x351 DUP6 DUP6 DUP6 PUSH2 0x691 JUMP JUMPDEST POP PUSH1 0x1 SWAP5 SWAP4 POP POP POP POP JUMP JUMPDEST PUSH1 0x6 DUP1 SLOAD PUSH2 0x369 SWAP1 PUSH2 0xAD3 JUMP JUMPDEST DUP1 PUSH1 0x1F ADD PUSH1 0x20 DUP1 SWAP2 DIV MUL PUSH1 0x20 ADD PUSH1 0x40 MLOAD SWAP1 DUP2 ADD PUSH1 0x40 MSTORE DUP1 SWAP3 SWAP2 SWAP1 DUP2 DUP2 MSTORE PUSH1 0x20 ADD DUP3 DUP1 SLOAD PUSH2 0x395 SWAP1 PUSH2 0xAD3 JUMP JUMPDEST DUP1 ISZERO PUSH2 0x3E0 JUMPI DUP1 PUSH1 0x1F LT PUSH2 0x3B7 JUMPI PUSH2 0x100 DUP1 DUP4 SLOAD DIV MUL DUP4 MSTORE SWAP2 PUSH1 0x20 ADD SWAP2 PUSH2 0x3E0 JUMP JUMPDEST DUP3 ADD SWAP2 SWAP1 PUSH0 MSTORE PUSH1 0x20 PUSH0 KECCAK256 SWAP1 JUMPDEST DUP2 SLOAD DUP2 MSTORE SWAP1 PUSH1 0x1 ADD SWAP1 PUSH1 0x20 ADD DUP1 DUP4 GT PUSH2 0x3C3 JUMPI DUP3 SWAP1 SUB PUSH1 0x1F AND DUP3 ADD SWAP2 JUMPDEST POP POP POP POP POP DUP2 JUMP JUMPDEST PUSH1 0x7 SLOAD PUSH1 0x1 PUSH1 0x1 PUSH1 0xA0 SHL SUB AND CALLER EQ PUSH2 0x43E JUMPI PUSH1 0x40 MLOAD PUSH3 0x461BCD PUSH1 0xE5 SHL DUP2 MSTORE PUSH1 0x20 PUSH1 0x4 DUP3 ADD MSTORE PUSH1 0x14 PUSH1 0x24 DUP3 ADD MSTORE PUSH20 0x13DB9B1E481B585C9AD95D0818DBDB9D1C9858DD PUSH1 0x62 SHL PUSH1 0x44 DUP3 ADD MSTORE PUSH1 0x64 ADD JUMPDEST PUSH1 0x40 MLOAD DUP1 SWAP2 SUB SWAP1 REVERT JUMPDEST PUSH2 0x448 DUP3 DUP3 PUSH2 0x6EE JUMP JUMPDEST DUP2 PUSH1 0x1 PUSH1 0x1 PUSH1 0xA0 SHL SUB AND PUSH32 0x3F2C9D57C068687834F0DE942A9BABB9E5ACAB57D516D3480A3C16EE165A4273 DUP3 PUSH1 0x40 MLOAD PUSH2 0x483 SWAP2 DUP2 MSTORE PUSH1 0x20 ADD SWAP1 JUMP JUMPDEST PUSH1 0x40 MLOAD DUP1 SWAP2 SUB SWAP1 LOG2 POP POP JUMP JUMPDEST PUSH2 0x497 PUSH2 0x726 JUMP JUMPDEST PUSH2 0x4A0 PUSH0 PUSH2 0x753 JUMP JUMPDEST JUMP JUMPDEST PUSH1 0x60 PUSH1 0x4 DUP1 SLOAD PUSH2 0x29F SWAP1 PUSH2 0xAD3 JUMP JUMPDEST PUSH1 0x7 SLOAD PUSH1 0x1 PUSH1 0x1 PUSH1 0xA0 SHL SUB AND CALLER EQ PUSH2 0x502 JUMPI PUSH1 0x40 MLOAD PUSH3 0x461BCD PUSH1 0xE5 SHL DUP2 MSTORE PUSH1 0x20 PUSH1 0x4 DUP3 ADD MSTORE PUSH1 0x14 PUSH1 0x24 DUP3 ADD MSTORE PUSH20 0x13DB9B1E481B585C9AD95D0818DBDB9D1C9858DD PUSH1 0x62 SHL PUSH1 0x44 DUP3 ADD MSTORE PUSH1 0x64 ADD PUSH2 0x435 JUMP JUMPDEST PUSH2 0x50C DUP3 DUP3 PUSH2 0x7A4 JUMP JUMPDEST DUP2 PUSH1 0x1 PUSH1 0x1 PUSH1 0xA0 SHL SUB AND PUSH32 0xFD38818F5291BF0BB3A2A48AADC06BA8757865D1DABD804585338AAB3009DCB6 DUP3 PUSH1 0x40 MLOAD PUSH2 0x483 SWAP2 DUP2 MSTORE PUSH1 0x20 ADD SWAP1 JUMP JUMPDEST PUSH0 CALLER PUSH2 0x32D DUP2 DUP6 DUP6 PUSH2 0x691 JUMP JUMPDEST PUSH2 0x55C PUSH2 0x726 JUMP JUMPDEST PUSH1 0x1 PUSH1 0x1 PUSH1 0xA0 SHL SUB DUP2 AND PUSH2 0x585 JUMPI PUSH1 0x40 MLOAD PUSH4 0x1E4FBDF7 PUSH1 0xE0 SHL DUP2 MSTORE PUSH0 PUSH1 0x4 DUP3 ADD MSTORE PUSH1 0x24 ADD PUSH2 0x435 JUMP JUMPDEST PUSH2 0x58E DUP2 PUSH2 0x753 JUMP JUMPDEST POP JUMP JUMPDEST PUSH2 0x599 PUSH2 0x726 JUMP JUMPDEST PUSH1 0x1 PUSH1 0x1 PUSH1 0xA0 SHL SUB DUP2 AND PUSH2 0x5E1 JUMPI PUSH1 0x40 MLOAD PUSH3 0x461BCD PUSH1 0xE5 SHL DUP2 MSTORE PUSH1 0x20 PUSH1 0x4 DUP3 ADD MSTORE PUSH1 0xF PUSH1 0x24 DUP3 ADD MSTORE PUSH15 0x496E76616C69642061646472657373 PUSH1 0x88 SHL PUSH1 0x44 DUP3 ADD MSTORE PUSH1 0x64 ADD PUSH2 0x435 JUMP JUMPDEST PUSH1 0x7 DUP1 SLOAD PUSH1 0x1 PUSH1 0x1 PUSH1 0xA0 SHL SUB NOT AND PUSH1 0x1 PUSH1 0x1 PUSH1 0xA0 SHL SUB SWAP3 SWAP1 SWAP3 AND SWAP2 SWAP1 SWAP2 OR SWAP1 SSTORE JUMP JUMPDEST PUSH2 0x610 DUP4 DUP4 DUP4 PUSH1 0x1 PUSH2 0x7D8 JUMP JUMPDEST POP POP POP JUMP JUMPDEST PUSH1 0x1 PUSH1 0x1 PUSH1 0xA0 SHL SUB DUP4 DUP2 AND PUSH0 SWAP1 DUP2 MSTORE PUSH1 0x1 PUSH1 0x20 SWAP1 DUP2 MSTORE PUSH1 0x40 DUP1 DUP4 KECCAK256 SWAP4 DUP7 AND DUP4 MSTORE SWAP3 SWAP1 MSTORE KECCAK256 SLOAD PUSH0 NOT DUP2 LT ISZERO PUSH2 0x68B JUMPI DUP2 DUP2 LT ISZERO PUSH2 0x67D JUMPI PUSH1 0x40 MLOAD PUSH4 0x7DC7A0D9 PUSH1 0xE1 SHL DUP2 MSTORE PUSH1 0x1 PUSH1 0x1 PUSH1 0xA0 SHL SUB DUP5 AND PUSH1 0x4 DUP3 ADD MSTORE PUSH1 0x24 DUP2 ADD DUP3 SWAP1 MSTORE PUSH1 0x44 DUP2 ADD DUP4 SWAP1 MSTORE PUSH1 0x64 ADD PUSH2 0x435 JUMP JUMPDEST PUSH2 0x68B DUP5 DUP5 DUP5 DUP5 SUB PUSH0 PUSH2 0x7D8 JUMP JUMPDEST POP POP POP POP JUMP JUMPDEST PUSH1 0x1 PUSH1 0x1 PUSH1 0xA0 SHL SUB DUP4 AND PUSH2 0x6BA JUMPI PUSH1 0x40 MLOAD PUSH4 0x4B637E8F PUSH1 0xE1 SHL DUP2 MSTORE PUSH0 PUSH1 0x4 DUP3 ADD MSTORE PUSH1 0x24 ADD PUSH2 0x435 JUMP JUMPDEST PUSH1 0x1 PUSH1 0x1 PUSH1 0xA0 SHL SUB DUP3 AND PUSH2 0x6E3 JUMPI PUSH1 0x40 MLOAD PUSH4 0xEC442F05 PUSH1 0xE0 SHL DUP2 MSTORE PUSH0 PUSH1 0x4 DUP3 ADD MSTORE PUSH1 0x24 ADD PUSH2 0x435 JUMP JUMPDEST PUSH2 0x610 DUP4 DUP4 DUP4 PUSH2 0x8AA JUMP JUMPDEST PUSH1 0x1 PUSH1 0x1 PUSH1 0xA0 SHL SUB DUP3 AND PUSH2 0x717 JUMPI PUSH1 0x40 MLOAD PUSH4 0xEC442F05 PUSH1 0xE0 SHL DUP2 MSTORE PUSH0 PUSH1 0x4 DUP3 ADD MSTORE PUSH1 0x24 ADD PUSH2 0x435 JUMP JUMPDEST PUSH2 0x722 PUSH0 DUP4 DUP4 PUSH2 0x8AA JUMP JUMPDEST POP POP JUMP JUMPDEST PUSH1 0x5 SLOAD PUSH1 0x1 PUSH1 0x1 PUSH1 0xA0 SHL SUB AND CALLER EQ PUSH2 0x4A0 JUMPI PUSH1 0x40 MLOAD PUSH4 0x118CDAA7 PUSH1 0xE0 SHL DUP2 MSTORE CALLER PUSH1 0x4 DUP3 ADD MSTORE PUSH1 0x24 ADD PUSH2 0x435 JUMP JUMPDEST PUSH1 0x5 DUP1 SLOAD PUSH1 0x1 PUSH1 0x1 PUSH1 0xA0 SHL SUB DUP4 DUP2 AND PUSH1 0x1 PUSH1 0x1 PUSH1 0xA0 SHL SUB NOT DUP4 AND DUP2 OR SWAP1 SWAP4 SSTORE PUSH1 0x40 MLOAD SWAP2 AND SWAP2 SWAP1 DUP3 SWAP1 PUSH32 0x8BE0079C531659141344CD1FD0A4F28419497F9722A3DAAFE3B4186F6B6457E0 SWAP1 PUSH0 SWAP1 LOG3 POP POP JUMP JUMPDEST PUSH1 0x1 PUSH1 0x1 PUSH1 0xA0 SHL SUB DUP3 AND PUSH2 0x7CD JUMPI PUSH1 0x40 MLOAD PUSH4 0x4B637E8F PUSH1 0xE1 SHL DUP2 MSTORE PUSH0 PUSH1 0x4 DUP3 ADD MSTORE PUSH1 0x24 ADD PUSH2 0x435 JUMP JUMPDEST PUSH2 0x722 DUP3 PUSH0 DUP4 PUSH2 0x8AA JUMP JUMPDEST PUSH1 0x1 PUSH1 0x1 PUSH1 0xA0 SHL SUB DUP5 AND PUSH2 0x801 JUMPI PUSH1 0x40 MLOAD PUSH4 0xE602DF05 PUSH1 0xE0 SHL DUP2 MSTORE PUSH0 PUSH1 0x4 DUP3 ADD MSTORE PUSH1 0x24 ADD PUSH2 0x435 JUMP JUMPDEST PUSH1 0x1 PUSH1 0x1 PUSH1 0xA0 SHL SUB DUP4 AND PUSH2 0x82A JUMPI PUSH1 0x40 MLOAD PUSH4 0x4A1406B1 PUSH1 0xE1 SHL DUP2 MSTORE PUSH0 PUSH1 0x4 DUP3 ADD MSTORE PUSH1 0x24 ADD PUSH2 0x435 JUMP JUMPDEST PUSH1 0x1 PUSH1 0x1 PUSH1 0xA0 SHL SUB DUP1 DUP6 AND PUSH0 SWAP1 DUP2 MSTORE PUSH1 0x1 PUSH1 0x20 SWAP1 DUP2 MSTORE PUSH1 0x40 DUP1 DUP4 KECCAK256 SWAP4 DUP8 AND DUP4 MSTORE SWAP3 SWAP1 MSTORE KECCAK256 DUP3 SWAP1 SSTORE DUP1 ISZERO PUSH2 0x68B JUMPI DUP3 PUSH1 0x1 PUSH1 0x1 PUSH1 0xA0 SHL SUB AND DUP5 PUSH1 0x1 PUSH1 0x1 PUSH1 0xA0 SHL SUB AND PUSH32 0x8C5BE1E5EBEC7D5BD14F71427D1E84F3DD0314C0F7B2291E5B200AC8C7C3B925 DUP5 PUSH1 0x40 MLOAD PUSH2 0x89C SWAP2 DUP2 MSTORE PUSH1 0x20 ADD SWAP1 JUMP JUMPDEST PUSH1 0x40 MLOAD DUP1 SWAP2 SUB SWAP1 LOG3 POP POP POP POP JUMP JUMPDEST PUSH1 0x1 PUSH1 0x1 PUSH1 0xA0 SHL SUB DUP4 AND PUSH2 0x8D4 JUMPI DUP1 PUSH1 0x2 PUSH0 DUP3 DUP3 SLOAD PUSH2 0x8C9 SWAP2 SWAP1 PUSH2 0xB0B JUMP JUMPDEST SWAP1 SWAP2 SSTORE POP PUSH2 0x944 SWAP1 POP JUMP JUMPDEST PUSH1 0x1 PUSH1 0x1 PUSH1 0xA0 SHL SUB DUP4 AND PUSH0 SWAP1 DUP2 MSTORE PUSH1 0x20 DUP2 SWAP1 MSTORE PUSH1 0x40 SWAP1 KECCAK256 SLOAD DUP2 DUP2 LT ISZERO PUSH2 0x926 JUMPI PUSH1 0x40 MLOAD PUSH4 0x391434E3 PUSH1 0xE2 SHL DUP2 MSTORE PUSH1 0x1 PUSH1 0x1 PUSH1 0xA0 SHL SUB DUP6 AND PUSH1 0x4 DUP3 ADD MSTORE PUSH1 0x24 DUP2 ADD DUP3 SWAP1 MSTORE PUSH1 0x44 DUP2 ADD DUP4 SWAP1 MSTORE PUSH1 0x64 ADD PUSH2 0x435 JUMP JUMPDEST PUSH1 0x1 PUSH1 0x1 PUSH1 0xA0 SHL SUB DUP5 AND PUSH0 SWAP1 DUP2 MSTORE PUSH1 0x20 DUP2 SWAP1 MSTORE PUSH1 0x40 SWAP1 KECCAK256 SWAP1 DUP3 SWAP1 SUB SWAP1 SSTORE JUMPDEST PUSH1 0x1 PUSH1 0x1 PUSH1 0xA0 SHL SUB DUP3 AND PUSH2 0x960 JUMPI PUSH1 0x2 DUP1 SLOAD DUP3 SWAP1 SUB SWAP1 SSTORE PUSH2 0x97E JUMP JUMPDEST PUSH1 0x1 PUSH1 0x1 PUSH1 0xA0 SHL SUB DUP3 AND PUSH0 SWAP1 DUP2 MSTORE PUSH1 0x20 DUP2 SWAP1 MSTORE PUSH1 0x40 SWAP1 KECCAK256 DUP1 SLOAD DUP3 ADD SWAP1 SSTORE JUMPDEST DUP2 PUSH1 0x1 PUSH1 0x1 PUSH1 0xA0 SHL SUB AND DUP4 PUSH1 0x1 PUSH1 0x1 PUSH1 0xA0 SHL SUB AND PUSH32 0xDDF252AD1BE2C89B69C2B068FC378DAA952BA7F163C4A11628F55A4DF523B3EF DUP4 PUSH1 0x40 MLOAD PUSH2 0x9C3 SWAP2 DUP2 MSTORE PUSH1 0x20 ADD SWAP1 JUMP JUMPDEST PUSH1 0x40 MLOAD DUP1 SWAP2 SUB SWAP1 LOG3 POP POP POP JUMP JUMPDEST PUSH1 0x20 DUP2 MSTORE PUSH0 DUP3 MLOAD DUP1 PUSH1 0x20 DUP5 ADD MSTORE DUP1 PUSH1 0x20 DUP6 ADD PUSH1 0x40 DUP6 ADD MCOPY PUSH0 PUSH1 0x40 DUP3 DUP6 ADD ADD MSTORE PUSH1 0x40 PUSH1 0x1F NOT PUSH1 0x1F DUP4 ADD AND DUP5 ADD ADD SWAP2 POP POP SWAP3 SWAP2 POP POP JUMP JUMPDEST DUP1 CALLDATALOAD PUSH1 0x1 PUSH1 0x1 PUSH1 0xA0 SHL SUB DUP2 AND DUP2 EQ PUSH2 0xA1B JUMPI PUSH0 PUSH0 REVERT JUMPDEST SWAP2 SWAP1 POP JUMP JUMPDEST PUSH0 PUSH0 PUSH1 0x40 DUP4 DUP6 SUB SLT ISZERO PUSH2 0xA31 JUMPI PUSH0 PUSH0 REVERT JUMPDEST PUSH2 0xA3A DUP4 PUSH2 0xA05 JUMP JUMPDEST SWAP5 PUSH1 0x20 SWAP4 SWAP1 SWAP4 ADD CALLDATALOAD SWAP4 POP POP POP JUMP JUMPDEST PUSH0 PUSH0 PUSH0 PUSH1 0x60 DUP5 DUP7 SUB SLT ISZERO PUSH2 0xA5A JUMPI PUSH0 PUSH0 REVERT JUMPDEST PUSH2 0xA63 DUP5 PUSH2 0xA05 JUMP JUMPDEST SWAP3 POP PUSH2 0xA71 PUSH1 0x20 DUP6 ADD PUSH2 0xA05 JUMP JUMPDEST SWAP3 SWAP6 SWAP3 SWAP5 POP POP POP PUSH1 0x40 SWAP2 SWAP1 SWAP2 ADD CALLDATALOAD SWAP1 JUMP JUMPDEST PUSH0 PUSH1 0x20 DUP3 DUP5 SUB SLT ISZERO PUSH2 0xA92 JUMPI PUSH0 PUSH0 REVERT JUMPDEST PUSH2 0xA9B DUP3 PUSH2 0xA05 JUMP JUMPDEST SWAP4 SWAP3 POP POP POP JUMP JUMPDEST PUSH0 PUSH0 PUSH1 0x40 DUP4 DUP6 SUB SLT ISZERO PUSH2 0xAB3 JUMPI PUSH0 PUSH0 REVERT JUMPDEST PUSH2 0xABC DUP4 PUSH2 0xA05 JUMP JUMPDEST SWAP2 POP PUSH2 0xACA PUSH1 0x20 DUP5 ADD PUSH2 0xA05 JUMP JUMPDEST SWAP1 POP SWAP3 POP SWAP3 SWAP1 POP JUMP JUMPDEST PUSH1 0x1 DUP2 DUP2 SHR SWAP1 DUP3 AND DUP1 PUSH2 0xAE7 JUMPI PUSH1 0x7F DUP3 AND SWAP2 POP JUMPDEST PUSH1 0x20 DUP3 LT DUP2 SUB PUSH2 0xB05 JUMPI PUSH4 0x4E487B71 PUSH1 0xE0 SHL PUSH0 MSTORE PUSH1 0x22 PUSH1 0x4 MSTORE PUSH1 0x24 PUSH0 REVERT JUMPDEST POP SWAP2 SWAP1 POP JUMP JUMPDEST DUP1 DUP3 ADD DUP1 DUP3 GT ISZERO PUSH2 0x333 JUMPI PUSH4 0x4E487B71 PUSH1 0xE0 SHL PUSH0 MSTORE PUSH1 0x11 PUSH1 0x4 MSTORE PUSH1 0x24 PUSH0 REVERT INVALID LOG2 PUSH5 0x6970667358 0x22 SLT KECCAK256 SELFBALANCE SWAP15 CODECOPY 0xFC POP DUP14 0xD2 PUSH17 0x5D79987338EB9381FBA4CFECD88F460019 ADD KECCAK256 0xBB 0xCA PUSH13 0xDE64736F6C634300081F0033 LOG2 PUSH5 0x6970667358 0x22 SLT KECCAK256 0xB3 LOG4 0xCC PUSH16 0x9AD90424233D09B660B3A790C90C1BC7 DUP9 0xF SWAP13 JUMP 0xF 0xC6 EXTCODECOPY SWAP5 EOFCREATE 0x29 PUSH7 0xE64736F6C6343 STOP ADDMOD 0x1F STOP CALLER PUSH1 0x80 PUSH1 0x40 MSTORE CALLVALUE DUP1 ISZERO PUSH1 0xE JUMPI PUSH0 PUSH0 REVERT JUMPDEST POP CALLER DUP1 PUSH1 0x33 JUMPI PUSH1 0x40 MLOAD PUSH4 0x1E4FBDF7 PUSH1 0xE0 SHL DUP2 MSTORE PUSH0 PUSH1 0x4 DUP3 ADD MSTORE PUSH1 0x24 ADD PUSH1 0x40 MLOAD DUP1 SWAP2 SUB SWAP1 REVERT JUMPDEST PUSH1 0x3A DUP2 PUSH1 0x3F JUMP JUMPDEST POP PUSH1 0x8E JUMP JUMPDEST PUSH0 DUP1 SLOAD PUSH1 0x1 PUSH1 0x1 PUSH1 0xA0 SHL SUB DUP4 DUP2 AND PUSH1 0x1 PUSH1 0x1 PUSH1 0xA0 SHL SUB NOT DUP4 AND DUP2 OR DUP5 SSTORE PUSH1 0x40 MLOAD SWAP2 SWAP1 SWAP3 AND SWAP3 DUP4 SWAP2 PUSH32 0x8BE0079C531659141344CD1FD0A4F28419497F9722A3DAAFE3B4186F6B6457E0 SWAP2 SWAP1 LOG3 POP POP JUMP JUMPDEST PUSH2 0x122D DUP1 PUSH2 0x9B PUSH0 CODECOPY PUSH0 RETURN INVALID PUSH1 0x80 PUSH1 0x40 MSTORE CALLVALUE DUP1 ISZERO PUSH2 0xF JUMPI PUSH0 PUSH0 REVERT JUMPDEST POP PUSH1 0x4 CALLDATASIZE LT PUSH2 0x106 JUMPI PUSH0 CALLDATALOAD PUSH1 0xE0 SHR DUP1 PUSH4 0xA4A9E988 GT PUSH2 0x9E JUMPI DUP1 PUSH4 0xC8FF8459 GT PUSH2 0x6E JUMPI DUP1 PUSH4 0xC8FF8459 EQ PUSH2 0x298 JUMPI DUP1 PUSH4 0xDD22D0B5 EQ PUSH2 0x2C3 JUMPI DUP1 PUSH4 0xE1A45218 EQ PUSH2 0x323 JUMPI DUP1 PUSH4 0xF2FDE38B EQ PUSH2 0x32C JUMPI DUP1 PUSH4 0xF887EA40 EQ PUSH2 0x33F JUMPI PUSH0 PUSH0 REVERT JUMPDEST DUP1 PUSH4 0xA4A9E988 EQ PUSH2 0x1BD JUMPI DUP1 PUSH4 0xB5217BB4 EQ PUSH2 0x1FC JUMPI DUP1 PUSH4 0xBF333F2C EQ PUSH2 0x27D JUMPI DUP1 PUSH4 0xC0D78655 EQ PUSH2 0x285 JUMPI PUSH0 PUSH0 REVERT JUMPDEST DUP1 PUSH4 0x715018A6 GT PUSH2 0xD9 JUMPI DUP1 PUSH4 0x715018A6 EQ PUSH2 0x169 JUMPI DUP1 PUSH4 0x71ACE7EC EQ PUSH2 0x173 JUMPI DUP1 PUSH4 0x7CB1403A EQ PUSH2 0x186 JUMPI DUP1 PUSH4 0x8DA5CB5B EQ PUSH2 0x199 JUMPI PUSH0 PUSH0 REVERT JUMPDEST DUP1 PUSH4 0x26589107 EQ PUSH2 0x10A JUMPI DUP1 PUSH4 0x31D98B3F EQ PUSH2 0x130 JUMPI DUP1 PUSH4 0x4669660F EQ PUSH2 0x143 JUMPI DUP1 PUSH4 0x56CD61D7 EQ PUSH2 0x156 JUMPI JUMPDEST PUSH0 PUSH0 REVERT JUMPDEST PUSH2 0x11D PUSH2 0x118 CALLDATASIZE PUSH1 0x4 PUSH2 0xF26 JUMP JUMPDEST PUSH2 0x352 JUMP JUMPDEST PUSH1 0x40 MLOAD SWAP1 DUP2 MSTORE PUSH1 0x20 ADD JUMPDEST PUSH1 0x40 MLOAD DUP1 SWAP2 SUB SWAP1 RETURN JUMPDEST PUSH2 0x11D PUSH2 0x13E CALLDATASIZE PUSH1 0x4 PUSH2 0xF58 JUMP JUMPDEST PUSH2 0x440 JUMP JUMPDEST PUSH2 0x11D PUSH2 0x151 CALLDATASIZE PUSH1 0x4 PUSH2 0xF8A JUMP JUMPDEST PUSH2 0x4E0 JUMP JUMPDEST PUSH2 0x11D PUSH2 0x164 CALLDATASIZE PUSH1 0x4 PUSH2 0xFC2 JUMP JUMPDEST PUSH2 0x866 JUMP JUMPDEST PUSH2 0x171 PUSH2 0x9EC JUMP JUMPDEST STOP JUMPDEST PUSH2 0x171 PUSH2 0x181 CALLDATASIZE PUSH1 0x4 PUSH2 0x101C JUMP JUMPDEST PUSH2 0x9FF JUMP JUMPDEST PUSH2 0x11D PUSH2 0x194 CALLDATASIZE PUSH1 0x4 PUSH2 0x1045 JUMP JUMPDEST PUSH2 0xBF2 JUMP JUMPDEST PUSH0 SLOAD PUSH1 0x1 PUSH1 0x1 PUSH1 0xA0 SHL SUB AND JUMPDEST PUSH1 0x40 MLOAD PUSH1 0x1 PUSH1 0x1 PUSH1 0xA0 SHL SUB SWAP1 SWAP2 AND DUP2 MSTORE PUSH1 0x20 ADD PUSH2 0x127 JUMP JUMPDEST PUSH2 0x1E7 PUSH2 0x1CB CALLDATASIZE PUSH1 0x4 PUSH2 0xF58 JUMP JUMPDEST PUSH0 SWAP1 DUP2 MSTORE PUSH1 0x1 PUSH1 0x20 MSTORE PUSH1 0x40 SWAP1 KECCAK256 PUSH1 0x2 DUP2 ADD SLOAD PUSH1 0x3 SWAP1 SWAP2 ADD SLOAD SWAP1 SWAP2 JUMP JUMPDEST PUSH1 0x40 DUP1 MLOAD SWAP3 DUP4 MSTORE PUSH1 0x20 DUP4 ADD SWAP2 SWAP1 SWAP2 MSTORE ADD PUSH2 0x127 JUMP JUMPDEST PUSH2 0x248 PUSH2 0x20A CALLDATASIZE PUSH1 0x4 PUSH2 0xF58 JUMP JUMPDEST PUSH1 0x1 PUSH1 0x20 DUP2 SWAP1 MSTORE PUSH0 SWAP2 DUP3 MSTORE PUSH1 0x40 SWAP1 SWAP2 KECCAK256 DUP1 SLOAD SWAP2 DUP2 ADD SLOAD PUSH1 0x2 DUP3 ADD SLOAD PUSH1 0x3 DUP4 ADD SLOAD PUSH1 0x4 SWAP1 SWAP4 ADD SLOAD PUSH1 0x1 PUSH1 0x1 PUSH1 0xA0 SHL SUB SWAP5 DUP6 AND SWAP5 SWAP1 SWAP3 AND SWAP3 SWAP1 SWAP2 PUSH1 0xFF AND DUP6 JUMP JUMPDEST PUSH1 0x40 DUP1 MLOAD PUSH1 0x1 PUSH1 0x1 PUSH1 0xA0 SHL SUB SWAP7 DUP8 AND DUP2 MSTORE SWAP6 SWAP1 SWAP5 AND PUSH1 0x20 DUP7 ADD MSTORE SWAP3 DUP5 ADD SWAP2 SWAP1 SWAP2 MSTORE PUSH1 0x60 DUP4 ADD MSTORE ISZERO ISZERO PUSH1 0x80 DUP3 ADD MSTORE PUSH1 0xA0 ADD PUSH2 0x127 JUMP JUMPDEST PUSH2 0x11D PUSH1 0x1E DUP2 JUMP JUMPDEST PUSH2 0x171 PUSH2 0x293 CALLDATASIZE PUSH1 0x4 PUSH2 0x1078 JUMP JUMPDEST PUSH2 0xCB5 JUMP JUMPDEST PUSH2 0x11D PUSH2 0x2A6 CALLDATASIZE PUSH1 0x4 PUSH2 0xF26 JUMP JUMPDEST DUP1 MLOAD PUSH1 0x20 DUP2 DUP4 ADD DUP2 ADD DUP1 MLOAD PUSH1 0x2 DUP3 MSTORE SWAP3 DUP3 ADD SWAP2 SWAP1 SWAP4 ADD KECCAK256 SWAP2 MSTORE SLOAD DUP2 JUMP JUMPDEST PUSH2 0x2D6 PUSH2 0x2D1 CALLDATASIZE PUSH1 0x4 PUSH2 0xF26 JUMP JUMPDEST PUSH2 0xD26 JUMP JUMPDEST PUSH1 0x40 MLOAD PUSH2 0x127 SWAP2 SWAP1 DUP2 MLOAD PUSH1 0x1 PUSH1 0x1 PUSH1 0xA0 SHL SUB SWAP1 DUP2 AND DUP3 MSTORE PUSH1 0x20 DUP1 DUP5 ADD MLOAD SWAP1 SWAP2 AND SWAP1 DUP3 ADD MSTORE PUSH1 0x40 DUP1 DUP4 ADD MLOAD SWAP1 DUP3 ADD MSTORE PUSH1 0x60 DUP1 DUP4 ADD MLOAD SWAP1 DUP3 ADD MSTORE PUSH1 0x80 SWAP2 DUP3 ADD MLOAD ISZERO ISZERO SWAP2 DUP2 ADD SWAP2 SWAP1 SWAP2 MSTORE PUSH1 0xA0 ADD SWAP1 JUMP JUMPDEST PUSH2 0x11D PUSH2 0x2710 DUP2 JUMP JUMPDEST PUSH2 0x171 PUSH2 0x33A CALLDATASIZE PUSH1 0x4 PUSH2 0x1078 JUMP JUMPDEST PUSH2 0xDCF JUMP JUMPDEST PUSH1 0x3 SLOAD PUSH2 0x1A5 SWAP1 PUSH1 0x1 PUSH1 0x1 PUSH1 0xA0 SHL SUB AND DUP2 JUMP JUMPDEST PUSH0 PUSH0 PUSH1 0x2 DUP4 PUSH1 0x40 MLOAD PUSH2 0x364 SWAP2 SWAP1 PUSH2 0x10A8 JUMP JUMPDEST SWAP1 DUP2 MSTORE PUSH1 0x40 DUP1 MLOAD PUSH1 0x20 SWAP3 DUP2 SWAP1 SUB DUP4 ADD SWAP1 KECCAK256 SLOAD PUSH0 DUP2 DUP2 MSTORE PUSH1 0x1 SWAP1 SWAP4 MSTORE SWAP2 KECCAK256 PUSH1 0x4 DUP2 ADD SLOAD SWAP2 SWAP3 POP SWAP1 PUSH1 0xFF AND PUSH2 0x3B2 JUMPI PUSH1 0x40 MLOAD PUSH3 0x461BCD PUSH1 0xE5 SHL DUP2 MSTORE PUSH1 0x4 ADD PUSH2 0x3A9 SWAP1 PUSH2 0x10B3 JUMP JUMPDEST PUSH1 0x40 MLOAD DUP1 SWAP2 SUB SWAP1 REVERT JUMPDEST PUSH0 DUP2 PUSH1 0x3 ADD SLOAD DUP3 PUSH1 0x2 ADD SLOAD PUSH2 0x3C7 SWAP2 SWAP1 PUSH2 0x10EF JUMP JUMPDEST GT PUSH2 0x403 JUMPI PUSH1 0x40 MLOAD PUSH3 0x461BCD PUSH1 0xE5 SHL DUP2 MSTORE PUSH1 0x20 PUSH1 0x4 DUP3 ADD MSTORE PUSH1 0xC PUSH1 0x24 DUP3 ADD MSTORE PUSH12 0x4E6F206C6971756964697479 PUSH1 0xA0 SHL PUSH1 0x44 DUP3 ADD MSTORE PUSH1 0x64 ADD PUSH2 0x3A9 JUMP JUMPDEST DUP1 PUSH1 0x3 ADD SLOAD DUP2 PUSH1 0x2 ADD SLOAD PUSH2 0x417 SWAP2 SWAP1 PUSH2 0x10EF JUMP JUMPDEST PUSH1 0x2 DUP3 ADD SLOAD PUSH2 0x42E SWAP1 PUSH8 0xDE0B6B3A7640000 PUSH2 0x1108 JUMP JUMPDEST PUSH2 0x438 SWAP2 SWAP1 PUSH2 0x111F JUMP JUMPDEST SWAP5 SWAP4 POP POP POP POP JUMP JUMPDEST PUSH0 DUP2 DUP2 MSTORE PUSH1 0x1 PUSH1 0x20 MSTORE PUSH1 0x40 DUP2 KECCAK256 PUSH1 0x4 DUP2 ADD SLOAD PUSH1 0xFF AND PUSH2 0x471 JUMPI PUSH1 0x40 MLOAD PUSH3 0x461BCD PUSH1 0xE5 SHL DUP2 MSTORE PUSH1 0x4 ADD PUSH2 0x3A9 SWAP1 PUSH2 0x10B3 JUMP JUMPDEST PUSH0 DUP2 PUSH1 0x3 ADD SLOAD GT PUSH2 0x4B3 JUMPI PUSH1 0x40 MLOAD PUSH3 0x461BCD PUSH1 0xE5 SHL DUP2 MSTORE PUSH1 0x20 PUSH1 0x4 DUP3 ADD MSTORE PUSH1 0xC PUSH1 0x24 DUP3 ADD MSTORE PUSH12 0x4E6F206C6971756964697479 PUSH1 0xA0 SHL PUSH1 0x44 DUP3 ADD MSTORE PUSH1 0x64 ADD PUSH2 0x3A9 JUMP JUMPDEST PUSH1 0x3 DUP2 ADD SLOAD PUSH1 0x2 DUP3 ADD SLOAD PUSH2 0x4CF SWAP1 PUSH8 0xDE0B6B3A7640000 PUSH2 0x1108 JUMP JUMPDEST PUSH2 0x4D9 SWAP2 SWAP1 PUSH2 0x111F JUMP JUMPDEST SWAP4 SWAP3 POP POP POP JUMP JUMPDEST PUSH0 DUP5 DUP2 MSTORE PUSH1 0x1 PUSH1 0x20 MSTORE PUSH1 0x40 DUP2 KECCAK256 PUSH1 0x4 DUP2 ADD SLOAD PUSH1 0xFF AND PUSH2 0x511 JUMPI PUSH1 0x40 MLOAD PUSH3 0x461BCD PUSH1 0xE5 SHL DUP2 MSTORE PUSH1 0x4 ADD PUSH2 0x3A9 SWAP1 PUSH2 0x10B3 JUMP JUMPDEST DUP1 SLOAD PUSH1 0x1 PUSH1 0x1 PUSH1 0xA0 SHL SUB DUP7 DUP2 AND SWAP2 AND EQ DUP1 PUSH2 0x53B JUMPI POP PUSH1 0x1 DUP2 ADD SLOAD PUSH1 0x1 PUSH1 0x1 PUSH1 0xA0 SHL SUB DUP7 DUP2 AND SWAP2 AND EQ JUMPDEST PUSH2 0x577 JUMPI PUSH1 0x40 MLOAD PUSH3 0x461BCD PUSH1 0xE5 SHL DUP2 MSTORE PUSH1 0x20 PUSH1 0x4 DUP3 ADD MSTORE PUSH1 0xD PUSH1 0x24 DUP3 ADD MSTORE PUSH13 0x24B73B30B634B2103A37B5B2B7 PUSH1 0x99 SHL PUSH1 0x44 DUP3 ADD MSTORE PUSH1 0x64 ADD PUSH2 0x3A9 JUMP JUMPDEST DUP1 SLOAD PUSH1 0x1 PUSH1 0x1 PUSH1 0xA0 SHL SUB DUP7 DUP2 AND SWAP2 AND EQ PUSH0 DUP2 PUSH2 0x597 JUMPI DUP3 PUSH1 0x3 ADD SLOAD PUSH2 0x59D JUMP JUMPDEST DUP3 PUSH1 0x2 ADD SLOAD JUMPDEST SWAP1 POP PUSH0 DUP3 PUSH2 0x5AF JUMPI DUP4 PUSH1 0x2 ADD SLOAD PUSH2 0x5B5 JUMP JUMPDEST DUP4 PUSH1 0x3 ADD SLOAD JUMPDEST SWAP1 POP PUSH0 DUP4 PUSH2 0x5CD JUMPI DUP5 SLOAD PUSH1 0x1 PUSH1 0x1 PUSH1 0xA0 SHL SUB AND PUSH2 0x5DC JUMP JUMPDEST PUSH1 0x1 DUP6 ADD SLOAD PUSH1 0x1 PUSH1 0x1 PUSH1 0xA0 SHL SUB AND JUMPDEST SWAP1 POP PUSH0 PUSH2 0x5EC PUSH1 0x1E PUSH2 0x2710 PUSH2 0x113E JUMP JUMPDEST PUSH2 0x5F6 SWAP1 DUP11 PUSH2 0x1108 JUMP JUMPDEST SWAP1 POP DUP1 PUSH2 0x605 PUSH2 0x2710 DUP7 PUSH2 0x1108 JUMP JUMPDEST PUSH2 0x60F SWAP2 SWAP1 PUSH2 0x10EF JUMP JUMPDEST PUSH2 0x619 DUP5 DUP4 PUSH2 0x1108 JUMP JUMPDEST PUSH2 0x623 SWAP2 SWAP1 PUSH2 0x111F JUMP JUMPDEST SWAP7 POP DUP8 DUP8 LT ISZERO PUSH2 0x669 JUMPI PUSH1 0x40 MLOAD PUSH3 0x461BCD PUSH1 0xE5 SHL DUP2 MSTORE PUSH1 0x20 PUSH1 0x4 DUP3 ADD MSTORE PUSH1 0x11 PUSH1 0x24 DUP3 ADD MSTORE PUSH17 0x14DB1A5C1C1859D948195E18D959591959 PUSH1 0x7A SHL PUSH1 0x44 DUP3 ADD MSTORE PUSH1 0x64 ADD PUSH2 0x3A9 JUMP JUMPDEST PUSH0 DUP8 GT PUSH2 0x6AE JUMPI PUSH1 0x40 MLOAD PUSH3 0x461BCD PUSH1 0xE5 SHL DUP2 MSTORE PUSH1 0x20 PUSH1 0x4 DUP3 ADD MSTORE PUSH1 0x13 PUSH1 0x24 DUP3 ADD MSTORE PUSH19 0x125B9CDD59999A58DA595B9D081BDD5D1C1D5D PUSH1 0x6A SHL PUSH1 0x44 DUP3 ADD MSTORE PUSH1 0x64 ADD PUSH2 0x3A9 JUMP JUMPDEST PUSH1 0x40 MLOAD PUSH4 0x23B872DD PUSH1 0xE0 SHL DUP2 MSTORE CALLER PUSH1 0x4 DUP3 ADD MSTORE ADDRESS PUSH1 0x24 DUP3 ADD MSTORE PUSH1 0x44 DUP2 ADD DUP11 SWAP1 MSTORE PUSH1 0x1 PUSH1 0x1 PUSH1 0xA0 SHL SUB DUP12 AND SWAP1 PUSH4 0x23B872DD SWAP1 PUSH1 0x64 ADD PUSH1 0x20 PUSH1 0x40 MLOAD DUP1 DUP4 SUB DUP2 PUSH0 DUP8 GAS CALL ISZERO DUP1 ISZERO PUSH2 0x6FE JUMPI RETURNDATASIZE PUSH0 PUSH0 RETURNDATACOPY RETURNDATASIZE PUSH0 REVERT JUMPDEST POP POP POP POP PUSH1 0x40 MLOAD RETURNDATASIZE PUSH1 0x1F NOT PUSH1 0x1F DUP3 ADD AND DUP3 ADD DUP1 PUSH1 0x40 MSTORE POP DUP2 ADD SWAP1 PUSH2 0x722 SWAP2 SWAP1 PUSH2 0x1151 JUMP JUMPDEST POP PUSH1 0x40 MLOAD PUSH4 0xA9059CBB PUSH1 0xE0 SHL DUP2 MSTORE CALLER PUSH1 0x4 DUP3 ADD MSTORE PUSH1 0x24 DUP2 ADD DUP9 SWAP1 MSTORE PUSH1 0x1 PUSH1 0x1 PUSH1 0xA0 SHL SUB DUP4 AND SWAP1 PUSH4 0xA9059CBB SWAP1 PUSH1 0x44 ADD PUSH1 0x20 PUSH1 0x40 MLOAD DUP1 DUP4 SUB DUP2 PUSH0 DUP8 GAS CALL ISZERO DUP1 ISZERO PUSH2 0x76D JUMPI RETURNDATASIZE PUSH0 PUSH0 RETURNDATACOPY RETURNDATASIZE PUSH0 REVERT JUMPDEST POP POP POP POP PUSH1 0x40 MLOAD RETURNDATASIZE PUSH1 0x1F NOT PUSH1 0x1F DUP3 ADD AND DUP3 ADD DUP1 PUSH1 0x40 MSTORE POP DUP2 ADD SWAP1 PUSH2 0x791 SWAP2 SWAP1 PUSH2 0x1151 JUMP JUMPDEST POP DUP5 ISZERO PUSH2 0x7D0 JUMPI DUP9 DUP7 PUSH1 0x2 ADD PUSH0 DUP3 DUP3 SLOAD PUSH2 0x7AB SWAP2 SWAP1 PUSH2 0x10EF JUMP JUMPDEST SWAP3 POP POP DUP2 SWAP1 SSTORE POP DUP7 DUP7 PUSH1 0x3 ADD PUSH0 DUP3 DUP3 SLOAD PUSH2 0x7C5 SWAP2 SWAP1 PUSH2 0x113E JUMP JUMPDEST SWAP1 SWAP2 SSTORE POP PUSH2 0x803 SWAP1 POP JUMP JUMPDEST DUP9 DUP7 PUSH1 0x3 ADD PUSH0 DUP3 DUP3 SLOAD PUSH2 0x7E3 SWAP2 SWAP1 PUSH2 0x10EF JUMP JUMPDEST SWAP3 POP POP DUP2 SWAP1 SSTORE POP DUP7 DUP7 PUSH1 0x2 ADD PUSH0 DUP3 DUP3 SLOAD PUSH2 0x7FD SWAP2 SWAP1 PUSH2 0x113E JUMP JUMPDEST SWAP1 SWAP2 SSTORE POP POP JUMPDEST PUSH1 0x40 DUP1 MLOAD PUSH1 0x1 PUSH1 0x1 PUSH1 0xA0 SHL SUB DUP13 DUP2 AND DUP3 MSTORE PUSH1 0x20 DUP3 ADD DUP13 SWAP1 MSTORE DUP5 AND DUP2 DUP4 ADD MSTORE PUSH1 0x60 DUP2 ADD DUP10 SWAP1 MSTORE SWAP1 MLOAD CALLER SWAP2 DUP14 SWAP2 PUSH32 0xA220D14FC92DBBFEF0608A511FA6D244EB0B0165F5658140083E15B62AA9806C SWAP2 DUP2 SWAP1 SUB PUSH1 0x80 ADD SWAP1 LOG3 POP POP POP POP POP POP SWAP5 SWAP4 POP POP POP POP JUMP JUMPDEST PUSH1 0x3 SLOAD PUSH0 SWAP1 PUSH1 0x1 PUSH1 0x1 PUSH1 0xA0 SHL SUB AND CALLER EQ DUP1 PUSH2 0x88A JUMPI POP PUSH0 SLOAD PUSH1 0x1 PUSH1 0x1 PUSH1 0xA0 SHL SUB AND CALLER EQ JUMPDEST PUSH2 0x8C4 JUMPI PUSH1 0x40 MLOAD PUSH3 0x461BCD PUSH1 0xE5 SHL DUP2 MSTORE PUSH1 0x20 PUSH1 0x4 DUP3 ADD MSTORE PUSH1 0xB PUSH1 0x24 DUP3 ADD MSTORE PUSH11 0x27B7363C903937BABA32B9 PUSH1 0xA9 SHL PUSH1 0x44 DUP3 ADD MSTORE PUSH1 0x64 ADD PUSH2 0x3A9 JUMP JUMPDEST DUP4 DUP4 DUP4 PUSH1 0x40 MLOAD PUSH1 0x20 ADD PUSH2 0x8D9 SWAP4 SWAP3 SWAP2 SWAP1 PUSH2 0x1170 JUMP JUMPDEST PUSH1 0x40 DUP1 MLOAD DUP1 DUP4 SUB PUSH1 0x1F NOT ADD DUP2 MSTORE DUP3 DUP3 MSTORE DUP1 MLOAD PUSH1 0x20 SWAP2 DUP3 ADD KECCAK256 PUSH1 0xA0 DUP5 ADD DUP4 MSTORE PUSH1 0x1 PUSH1 0x1 PUSH1 0xA0 SHL SUB DUP8 DUP2 AND DUP6 MSTORE DUP7 DUP2 AND DUP4 DUP7 ADD SWAP1 DUP2 MSTORE PUSH0 DUP7 DUP7 ADD DUP2 DUP2 MSTORE PUSH1 0x60 DUP9 ADD DUP3 DUP2 MSTORE PUSH1 0x1 PUSH1 0x80 DUP11 ADD DUP2 DUP2 MSTORE DUP8 DUP6 MSTORE SWAP8 DUP2 SWAP1 MSTORE SWAP3 DUP9 SWAP1 KECCAK256 SWAP9 MLOAD DUP10 SLOAD PUSH1 0x1 PUSH1 0x1 PUSH1 0xA0 SHL SUB NOT SWAP1 DUP2 AND SWAP2 DUP8 AND SWAP2 SWAP1 SWAP2 OR DUP11 SSTORE SWAP4 MLOAD SWAP3 DUP10 ADD DUP1 SLOAD SWAP1 SWAP5 AND SWAP3 SWAP1 SWAP5 AND SWAP2 SWAP1 SWAP2 OR SWAP1 SWAP2 SSTORE MLOAD PUSH1 0x2 DUP1 DUP8 ADD SWAP2 SWAP1 SWAP2 SSTORE SWAP1 MLOAD PUSH1 0x3 DUP7 ADD SSTORE SWAP2 MLOAD PUSH1 0x4 SWAP1 SWAP5 ADD DUP1 SLOAD PUSH1 0xFF NOT AND SWAP5 ISZERO ISZERO SWAP5 SWAP1 SWAP5 OR SWAP1 SWAP4 SSTORE SWAP1 MLOAD SWAP2 SWAP3 POP DUP3 SWAP2 PUSH2 0x997 SWAP1 DUP8 SWAP1 PUSH2 0x10A8 JUMP JUMPDEST SWAP1 DUP2 MSTORE PUSH1 0x20 ADD PUSH1 0x40 MLOAD DUP1 SWAP2 SUB SWAP1 KECCAK256 DUP2 SWAP1 SSTORE POP DUP1 PUSH32 0x2182A91210858AEF55A999FB1AD46175904FC2C2D1D975A6216E8AB5E41B738F DUP6 DUP6 DUP6 PUSH1 0x40 MLOAD PUSH2 0x9DD SWAP4 SWAP3 SWAP2 SWAP1 PUSH2 0x11A8 JUMP JUMPDEST PUSH1 0x40 MLOAD DUP1 SWAP2 SUB SWAP1 LOG2 SWAP4 SWAP3 POP POP POP JUMP JUMPDEST PUSH2 0x9F4 PUSH2 0xE0C JUMP JUMPDEST PUSH2 0x9FD PUSH0 PUSH2 0xE38 JUMP JUMPDEST JUMP JUMPDEST PUSH1 0x3 SLOAD PUSH1 0x1 PUSH1 0x1 PUSH1 0xA0 SHL SUB AND CALLER EQ DUP1 PUSH2 0xA21 JUMPI POP PUSH0 SLOAD PUSH1 0x1 PUSH1 0x1 PUSH1 0xA0 SHL SUB AND CALLER EQ JUMPDEST PUSH2 0xA5B JUMPI PUSH1 0x40 MLOAD PUSH3 0x461BCD PUSH1 0xE5 SHL DUP2 MSTORE PUSH1 0x20 PUSH1 0x4 DUP3 ADD MSTORE PUSH1 0xB PUSH1 0x24 DUP3 ADD MSTORE PUSH11 0x27B7363C903937BABA32B9 PUSH1 0xA9 SHL PUSH1 0x44 DUP3 ADD MSTORE PUSH1 0x64 ADD PUSH2 0x3A9 JUMP JUMPDEST PUSH0 DUP4 DUP2 MSTORE PUSH1 0x1 PUSH1 0x20 MSTORE PUSH1 0x40 SWAP1 KECCAK256 PUSH1 0x4 DUP2 ADD SLOAD PUSH1 0xFF AND PUSH2 0xA8C JUMPI PUSH1 0x40 MLOAD PUSH3 0x461BCD PUSH1 0xE5 SHL DUP2 MSTORE PUSH1 0x4 ADD PUSH2 0x3A9 SWAP1 PUSH2 0x10B3 JUMP JUMPDEST DUP1 SLOAD PUSH1 0x40 MLOAD PUSH4 0x23B872DD PUSH1 0xE0 SHL DUP2 MSTORE CALLER PUSH1 0x4 DUP3 ADD MSTORE ADDRESS PUSH1 0x24 DUP3 ADD MSTORE PUSH1 0x44 DUP2 ADD DUP6 SWAP1 MSTORE PUSH1 0x1 PUSH1 0x1 PUSH1 0xA0 SHL SUB SWAP1 SWAP2 AND SWAP1 PUSH4 0x23B872DD SWAP1 PUSH1 0x64 ADD PUSH1 0x20 PUSH1 0x40 MLOAD DUP1 DUP4 SUB DUP2 PUSH0 DUP8 GAS CALL ISZERO DUP1 ISZERO PUSH2 0xADF JUMPI RETURNDATASIZE PUSH0 PUSH0 RETURNDATACOPY RETURNDATASIZE PUSH0 REVERT JUMPDEST POP POP POP POP PUSH1 0x40 MLOAD RETURNDATASIZE PUSH1 0x1F NOT PUSH1 0x1F DUP3 ADD AND DUP3 ADD DUP1 PUSH1 0x40 MSTORE POP DUP2 ADD SWAP1 PUSH2 0xB03 SWAP2 SWAP1 PUSH2 0x1151 JUMP JUMPDEST POP PUSH1 0x1 DUP2 ADD SLOAD PUSH1 0x40 MLOAD PUSH4 0x23B872DD PUSH1 0xE0 SHL DUP2 MSTORE CALLER PUSH1 0x4 DUP3 ADD MSTORE ADDRESS PUSH1 0x24 DUP3 ADD MSTORE PUSH1 0x44 DUP2 ADD DUP5 SWAP1 MSTORE PUSH1 0x1 PUSH1 0x1 PUSH1 0xA0 SHL SUB SWAP1 SWAP2 AND SWAP1 PUSH4 0x23B872DD SWAP1 PUSH1 0x64 ADD PUSH1 0x20 PUSH1 0x40 MLOAD DUP1 DUP4 SUB DUP2 PUSH0 DUP8 GAS CALL ISZERO DUP1 ISZERO PUSH2 0xB5A JUMPI RETURNDATASIZE PUSH0 PUSH0 RETURNDATACOPY RETURNDATASIZE PUSH0 REVERT JUMPDEST POP POP POP POP PUSH1 0x40 MLOAD RETURNDATASIZE PUSH1 0x1F NOT PUSH1 0x1F DUP3 ADD AND DUP3 ADD DUP1 PUSH1 0x40 MSTORE POP DUP2 ADD SWAP1 PUSH2 0xB7E SWAP2 SWAP1 PUSH2 0x1151 JUMP JUMPDEST POP DUP3 DUP2 PUSH1 0x2 ADD PUSH0 DUP3 DUP3 SLOAD PUSH2 0xB92 SWAP2 SWAP1 PUSH2 0x10EF JUMP JUMPDEST SWAP3 POP POP DUP2 SWAP1 SSTORE POP DUP2 DUP2 PUSH1 0x3 ADD PUSH0 DUP3 DUP3 SLOAD PUSH2 0xBAC SWAP2 SWAP1 PUSH2 0x10EF JUMP JUMPDEST SWAP1 SWAP2 SSTORE POP POP PUSH1 0x40 DUP1 MLOAD DUP5 DUP2 MSTORE PUSH1 0x20 DUP2 ADD DUP5 SWAP1 MSTORE DUP6 SWAP2 PUSH32 0x61CEFD3F50B7B55C00BC944F88D509EE073A1A41FC5E9DB40EA870C431E658F4 SWAP2 ADD PUSH1 0x40 MLOAD DUP1 SWAP2 SUB SWAP1 LOG2 POP POP POP POP JUMP JUMPDEST PUSH0 DUP4 DUP2 MSTORE PUSH1 0x1 PUSH1 0x20 MSTORE PUSH1 0x40 DUP2 KECCAK256 PUSH1 0x4 DUP2 ADD SLOAD PUSH1 0xFF AND PUSH2 0xC23 JUMPI PUSH1 0x40 MLOAD PUSH3 0x461BCD PUSH1 0xE5 SHL DUP2 MSTORE PUSH1 0x4 ADD PUSH2 0x3A9 SWAP1 PUSH2 0x10B3 JUMP JUMPDEST DUP1 SLOAD PUSH1 0x1 PUSH1 0x1 PUSH1 0xA0 SHL SUB DUP6 DUP2 AND SWAP2 AND EQ PUSH0 DUP2 PUSH2 0xC43 JUMPI DUP3 PUSH1 0x3 ADD SLOAD PUSH2 0xC49 JUMP JUMPDEST DUP3 PUSH1 0x2 ADD SLOAD JUMPDEST SWAP1 POP PUSH0 DUP3 PUSH2 0xC5B JUMPI DUP4 PUSH1 0x2 ADD SLOAD PUSH2 0xC61 JUMP JUMPDEST DUP4 PUSH1 0x3 ADD SLOAD JUMPDEST SWAP1 POP PUSH0 PUSH2 0xC71 PUSH1 0x1E PUSH2 0x2710 PUSH2 0x113E JUMP JUMPDEST PUSH2 0xC7B SWAP1 DUP9 PUSH2 0x1108 JUMP JUMPDEST SWAP1 POP DUP1 PUSH2 0xC8A PUSH2 0x2710 DUP6 PUSH2 0x1108 JUMP JUMPDEST PUSH2 0xC94 SWAP2 SWAP1 PUSH2 0x10EF JUMP JUMPDEST PUSH2 0xC9E DUP4 DUP4 PUSH2 0x1108 JUMP JUMPDEST PUSH2 0xCA8 SWAP2 SWAP1 PUSH2 0x111F JUMP JUMPDEST SWAP10 SWAP9 POP POP POP POP POP POP POP POP POP JUMP JUMPDEST PUSH2 0xCBD PUSH2 0xE0C JUMP JUMPDEST PUSH1 0x1 PUSH1 0x1 PUSH1 0xA0 SHL SUB DUP2 AND PUSH2 0xD04 JUMPI PUSH1 0x40 MLOAD PUSH3 0x461BCD PUSH1 0xE5 SHL DUP2 MSTORE PUSH1 0x20 PUSH1 0x4 DUP3 ADD MSTORE PUSH1 0xE PUSH1 0x24 DUP3 ADD MSTORE PUSH14 0x24B73B30B634B2103937BABA32B9 PUSH1 0x91 SHL PUSH1 0x44 DUP3 ADD MSTORE PUSH1 0x64 ADD PUSH2 0x3A9 JUMP JUMPDEST PUSH1 0x3 DUP1 SLOAD PUSH1 0x1 PUSH1 0x1 PUSH1 0xA0 SHL SUB NOT AND PUSH1 0x1 PUSH1 0x1 PUSH1 0xA0 SHL SUB SWAP3 SWAP1 SWAP3 AND SWAP2 SWAP1 SWAP2 OR SWAP1 SSTORE JUMP JUMPDEST PUSH1 0x40 DUP1 MLOAD PUSH1 0xA0 DUP2 ADD DUP3 MSTORE PUSH0 DUP1 DUP3 MSTORE PUSH1 0x20 DUP3 ADD DUP2 SWAP1 MSTORE SWAP2 DUP2 ADD DUP3 SWAP1 MSTORE PUSH1 0x60 DUP2 ADD DUP3 SWAP1 MSTORE PUSH1 0x80 DUP2 ADD SWAP2 SWAP1 SWAP2 MSTORE PUSH0 PUSH1 0x2 DUP4 PUSH1 0x40 MLOAD PUSH2 0xD61 SWAP2 SWAP1 PUSH2 0x10A8 JUMP JUMPDEST SWAP1 DUP2 MSTORE PUSH1 0x40 DUP1 MLOAD SWAP2 DUP3 SWAP1 SUB PUSH1 0x20 SWAP1 DUP2 ADD DUP4 KECCAK256 SLOAD PUSH0 SWAP1 DUP2 MSTORE PUSH1 0x1 DUP1 DUP4 MSTORE SWAP1 DUP4 SWAP1 KECCAK256 PUSH1 0xA0 DUP6 ADD DUP5 MSTORE DUP1 SLOAD PUSH1 0x1 PUSH1 0x1 PUSH1 0xA0 SHL SUB SWAP1 DUP2 AND DUP7 MSTORE SWAP2 DUP2 ADD SLOAD SWAP1 SWAP2 AND SWAP2 DUP5 ADD SWAP2 SWAP1 SWAP2 MSTORE PUSH1 0x2 DUP2 ADD SLOAD SWAP2 DUP4 ADD SWAP2 SWAP1 SWAP2 MSTORE PUSH1 0x3 DUP2 ADD SLOAD PUSH1 0x60 DUP4 ADD MSTORE PUSH1 0x4 ADD SLOAD PUSH1 0xFF AND ISZERO ISZERO PUSH1 0x80 DUP3 ADD MSTORE SWAP4 SWAP3 POP POP POP JUMP JUMPDEST PUSH2 0xDD7 PUSH2 0xE0C JUMP JUMPDEST PUSH1 0x1 PUSH1 0x1 PUSH1 0xA0 SHL SUB DUP2 AND PUSH2 0xE00 JUMPI PUSH1 0x40 MLOAD PUSH4 0x1E4FBDF7 PUSH1 0xE0 SHL DUP2 MSTORE PUSH0 PUSH1 0x4 DUP3 ADD MSTORE PUSH1 0x24 ADD PUSH2 0x3A9 JUMP JUMPDEST PUSH2 0xE09 DUP2 PUSH2 0xE38 JUMP JUMPDEST POP JUMP JUMPDEST PUSH0 SLOAD PUSH1 0x1 PUSH1 0x1 PUSH1 0xA0 SHL SUB AND CALLER EQ PUSH2 0x9FD JUMPI PUSH1 0x40 MLOAD PUSH4 0x118CDAA7 PUSH1 0xE0 SHL DUP2 MSTORE CALLER PUSH1 0x4 DUP3 ADD MSTORE PUSH1 0x24 ADD PUSH2 0x3A9 JUMP JUMPDEST PUSH0 DUP1 SLOAD PUSH1 0x1 PUSH1 0x1 PUSH1 0xA0 SHL SUB DUP4 DUP2 AND PUSH1 0x1 PUSH1 0x1 PUSH1 0xA0 SHL SUB NOT DUP4 AND DUP2 OR DUP5 SSTORE PUSH1 0x40 MLOAD SWAP2 SWAP1 SWAP3 AND SWAP3 DUP4 SWAP2 PUSH32 0x8BE0079C531659141344CD1FD0A4F28419497F9722A3DAAFE3B4186F6B6457E0 SWAP2 SWAP1 LOG3 POP POP JUMP JUMPDEST PUSH4 0x4E487B71 PUSH1 0xE0 SHL PUSH0 MSTORE PUSH1 0x41 PUSH1 0x4 MSTORE PUSH1 0x24 PUSH0 REVERT JUMPDEST PUSH0 DUP3 PUSH1 0x1F DUP4 ADD SLT PUSH2 0xEAA JUMPI PUSH0 PUSH0 REVERT JUMPDEST DUP2 CALLDATALOAD PUSH8 0xFFFFFFFFFFFFFFFF DUP2 GT ISZERO PUSH2 0xEC4 JUMPI PUSH2 0xEC4 PUSH2 0xE87 JUMP JUMPDEST PUSH1 0x40 MLOAD PUSH1 0x1F DUP3 ADD PUSH1 0x1F NOT SWAP1 DUP2 AND PUSH1 0x3F ADD AND DUP2 ADD PUSH8 0xFFFFFFFFFFFFFFFF DUP2 GT DUP3 DUP3 LT OR ISZERO PUSH2 0xEF3 JUMPI PUSH2 0xEF3 PUSH2 0xE87 JUMP JUMPDEST PUSH1 0x40 MSTORE DUP2 DUP2 MSTORE DUP4 DUP3 ADD PUSH1 0x20 ADD DUP6 LT ISZERO PUSH2 0xF0A JUMPI PUSH0 PUSH0 REVERT JUMPDEST DUP2 PUSH1 0x20 DUP6 ADD PUSH1 0x20 DUP4 ADD CALLDATACOPY PUSH0 SWAP2 DUP2 ADD PUSH1 0x20 ADD SWAP2 SWAP1 SWAP2 MSTORE SWAP4 SWAP3 POP POP POP JUMP JUMPDEST PUSH0 PUSH1 0x20 DUP3 DUP5 SUB SLT ISZERO PUSH2 0xF36 JUMPI PUSH0 PUSH0 REVERT JUMPDEST DUP2 CALLDATALOAD PUSH8 0xFFFFFFFFFFFFFFFF DUP2 GT ISZERO PUSH2 0xF4C JUMPI PUSH0 PUSH0 REVERT JUMPDEST PUSH2 0x438 DUP5 DUP3 DUP6 ADD PUSH2 0xE9B JUMP JUMPDEST PUSH0 PUSH1 0x20 DUP3 DUP5 SUB SLT ISZERO PUSH2 0xF68 JUMPI PUSH0 PUSH0 REVERT JUMPDEST POP CALLDATALOAD SWAP2 SWAP1 POP JUMP JUMPDEST DUP1 CALLDATALOAD PUSH1 0x1 PUSH1 0x1 PUSH1 0xA0 SHL SUB DUP2 AND DUP2 EQ PUSH2 0xF85 JUMPI PUSH0 PUSH0 REVERT JUMPDEST SWAP2 SWAP1 POP JUMP JUMPDEST PUSH0 PUSH0 PUSH0 PUSH0 PUSH1 0x80 DUP6 DUP8 SUB SLT ISZERO PUSH2 0xF9D JUMPI PUSH0 PUSH0 REVERT JUMPDEST DUP5 CALLDATALOAD SWAP4 POP PUSH2 0xFAD PUSH1 0x20 DUP7 ADD PUSH2 0xF6F JUMP JUMPDEST SWAP4 SWAP7 SWAP4 SWAP6 POP POP POP POP PUSH1 0x40 DUP3 ADD CALLDATALOAD SWAP2 PUSH1 0x60 ADD CALLDATALOAD SWAP1 JUMP JUMPDEST PUSH0 PUSH0 PUSH0 PUSH1 0x60 DUP5 DUP7 SUB SLT ISZERO PUSH2 0xFD4 JUMPI PUSH0 PUSH0 REVERT JUMPDEST DUP4 CALLDATALOAD PUSH8 0xFFFFFFFFFFFFFFFF DUP2 GT ISZERO PUSH2 0xFEA JUMPI PUSH0 PUSH0 REVERT JUMPDEST PUSH2 0xFF6 DUP7 DUP3 DUP8 ADD PUSH2 0xE9B JUMP JUMPDEST SWAP4 POP POP PUSH2 0x1005 PUSH1 0x20 DUP6 ADD PUSH2 0xF6F JUMP JUMPDEST SWAP2 POP PUSH2 0x1013 PUSH1 0x40 DUP6 ADD PUSH2 0xF6F JUMP JUMPDEST SWAP1 POP SWAP3 POP SWAP3 POP SWAP3 JUMP JUMPDEST PUSH0 PUSH0 PUSH0 PUSH1 0x60 DUP5 DUP7 SUB SLT ISZERO PUSH2 0x102E JUMPI PUSH0 PUSH0 REVERT JUMPDEST POP POP DUP2 CALLDATALOAD SWAP4 PUSH1 0x20 DUP4 ADD CALLDATALOAD SWAP4 POP PUSH1 0x40 SWAP1 SWAP3 ADD CALLDATALOAD SWAP2 SWAP1 POP JUMP JUMPDEST PUSH0 PUSH0 PUSH0 PUSH1 0x60 DUP5 DUP7 SUB SLT ISZERO PUSH2 0x1057 JUMPI PUSH0 PUSH0 REVERT JUMPDEST DUP4 CALLDATALOAD SWAP3 POP PUSH2 0x1067 PUSH1 0x20 DUP6 ADD PUSH2 0xF6F JUMP JUMPDEST SWAP3 SWAP6 SWAP3 SWAP5 POP POP POP PUSH1 0x40 SWAP2 SWAP1 SWAP2 ADD CALLDATALOAD SWAP1 JUMP JUMPDEST PUSH0 PUSH1 0x20 DUP3 DUP5 SUB SLT ISZERO PUSH2 0x1088 JUMPI PUSH0 PUSH0 REVERT JUMPDEST PUSH2 0x4D9 DUP3 PUSH2 0xF6F JUMP JUMPDEST PUSH0 DUP2 MLOAD DUP1 PUSH1 0x20 DUP5 ADD DUP6 MCOPY PUSH0 SWAP4 ADD SWAP3 DUP4 MSTORE POP SWAP1 SWAP2 SWAP1 POP JUMP JUMPDEST PUSH0 PUSH2 0x4D9 DUP3 DUP5 PUSH2 0x1091 JUMP JUMPDEST PUSH1 0x20 DUP1 DUP3 MSTORE PUSH1 0xE SWAP1 DUP3 ADD MSTORE PUSH14 0x141BDBDB081B9BDD08199BDD5B99 PUSH1 0x92 SHL PUSH1 0x40 DUP3 ADD MSTORE PUSH1 0x60 ADD SWAP1 JUMP JUMPDEST PUSH4 0x4E487B71 PUSH1 0xE0 SHL PUSH0 MSTORE PUSH1 0x11 PUSH1 0x4 MSTORE PUSH1 0x24 PUSH0 REVERT JUMPDEST DUP1 DUP3 ADD DUP1 DUP3 GT ISZERO PUSH2 0x1102 JUMPI PUSH2 0x1102 PUSH2 0x10DB JUMP JUMPDEST SWAP3 SWAP2 POP POP JUMP JUMPDEST DUP1 DUP3 MUL DUP2 ISZERO DUP3 DUP3 DIV DUP5 EQ OR PUSH2 0x1102 JUMPI PUSH2 0x1102 PUSH2 0x10DB JUMP JUMPDEST PUSH0 DUP3 PUSH2 0x1139 JUMPI PUSH4 0x4E487B71 PUSH1 0xE0 SHL PUSH0 MSTORE PUSH1 0x12 PUSH1 0x4 MSTORE PUSH1 0x24 PUSH0 REVERT JUMPDEST POP DIV SWAP1 JUMP JUMPDEST DUP2 DUP2 SUB DUP2 DUP2 GT ISZERO PUSH2 0x1102 JUMPI PUSH2 0x1102 PUSH2 0x10DB JUMP JUMPDEST PUSH0 PUSH1 0x20 DUP3 DUP5 SUB SLT ISZERO PUSH2 0x1161 JUMPI PUSH0 PUSH0 REVERT JUMPDEST DUP2 MLOAD DUP1 ISZERO ISZERO DUP2 EQ PUSH2 0x4D9 JUMPI PUSH0 PUSH0 REVERT JUMPDEST PUSH0 PUSH2 0x117B DUP3 DUP7 PUSH2 0x1091 JUMP JUMPDEST PUSH12 0xFFFFFFFFFFFFFFFFFFFFFFFF NOT PUSH1 0x60 SWAP6 DUP7 SHL DUP2 AND DUP3 MSTORE SWAP4 SWAP1 SWAP5 SHL SWAP1 SWAP3 AND PUSH1 0x14 DUP5 ADD MSTORE POP POP PUSH1 0x28 ADD SWAP2 SWAP1 POP JUMP JUMPDEST PUSH1 0x60 DUP2 MSTORE PUSH0 DUP5 MLOAD DUP1 PUSH1 0x60 DUP5 ADD MSTORE DUP1 PUSH1 0x20 DUP8 ADD PUSH1 0x80 DUP6 ADD MCOPY PUSH0 PUSH1 0x80 DUP3 DUP6 ADD DUP2 ADD SWAP2 SWAP1 SWAP2 MSTORE PUSH1 0x1 PUSH1 0x1 PUSH1 0xA0 SHL SUB SWAP6 DUP7 AND PUSH1 0x20 DUP6 ADD MSTORE SWAP4 SWAP1 SWAP5 AND PUSH1 0x40 DUP4 ADD MSTORE POP PUSH1 0x1F SWAP1 SWAP3 ADD PUSH1 0x1F NOT AND SWAP1 SWAP2 ADD ADD SWAP2 SWAP1 POP JUMP INVALID LOG2 PUSH5 0x6970667358 0x22 SLT KECCAK256 SWAP9 0xB8 SWAP4 PUSH27 0xEA07BC01829543080A8D3FA09E0D0D08614E2747ABAF4AB235E68C 0xC1 PUSH5 0x736F6C6343 STOP ADDMOD 0x1F STOP CALLER "
		},
		"gasEstimates": {
			"creation": {
				"codeDepositCost": "1925400",
				"executionCost": "infinite",
				"totalCost": "infinite"
			},
			"external": {
				"amm()": "2426",
				"backendSigner()": "2425",
				"createProposal(string,string,string,string,string,uint256,uint256)": "infinite",
				"currentRound()": "2372",
				"factory()": "2424",
				"getDeployedContracts()": "8740",
				"getGraduatedProposals()": "infinite",
				"getPoolReserves(string)": "infinite",
				"getProposalStatus(string)": "infinite",
				"getRoundInfo()": "infinite",
				"getSwapQuote(string,address,uint256)": "infinite",
				"getVUSDCBalance(address)": "infinite",
				"getYESBalance(string,address)": "infinite",
				"getYESPrice(string)": "infinite",
				"getYesTokenAddress(string)": "infinite",
				"graduateProposal(string,uint256)": "infinite",
				"initializeMarket(uint256)": "infinite",
				"initializeMarketWithProposals(uint256,(string,string,string,string,string,uint256,uint256)[])": "infinite",
				"isMarketActive()": "2376",
				"owner()": "2374",
				"proposalToPoolId(string)": "infinite",
				"proposalToYesToken(string)": "infinite",
				"registerAgent(address)": "infinite",
				"registry()": "2426",
				"renounceOwnership()": "infinite",
				"swap(string,address,uint256,uint256)": "infinite",
				"transferOwnership(address)": "infinite",
				"userFaucet()": "infinite",
				"vUSDCToken()": "2427"
			},
			"internal": {
				"_createProposalInternal(struct VerdictPredictionMarketRouter.ProposalInput memory)": "infinite"
			}
		},
		"methodIdentifiers": {
			"amm()": "2a943945",
			"backendSigner()": "65d65e86",
			"createProposal(string,string,string,string,string,uint256,uint256)": "2cb35980",
			"currentRound()": "8a19c8bc",
			"factory()": "c45a0155",
			"getDeployedContracts()": "aa9a068f",
			"getGraduatedProposals()": "45ee99a9",
			"getPoolReserves(string)": "92893e0f",
			"getProposalStatus(string)": "b56e725c",
			"getRoundInfo()": "84bc76a6",
			"getSwapQuote(string,address,uint256)": "8b10890b",
			"getVUSDCBalance(address)": "1298f3b9",
			"getYESBalance(string,address)": "1b745534",
			"getYESPrice(string)": "26589107",
			"getYesTokenAddress(string)": "9a6b9cbb",
			"graduateProposal(string,uint256)": "00c88c06",
			"initializeMarket(uint256)": "4e1f3a00",
			"initializeMarketWithProposals(uint256,(string,string,string,string,string,uint256,uint256)[])": "8e0dac69",
			"isMarketActive()": "613ace16",
			"owner()": "8da5cb5b",
			"proposalToPoolId(string)": "4054633d",
			"proposalToYesToken(string)": "88abb85f",
			"registerAgent(address)": "306b9bb9",
			"registry()": "7b103999",
			"renounceOwnership()": "715018a6",
			"swap(string,address,uint256,uint256)": "76dddf9f",
			"transferOwnership(address)": "f2fde38b",
			"userFaucet()": "6c1cf037",
			"vUSDCToken()": "157e4c08"
		}
	},
	"abi": [
		{
			"inputs": [
				{
					"internalType": "address",
					"name": "_backendSigner",
					"type": "address"
				}
			],
			"stateMutability": "nonpayable",
			"type": "constructor"
		},
		{
			"inputs": [],
			"name": "MarketInactive",
			"type": "error"
		},
		{
			"inputs": [],
			"name": "OnlyBackend",
			"type": "error"
		},
		{
			"inputs": [
				{
					"internalType": "address",
					"name": "owner",
					"type": "address"
				}
			],
			"name": "OwnableInvalidOwner",
			"type": "error"
		},
		{
			"inputs": [
				{
					"internalType": "address",
					"name": "account",
					"type": "address"
				}
			],
			"name": "OwnableUnauthorizedAccount",
			"type": "error"
		},
		{
			"anonymous": false,
			"inputs": [
				{
					"indexed": false,
					"internalType": "address",
					"name": "agent",
					"type": "address"
				},
				{
					"indexed": false,
					"internalType": "uint256",
					"name": "balance",
					"type": "uint256"
				}
			],
			"name": "AgentRegistered",
			"type": "event"
		},
		{
			"anonymous": false,
			"inputs": [
				{
					"indexed": false,
					"internalType": "address",
					"name": "vUSDC",
					"type": "address"
				},
				{
					"indexed": false,
					"internalType": "address",
					"name": "registry",
					"type": "address"
				},
				{
					"indexed": false,
					"internalType": "address",
					"name": "factory",
					"type": "address"
				},
				{
					"indexed": false,
					"internalType": "address",
					"name": "amm",
					"type": "address"
				}
			],
			"name": "ContractsDeployed",
			"type": "event"
		},
		{
			"anonymous": false,
			"inputs": [
				{
					"indexed": false,
					"internalType": "uint256",
					"name": "round",
					"type": "uint256"
				},
				{
					"indexed": false,
					"internalType": "uint256",
					"name": "endTime",
					"type": "uint256"
				}
			],
			"name": "MarketStarted",
			"type": "event"
		},
		{
			"anonymous": false,
			"inputs": [
				{
					"indexed": true,
					"internalType": "address",
					"name": "previousOwner",
					"type": "address"
				},
				{
					"indexed": true,
					"internalType": "address",
					"name": "newOwner",
					"type": "address"
				}
			],
			"name": "OwnershipTransferred",
			"type": "event"
		},
		{
			"anonymous": false,
			"inputs": [
				{
					"indexed": false,
					"internalType": "string",
					"name": "id",
					"type": "string"
				},
				{
					"indexed": false,
					"internalType": "address",
					"name": "yesToken",
					"type": "address"
				},
				{
					"indexed": false,
					"internalType": "bytes32",
					"name": "poolId",
					"type": "bytes32"
				}
			],
			"name": "ProposalLaunched",
			"type": "event"
		},
		{
			"anonymous": false,
			"inputs": [
				{
					"indexed": false,
					"internalType": "string",
					"name": "id",
					"type": "string"
				},
				{
					"indexed": false,
					"internalType": "uint256",
					"name": "finalPrice",
					"type": "uint256"
				}
			],
			"name": "WinnerGraduated",
			"type": "event"
		},
		{
			"inputs": [],
			"name": "amm",
			"outputs": [
				{
					"internalType": "contract VerdictSimpleAMM",
					"name": "",
					"type": "address"
				}
			],
			"stateMutability": "view",
			"type": "function"
		},
		{
			"inputs": [],
			"name": "backendSigner",
			"outputs": [
				{
					"internalType": "address",
					"name": "",
					"type": "address"
				}
			],
			"stateMutability": "view",
			"type": "function"
		},
		{
			"inputs": [
				{
					"internalType": "string",
					"name": "proposalId",
					"type": "string"
				},
				{
					"internalType": "string",
					"name": "name",
					"type": "string"
				},
				{
					"internalType": "string",
					"name": "description",
					"type": "string"
				},
				{
					"internalType": "string",
					"name": "evalLogic",
					"type": "string"
				},
				{
					"internalType": "string",
					"name": "mathLogic",
					"type": "string"
				},
				{
					"internalType": "uint256",
					"name": "resolutionDeadline",
					"type": "uint256"
				},
				{
					"internalType": "uint256",
					"name": "initialLiquidity",
					"type": "uint256"
				}
			],
			"name": "createProposal",
			"outputs": [],
			"stateMutability": "nonpayable",
			"type": "function"
		},
		{
			"inputs": [],
			"name": "currentRound",
			"outputs": [
				{
					"internalType": "uint256",
					"name": "",
					"type": "uint256"
				}
			],
			"stateMutability": "view",
			"type": "function"
		},
		{
			"inputs": [],
			"name": "factory",
			"outputs": [
				{
					"internalType": "contract VerdictYESTokenDeployerFactory",
					"name": "",
					"type": "address"
				}
			],
			"stateMutability": "view",
			"type": "function"
		},
		{
			"inputs": [],
			"name": "getDeployedContracts",
			"outputs": [
				{
					"internalType": "address",
					"name": "_vUSDC",
					"type": "address"
				},
				{
					"internalType": "address",
					"name": "_registry",
					"type": "address"
				},
				{
					"internalType": "address",
					"name": "_factory",
					"type": "address"
				},
				{
					"internalType": "address",
					"name": "_amm",
					"type": "address"
				}
			],
			"stateMutability": "view",
			"type": "function"
		},
		{
			"inputs": [],
			"name": "getGraduatedProposals",
			"outputs": [
				{
					"internalType": "string[]",
					"name": "",
					"type": "string[]"
				}
			],
			"stateMutability": "view",
			"type": "function"
		},
		{
			"inputs": [
				{
					"internalType": "string",
					"name": "proposalId",
					"type": "string"
				}
			],
			"name": "getPoolReserves",
			"outputs": [
				{
					"internalType": "uint256",
					"name": "vUSDCReserve",
					"type": "uint256"
				},
				{
					"internalType": "uint256",
					"name": "yesReserve",
					"type": "uint256"
				}
			],
			"stateMutability": "view",
			"type": "function"
		},
		{
			"inputs": [
				{
					"internalType": "string",
					"name": "id",
					"type": "string"
				}
			],
			"name": "getProposalStatus",
			"outputs": [
				{
					"components": [
						{
							"internalType": "string",
							"name": "id",
							"type": "string"
						},
						{
							"internalType": "string",
							"name": "name",
							"type": "string"
						},
						{
							"internalType": "string",
							"name": "description",
							"type": "string"
						},
						{
							"internalType": "string",
							"name": "evaluationLogic",
							"type": "string"
						},
						{
							"internalType": "string",
							"name": "mathematicalLogic",
							"type": "string"
						},
						{
							"internalType": "uint256",
							"name": "resolutionDeadline",
							"type": "uint256"
						},
						{
							"internalType": "address",
							"name": "poolAddress",
							"type": "address"
						},
						{
							"internalType": "bool",
							"name": "resolved",
							"type": "bool"
						},
						{
							"internalType": "bool",
							"name": "isWinner",
							"type": "bool"
						},
						{
							"internalType": "uint256",
							"name": "yesTWAP",
							"type": "uint256"
						},
						{
							"internalType": "uint256",
							"name": "timestamp",
							"type": "uint256"
						}
					],
					"internalType": "struct VerdictProposalRegistryStorage.Proposal",
					"name": "",
					"type": "tuple"
				}
			],
			"stateMutability": "view",
			"type": "function"
		},
		{
			"inputs": [],
			"name": "getRoundInfo",
			"outputs": [
				{
					"components": [
						{
							"internalType": "uint256",
							"name": "roundNumber",
							"type": "uint256"
						},
						{
							"internalType": "uint256",
							"name": "roundStartTime",
							"type": "uint256"
						},
						{
							"internalType": "uint256",
							"name": "roundEndTime",
							"type": "uint256"
						},
						{
							"internalType": "uint256",
							"name": "roundDuration",
							"type": "uint256"
						},
						{
							"internalType": "string[]",
							"name": "proposalIds",
							"type": "string[]"
						},
						{
							"internalType": "bool",
							"name": "active",
							"type": "bool"
						}
					],
					"internalType": "struct VerdictProposalRegistryStorage.Market",
					"name": "",
					"type": "tuple"
				}
			],
			"stateMutability": "view",
			"type": "function"
		},
		{
			"inputs": [
				{
					"internalType": "string",
					"name": "proposalId",
					"type": "string"
				},
				{
					"internalType": "address",
					"name": "tokenIn",
					"type": "address"
				},
				{
					"internalType": "uint256",
					"name": "amountIn",
					"type": "uint256"
				}
			],
			"name": "getSwapQuote",
			"outputs": [
				{
					"internalType": "uint256",
					"name": "",
					"type": "uint256"
				}
			],
			"stateMutability": "view",
			"type": "function"
		},
		{
			"inputs": [
				{
					"internalType": "address",
					"name": "user",
					"type": "address"
				}
			],
			"name": "getVUSDCBalance",
			"outputs": [
				{
					"internalType": "uint256",
					"name": "",
					"type": "uint256"
				}
			],
			"stateMutability": "view",
			"type": "function"
		},
		{
			"inputs": [
				{
					"internalType": "string",
					"name": "proposalId",
					"type": "string"
				},
				{
					"internalType": "address",
					"name": "user",
					"type": "address"
				}
			],
			"name": "getYESBalance",
			"outputs": [
				{
					"internalType": "uint256",
					"name": "",
					"type": "uint256"
				}
			],
			"stateMutability": "view",
			"type": "function"
		},
		{
			"inputs": [
				{
					"internalType": "string",
					"name": "proposalId",
					"type": "string"
				}
			],
			"name": "getYESPrice",
			"outputs": [
				{
					"internalType": "uint256",
					"name": "",
					"type": "uint256"
				}
			],
			"stateMutability": "view",
			"type": "function"
		},
		{
			"inputs": [
				{
					"internalType": "string",
					"name": "proposalId",
					"type": "string"
				}
			],
			"name": "getYesTokenAddress",
			"outputs": [
				{
					"internalType": "address",
					"name": "",
					"type": "address"
				}
			],
			"stateMutability": "view",
			"type": "function"
		},
		{
			"inputs": [
				{
					"internalType": "string",
					"name": "proposalId",
					"type": "string"
				},
				{
					"internalType": "uint256",
					"name": "finalPrice",
					"type": "uint256"
				}
			],
			"name": "graduateProposal",
			"outputs": [],
			"stateMutability": "nonpayable",
			"type": "function"
		},
		{
			"inputs": [
				{
					"internalType": "uint256",
					"name": "duration",
					"type": "uint256"
				}
			],
			"name": "initializeMarket",
			"outputs": [],
			"stateMutability": "nonpayable",
			"type": "function"
		},
		{
			"inputs": [
				{
					"internalType": "uint256",
					"name": "duration",
					"type": "uint256"
				},
				{
					"components": [
						{
							"internalType": "string",
							"name": "id",
							"type": "string"
						},
						{
							"internalType": "string",
							"name": "name",
							"type": "string"
						},
						{
							"internalType": "string",
							"name": "description",
							"type": "string"
						},
						{
							"internalType": "string",
							"name": "evalLogic",
							"type": "string"
						},
						{
							"internalType": "string",
							"name": "mathLogic",
							"type": "string"
						},
						{
							"internalType": "uint256",
							"name": "resolutionDeadline",
							"type": "uint256"
						},
						{
							"internalType": "uint256",
							"name": "initialLiquidity",
							"type": "uint256"
						}
					],
					"internalType": "struct VerdictPredictionMarketRouter.ProposalInput[]",
					"name": "proposalsToCreate",
					"type": "tuple[]"
				}
			],
			"name": "initializeMarketWithProposals",
			"outputs": [],
			"stateMutability": "nonpayable",
			"type": "function"
		},
		{
			"inputs": [],
			"name": "isMarketActive",
			"outputs": [
				{
					"internalType": "bool",
					"name": "",
					"type": "bool"
				}
			],
			"stateMutability": "view",
			"type": "function"
		},
		{
			"inputs": [],
			"name": "owner",
			"outputs": [
				{
					"internalType": "address",
					"name": "",
					"type": "address"
				}
			],
			"stateMutability": "view",
			"type": "function"
		},
		{
			"inputs": [
				{
					"internalType": "string",
					"name": "",
					"type": "string"
				}
			],
			"name": "proposalToPoolId",
			"outputs": [
				{
					"internalType": "bytes32",
					"name": "",
					"type": "bytes32"
				}
			],
			"stateMutability": "view",
			"type": "function"
		},
		{
			"inputs": [
				{
					"internalType": "string",
					"name": "",
					"type": "string"
				}
			],
			"name": "proposalToYesToken",
			"outputs": [
				{
					"internalType": "address",
					"name": "",
					"type": "address"
				}
			],
			"stateMutability": "view",
			"type": "function"
		},
		{
			"inputs": [
				{
					"internalType": "address",
					"name": "agent",
					"type": "address"
				}
			],
			"name": "registerAgent",
			"outputs": [],
			"stateMutability": "nonpayable",
			"type": "function"
		},
		{
			"inputs": [],
			"name": "registry",
			"outputs": [
				{
					"internalType": "contract VerdictProposalRegistryStorage",
					"name": "",
					"type": "address"
				}
			],
			"stateMutability": "view",
			"type": "function"
		},
		{
			"inputs": [],
			"name": "renounceOwnership",
			"outputs": [],
			"stateMutability": "nonpayable",
			"type": "function"
		},
		{
			"inputs": [
				{
					"internalType": "string",
					"name": "proposalId",
					"type": "string"
				},
				{
					"internalType": "address",
					"name": "tokenIn",
					"type": "address"
				},
				{
					"internalType": "uint256",
					"name": "amountIn",
					"type": "uint256"
				},
				{
					"internalType": "uint256",
					"name": "minAmountOut",
					"type": "uint256"
				}
			],
			"name": "swap",
			"outputs": [
				{
					"internalType": "uint256",
					"name": "amountOut",
					"type": "uint256"
				}
			],
			"stateMutability": "nonpayable",
			"type": "function"
		},
		{
			"inputs": [
				{
					"internalType": "address",
					"name": "newOwner",
					"type": "address"
				}
			],
			"name": "transferOwnership",
			"outputs": [],
			"stateMutability": "nonpayable",
			"type": "function"
		},
		{
			"inputs": [],
			"name": "userFaucet",
			"outputs": [],
			"stateMutability": "nonpayable",
			"type": "function"
		},
		{
			"inputs": [],
			"name": "vUSDCToken",
			"outputs": [
				{
					"internalType": "contract VerdictVirtualUSDCToken",
					"name": "",
					"type": "address"
				}
			],
			"stateMutability": "view",
			"type": "function"
		}
	]
}