{"contracts/VerdictPredictionMarketRouter.sol":{"VerdictPredictionMarketRouter":{"abi":[{"inputs":[{"internalType":"address","name":"_backendSigner","type":"address"},{"internalType":"address","name":"_vUSDC","type":"address"},{"internalType":"address","name":"_registry","type":"address"},{"internalType":"address","name":"_factory","type":"address"},{"internalType":"address","name":"_amm","type":"address"}],"stateMutability":"nonpayable","type":"constructor"},{"inputs":[],"name":"InvalidAddress","type":"error"},{"inputs":[],"name":"MarketInactive","type":"error"},{"inputs":[],"name":"OnlyBackend","type":"error"},{"inputs":[{"internalType":"address","name":"owner","type":"address"}],"name":"OwnableInvalidOwner","type":"error"},{"inputs":[{"internalType":"address","name":"account","type":"address"}],"name":"OwnableUnauthorizedAccount","type":"error"},{"inputs":[],"name":"PermissionsAlreadyConfigured","type":"error"},{"anonymous":false,"inputs":[{"indexed":false,"internalType":"address","name":"agent","type":"address"},{"indexed":false,"internalType":"uint256","name":"balance","type":"uint256"}],"name":"AgentRegistered","type":"event"},{"anonymous":false,"inputs":[{"indexed":false,"internalType":"address","name":"vUSDC","type":"address"},{"indexed":false,"internalType":"address","name":"registry","type":"address"},{"indexed":false,"internalType":"address","name":"factory","type":"address"},{"indexed":false,"internalType":"address","name":"amm","type":"address"}],"name":"ContractsLinked","type":"event"},{"anonymous":false,"inputs":[{"indexed":false,"internalType":"uint256","name":"round","type":"uint256"},{"indexed":false,"internalType":"uint256","name":"endTime","type":"uint256"}],"name":"MarketStarted","type":"event"},{"anonymous":false,"inputs":[{"indexed":true,"internalType":"address","name":"previousOwner","type":"address"},{"indexed":true,"internalType":"address","name":"newOwner","type":"address"}],"name":"OwnershipTransferred","type":"event"},{"anonymous":false,"inputs":[],"name":"PermissionsConfigured","type":"event"},{"anonymous":false,"inputs":[{"indexed":false,"internalType":"string","name":"id","type":"string"},{"indexed":false,"internalType":"address","name":"yesToken","type":"address"},{"indexed":false,"internalType":"bytes32","name":"poolId","type":"bytes32"}],"name":"ProposalLaunched","type":"event"},{"anonymous":false,"inputs":[{"indexed":false,"internalType":"string","name":"id","type":"string"},{"indexed":false,"internalType":"uint256","name":"finalPrice","type":"uint256"}],"name":"WinnerGraduated","type":"event"},{"inputs":[],"name":"amm","outputs":[{"internalType":"contract VerdictSimpleAMM","name":"","type":"address"}],"stateMutability":"view","type":"function"},{"inputs":[],"name":"backendSigner","outputs":[{"internalType":"address","name":"","type":"address"}],"stateMutability":"view","type":"function"},{"inputs":[{"internalType":"string","name":"proposalId","type":"string"},{"internalType":"string","name":"name","type":"string"},{"internalType":"string","name":"description","type":"string"},{"internalType":"string","name":"evalLogic","type":"string"},{"internalType":"string","name":"mathLogic","type":"string"},{"internalType":"uint256","name":"resolutionDeadline","type":"uint256"},{"internalType":"uint256","name":"initialLiquidity","type":"uint256"}],"name":"createProposal","outputs":[],"stateMutability":"nonpayable","type":"function"},{"inputs":[],"name":"currentRound","outputs":[{"internalType":"uint256","name":"","type":"uint256"}],"stateMutability":"view","type":"function"},{"inputs":[],"name":"factory","outputs":[{"internalType":"contract VerdictYESTokenDeployerFactory","name":"","type":"address"}],"stateMutability":"view","type":"function"},{"inputs":[],"name":"getDeployedContracts","outputs":[{"internalType":"address","name":"_vUSDC","type":"address"},{"internalType":"address","name":"_registry","type":"address"},{"internalType":"address","name":"_factory","type":"address"},{"internalType":"address","name":"_amm","type":"address"}],"stateMutability":"view","type":"function"},{"inputs":[],"name":"getGraduatedProposals","outputs":[{"internalType":"string[]","name":"","type":"string[]"}],"stateMutability":"view","type":"function"},{"inputs":[{"internalType":"string","name":"proposalId","type":"string"}],"name":"getPoolReserves","outputs":[{"internalType":"uint256","name":"vUSDCReserve","type":"uint256"},{"internalType":"uint256","name":"yesReserve","type":"uint256"}],"stateMutability":"view","type":"function"},{"inputs":[{"internalType":"string","name":"id","type":"string"}],"name":"getProposalStatus","outputs":[{"components":[{"internalType":"string","name":"id","type":"string"},{"internalType":"string","name":"name","type":"string"},{"internalType":"string","name":"description","type":"string"},{"internalType":"string","name":"evaluationLogic","type":"string"},{"internalType":"string","name":"mathematicalLogic","type":"string"},{"internalType":"uint256","name":"resolutionDeadline","type":"uint256"},{"internalType":"address","name":"poolAddress","type":"address"},{"internalType":"bool","name":"resolved","type":"bool"},{"internalType":"bool","name":"isWinner","type":"bool"},{"internalType":"uint256","name":"yesTWAP","type":"uint256"},{"internalType":"uint256","name":"timestamp","type":"uint256"}],"internalType":"struct VerdictProposalRegistryStorage.Proposal","name":"","type":"tuple"}],"stateMutability":"view","type":"function"},{"inputs":[],"name":"getRoundInfo","outputs":[{"components":[{"internalType":"uint256","name":"roundNumber","type":"uint256"},{"internalType":"uint256","name":"roundStartTime","type":"uint256"},{"internalType":"uint256","name":"roundEndTime","type":"uint256"},{"internalType":"uint256","name":"roundDuration","type":"uint256"},{"internalType":"string[]","name":"proposalIds","type":"string[]"},{"internalType":"bool","name":"active","type":"bool"}],"internalType":"struct VerdictProposalRegistryStorage.Market","name":"","type":"tuple"}],"stateMutability":"view","type":"function"},{"inputs":[{"internalType":"string","name":"proposalId","type":"string"},{"internalType":"address","name":"tokenIn","type":"address"},{"internalType":"uint256","name":"amountIn","type":"uint256"}],"name":"getSwapQuote","outputs":[{"internalType":"uint256","name":"","type":"uint256"}],"stateMutability":"view","type":"function"},{"inputs":[{"internalType":"address","name":"user","type":"address"}],"name":"getVUSDCBalance","outputs":[{"internalType":"uint256","name":"","type":"uint256"}],"stateMutability":"view","type":"function"},{"inputs":[{"internalType":"string","name":"proposalId","type":"string"},{"internalType":"address","name":"user","type":"address"}],"name":"getYESBalance","outputs":[{"internalType":"uint256","name":"","type":"uint256"}],"stateMutability":"view","type":"function"},{"inputs":[{"internalType":"string","name":"proposalId","type":"string"}],"name":"getYESPrice","outputs":[{"internalType":"uint256","name":"","type":"uint256"}],"stateMutability":"view","type":"function"},{"inputs":[{"internalType":"string","name":"proposalId","type":"string"}],"name":"getYesTokenAddress","outputs":[{"internalType":"address","name":"","type":"address"}],"stateMutability":"view","type":"function"},{"inputs":[{"internalType":"string","name":"proposalId","type":"string"},{"internalType":"uint256","name":"finalPrice","type":"uint256"}],"name":"graduateProposal","outputs":[],"stateMutability":"nonpayable","type":"function"},{"inputs":[{"internalType":"uint256","name":"duration","type":"uint256"}],"name":"initializeMarket","outputs":[],"stateMutability":"nonpayable","type":"function"},{"inputs":[{"internalType":"uint256","name":"duration","type":"uint256"},{"components":[{"internalType":"string","name":"id","type":"string"},{"internalType":"string","name":"name","type":"string"},{"internalType":"string","name":"description","type":"string"},{"internalType":"string","name":"evalLogic","type":"string"},{"internalType":"string","name":"mathLogic","type":"string"},{"internalType":"uint256","name":"resolutionDeadline","type":"uint256"},{"internalType":"uint256","name":"initialLiquidity","type":"uint256"}],"internalType":"struct VerdictPredictionMarketRouter.ProposalInput[]","name":"proposalsToCreate","type":"tuple[]"}],"name":"initializeMarketWithProposals","outputs":[],"stateMutability":"nonpayable","type":"function"},{"inputs":[],"name":"isMarketActive","outputs":[{"internalType":"bool","name":"","type":"bool"}],"stateMutability":"view","type":"function"},{"inputs":[],"name":"owner","outputs":[{"internalType":"address","name":"","type":"address"}],"stateMutability":"view","type":"function"},{"inputs":[],"name":"permissionsConfigured","outputs":[{"internalType":"bool","name":"","type":"bool"}],"stateMutability":"view","type":"function"},{"inputs":[{"internalType":"string","name":"","type":"string"}],"name":"proposalToPoolId","outputs":[{"internalType":"bytes32","name":"","type":"bytes32"}],"stateMutability":"view","type":"function"},{"inputs":[{"internalType":"string","name":"","type":"string"}],"name":"proposalToYesToken","outputs":[{"internalType":"address","name":"","type":"address"}],"stateMutability":"view","type":"function"},{"inputs":[{"internalType":"address","name":"agent","type":"address"}],"name":"registerAgent","outputs":[],"stateMutability":"nonpayable","type":"function"},{"inputs":[{"internalType":"address[]","name":"agents","type":"address[]"}],"name":"registerAgentsBatch","outputs":[],"stateMutability":"nonpayable","type":"function"},{"inputs":[],"name":"registry","outputs":[{"internalType":"contract VerdictProposalRegistryStorage","name":"","type":"address"}],"stateMutability":"view","type":"function"},{"inputs":[],"name":"renounceOwnership","outputs":[],"stateMutability":"nonpayable","type":"function"},{"inputs":[{"internalType":"address","name":"agent","type":"address"}],"name":"resetAgentBalanceTo100","outputs":[],"stateMutability":"nonpayable","type":"function"},{"inputs":[{"internalType":"address[]","name":"agents","type":"address[]"}],"name":"resetAgentsBalanceTo100Batch","outputs":[],"stateMutability":"nonpayable","type":"function"},{"inputs":[],"name":"setupPermissions","outputs":[],"stateMutability":"nonpayable","type":"function"},{"inputs":[{"internalType":"string","name":"proposalId","type":"string"},{"internalType":"address","name":"tokenIn","type":"address"},{"internalType":"uint256","name":"amountIn","type":"uint256"},{"internalType":"uint256","name":"minAmountOut","type":"uint256"}],"name":"swap","outputs":[{"internalType":"uint256","name":"amountOut","type":"uint256"}],"stateMutability":"nonpayable","type":"function"},{"inputs":[{"internalType":"address","name":"newOwner","type":"address"}],"name":"transferOwnership","outputs":[],"stateMutability":"nonpayable","type":"function"},{"inputs":[],"name":"userFaucet","outputs":[],"stateMutability":"nonpayable","type":"function"},{"inputs":[],"name":"vUSDCToken","outputs":[{"internalType":"contract VerdictVirtualUSDCToken","name":"","type":"address"}],"stateMutability":"view","type":"function"}],"evm":{"bytecode":{"linkReferences":{},"object":"608060405234801561000f575f80fd5b506040516131fd3803806131fd83398101604081905261002e9161023a565b338061005357604051631e4fbdf760e01b81525f600482015260240160405180910390fd5b61005c816101d0565b506001600160a01b0385166100845760405163e6c4247b60e01b815260040160405180910390fd5b6001600160a01b0384166100ab5760405163e6c4247b60e01b815260040160405180910390fd5b6001600160a01b0383166100d25760405163e6c4247b60e01b815260040160405180910390fd5b6001600160a01b0382166100f95760405163e6c4247b60e01b815260040160405180910390fd5b6001600160a01b0381166101205760405163e6c4247b60e01b815260040160405180910390fd5b600580546001600160a01b038781166001600160a01b0319928316179092556001805487841690831681179091556002805487851690841681179091556003805487861690851681179091556004805495871695909416851790935560408051928352602083019190915281019190915260608101919091527fa190e6e48ca0c0b59e922f38a4478878f37480431b05b8e08bc73a8c3e793d819060800160405180910390a1505050505061029b565b5f80546001600160a01b038381166001600160a01b0319831681178455604051919092169283917f8be0079c531659141344cd1fd0a4f28419497f9722a3daafe3b4186f6b6457e09190a35050565b80516001600160a01b0381168114610235575f80fd5b919050565b5f805f805f60a0868803121561024e575f80fd5b6102578661021f565b94506102656020870161021f565b93506102736040870161021f565b92506102816060870161021f565b915061028f6080870161021f565b90509295509295909350565b612f55806102a85f395ff3fe608060405234801561000f575f80fd5b50600436106101fc575f3560e01c80637b103999116101145780639a6b9cbb116100a9578063c45a015511610079578063c45a0155146104b4578063cf4baa36146104c7578063d60fad6c146104d9578063dac2d6e2146104ec578063f2fde38b146104f4575f80fd5b80639a6b9cbb14610441578063aa9a068f14610454578063ab1eabf2146102b2578063b56e725c14610494575f80fd5b80638b10890b116100e45780638b10890b146103e35780638da5cb5b146103f65780638e0dac691461040657806392893e0f14610419575f80fd5b80637b1039991461037e57806384bc76a61461039157806388abb85f146103a65780638a19c8bc146103da575f80fd5b80634054633d1161019557806365d65e861161016557806365d65e86146103355780636c1cf03714610348578063715018a614610350578063739c5b151461035857806376dddf9f1461036b575f80fd5b80634054633d146102c557806345ee99a9146102f05780634e1f3a0014610305578063613ace1614610318575f80fd5b806326589107116101d057806326589107146102795780632a9439451461028c5780632cb359801461029f578063306b9bb9146102b2575f80fd5b8062c88c06146102005780631298f3b914610215578063157e4c081461023b5780631b74553414610266575b5f80fd5b61021361020e366004612152565b610507565b005b6102286102233660046121a7565b6105e4565b6040519081526020015b60405180910390f35b60015461024e906001600160a01b031681565b6040516001600160a01b039091168152602001610232565b6102286102743660046121c9565b610657565b610228610287366004612217565b610702565b60045461024e906001600160a01b031681565b6102136102ad366004612248565b610733565b6102136102c03660046121a7565b6107ba565b6102286102d3366004612217565b805160208183018101805160098252928201919093012091525481565b6102f8610a1d565b6040516102329190612367565b6102136103133660046123ca565b610a90565b6007546103259060ff1681565b6040519015158152602001610232565b60055461024e906001600160a01b031681565b610213610c0a565b610213610ce1565b610213610366366004612428565b610cf4565b610228610379366004612466565b611008565b60025461024e906001600160a01b031681565b6103996112a8565b60405161023291906124c0565b61024e6103b4366004612217565b80516020818301810180516008825292820191909301209152546001600160a01b031681565b61022860065481565b6102286103f1366004612565565b611354565b5f546001600160a01b031661024e565b6102136104143660046125ba565b6113f7565b61042c610427366004612217565b61148a565b60408051928352602083019190915201610232565b61024e61044f366004612217565b61151f565b600154600254600354600454604080516001600160a01b039586168152938516602085015291841691830191909152919091166060820152608001610232565b6104a76104a2366004612217565b61154f565b6040516102329190612601565b60035461024e906001600160a01b031681565b60075461032590610100900460ff1681565b6102136104e7366004612428565b611624565b610213611938565b6102136105023660046121a7565b611b03565b6005546001600160a01b0316331480159061052c57505f546001600160a01b03163314155b1561054a57604051636bbaa1c160e01b815260040160405180910390fd5b6002546040516264460360e11b81526001600160a01b039091169062c88c069061057a90859085906004016126fe565b5f604051808303815f87803b158015610591575f80fd5b505af11580156105a3573d5f803e3d5ffd5b505050507f4ff42ce5f2120cce7cc3037ba0c02115b80eaaf04608fdff259f5104b286c4b282826040516105d89291906126fe565b60405180910390a15050565b6001546040516370a0823160e01b81526001600160a01b0383811660048301525f9216906370a08231906024015b602060405180830381865afa15801561062d573d5f803e3d5ffd5b505050506040513d601f19601f82011682018060405250810190610651919061271f565b92915050565b5f80600884604051610669919061274d565b908152604051908190036020019020546001600160a01b0316905080610692575f915050610651565b6040516370a0823160e01b81526001600160a01b0384811660048301528216906370a0823190602401602060405180830381865afa1580156106d6573d5f803e3d5ffd5b505050506040513d601f19601f820116820180604052508101906106fa919061271f565b949350505050565b60048054604051632658910760e01b81525f926001600160a01b039092169163265891079161061291869101612758565b6005546001600160a01b0316331480159061075857505f546001600160a01b03163314155b1561077657604051636bbaa1c160e01b815260040160405180910390fd5b6107b16040518060e0016040528089815260200188815260200187815260200186815260200185815260200184815260200183815250611b40565b50505050505050565b6005546001600160a01b031633148015906107df57505f546001600160a01b03163314155b156107fd57604051636bbaa1c160e01b815260040160405180910390fd5b6001546040805163313ce56760e01b815290515f926001600160a01b03169163313ce5679160048083019260209291908290030181865afa158015610844573d5f803e3d5ffd5b505050506040513d601f19601f82011682018060405250810190610868919061276a565b61087390600a612881565b61087e90606461288f565b6001546040516370a0823160e01b81526001600160a01b0385811660048301529293505f92909116906370a0823190602401602060405180830381865afa1580156108cb573d5f803e3d5ffd5b505050506040513d601f19601f820116820180604052508101906108ef919061271f565b90508181111561096a575f61090483836128a6565b600154604051632770a7eb60e21b81529192506001600160a01b031690639dc29fac9061093790879085906004016128b9565b5f604051808303815f87803b15801561094e575f80fd5b505af1158015610960573d5f803e3d5ffd5b50505050506109df565b818110156109df575f61097d82846128a6565b6001546040516340c10f1960e01b81529192506001600160a01b0316906340c10f19906109b090879085906004016128b9565b5f604051808303815f87803b1580156109c7575f80fd5b505af11580156109d9573d5f803e3d5ffd5b50505050505b7fd1b844701695237443dd884ed7193d9c8788f3befd35adc0910472eb166f33068383604051610a109291906128b9565b60405180910390a1505050565b600254604080516345ee99a960e01b815290516060926001600160a01b0316916345ee99a9916004808301925f9291908290030181865afa158015610a64573d5f803e3d5ffd5b505050506040513d5f823e601f3d908101601f19168201604052610a8b91908101906129c1565b905090565b6005546001600160a01b03163314801590610ab557505f546001600160a01b03163314155b15610ad357604051636bbaa1c160e01b815260040160405180910390fd5b60025f9054906101000a90046001600160a01b03166001600160a01b031663fc81587a6040518163ffffffff1660e01b81526004015f604051808303815f87803b158015610b1f575f80fd5b505af1158015610b31573d5f803e3d5ffd5b50506007805460ff19166001179055505060068054905f610b51836129f2565b90915550506002546006546040516331d813fb60e21b81526001600160a01b039092169163c7604fec91610b92918590600401918252602082015260400190565b5f604051808303815f87803b158015610ba9575f80fd5b505af1158015610bbb573d5f803e3d5ffd5b505050507f29d6d6c69e73efe2bce4ea0d86536ada3c571774b72bd63d51140bbcceb06f056006548242610bef9190612a0a565b6040805192835260208301919091520160405180910390a150565b6001546040805163313ce56760e01b815290516001600160a01b039092169163ee67a1e5913391849163313ce5679160048083019260209291908290030181865afa158015610c5b573d5f803e3d5ffd5b505050506040513d601f19601f82011682018060405250810190610c7f919061276a565b610c8a90600a612881565b610c9590606461288f565b6040518363ffffffff1660e01b8152600401610cb29291906128b9565b5f604051808303815f87803b158015610cc9575f80fd5b505af1158015610cdb573d5f803e3d5ffd5b50505050565b610ce9611fae565b610cf25f611fda565b565b6005546001600160a01b03163314801590610d1957505f546001600160a01b03163314155b15610d3757604051636bbaa1c160e01b815260040160405180910390fd5b6001546040805163313ce56760e01b815290515f926001600160a01b03169163313ce5679160048083019260209291908290030181865afa158015610d7e573d5f803e3d5ffd5b505050506040513d601f19601f82011682018060405250810190610da2919061276a565b610dad90600a612881565b610db890606461288f565b90505f5b82811015610cdb576001545f906001600160a01b03166370a08231868685818110610de957610de9612a1d565b9050602002016020810190610dfe91906121a7565b6040516001600160e01b031960e084901b1681526001600160a01b039091166004820152602401602060405180830381865afa158015610e40573d5f803e3d5ffd5b505050506040513d601f19601f82011682018060405250810190610e64919061271f565b905082811115610f05575f610e7984836128a6565b6001549091506001600160a01b0316639dc29fac878786818110610e9f57610e9f612a1d565b9050602002016020810190610eb491906121a7565b836040518363ffffffff1660e01b8152600401610ed29291906128b9565b5f604051808303815f87803b158015610ee9575f80fd5b505af1158015610efb573d5f803e3d5ffd5b5050505050610fa0565b82811015610fa0575f610f1882856128a6565b6001549091506001600160a01b03166340c10f19878786818110610f3e57610f3e612a1d565b9050602002016020810190610f5391906121a7565b836040518363ffffffff1660e01b8152600401610f719291906128b9565b5f604051808303815f87803b158015610f88575f80fd5b505af1158015610f9a573d5f803e3d5ffd5b50505050505b7fd1b844701695237443dd884ed7193d9c8788f3befd35adc0910472eb166f3306858584818110610fd357610fd3612a1d565b9050602002016020810190610fe891906121a7565b84604051610ff79291906128b9565b60405180910390a150600101610dbc565b5f8060098660405161101a919061274d565b9081526040519081900360200190205490508061106f5760405162461bcd60e51b815260206004820152600e60248201526d141bdbdb081b9bdd08199bdd5b9960921b60448201526064015b60405180910390fd5b6040516323b872dd60e01b8152336004820152306024820152604481018590526001600160a01b038616906323b872dd906064016020604051808303815f875af11580156110bf573d5f803e3d5ffd5b505050506040513d601f19601f820116820180604052508101906110e39190612a45565b506004805460405163095ea7b360e01b81526001600160a01b038089169363095ea7b393611116939216918991016128b9565b6020604051808303815f875af1158015611132573d5f803e3d5ffd5b505050506040513d601f19601f820116820180604052508101906111569190612a45565b5060048054604051634669660f60e01b81529182018390526001600160a01b03878116602484015260448301879052606483018690521690634669660f906084016020604051808303815f875af11580156111b3573d5f803e3d5ffd5b505050506040513d601f19601f820116820180604052508101906111d7919061271f565b6001549092505f906001600160a01b03878116911614611202576001546001600160a01b031661122c565b600887604051611212919061274d565b908152604051908190036020019020546001600160a01b03165b60405163a9059cbb60e01b81529091506001600160a01b0382169063a9059cbb9061125d90339087906004016128b9565b6020604051808303815f875af1158015611279573d5f803e3d5ffd5b505050506040513d601f19601f8201168201806040525081019061129d9190612a45565b505050949350505050565b6112de6040518060c001604052805f81526020015f81526020015f81526020015f8152602001606081526020015f151581525090565b60025f9054906101000a90046001600160a01b03166001600160a01b03166380821c376040518163ffffffff1660e01b81526004015f60405180830381865afa15801561132d573d5f803e3d5ffd5b505050506040513d5f823e601f3d908101601f19168201604052610a8b9190810190612a5e565b5f80600985604051611366919061274d565b9081526040519081900360200181205460048054633e58a01d60e11b84529083018290526001600160a01b038781166024850152604484018790529193501690637cb1403a90606401602060405180830381865afa1580156113ca573d5f803e3d5ffd5b505050506040513d601f19601f820116820180604052508101906113ee919061271f565b95945050505050565b6005546001600160a01b0316331480159061141c57505f546001600160a01b03163314155b1561143a57604051636bbaa1c160e01b815260040160405180910390fd5b61144383610a90565b5f5b81811015610cdb5761148283838381811061146257611462612a1d565b90506020028101906114749190612b01565b61147d90612b1f565b611b40565b600101611445565b5f805f60098460405161149d919061274d565b90815260405190819003602001812054600480546314953d3160e31b84529083018290529092506001600160a01b03169063a4a9e988906024016040805180830381865afa1580156114f1573d5f803e3d5ffd5b505050506040513d601f19601f820116820180604052508101906115159190612c1e565b9250925050915091565b5f600882604051611530919061274d565b908152604051908190036020019020546001600160a01b031692915050565b6115b360405180610160016040528060608152602001606081526020016060815260200160608152602001606081526020015f81526020015f6001600160a01b031681526020015f151581526020015f151581526020015f81526020015f81525090565b6002546040516325d3a09d60e01b81526001600160a01b03909116906325d3a09d906115e3908590600401612758565b5f60405180830381865afa1580156115fd573d5f803e3d5ffd5b505050506040513d5f823e601f3d908101601f191682016040526106519190810190612c4b565b6005546001600160a01b0316331480159061164957505f546001600160a01b03163314155b1561166757604051636bbaa1c160e01b815260040160405180910390fd5b6001546040805163313ce56760e01b815290515f926001600160a01b03169163313ce5679160048083019260209291908290030181865afa1580156116ae573d5f803e3d5ffd5b505050506040513d601f19601f820116820180604052508101906116d2919061276a565b6116dd90600a612881565b6116e890606461288f565b90505f5b82811015610cdb576001545f906001600160a01b03166370a0823186868581811061171957611719612a1d565b905060200201602081019061172e91906121a7565b6040516001600160e01b031960e084901b1681526001600160a01b039091166004820152602401602060405180830381865afa158015611770573d5f803e3d5ffd5b505050506040513d601f19601f82011682018060405250810190611794919061271f565b905082811115611835575f6117a984836128a6565b6001549091506001600160a01b0316639dc29fac8787868181106117cf576117cf612a1d565b90506020020160208101906117e491906121a7565b836040518363ffffffff1660e01b81526004016118029291906128b9565b5f604051808303815f87803b158015611819575f80fd5b505af115801561182b573d5f803e3d5ffd5b50505050506118d0565b828110156118d0575f61184882856128a6565b6001549091506001600160a01b03166340c10f1987878681811061186e5761186e612a1d565b905060200201602081019061188391906121a7565b836040518363ffffffff1660e01b81526004016118a19291906128b9565b5f604051808303815f87803b1580156118b8575f80fd5b505af11580156118ca573d5f803e3d5ffd5b50505050505b7fd1b844701695237443dd884ed7193d9c8788f3befd35adc0910472eb166f330685858481811061190357611903612a1d565b905060200201602081019061191891906121a7565b846040516119279291906128b9565b60405180910390a1506001016116ec565b611940611fae565b600754610100900460ff16156119695760405163a43e673d60e01b815260040160405180910390fd5b60015460405163064c241960e11b81523060048201526001600160a01b0390911690630c984832906024015f604051808303815f87803b1580156119ab575f80fd5b505af11580156119bd573d5f803e3d5ffd5b505060025460405163f85ea2ab60e01b81523060048201526001600160a01b03909116925063f85ea2ab91506024015f604051808303815f87803b158015611a03575f80fd5b505af1158015611a15573d5f803e3d5ffd5b505060035460405163f85ea2ab60e01b81523060048201526001600160a01b03909116925063f85ea2ab91506024015f604051808303815f87803b158015611a5b575f80fd5b505af1158015611a6d573d5f803e3d5ffd5b50506004805460405163c0d7865560e01b815230928101929092526001600160a01b0316925063c0d7865591506024015f604051808303815f87803b158015611ab4575f80fd5b505af1158015611ac6573d5f803e3d5ffd5b50506007805461ff00191661010017905550506040517f308c7d86757bfe39879a65086e28d78241e7a8dee38349a04a4eb3f6d71b0a13905f90a1565b611b0b611fae565b6001600160a01b038116611b3457604051631e4fbdf760e01b81525f6004820152602401611066565b611b3d81611fda565b50565b60035481516020808401516040515f946001600160a01b03169363b591b96c939092611b6e92909101612db5565b604051602081830303815290604052855f0151604051602001611b919190612dcf565b6040516020818303038152906040526040518463ffffffff1660e01b8152600401611bbe93929190612de8565b6020604051808303815f875af1158015611bda573d5f803e3d5ffd5b505050506040513d601f19601f82011682018060405250810190611bfe9190612e20565b9050806008835f0151604051611c14919061274d565b90815260405190819003602001812080546001600160a01b039384166001600160a01b03199091161790556004805485516001546356cd61d760e01b85525f95928316946356cd61d794611c6f949290921691889101612e3b565b6020604051808303815f875af1158015611c8b573d5f803e3d5ffd5b505050506040513d601f19601f82011682018060405250810190611caf919061271f565b9050806009845f0151604051611cc5919061274d565b9081526040519081900360200190205560c083015115611efb5760015460c08401516040516340c10f1960e01b81526001600160a01b03909216916340c10f1991611d15913091906004016128b9565b5f604051808303815f87803b158015611d2c575f80fd5b505af1158015611d3e573d5f803e3d5ffd5b5050505060c08301516040516340c10f1960e01b81526001600160a01b038416916340c10f1991611d739130916004016128b9565b5f604051808303815f87803b158015611d8a575f80fd5b505af1158015611d9c573d5f803e3d5ffd5b50506001546004805460c088015160405163095ea7b360e01b81526001600160a01b03948516965063095ea7b39550611ddb94909216929091016128b9565b6020604051808303815f875af1158015611df7573d5f803e3d5ffd5b505050506040513d601f19601f82011682018060405250810190611e1b9190612a45565b506004805460c085015160405163095ea7b360e01b81526001600160a01b038087169463095ea7b394611e5194921692016128b9565b6020604051808303815f875af1158015611e6d573d5f803e3d5ffd5b505050506040513d601f19601f82011682018060405250810190611e919190612a45565b506004805460c0850151604051631c6b39fb60e21b81529283018490526024830181905260448301526001600160a01b0316906371ace7ec906064015f604051808303815f87803b158015611ee4575f80fd5b505af1158015611ef6573d5f803e3d5ffd5b505050505b600254835160208501516040808701516060880151608089015160a08a01519351633afc7c7160e21b81526001600160a01b039097169663ebf1f1c496611f4d96909590949392918b90600401612e6d565b5f604051808303815f87803b158015611f64575f80fd5b505af1158015611f76573d5f803e3d5ffd5b505084516040517f617e6c431f9e799bd15607dde27f4439eec832f081ce7f16a9dfaf9dc32e162b9350610a10925085908590612ef2565b5f546001600160a01b03163314610cf25760405163118cdaa760e01b8152336004820152602401611066565b5f80546001600160a01b038381166001600160a01b0319831681178455604051919092169283917f8be0079c531659141344cd1fd0a4f28419497f9722a3daafe3b4186f6b6457e09190a35050565b634e487b7160e01b5f52604160045260245ffd5b60405160c081016001600160401b038111828210171561205f5761205f612029565b60405290565b60405160e081016001600160401b038111828210171561205f5761205f612029565b60405161016081016001600160401b038111828210171561205f5761205f612029565b604051601f8201601f191681016001600160401b03811182821017156120d2576120d2612029565b604052919050565b5f6001600160401b038211156120f2576120f2612029565b50601f01601f191660200190565b5f82601f83011261210f575f80fd5b813561212261211d826120da565b6120aa565b818152846020838601011115612136575f80fd5b816020850160208301375f918101602001919091529392505050565b5f8060408385031215612163575f80fd5b82356001600160401b03811115612178575f80fd5b61218485828601612100565b95602094909401359450505050565b6001600160a01b0381168114611b3d575f80fd5b5f602082840312156121b7575f80fd5b81356121c281612193565b9392505050565b5f80604083850312156121da575f80fd5b82356001600160401b038111156121ef575f80fd5b6121fb85828601612100565b925050602083013561220c81612193565b809150509250929050565b5f60208284031215612227575f80fd5b81356001600160401b0381111561223c575f80fd5b6106fa84828501612100565b5f805f805f805f60e0888a03121561225e575f80fd5b87356001600160401b03811115612273575f80fd5b61227f8a828b01612100565b97505060208801356001600160401b0381111561229a575f80fd5b6122a68a828b01612100565b96505060408801356001600160401b038111156122c1575f80fd5b6122cd8a828b01612100565b95505060608801356001600160401b038111156122e8575f80fd5b6122f48a828b01612100565b94505060808801356001600160401b0381111561230f575f80fd5b61231b8a828b01612100565b979a969950949793969560a0850135955060c0909401359392505050565b5f81518084528060208401602086015e5f602082860101526020601f19601f83011685010191505092915050565b5f602082016020835280845180835260408501915060408160051b8601019250602086015f5b828110156123be57603f198786030184526123a9858351612339565b9450602093840193919091019060010161238d565b50929695505050505050565b5f602082840312156123da575f80fd5b5035919050565b5f8083601f8401126123f1575f80fd5b5081356001600160401b03811115612407575f80fd5b6020830191508360208260051b8501011115612421575f80fd5b9250929050565b5f8060208385031215612439575f80fd5b82356001600160401b0381111561244e575f80fd5b61245a858286016123e1565b90969095509350505050565b5f805f8060808587031215612479575f80fd5b84356001600160401b0381111561248e575f80fd5b61249a87828801612100565b94505060208501356124ab81612193565b93969395505050506040820135916060013590565b602081525f60e0820183516020840152602084015160408401526040840151606084015260608401516080840152608084015160c060a0850152818151808452610100860191506101008160051b87010193506020830192505f5b8181101561254c5760ff19878603018352612537858551612339565b9450602093840193929092019160010161251b565b5050505060a084015180151560c0850152509392505050565b5f805f60608486031215612577575f80fd5b83356001600160401b0381111561258c575f80fd5b61259886828701612100565b93505060208401356125a981612193565b929592945050506040919091013590565b5f805f604084860312156125cc575f80fd5b8335925060208401356001600160401b038111156125e8575f80fd5b6125f4868287016123e1565b9497909650939450505050565b602081525f8251610160602084015261261e610180840182612339565b90506020840151601f1984830301604085015261263b8282612339565b9150506040840151601f198483030160608501526126598282612339565b9150506060840151601f198483030160808501526126778282612339565b9150506080840151601f198483030160a08501526126958282612339565b91505060a084015160c084015260c08401516126bc60e08501826001600160a01b03169052565b5060e084015180151561010085015250610100840151801515610120850152506101208401516101408401526101408401516101608401528091505092915050565b604081525f6127106040830185612339565b90508260208301529392505050565b5f6020828403121561272f575f80fd5b5051919050565b5f81518060208401855e5f93019283525090919050565b5f6121c28284612736565b602081525f6121c26020830184612339565b5f6020828403121561277a575f80fd5b815160ff811681146121c2575f80fd5b634e487b7160e01b5f52601160045260245ffd5b6001815b60018411156127d9578085048111156127bd576127bd61278a565b60018416156127cb57908102905b60019390931c9280026127a2565b935093915050565b5f826127ef57506001610651565b816127fb57505f610651565b8160018114612811576002811461281b57612837565b6001915050610651565b60ff84111561282c5761282c61278a565b50506001821b610651565b5060208310610133831016604e8410600b841016171561285a575081810a610651565b6128665f19848461279e565b805f19048211156128795761287961278a565b029392505050565b5f6121c260ff8416836127e1565b80820281158282048414176106515761065161278a565b818103818111156106515761065161278a565b6001600160a01b03929092168252602082015260400190565b5f82601f8301126128e1575f80fd5b81516128ef61211d826120da565b818152846020838601011115612903575f80fd5b8160208501602083015e5f918101602001919091529392505050565b5f82601f83011261292e575f80fd5b81516001600160401b0381111561294757612947612029565b8060051b612957602082016120aa565b91825260208185018101929081019086841115612972575f80fd5b6020860192505b838310156129b75782516001600160401b03811115612996575f80fd5b6129a5886020838a01016128d2565b83525060209283019290910190612979565b9695505050505050565b5f602082840312156129d1575f80fd5b81516001600160401b038111156129e6575f80fd5b6106fa8482850161291f565b5f60018201612a0357612a0361278a565b5060010190565b808201808211156106515761065161278a565b634e487b7160e01b5f52603260045260245ffd5b80518015158114612a40575f80fd5b919050565b5f60208284031215612a55575f80fd5b6121c282612a31565b5f60208284031215612a6e575f80fd5b81516001600160401b03811115612a83575f80fd5b820160c08185031215612a94575f80fd5b612a9c61203d565b8151815260208083015190820152604080830151908201526060808301519082015260808201516001600160401b03811115612ad6575f80fd5b612ae28682850161291f565b608083015250612af460a08301612a31565b60a0820152949350505050565b5f823560de19833603018112612b15575f80fd5b9190910192915050565b5f60e08236031215612b2f575f80fd5b612b37612065565b82356001600160401b03811115612b4c575f80fd5b612b5836828601612100565b82525060208301356001600160401b03811115612b73575f80fd5b612b7f36828601612100565b60208301525060408301356001600160401b03811115612b9d575f80fd5b612ba936828601612100565b60408301525060608301356001600160401b03811115612bc7575f80fd5b612bd336828601612100565b60608301525060808301356001600160401b03811115612bf1575f80fd5b612bfd36828601612100565b60808301525060a0838101359082015260c092830135928101929092525090565b5f8060408385031215612c2f575f80fd5b505080516020909101519092909150565b8051612a4081612193565b5f60208284031215612c5b575f80fd5b81516001600160401b03811115612c70575f80fd5b82016101608185031215612c82575f80fd5b612c8a612087565b81516001600160401b03811115612c9f575f80fd5b612cab868285016128d2565b82525060208201516001600160401b03811115612cc6575f80fd5b612cd2868285016128d2565b60208301525060408201516001600160401b03811115612cf0575f80fd5b612cfc868285016128d2565b60408301525060608201516001600160401b03811115612d1a575f80fd5b612d26868285016128d2565b60608301525060808201516001600160401b03811115612d44575f80fd5b612d50868285016128d2565b60808301525060a08281015190820152612d6c60c08301612c40565b60c0820152612d7d60e08301612a31565b60e0820152612d8f6101008301612a31565b610100820152610120828101519082015261014091820151918101919091529392505050565b6502ca2a99016960d51b81525f6121c26006830184612736565b64765945532d60d81b81525f6121c26005830184612736565b606081525f612dfa6060830186612339565b8281036020840152612e0c8186612339565b905082810360408401526129b78185612339565b5f60208284031215612e30575f80fd5b81516121c281612193565b606081525f612e4d6060830186612339565b6001600160a01b0394851660208401529290931660409091015292915050565b60e081525f612e7f60e083018a612339565b8281036020840152612e91818a612339565b90508281036040840152612ea58189612339565b90508281036060840152612eb98188612339565b90508281036080840152612ecd8187612339565b60a084019590955250506001600160a01b039190911660c09091015295945050505050565b606081525f612f046060830186612339565b6001600160a01b03949094166020830152506040015291905056fea26469706673582212205482d924b5da78a47b274b9173f6389f0c12634a6b8d99da4d373c3d59ed460664736f6c634300081a0033","opcodes":"PUSH1 0x80 PUSH1 0x40 MSTORE CALLVALUE DUP1 ISZERO PUSH2 0xF JUMPI PUSH0 DUP1 REVERT JUMPDEST POP PUSH1 0x40 MLOAD PUSH2 0x31FD CODESIZE SUB DUP1 PUSH2 0x31FD DUP4 CODECOPY DUP2 ADD PUSH1 0x40 DUP2 SWAP1 MSTORE PUSH2 0x2E SWAP2 PUSH2 0x23A JUMP JUMPDEST CALLER DUP1 PUSH2 0x53 JUMPI PUSH1 0x40 MLOAD PUSH4 0x1E4FBDF7 PUSH1 0xE0 SHL DUP2 MSTORE PUSH0 PUSH1 0x4 DUP3 ADD MSTORE PUSH1 0x24 ADD PUSH1 0x40 MLOAD DUP1 SWAP2 SUB SWAP1 REVERT JUMPDEST PUSH2 0x5C DUP2 PUSH2 0x1D0 JUMP JUMPDEST POP PUSH1 0x1 PUSH1 0x1 PUSH1 0xA0 SHL SUB DUP6 AND PUSH2 0x84 JUMPI PUSH1 0x40 MLOAD PUSH4 0xE6C4247B PUSH1 0xE0 SHL DUP2 MSTORE PUSH1 0x4 ADD PUSH1 0x40 MLOAD DUP1 SWAP2 SUB SWAP1 REVERT JUMPDEST PUSH1 0x1 PUSH1 0x1 PUSH1 0xA0 SHL SUB DUP5 AND PUSH2 0xAB JUMPI PUSH1 0x40 MLOAD PUSH4 0xE6C4247B PUSH1 0xE0 SHL DUP2 MSTORE PUSH1 0x4 ADD PUSH1 0x40 MLOAD DUP1 SWAP2 SUB SWAP1 REVERT JUMPDEST PUSH1 0x1 PUSH1 0x1 PUSH1 0xA0 SHL SUB DUP4 AND PUSH2 0xD2 JUMPI PUSH1 0x40 MLOAD PUSH4 0xE6C4247B PUSH1 0xE0 SHL DUP2 MSTORE PUSH1 0x4 ADD PUSH1 0x40 MLOAD DUP1 SWAP2 SUB SWAP1 REVERT JUMPDEST PUSH1 0x1 PUSH1 0x1 PUSH1 0xA0 SHL SUB DUP3 AND PUSH2 0xF9 JUMPI PUSH1 0x40 MLOAD PUSH4 0xE6C4247B PUSH1 0xE0 SHL DUP2 MSTORE PUSH1 0x4 ADD PUSH1 0x40 MLOAD DUP1 SWAP2 SUB SWAP1 REVERT JUMPDEST PUSH1 0x1 PUSH1 0x1 PUSH1 0xA0 SHL SUB DUP2 AND PUSH2 0x120 JUMPI PUSH1 0x40 MLOAD PUSH4 0xE6C4247B PUSH1 0xE0 SHL DUP2 MSTORE PUSH1 0x4 ADD PUSH1 0x40 MLOAD DUP1 SWAP2 SUB SWAP1 REVERT JUMPDEST PUSH1 0x5 DUP1 SLOAD PUSH1 0x1 PUSH1 0x1 PUSH1 0xA0 SHL SUB DUP8 DUP2 AND PUSH1 0x1 PUSH1 0x1 PUSH1 0xA0 SHL SUB NOT SWAP3 DUP4 AND OR SWAP1 SWAP3 SSTORE PUSH1 0x1 DUP1 SLOAD DUP8 DUP5 AND SWAP1 DUP4 AND DUP2 OR SWAP1 SWAP2 SSTORE PUSH1 0x2 DUP1 SLOAD DUP8 DUP6 AND SWAP1 DUP5 AND DUP2 OR SWAP1 SWAP2 SSTORE PUSH1 0x3 DUP1 SLOAD DUP8 DUP7 AND SWAP1 DUP6 AND DUP2 OR SWAP1 SWAP2 SSTORE PUSH1 0x4 DUP1 SLOAD SWAP6 DUP8 AND SWAP6 SWAP1 SWAP5 AND DUP6 OR SWAP1 SWAP4 SSTORE PUSH1 0x40 DUP1 MLOAD SWAP3 DUP4 MSTORE PUSH1 0x20 DUP4 ADD SWAP2 SWAP1 SWAP2 MSTORE DUP2 ADD SWAP2 SWAP1 SWAP2 MSTORE PUSH1 0x60 DUP2 ADD SWAP2 SWAP1 SWAP2 MSTORE PUSH32 0xA190E6E48CA0C0B59E922F38A4478878F37480431B05B8E08BC73A8C3E793D81 SWAP1 PUSH1 0x80 ADD PUSH1 0x40 MLOAD DUP1 SWAP2 SUB SWAP1 LOG1 POP POP POP POP POP PUSH2 0x29B JUMP JUMPDEST PUSH0 DUP1 SLOAD PUSH1 0x1 PUSH1 0x1 PUSH1 0xA0 SHL SUB DUP4 DUP2 AND PUSH1 0x1 PUSH1 0x1 PUSH1 0xA0 SHL SUB NOT DUP4 AND DUP2 OR DUP5 SSTORE PUSH1 0x40 MLOAD SWAP2 SWAP1 SWAP3 AND SWAP3 DUP4 SWAP2 PUSH32 0x8BE0079C531659141344CD1FD0A4F28419497F9722A3DAAFE3B4186F6B6457E0 SWAP2 SWAP1 LOG3 POP POP JUMP JUMPDEST DUP1 MLOAD PUSH1 0x1 PUSH1 0x1 PUSH1 0xA0 SHL SUB DUP2 AND DUP2 EQ PUSH2 0x235 JUMPI PUSH0 DUP1 REVERT JUMPDEST SWAP2 SWAP1 POP JUMP JUMPDEST PUSH0 DUP1 PUSH0 DUP1 PUSH0 PUSH1 0xA0 DUP7 DUP9 SUB SLT ISZERO PUSH2 0x24E JUMPI PUSH0 DUP1 REVERT JUMPDEST PUSH2 0x257 DUP7 PUSH2 0x21F JUMP JUMPDEST SWAP5 POP PUSH2 0x265 PUSH1 0x20 DUP8 ADD PUSH2 0x21F JUMP JUMPDEST SWAP4 POP PUSH2 0x273 PUSH1 0x40 DUP8 ADD PUSH2 0x21F JUMP JUMPDEST SWAP3 POP PUSH2 0x281 PUSH1 0x60 DUP8 ADD PUSH2 0x21F JUMP JUMPDEST SWAP2 POP PUSH2 0x28F PUSH1 0x80 DUP8 ADD PUSH2 0x21F JUMP JUMPDEST SWAP1 POP SWAP3 SWAP6 POP SWAP3 SWAP6 SWAP1 SWAP4 POP JUMP JUMPDEST PUSH2 0x2F55 DUP1 PUSH2 0x2A8 PUSH0 CODECOPY PUSH0 RETURN INVALID PUSH1 0x80 PUSH1 0x40 MSTORE CALLVALUE DUP1 ISZERO PUSH2 0xF JUMPI PUSH0 DUP1 REVERT JUMPDEST POP PUSH1 0x4 CALLDATASIZE LT PUSH2 0x1FC JUMPI PUSH0 CALLDATALOAD PUSH1 0xE0 SHR DUP1 PUSH4 0x7B103999 GT PUSH2 0x114 JUMPI DUP1 PUSH4 0x9A6B9CBB GT PUSH2 0xA9 JUMPI DUP1 PUSH4 0xC45A0155 GT PUSH2 0x79 JUMPI DUP1 PUSH4 0xC45A0155 EQ PUSH2 0x4B4 JUMPI DUP1 PUSH4 0xCF4BAA36 EQ PUSH2 0x4C7 JUMPI DUP1 PUSH4 0xD60FAD6C EQ PUSH2 0x4D9 JUMPI DUP1 PUSH4 0xDAC2D6E2 EQ PUSH2 0x4EC JUMPI DUP1 PUSH4 0xF2FDE38B EQ PUSH2 0x4F4 JUMPI PUSH0 DUP1 REVERT JUMPDEST DUP1 PUSH4 0x9A6B9CBB EQ PUSH2 0x441 JUMPI DUP1 PUSH4 0xAA9A068F EQ PUSH2 0x454 JUMPI DUP1 PUSH4 0xAB1EABF2 EQ PUSH2 0x2B2 JUMPI DUP1 PUSH4 0xB56E725C EQ PUSH2 0x494 JUMPI PUSH0 DUP1 REVERT JUMPDEST DUP1 PUSH4 0x8B10890B GT PUSH2 0xE4 JUMPI DUP1 PUSH4 0x8B10890B EQ PUSH2 0x3E3 JUMPI DUP1 PUSH4 0x8DA5CB5B EQ PUSH2 0x3F6 JUMPI DUP1 PUSH4 0x8E0DAC69 EQ PUSH2 0x406 JUMPI DUP1 PUSH4 0x92893E0F EQ PUSH2 0x419 JUMPI PUSH0 DUP1 REVERT JUMPDEST DUP1 PUSH4 0x7B103999 EQ PUSH2 0x37E JUMPI DUP1 PUSH4 0x84BC76A6 EQ PUSH2 0x391 JUMPI DUP1 PUSH4 0x88ABB85F EQ PUSH2 0x3A6 JUMPI DUP1 PUSH4 0x8A19C8BC EQ PUSH2 0x3DA JUMPI PUSH0 DUP1 REVERT JUMPDEST DUP1 PUSH4 0x4054633D GT PUSH2 0x195 JUMPI DUP1 PUSH4 0x65D65E86 GT PUSH2 0x165 JUMPI DUP1 PUSH4 0x65D65E86 EQ PUSH2 0x335 JUMPI DUP1 PUSH4 0x6C1CF037 EQ PUSH2 0x348 JUMPI DUP1 PUSH4 0x715018A6 EQ PUSH2 0x350 JUMPI DUP1 PUSH4 0x739C5B15 EQ PUSH2 0x358 JUMPI DUP1 PUSH4 0x76DDDF9F EQ PUSH2 0x36B JUMPI PUSH0 DUP1 REVERT JUMPDEST DUP1 PUSH4 0x4054633D EQ PUSH2 0x2C5 JUMPI DUP1 PUSH4 0x45EE99A9 EQ PUSH2 0x2F0 JUMPI DUP1 PUSH4 0x4E1F3A00 EQ PUSH2 0x305 JUMPI DUP1 PUSH4 0x613ACE16 EQ PUSH2 0x318 JUMPI PUSH0 DUP1 REVERT JUMPDEST DUP1 PUSH4 0x26589107 GT PUSH2 0x1D0 JUMPI DUP1 PUSH4 0x26589107 EQ PUSH2 0x279 JUMPI DUP1 PUSH4 0x2A943945 EQ PUSH2 0x28C JUMPI DUP1 PUSH4 0x2CB35980 EQ PUSH2 0x29F JUMPI DUP1 PUSH4 0x306B9BB9 EQ PUSH2 0x2B2 JUMPI PUSH0 DUP1 REVERT JUMPDEST DUP1 PUSH3 0xC88C06 EQ PUSH2 0x200 JUMPI DUP1 PUSH4 0x1298F3B9 EQ PUSH2 0x215 JUMPI DUP1 PUSH4 0x157E4C08 EQ PUSH2 0x23B JUMPI DUP1 PUSH4 0x1B745534 EQ PUSH2 0x266 JUMPI JUMPDEST PUSH0 DUP1 REVERT JUMPDEST PUSH2 0x213 PUSH2 0x20E CALLDATASIZE PUSH1 0x4 PUSH2 0x2152 JUMP JUMPDEST PUSH2 0x507 JUMP JUMPDEST STOP JUMPDEST PUSH2 0x228 PUSH2 0x223 CALLDATASIZE PUSH1 0x4 PUSH2 0x21A7 JUMP JUMPDEST PUSH2 0x5E4 JUMP JUMPDEST PUSH1 0x40 MLOAD SWAP1 DUP2 MSTORE PUSH1 0x20 ADD JUMPDEST PUSH1 0x40 MLOAD DUP1 SWAP2 SUB SWAP1 RETURN JUMPDEST PUSH1 0x1 SLOAD PUSH2 0x24E SWAP1 PUSH1 0x1 PUSH1 0x1 PUSH1 0xA0 SHL SUB AND DUP2 JUMP JUMPDEST PUSH1 0x40 MLOAD PUSH1 0x1 PUSH1 0x1 PUSH1 0xA0 SHL SUB SWAP1 SWAP2 AND DUP2 MSTORE PUSH1 0x20 ADD PUSH2 0x232 JUMP JUMPDEST PUSH2 0x228 PUSH2 0x274 CALLDATASIZE PUSH1 0x4 PUSH2 0x21C9 JUMP JUMPDEST PUSH2 0x657 JUMP JUMPDEST PUSH2 0x228 PUSH2 0x287 CALLDATASIZE PUSH1 0x4 PUSH2 0x2217 JUMP JUMPDEST PUSH2 0x702 JUMP JUMPDEST PUSH1 0x4 SLOAD PUSH2 0x24E SWAP1 PUSH1 0x1 PUSH1 0x1 PUSH1 0xA0 SHL SUB AND DUP2 JUMP JUMPDEST PUSH2 0x213 PUSH2 0x2AD CALLDATASIZE PUSH1 0x4 PUSH2 0x2248 JUMP JUMPDEST PUSH2 0x733 JUMP JUMPDEST PUSH2 0x213 PUSH2 0x2C0 CALLDATASIZE PUSH1 0x4 PUSH2 0x21A7 JUMP JUMPDEST PUSH2 0x7BA JUMP JUMPDEST PUSH2 0x228 PUSH2 0x2D3 CALLDATASIZE PUSH1 0x4 PUSH2 0x2217 JUMP JUMPDEST DUP1 MLOAD PUSH1 0x20 DUP2 DUP4 ADD DUP2 ADD DUP1 MLOAD PUSH1 0x9 DUP3 MSTORE SWAP3 DUP3 ADD SWAP2 SWAP1 SWAP4 ADD KECCAK256 SWAP2 MSTORE SLOAD DUP2 JUMP JUMPDEST PUSH2 0x2F8 PUSH2 0xA1D JUMP JUMPDEST PUSH1 0x40 MLOAD PUSH2 0x232 SWAP2 SWAP1 PUSH2 0x2367 JUMP JUMPDEST PUSH2 0x213 PUSH2 0x313 CALLDATASIZE PUSH1 0x4 PUSH2 0x23CA JUMP JUMPDEST PUSH2 0xA90 JUMP JUMPDEST PUSH1 0x7 SLOAD PUSH2 0x325 SWAP1 PUSH1 0xFF AND DUP2 JUMP JUMPDEST PUSH1 0x40 MLOAD SWAP1 ISZERO ISZERO DUP2 MSTORE PUSH1 0x20 ADD PUSH2 0x232 JUMP JUMPDEST PUSH1 0x5 SLOAD PUSH2 0x24E SWAP1 PUSH1 0x1 PUSH1 0x1 PUSH1 0xA0 SHL SUB AND DUP2 JUMP JUMPDEST PUSH2 0x213 PUSH2 0xC0A JUMP JUMPDEST PUSH2 0x213 PUSH2 0xCE1 JUMP JUMPDEST PUSH2 0x213 PUSH2 0x366 CALLDATASIZE PUSH1 0x4 PUSH2 0x2428 JUMP JUMPDEST PUSH2 0xCF4 JUMP JUMPDEST PUSH2 0x228 PUSH2 0x379 CALLDATASIZE PUSH1 0x4 PUSH2 0x2466 JUMP JUMPDEST PUSH2 0x1008 JUMP JUMPDEST PUSH1 0x2 SLOAD PUSH2 0x24E SWAP1 PUSH1 0x1 PUSH1 0x1 PUSH1 0xA0 SHL SUB AND DUP2 JUMP JUMPDEST PUSH2 0x399 PUSH2 0x12A8 JUMP JUMPDEST PUSH1 0x40 MLOAD PUSH2 0x232 SWAP2 SWAP1 PUSH2 0x24C0 JUMP JUMPDEST PUSH2 0x24E PUSH2 0x3B4 CALLDATASIZE PUSH1 0x4 PUSH2 0x2217 JUMP JUMPDEST DUP1 MLOAD PUSH1 0x20 DUP2 DUP4 ADD DUP2 ADD DUP1 MLOAD PUSH1 0x8 DUP3 MSTORE SWAP3 DUP3 ADD SWAP2 SWAP1 SWAP4 ADD KECCAK256 SWAP2 MSTORE SLOAD PUSH1 0x1 PUSH1 0x1 PUSH1 0xA0 SHL SUB AND DUP2 JUMP JUMPDEST PUSH2 0x228 PUSH1 0x6 SLOAD DUP2 JUMP JUMPDEST PUSH2 0x228 PUSH2 0x3F1 CALLDATASIZE PUSH1 0x4 PUSH2 0x2565 JUMP JUMPDEST PUSH2 0x1354 JUMP JUMPDEST PUSH0 SLOAD PUSH1 0x1 PUSH1 0x1 PUSH1 0xA0 SHL SUB AND PUSH2 0x24E JUMP JUMPDEST PUSH2 0x213 PUSH2 0x414 CALLDATASIZE PUSH1 0x4 PUSH2 0x25BA JUMP JUMPDEST PUSH2 0x13F7 JUMP JUMPDEST PUSH2 0x42C PUSH2 0x427 CALLDATASIZE PUSH1 0x4 PUSH2 0x2217 JUMP JUMPDEST PUSH2 0x148A JUMP JUMPDEST PUSH1 0x40 DUP1 MLOAD SWAP3 DUP4 MSTORE PUSH1 0x20 DUP4 ADD SWAP2 SWAP1 SWAP2 MSTORE ADD PUSH2 0x232 JUMP JUMPDEST PUSH2 0x24E PUSH2 0x44F CALLDATASIZE PUSH1 0x4 PUSH2 0x2217 JUMP JUMPDEST PUSH2 0x151F JUMP JUMPDEST PUSH1 0x1 SLOAD PUSH1 0x2 SLOAD PUSH1 0x3 SLOAD PUSH1 0x4 SLOAD PUSH1 0x40 DUP1 MLOAD PUSH1 0x1 PUSH1 0x1 PUSH1 0xA0 SHL SUB SWAP6 DUP7 AND DUP2 MSTORE SWAP4 DUP6 AND PUSH1 0x20 DUP6 ADD MSTORE SWAP2 DUP5 AND SWAP2 DUP4 ADD SWAP2 SWAP1 SWAP2 MSTORE SWAP2 SWAP1 SWAP2 AND PUSH1 0x60 DUP3 ADD MSTORE PUSH1 0x80 ADD PUSH2 0x232 JUMP JUMPDEST PUSH2 0x4A7 PUSH2 0x4A2 CALLDATASIZE PUSH1 0x4 PUSH2 0x2217 JUMP JUMPDEST PUSH2 0x154F JUMP JUMPDEST PUSH1 0x40 MLOAD PUSH2 0x232 SWAP2 SWAP1 PUSH2 0x2601 JUMP JUMPDEST PUSH1 0x3 SLOAD PUSH2 0x24E SWAP1 PUSH1 0x1 PUSH1 0x1 PUSH1 0xA0 SHL SUB AND DUP2 JUMP JUMPDEST PUSH1 0x7 SLOAD PUSH2 0x325 SWAP1 PUSH2 0x100 SWAP1 DIV PUSH1 0xFF AND DUP2 JUMP JUMPDEST PUSH2 0x213 PUSH2 0x4E7 CALLDATASIZE PUSH1 0x4 PUSH2 0x2428 JUMP JUMPDEST PUSH2 0x1624 JUMP JUMPDEST PUSH2 0x213 PUSH2 0x1938 JUMP JUMPDEST PUSH2 0x213 PUSH2 0x502 CALLDATASIZE PUSH1 0x4 PUSH2 0x21A7 JUMP JUMPDEST PUSH2 0x1B03 JUMP JUMPDEST PUSH1 0x5 SLOAD PUSH1 0x1 PUSH1 0x1 PUSH1 0xA0 SHL SUB AND CALLER EQ DUP1 ISZERO SWAP1 PUSH2 0x52C JUMPI POP PUSH0 SLOAD PUSH1 0x1 PUSH1 0x1 PUSH1 0xA0 SHL SUB AND CALLER EQ ISZERO JUMPDEST ISZERO PUSH2 0x54A JUMPI PUSH1 0x40 MLOAD PUSH4 0x6BBAA1C1 PUSH1 0xE0 SHL DUP2 MSTORE PUSH1 0x4 ADD PUSH1 0x40 MLOAD DUP1 SWAP2 SUB SWAP1 REVERT JUMPDEST PUSH1 0x2 SLOAD PUSH1 0x40 MLOAD PUSH3 0x644603 PUSH1 0xE1 SHL DUP2 MSTORE PUSH1 0x1 PUSH1 0x1 PUSH1 0xA0 SHL SUB SWAP1 SWAP2 AND SWAP1 PUSH3 0xC88C06 SWAP1 PUSH2 0x57A SWAP1 DUP6 SWAP1 DUP6 SWAP1 PUSH1 0x4 ADD PUSH2 0x26FE JUMP JUMPDEST PUSH0 PUSH1 0x40 MLOAD DUP1 DUP4 SUB DUP2 PUSH0 DUP8 DUP1 EXTCODESIZE ISZERO DUP1 ISZERO PUSH2 0x591 JUMPI PUSH0 DUP1 REVERT JUMPDEST POP GAS CALL ISZERO DUP1 ISZERO PUSH2 0x5A3 JUMPI RETURNDATASIZE PUSH0 DUP1 RETURNDATACOPY RETURNDATASIZE PUSH0 REVERT JUMPDEST POP POP POP POP PUSH32 0x4FF42CE5F2120CCE7CC3037BA0C02115B80EAAF04608FDFF259F5104B286C4B2 DUP3 DUP3 PUSH1 0x40 MLOAD PUSH2 0x5D8 SWAP3 SWAP2 SWAP1 PUSH2 0x26FE JUMP JUMPDEST PUSH1 0x40 MLOAD DUP1 SWAP2 SUB SWAP1 LOG1 POP POP JUMP JUMPDEST PUSH1 0x1 SLOAD PUSH1 0x40 MLOAD PUSH4 0x70A08231 PUSH1 0xE0 SHL DUP2 MSTORE PUSH1 0x1 PUSH1 0x1 PUSH1 0xA0 SHL SUB DUP4 DUP2 AND PUSH1 0x4 DUP4 ADD MSTORE PUSH0 SWAP3 AND SWAP1 PUSH4 0x70A08231 SWAP1 PUSH1 0x24 ADD JUMPDEST PUSH1 0x20 PUSH1 0x40 MLOAD DUP1 DUP4 SUB DUP2 DUP7 GAS STATICCALL ISZERO DUP1 ISZERO PUSH2 0x62D JUMPI RETURNDATASIZE PUSH0 DUP1 RETURNDATACOPY RETURNDATASIZE PUSH0 REVERT JUMPDEST POP POP POP POP PUSH1 0x40 MLOAD RETURNDATASIZE PUSH1 0x1F NOT PUSH1 0x1F DUP3 ADD AND DUP3 ADD DUP1 PUSH1 0x40 MSTORE POP DUP2 ADD SWAP1 PUSH2 0x651 SWAP2 SWAP1 PUSH2 0x271F JUMP JUMPDEST SWAP3 SWAP2 POP POP JUMP JUMPDEST PUSH0 DUP1 PUSH1 0x8 DUP5 PUSH1 0x40 MLOAD PUSH2 0x669 SWAP2 SWAP1 PUSH2 0x274D JUMP JUMPDEST SWAP1 DUP2 MSTORE PUSH1 0x40 MLOAD SWAP1 DUP2 SWAP1 SUB PUSH1 0x20 ADD SWAP1 KECCAK256 SLOAD PUSH1 0x1 PUSH1 0x1 PUSH1 0xA0 SHL SUB AND SWAP1 POP DUP1 PUSH2 0x692 JUMPI PUSH0 SWAP2 POP POP PUSH2 0x651 JUMP JUMPDEST PUSH1 0x40 MLOAD PUSH4 0x70A08231 PUSH1 0xE0 SHL DUP2 MSTORE PUSH1 0x1 PUSH1 0x1 PUSH1 0xA0 SHL SUB DUP5 DUP2 AND PUSH1 0x4 DUP4 ADD MSTORE DUP3 AND SWAP1 PUSH4 0x70A08231 SWAP1 PUSH1 0x24 ADD PUSH1 0x20 PUSH1 0x40 MLOAD DUP1 DUP4 SUB DUP2 DUP7 GAS STATICCALL ISZERO DUP1 ISZERO PUSH2 0x6D6 JUMPI RETURNDATASIZE PUSH0 DUP1 RETURNDATACOPY RETURNDATASIZE PUSH0 REVERT JUMPDEST POP POP POP POP PUSH1 0x40 MLOAD RETURNDATASIZE PUSH1 0x1F NOT PUSH1 0x1F DUP3 ADD AND DUP3 ADD DUP1 PUSH1 0x40 MSTORE POP DUP2 ADD SWAP1 PUSH2 0x6FA SWAP2 SWAP1 PUSH2 0x271F JUMP JUMPDEST SWAP5 SWAP4 POP POP POP POP JUMP JUMPDEST PUSH1 0x4 DUP1 SLOAD PUSH1 0x40 MLOAD PUSH4 0x26589107 PUSH1 0xE0 SHL DUP2 MSTORE PUSH0 SWAP3 PUSH1 0x1 PUSH1 0x1 PUSH1 0xA0 SHL SUB SWAP1 SWAP3 AND SWAP2 PUSH4 0x26589107 SWAP2 PUSH2 0x612 SWAP2 DUP7 SWAP2 ADD PUSH2 0x2758 JUMP JUMPDEST PUSH1 0x5 SLOAD PUSH1 0x1 PUSH1 0x1 PUSH1 0xA0 SHL SUB AND CALLER EQ DUP1 ISZERO SWAP1 PUSH2 0x758 JUMPI POP PUSH0 SLOAD PUSH1 0x1 PUSH1 0x1 PUSH1 0xA0 SHL SUB AND CALLER EQ ISZERO JUMPDEST ISZERO PUSH2 0x776 JUMPI PUSH1 0x40 MLOAD PUSH4 0x6BBAA1C1 PUSH1 0xE0 SHL DUP2 MSTORE PUSH1 0x4 ADD PUSH1 0x40 MLOAD DUP1 SWAP2 SUB SWAP1 REVERT JUMPDEST PUSH2 0x7B1 PUSH1 0x40 MLOAD DUP1 PUSH1 0xE0 ADD PUSH1 0x40 MSTORE DUP1 DUP10 DUP2 MSTORE PUSH1 0x20 ADD DUP9 DUP2 MSTORE PUSH1 0x20 ADD DUP8 DUP2 MSTORE PUSH1 0x20 ADD DUP7 DUP2 MSTORE PUSH1 0x20 ADD DUP6 DUP2 MSTORE PUSH1 0x20 ADD DUP5 DUP2 MSTORE PUSH1 0x20 ADD DUP4 DUP2 MSTORE POP PUSH2 0x1B40 JUMP JUMPDEST POP POP POP POP POP POP POP JUMP JUMPDEST PUSH1 0x5 SLOAD PUSH1 0x1 PUSH1 0x1 PUSH1 0xA0 SHL SUB AND CALLER EQ DUP1 ISZERO SWAP1 PUSH2 0x7DF JUMPI POP PUSH0 SLOAD PUSH1 0x1 PUSH1 0x1 PUSH1 0xA0 SHL SUB AND CALLER EQ ISZERO JUMPDEST ISZERO PUSH2 0x7FD JUMPI PUSH1 0x40 MLOAD PUSH4 0x6BBAA1C1 PUSH1 0xE0 SHL DUP2 MSTORE PUSH1 0x4 ADD PUSH1 0x40 MLOAD DUP1 SWAP2 SUB SWAP1 REVERT JUMPDEST PUSH1 0x1 SLOAD PUSH1 0x40 DUP1 MLOAD PUSH4 0x313CE567 PUSH1 0xE0 SHL DUP2 MSTORE SWAP1 MLOAD PUSH0 SWAP3 PUSH1 0x1 PUSH1 0x1 PUSH1 0xA0 SHL SUB AND SWAP2 PUSH4 0x313CE567 SWAP2 PUSH1 0x4 DUP1 DUP4 ADD SWAP3 PUSH1 0x20 SWAP3 SWAP2 SWAP1 DUP3 SWAP1 SUB ADD DUP2 DUP7 GAS STATICCALL ISZERO DUP1 ISZERO PUSH2 0x844 JUMPI RETURNDATASIZE PUSH0 DUP1 RETURNDATACOPY RETURNDATASIZE PUSH0 REVERT JUMPDEST POP POP POP POP PUSH1 0x40 MLOAD RETURNDATASIZE PUSH1 0x1F NOT PUSH1 0x1F DUP3 ADD AND DUP3 ADD DUP1 PUSH1 0x40 MSTORE POP DUP2 ADD SWAP1 PUSH2 0x868 SWAP2 SWAP1 PUSH2 0x276A JUMP JUMPDEST PUSH2 0x873 SWAP1 PUSH1 0xA PUSH2 0x2881 JUMP JUMPDEST PUSH2 0x87E SWAP1 PUSH1 0x64 PUSH2 0x288F JUMP JUMPDEST PUSH1 0x1 SLOAD PUSH1 0x40 MLOAD PUSH4 0x70A08231 PUSH1 0xE0 SHL DUP2 MSTORE PUSH1 0x1 PUSH1 0x1 PUSH1 0xA0 SHL SUB DUP6 DUP2 AND PUSH1 0x4 DUP4 ADD MSTORE SWAP3 SWAP4 POP PUSH0 SWAP3 SWAP1 SWAP2 AND SWAP1 PUSH4 0x70A08231 SWAP1 PUSH1 0x24 ADD PUSH1 0x20 PUSH1 0x40 MLOAD DUP1 DUP4 SUB DUP2 DUP7 GAS STATICCALL ISZERO DUP1 ISZERO PUSH2 0x8CB JUMPI RETURNDATASIZE PUSH0 DUP1 RETURNDATACOPY RETURNDATASIZE PUSH0 REVERT JUMPDEST POP POP POP POP PUSH1 0x40 MLOAD RETURNDATASIZE PUSH1 0x1F NOT PUSH1 0x1F DUP3 ADD AND DUP3 ADD DUP1 PUSH1 0x40 MSTORE POP DUP2 ADD SWAP1 PUSH2 0x8EF SWAP2 SWAP1 PUSH2 0x271F JUMP JUMPDEST SWAP1 POP DUP2 DUP2 GT ISZERO PUSH2 0x96A JUMPI PUSH0 PUSH2 0x904 DUP4 DUP4 PUSH2 0x28A6 JUMP JUMPDEST PUSH1 0x1 SLOAD PUSH1 0x40 MLOAD PUSH4 0x2770A7EB PUSH1 0xE2 SHL DUP2 MSTORE SWAP2 SWAP3 POP PUSH1 0x1 PUSH1 0x1 PUSH1 0xA0 SHL SUB AND SWAP1 PUSH4 0x9DC29FAC SWAP1 PUSH2 0x937 SWAP1 DUP8 SWAP1 DUP6 SWAP1 PUSH1 0x4 ADD PUSH2 0x28B9 JUMP JUMPDEST PUSH0 PUSH1 0x40 MLOAD DUP1 DUP4 SUB DUP2 PUSH0 DUP8 DUP1 EXTCODESIZE ISZERO DUP1 ISZERO PUSH2 0x94E JUMPI PUSH0 DUP1 REVERT JUMPDEST POP GAS CALL ISZERO DUP1 ISZERO PUSH2 0x960 JUMPI RETURNDATASIZE PUSH0 DUP1 RETURNDATACOPY RETURNDATASIZE PUSH0 REVERT JUMPDEST POP POP POP POP POP PUSH2 0x9DF JUMP JUMPDEST DUP2 DUP2 LT ISZERO PUSH2 0x9DF JUMPI PUSH0 PUSH2 0x97D DUP3 DUP5 PUSH2 0x28A6 JUMP JUMPDEST PUSH1 0x1 SLOAD PUSH1 0x40 MLOAD PUSH4 0x40C10F19 PUSH1 0xE0 SHL DUP2 MSTORE SWAP2 SWAP3 POP PUSH1 0x1 PUSH1 0x1 PUSH1 0xA0 SHL SUB AND SWAP1 PUSH4 0x40C10F19 SWAP1 PUSH2 0x9B0 SWAP1 DUP8 SWAP1 DUP6 SWAP1 PUSH1 0x4 ADD PUSH2 0x28B9 JUMP JUMPDEST PUSH0 PUSH1 0x40 MLOAD DUP1 DUP4 SUB DUP2 PUSH0 DUP8 DUP1 EXTCODESIZE ISZERO DUP1 ISZERO PUSH2 0x9C7 JUMPI PUSH0 DUP1 REVERT JUMPDEST POP GAS CALL ISZERO DUP1 ISZERO PUSH2 0x9D9 JUMPI RETURNDATASIZE PUSH0 DUP1 RETURNDATACOPY RETURNDATASIZE PUSH0 REVERT JUMPDEST POP POP POP POP POP JUMPDEST PUSH32 0xD1B844701695237443DD884ED7193D9C8788F3BEFD35ADC0910472EB166F3306 DUP4 DUP4 PUSH1 0x40 MLOAD PUSH2 0xA10 SWAP3 SWAP2 SWAP1 PUSH2 0x28B9 JUMP JUMPDEST PUSH1 0x40 MLOAD DUP1 SWAP2 SUB SWAP1 LOG1 POP POP POP JUMP JUMPDEST PUSH1 0x2 SLOAD PUSH1 0x40 DUP1 MLOAD PUSH4 0x45EE99A9 PUSH1 0xE0 SHL DUP2 MSTORE SWAP1 MLOAD PUSH1 0x60 SWAP3 PUSH1 0x1 PUSH1 0x1 PUSH1 0xA0 SHL SUB AND SWAP2 PUSH4 0x45EE99A9 SWAP2 PUSH1 0x4 DUP1 DUP4 ADD SWAP3 PUSH0 SWAP3 SWAP2 SWAP1 DUP3 SWAP1 SUB ADD DUP2 DUP7 GAS STATICCALL ISZERO DUP1 ISZERO PUSH2 0xA64 JUMPI RETURNDATASIZE PUSH0 DUP1 RETURNDATACOPY RETURNDATASIZE PUSH0 REVERT JUMPDEST POP POP POP POP PUSH1 0x40 MLOAD RETURNDATASIZE PUSH0 DUP3 RETURNDATACOPY PUSH1 0x1F RETURNDATASIZE SWAP1 DUP2 ADD PUSH1 0x1F NOT AND DUP3 ADD PUSH1 0x40 MSTORE PUSH2 0xA8B SWAP2 SWAP1 DUP2 ADD SWAP1 PUSH2 0x29C1 JUMP JUMPDEST SWAP1 POP SWAP1 JUMP JUMPDEST PUSH1 0x5 SLOAD PUSH1 0x1 PUSH1 0x1 PUSH1 0xA0 SHL SUB AND CALLER EQ DUP1 ISZERO SWAP1 PUSH2 0xAB5 JUMPI POP PUSH0 SLOAD PUSH1 0x1 PUSH1 0x1 PUSH1 0xA0 SHL SUB AND CALLER EQ ISZERO JUMPDEST ISZERO PUSH2 0xAD3 JUMPI PUSH1 0x40 MLOAD PUSH4 0x6BBAA1C1 PUSH1 0xE0 SHL DUP2 MSTORE PUSH1 0x4 ADD PUSH1 0x40 MLOAD DUP1 SWAP2 SUB SWAP1 REVERT JUMPDEST PUSH1 0x2 PUSH0 SWAP1 SLOAD SWAP1 PUSH2 0x100 EXP SWAP1 DIV PUSH1 0x1 PUSH1 0x1 PUSH1 0xA0 SHL SUB AND PUSH1 0x1 PUSH1 0x1 PUSH1 0xA0 SHL SUB AND PUSH4 0xFC81587A PUSH1 0x40 MLOAD DUP2 PUSH4 0xFFFFFFFF AND PUSH1 0xE0 SHL DUP2 MSTORE PUSH1 0x4 ADD PUSH0 PUSH1 0x40 MLOAD DUP1 DUP4 SUB DUP2 PUSH0 DUP8 DUP1 EXTCODESIZE ISZERO DUP1 ISZERO PUSH2 0xB1F JUMPI PUSH0 DUP1 REVERT JUMPDEST POP GAS CALL ISZERO DUP1 ISZERO PUSH2 0xB31 JUMPI RETURNDATASIZE PUSH0 DUP1 RETURNDATACOPY RETURNDATASIZE PUSH0 REVERT JUMPDEST POP POP PUSH1 0x7 DUP1 SLOAD PUSH1 0xFF NOT AND PUSH1 0x1 OR SWAP1 SSTORE POP POP PUSH1 0x6 DUP1 SLOAD SWAP1 PUSH0 PUSH2 0xB51 DUP4 PUSH2 0x29F2 JUMP JUMPDEST SWAP1 SWAP2 SSTORE POP POP PUSH1 0x2 SLOAD PUSH1 0x6 SLOAD PUSH1 0x40 MLOAD PUSH4 0x31D813FB PUSH1 0xE2 SHL DUP2 MSTORE PUSH1 0x1 PUSH1 0x1 PUSH1 0xA0 SHL SUB SWAP1 SWAP3 AND SWAP2 PUSH4 0xC7604FEC SWAP2 PUSH2 0xB92 SWAP2 DUP6 SWAP1 PUSH1 0x4 ADD SWAP2 DUP3 MSTORE PUSH1 0x20 DUP3 ADD MSTORE PUSH1 0x40 ADD SWAP1 JUMP JUMPDEST PUSH0 PUSH1 0x40 MLOAD DUP1 DUP4 SUB DUP2 PUSH0 DUP8 DUP1 EXTCODESIZE ISZERO DUP1 ISZERO PUSH2 0xBA9 JUMPI PUSH0 DUP1 REVERT JUMPDEST POP GAS CALL ISZERO DUP1 ISZERO PUSH2 0xBBB JUMPI RETURNDATASIZE PUSH0 DUP1 RETURNDATACOPY RETURNDATASIZE PUSH0 REVERT JUMPDEST POP POP POP POP PUSH32 0x29D6D6C69E73EFE2BCE4EA0D86536ADA3C571774B72BD63D51140BBCCEB06F05 PUSH1 0x6 SLOAD DUP3 TIMESTAMP PUSH2 0xBEF SWAP2 SWAP1 PUSH2 0x2A0A JUMP JUMPDEST PUSH1 0x40 DUP1 MLOAD SWAP3 DUP4 MSTORE PUSH1 0x20 DUP4 ADD SWAP2 SWAP1 SWAP2 MSTORE ADD PUSH1 0x40 MLOAD DUP1 SWAP2 SUB SWAP1 LOG1 POP JUMP JUMPDEST PUSH1 0x1 SLOAD PUSH1 0x40 DUP1 MLOAD PUSH4 0x313CE567 PUSH1 0xE0 SHL DUP2 MSTORE SWAP1 MLOAD PUSH1 0x1 PUSH1 0x1 PUSH1 0xA0 SHL SUB SWAP1 SWAP3 AND SWAP2 PUSH4 0xEE67A1E5 SWAP2 CALLER SWAP2 DUP5 SWAP2 PUSH4 0x313CE567 SWAP2 PUSH1 0x4 DUP1 DUP4 ADD SWAP3 PUSH1 0x20 SWAP3 SWAP2 SWAP1 DUP3 SWAP1 SUB ADD DUP2 DUP7 GAS STATICCALL ISZERO DUP1 ISZERO PUSH2 0xC5B JUMPI RETURNDATASIZE PUSH0 DUP1 RETURNDATACOPY RETURNDATASIZE PUSH0 REVERT JUMPDEST POP POP POP POP PUSH1 0x40 MLOAD RETURNDATASIZE PUSH1 0x1F NOT PUSH1 0x1F DUP3 ADD AND DUP3 ADD DUP1 PUSH1 0x40 MSTORE POP DUP2 ADD SWAP1 PUSH2 0xC7F SWAP2 SWAP1 PUSH2 0x276A JUMP JUMPDEST PUSH2 0xC8A SWAP1 PUSH1 0xA PUSH2 0x2881 JUMP JUMPDEST PUSH2 0xC95 SWAP1 PUSH1 0x64 PUSH2 0x288F JUMP JUMPDEST PUSH1 0x40 MLOAD DUP4 PUSH4 0xFFFFFFFF AND PUSH1 0xE0 SHL DUP2 MSTORE PUSH1 0x4 ADD PUSH2 0xCB2 SWAP3 SWAP2 SWAP1 PUSH2 0x28B9 JUMP JUMPDEST PUSH0 PUSH1 0x40 MLOAD DUP1 DUP4 SUB DUP2 PUSH0 DUP8 DUP1 EXTCODESIZE ISZERO DUP1 ISZERO PUSH2 0xCC9 JUMPI PUSH0 DUP1 REVERT JUMPDEST POP GAS CALL ISZERO DUP1 ISZERO PUSH2 0xCDB JUMPI RETURNDATASIZE PUSH0 DUP1 RETURNDATACOPY RETURNDATASIZE PUSH0 REVERT JUMPDEST POP POP POP POP JUMP JUMPDEST PUSH2 0xCE9 PUSH2 0x1FAE JUMP JUMPDEST PUSH2 0xCF2 PUSH0 PUSH2 0x1FDA JUMP JUMPDEST JUMP JUMPDEST PUSH1 0x5 SLOAD PUSH1 0x1 PUSH1 0x1 PUSH1 0xA0 SHL SUB AND CALLER EQ DUP1 ISZERO SWAP1 PUSH2 0xD19 JUMPI POP PUSH0 SLOAD PUSH1 0x1 PUSH1 0x1 PUSH1 0xA0 SHL SUB AND CALLER EQ ISZERO JUMPDEST ISZERO PUSH2 0xD37 JUMPI PUSH1 0x40 MLOAD PUSH4 0x6BBAA1C1 PUSH1 0xE0 SHL DUP2 MSTORE PUSH1 0x4 ADD PUSH1 0x40 MLOAD DUP1 SWAP2 SUB SWAP1 REVERT JUMPDEST PUSH1 0x1 SLOAD PUSH1 0x40 DUP1 MLOAD PUSH4 0x313CE567 PUSH1 0xE0 SHL DUP2 MSTORE SWAP1 MLOAD PUSH0 SWAP3 PUSH1 0x1 PUSH1 0x1 PUSH1 0xA0 SHL SUB AND SWAP2 PUSH4 0x313CE567 SWAP2 PUSH1 0x4 DUP1 DUP4 ADD SWAP3 PUSH1 0x20 SWAP3 SWAP2 SWAP1 DUP3 SWAP1 SUB ADD DUP2 DUP7 GAS STATICCALL ISZERO DUP1 ISZERO PUSH2 0xD7E JUMPI RETURNDATASIZE PUSH0 DUP1 RETURNDATACOPY RETURNDATASIZE PUSH0 REVERT JUMPDEST POP POP POP POP PUSH1 0x40 MLOAD RETURNDATASIZE PUSH1 0x1F NOT PUSH1 0x1F DUP3 ADD AND DUP3 ADD DUP1 PUSH1 0x40 MSTORE POP DUP2 ADD SWAP1 PUSH2 0xDA2 SWAP2 SWAP1 PUSH2 0x276A JUMP JUMPDEST PUSH2 0xDAD SWAP1 PUSH1 0xA PUSH2 0x2881 JUMP JUMPDEST PUSH2 0xDB8 SWAP1 PUSH1 0x64 PUSH2 0x288F JUMP JUMPDEST SWAP1 POP PUSH0 JUMPDEST DUP3 DUP2 LT ISZERO PUSH2 0xCDB JUMPI PUSH1 0x1 SLOAD PUSH0 SWAP1 PUSH1 0x1 PUSH1 0x1 PUSH1 0xA0 SHL SUB AND PUSH4 0x70A08231 DUP7 DUP7 DUP6 DUP2 DUP2 LT PUSH2 0xDE9 JUMPI PUSH2 0xDE9 PUSH2 0x2A1D JUMP JUMPDEST SWAP1 POP PUSH1 0x20 MUL ADD PUSH1 0x20 DUP2 ADD SWAP1 PUSH2 0xDFE SWAP2 SWAP1 PUSH2 0x21A7 JUMP JUMPDEST PUSH1 0x40 MLOAD PUSH1 0x1 PUSH1 0x1 PUSH1 0xE0 SHL SUB NOT PUSH1 0xE0 DUP5 SWAP1 SHL AND DUP2 MSTORE PUSH1 0x1 PUSH1 0x1 PUSH1 0xA0 SHL SUB SWAP1 SWAP2 AND PUSH1 0x4 DUP3 ADD MSTORE PUSH1 0x24 ADD PUSH1 0x20 PUSH1 0x40 MLOAD DUP1 DUP4 SUB DUP2 DUP7 GAS STATICCALL ISZERO DUP1 ISZERO PUSH2 0xE40 JUMPI RETURNDATASIZE PUSH0 DUP1 RETURNDATACOPY RETURNDATASIZE PUSH0 REVERT JUMPDEST POP POP POP POP PUSH1 0x40 MLOAD RETURNDATASIZE PUSH1 0x1F NOT PUSH1 0x1F DUP3 ADD AND DUP3 ADD DUP1 PUSH1 0x40 MSTORE POP DUP2 ADD SWAP1 PUSH2 0xE64 SWAP2 SWAP1 PUSH2 0x271F JUMP JUMPDEST SWAP1 POP DUP3 DUP2 GT ISZERO PUSH2 0xF05 JUMPI PUSH0 PUSH2 0xE79 DUP5 DUP4 PUSH2 0x28A6 JUMP JUMPDEST PUSH1 0x1 SLOAD SWAP1 SWAP2 POP PUSH1 0x1 PUSH1 0x1 PUSH1 0xA0 SHL SUB AND PUSH4 0x9DC29FAC DUP8 DUP8 DUP7 DUP2 DUP2 LT PUSH2 0xE9F JUMPI PUSH2 0xE9F PUSH2 0x2A1D JUMP JUMPDEST SWAP1 POP PUSH1 0x20 MUL ADD PUSH1 0x20 DUP2 ADD SWAP1 PUSH2 0xEB4 SWAP2 SWAP1 PUSH2 0x21A7 JUMP JUMPDEST DUP4 PUSH1 0x40 MLOAD DUP4 PUSH4 0xFFFFFFFF AND PUSH1 0xE0 SHL DUP2 MSTORE PUSH1 0x4 ADD PUSH2 0xED2 SWAP3 SWAP2 SWAP1 PUSH2 0x28B9 JUMP JUMPDEST PUSH0 PUSH1 0x40 MLOAD DUP1 DUP4 SUB DUP2 PUSH0 DUP8 DUP1 EXTCODESIZE ISZERO DUP1 ISZERO PUSH2 0xEE9 JUMPI PUSH0 DUP1 REVERT JUMPDEST POP GAS CALL ISZERO DUP1 ISZERO PUSH2 0xEFB JUMPI RETURNDATASIZE PUSH0 DUP1 RETURNDATACOPY RETURNDATASIZE PUSH0 REVERT JUMPDEST POP POP POP POP POP PUSH2 0xFA0 JUMP JUMPDEST DUP3 DUP2 LT ISZERO PUSH2 0xFA0 JUMPI PUSH0 PUSH2 0xF18 DUP3 DUP6 PUSH2 0x28A6 JUMP JUMPDEST PUSH1 0x1 SLOAD SWAP1 SWAP2 POP PUSH1 0x1 PUSH1 0x1 PUSH1 0xA0 SHL SUB AND PUSH4 0x40C10F19 DUP8 DUP8 DUP7 DUP2 DUP2 LT PUSH2 0xF3E JUMPI PUSH2 0xF3E PUSH2 0x2A1D JUMP JUMPDEST SWAP1 POP PUSH1 0x20 MUL ADD PUSH1 0x20 DUP2 ADD SWAP1 PUSH2 0xF53 SWAP2 SWAP1 PUSH2 0x21A7 JUMP JUMPDEST DUP4 PUSH1 0x40 MLOAD DUP4 PUSH4 0xFFFFFFFF AND PUSH1 0xE0 SHL DUP2 MSTORE PUSH1 0x4 ADD PUSH2 0xF71 SWAP3 SWAP2 SWAP1 PUSH2 0x28B9 JUMP JUMPDEST PUSH0 PUSH1 0x40 MLOAD DUP1 DUP4 SUB DUP2 PUSH0 DUP8 DUP1 EXTCODESIZE ISZERO DUP1 ISZERO PUSH2 0xF88 JUMPI PUSH0 DUP1 REVERT JUMPDEST POP GAS CALL ISZERO DUP1 ISZERO PUSH2 0xF9A JUMPI RETURNDATASIZE PUSH0 DUP1 RETURNDATACOPY RETURNDATASIZE PUSH0 REVERT JUMPDEST POP POP POP POP POP JUMPDEST PUSH32 0xD1B844701695237443DD884ED7193D9C8788F3BEFD35ADC0910472EB166F3306 DUP6 DUP6 DUP5 DUP2 DUP2 LT PUSH2 0xFD3 JUMPI PUSH2 0xFD3 PUSH2 0x2A1D JUMP JUMPDEST SWAP1 POP PUSH1 0x20 MUL ADD PUSH1 0x20 DUP2 ADD SWAP1 PUSH2 0xFE8 SWAP2 SWAP1 PUSH2 0x21A7 JUMP JUMPDEST DUP5 PUSH1 0x40 MLOAD PUSH2 0xFF7 SWAP3 SWAP2 SWAP1 PUSH2 0x28B9 JUMP JUMPDEST PUSH1 0x40 MLOAD DUP1 SWAP2 SUB SWAP1 LOG1 POP PUSH1 0x1 ADD PUSH2 0xDBC JUMP JUMPDEST PUSH0 DUP1 PUSH1 0x9 DUP7 PUSH1 0x40 MLOAD PUSH2 0x101A SWAP2 SWAP1 PUSH2 0x274D JUMP JUMPDEST SWAP1 DUP2 MSTORE PUSH1 0x40 MLOAD SWAP1 DUP2 SWAP1 SUB PUSH1 0x20 ADD SWAP1 KECCAK256 SLOAD SWAP1 POP DUP1 PUSH2 0x106F JUMPI PUSH1 0x40 MLOAD PUSH3 0x461BCD PUSH1 0xE5 SHL DUP2 MSTORE PUSH1 0x20 PUSH1 0x4 DUP3 ADD MSTORE PUSH1 0xE PUSH1 0x24 DUP3 ADD MSTORE PUSH14 0x141BDBDB081B9BDD08199BDD5B99 PUSH1 0x92 SHL PUSH1 0x44 DUP3 ADD MSTORE PUSH1 0x64 ADD JUMPDEST PUSH1 0x40 MLOAD DUP1 SWAP2 SUB SWAP1 REVERT JUMPDEST PUSH1 0x40 MLOAD PUSH4 0x23B872DD PUSH1 0xE0 SHL DUP2 MSTORE CALLER PUSH1 0x4 DUP3 ADD MSTORE ADDRESS PUSH1 0x24 DUP3 ADD MSTORE PUSH1 0x44 DUP2 ADD DUP6 SWAP1 MSTORE PUSH1 0x1 PUSH1 0x1 PUSH1 0xA0 SHL SUB DUP7 AND SWAP1 PUSH4 0x23B872DD SWAP1 PUSH1 0x64 ADD PUSH1 0x20 PUSH1 0x40 MLOAD DUP1 DUP4 SUB DUP2 PUSH0 DUP8 GAS CALL ISZERO DUP1 ISZERO PUSH2 0x10BF JUMPI RETURNDATASIZE PUSH0 DUP1 RETURNDATACOPY RETURNDATASIZE PUSH0 REVERT JUMPDEST POP POP POP POP PUSH1 0x40 MLOAD RETURNDATASIZE PUSH1 0x1F NOT PUSH1 0x1F DUP3 ADD AND DUP3 ADD DUP1 PUSH1 0x40 MSTORE POP DUP2 ADD SWAP1 PUSH2 0x10E3 SWAP2 SWAP1 PUSH2 0x2A45 JUMP JUMPDEST POP PUSH1 0x4 DUP1 SLOAD PUSH1 0x40 MLOAD PUSH4 0x95EA7B3 PUSH1 0xE0 SHL DUP2 MSTORE PUSH1 0x1 PUSH1 0x1 PUSH1 0xA0 SHL SUB DUP1 DUP10 AND SWAP4 PUSH4 0x95EA7B3 SWAP4 PUSH2 0x1116 SWAP4 SWAP3 AND SWAP2 DUP10 SWAP2 ADD PUSH2 0x28B9 JUMP JUMPDEST PUSH1 0x20 PUSH1 0x40 MLOAD DUP1 DUP4 SUB DUP2 PUSH0 DUP8 GAS CALL ISZERO DUP1 ISZERO PUSH2 0x1132 JUMPI RETURNDATASIZE PUSH0 DUP1 RETURNDATACOPY RETURNDATASIZE PUSH0 REVERT JUMPDEST POP POP POP POP PUSH1 0x40 MLOAD RETURNDATASIZE PUSH1 0x1F NOT PUSH1 0x1F DUP3 ADD AND DUP3 ADD DUP1 PUSH1 0x40 MSTORE POP DUP2 ADD SWAP1 PUSH2 0x1156 SWAP2 SWAP1 PUSH2 0x2A45 JUMP JUMPDEST POP PUSH1 0x4 DUP1 SLOAD PUSH1 0x40 MLOAD PUSH4 0x4669660F PUSH1 0xE0 SHL DUP2 MSTORE SWAP2 DUP3 ADD DUP4 SWAP1 MSTORE PUSH1 0x1 PUSH1 0x1 PUSH1 0xA0 SHL SUB DUP8 DUP2 AND PUSH1 0x24 DUP5 ADD MSTORE PUSH1 0x44 DUP4 ADD DUP8 SWAP1 MSTORE PUSH1 0x64 DUP4 ADD DUP7 SWAP1 MSTORE AND SWAP1 PUSH4 0x4669660F SWAP1 PUSH1 0x84 ADD PUSH1 0x20 PUSH1 0x40 MLOAD DUP1 DUP4 SUB DUP2 PUSH0 DUP8 GAS CALL ISZERO DUP1 ISZERO PUSH2 0x11B3 JUMPI RETURNDATASIZE PUSH0 DUP1 RETURNDATACOPY RETURNDATASIZE PUSH0 REVERT JUMPDEST POP POP POP POP PUSH1 0x40 MLOAD RETURNDATASIZE PUSH1 0x1F NOT PUSH1 0x1F DUP3 ADD AND DUP3 ADD DUP1 PUSH1 0x40 MSTORE POP DUP2 ADD SWAP1 PUSH2 0x11D7 SWAP2 SWAP1 PUSH2 0x271F JUMP JUMPDEST PUSH1 0x1 SLOAD SWAP1 SWAP3 POP PUSH0 SWAP1 PUSH1 0x1 PUSH1 0x1 PUSH1 0xA0 SHL SUB DUP8 DUP2 AND SWAP2 AND EQ PUSH2 0x1202 JUMPI PUSH1 0x1 SLOAD PUSH1 0x1 PUSH1 0x1 PUSH1 0xA0 SHL SUB AND PUSH2 0x122C JUMP JUMPDEST PUSH1 0x8 DUP8 PUSH1 0x40 MLOAD PUSH2 0x1212 SWAP2 SWAP1 PUSH2 0x274D JUMP JUMPDEST SWAP1 DUP2 MSTORE PUSH1 0x40 MLOAD SWAP1 DUP2 SWAP1 SUB PUSH1 0x20 ADD SWAP1 KECCAK256 SLOAD PUSH1 0x1 PUSH1 0x1 PUSH1 0xA0 SHL SUB AND JUMPDEST PUSH1 0x40 MLOAD PUSH4 0xA9059CBB PUSH1 0xE0 SHL DUP2 MSTORE SWAP1 SWAP2 POP PUSH1 0x1 PUSH1 0x1 PUSH1 0xA0 SHL SUB DUP3 AND SWAP1 PUSH4 0xA9059CBB SWAP1 PUSH2 0x125D SWAP1 CALLER SWAP1 DUP8 SWAP1 PUSH1 0x4 ADD PUSH2 0x28B9 JUMP JUMPDEST PUSH1 0x20 PUSH1 0x40 MLOAD DUP1 DUP4 SUB DUP2 PUSH0 DUP8 GAS CALL ISZERO DUP1 ISZERO PUSH2 0x1279 JUMPI RETURNDATASIZE PUSH0 DUP1 RETURNDATACOPY RETURNDATASIZE PUSH0 REVERT JUMPDEST POP POP POP POP PUSH1 0x40 MLOAD RETURNDATASIZE PUSH1 0x1F NOT PUSH1 0x1F DUP3 ADD AND DUP3 ADD DUP1 PUSH1 0x40 MSTORE POP DUP2 ADD SWAP1 PUSH2 0x129D SWAP2 SWAP1 PUSH2 0x2A45 JUMP JUMPDEST POP POP POP SWAP5 SWAP4 POP POP POP POP JUMP JUMPDEST PUSH2 0x12DE PUSH1 0x40 MLOAD DUP1 PUSH1 0xC0 ADD PUSH1 0x40 MSTORE DUP1 PUSH0 DUP2 MSTORE PUSH1 0x20 ADD PUSH0 DUP2 MSTORE PUSH1 0x20 ADD PUSH0 DUP2 MSTORE PUSH1 0x20 ADD PUSH0 DUP2 MSTORE PUSH1 0x20 ADD PUSH1 0x60 DUP2 MSTORE PUSH1 0x20 ADD PUSH0 ISZERO ISZERO DUP2 MSTORE POP SWAP1 JUMP JUMPDEST PUSH1 0x2 PUSH0 SWAP1 SLOAD SWAP1 PUSH2 0x100 EXP SWAP1 DIV PUSH1 0x1 PUSH1 0x1 PUSH1 0xA0 SHL SUB AND PUSH1 0x1 PUSH1 0x1 PUSH1 0xA0 SHL SUB AND PUSH4 0x80821C37 PUSH1 0x40 MLOAD DUP2 PUSH4 0xFFFFFFFF AND PUSH1 0xE0 SHL DUP2 MSTORE PUSH1 0x4 ADD PUSH0 PUSH1 0x40 MLOAD DUP1 DUP4 SUB DUP2 DUP7 GAS STATICCALL ISZERO DUP1 ISZERO PUSH2 0x132D JUMPI RETURNDATASIZE PUSH0 DUP1 RETURNDATACOPY RETURNDATASIZE PUSH0 REVERT JUMPDEST POP POP POP POP PUSH1 0x40 MLOAD RETURNDATASIZE PUSH0 DUP3 RETURNDATACOPY PUSH1 0x1F RETURNDATASIZE SWAP1 DUP2 ADD PUSH1 0x1F NOT AND DUP3 ADD PUSH1 0x40 MSTORE PUSH2 0xA8B SWAP2 SWAP1 DUP2 ADD SWAP1 PUSH2 0x2A5E JUMP JUMPDEST PUSH0 DUP1 PUSH1 0x9 DUP6 PUSH1 0x40 MLOAD PUSH2 0x1366 SWAP2 SWAP1 PUSH2 0x274D JUMP JUMPDEST SWAP1 DUP2 MSTORE PUSH1 0x40 MLOAD SWAP1 DUP2 SWAP1 SUB PUSH1 0x20 ADD DUP2 KECCAK256 SLOAD PUSH1 0x4 DUP1 SLOAD PUSH4 0x3E58A01D PUSH1 0xE1 SHL DUP5 MSTORE SWAP1 DUP4 ADD DUP3 SWAP1 MSTORE PUSH1 0x1 PUSH1 0x1 PUSH1 0xA0 SHL SUB DUP8 DUP2 AND PUSH1 0x24 DUP6 ADD MSTORE PUSH1 0x44 DUP5 ADD DUP8 SWAP1 MSTORE SWAP2 SWAP4 POP AND SWAP1 PUSH4 0x7CB1403A SWAP1 PUSH1 0x64 ADD PUSH1 0x20 PUSH1 0x40 MLOAD DUP1 DUP4 SUB DUP2 DUP7 GAS STATICCALL ISZERO DUP1 ISZERO PUSH2 0x13CA JUMPI RETURNDATASIZE PUSH0 DUP1 RETURNDATACOPY RETURNDATASIZE PUSH0 REVERT JUMPDEST POP POP POP POP PUSH1 0x40 MLOAD RETURNDATASIZE PUSH1 0x1F NOT PUSH1 0x1F DUP3 ADD AND DUP3 ADD DUP1 PUSH1 0x40 MSTORE POP DUP2 ADD SWAP1 PUSH2 0x13EE SWAP2 SWAP1 PUSH2 0x271F JUMP JUMPDEST SWAP6 SWAP5 POP POP POP POP POP JUMP JUMPDEST PUSH1 0x5 SLOAD PUSH1 0x1 PUSH1 0x1 PUSH1 0xA0 SHL SUB AND CALLER EQ DUP1 ISZERO SWAP1 PUSH2 0x141C JUMPI POP PUSH0 SLOAD PUSH1 0x1 PUSH1 0x1 PUSH1 0xA0 SHL SUB AND CALLER EQ ISZERO JUMPDEST ISZERO PUSH2 0x143A JUMPI PUSH1 0x40 MLOAD PUSH4 0x6BBAA1C1 PUSH1 0xE0 SHL DUP2 MSTORE PUSH1 0x4 ADD PUSH1 0x40 MLOAD DUP1 SWAP2 SUB SWAP1 REVERT JUMPDEST PUSH2 0x1443 DUP4 PUSH2 0xA90 JUMP JUMPDEST PUSH0 JUMPDEST DUP2 DUP2 LT ISZERO PUSH2 0xCDB JUMPI PUSH2 0x1482 DUP4 DUP4 DUP4 DUP2 DUP2 LT PUSH2 0x1462 JUMPI PUSH2 0x1462 PUSH2 0x2A1D JUMP JUMPDEST SWAP1 POP PUSH1 0x20 MUL DUP2 ADD SWAP1 PUSH2 0x1474 SWAP2 SWAP1 PUSH2 0x2B01 JUMP JUMPDEST PUSH2 0x147D SWAP1 PUSH2 0x2B1F JUMP JUMPDEST PUSH2 0x1B40 JUMP JUMPDEST PUSH1 0x1 ADD PUSH2 0x1445 JUMP JUMPDEST PUSH0 DUP1 PUSH0 PUSH1 0x9 DUP5 PUSH1 0x40 MLOAD PUSH2 0x149D SWAP2 SWAP1 PUSH2 0x274D JUMP JUMPDEST SWAP1 DUP2 MSTORE PUSH1 0x40 MLOAD SWAP1 DUP2 SWAP1 SUB PUSH1 0x20 ADD DUP2 KECCAK256 SLOAD PUSH1 0x4 DUP1 SLOAD PUSH4 0x14953D31 PUSH1 0xE3 SHL DUP5 MSTORE SWAP1 DUP4 ADD DUP3 SWAP1 MSTORE SWAP1 SWAP3 POP PUSH1 0x1 PUSH1 0x1 PUSH1 0xA0 SHL SUB AND SWAP1 PUSH4 0xA4A9E988 SWAP1 PUSH1 0x24 ADD PUSH1 0x40 DUP1 MLOAD DUP1 DUP4 SUB DUP2 DUP7 GAS STATICCALL ISZERO DUP1 ISZERO PUSH2 0x14F1 JUMPI RETURNDATASIZE PUSH0 DUP1 RETURNDATACOPY RETURNDATASIZE PUSH0 REVERT JUMPDEST POP POP POP POP PUSH1 0x40 MLOAD RETURNDATASIZE PUSH1 0x1F NOT PUSH1 0x1F DUP3 ADD AND DUP3 ADD DUP1 PUSH1 0x40 MSTORE POP DUP2 ADD SWAP1 PUSH2 0x1515 SWAP2 SWAP1 PUSH2 0x2C1E JUMP JUMPDEST SWAP3 POP SWAP3 POP POP SWAP2 POP SWAP2 JUMP JUMPDEST PUSH0 PUSH1 0x8 DUP3 PUSH1 0x40 MLOAD PUSH2 0x1530 SWAP2 SWAP1 PUSH2 0x274D JUMP JUMPDEST SWAP1 DUP2 MSTORE PUSH1 0x40 MLOAD SWAP1 DUP2 SWAP1 SUB PUSH1 0x20 ADD SWAP1 KECCAK256 SLOAD PUSH1 0x1 PUSH1 0x1 PUSH1 0xA0 SHL SUB AND SWAP3 SWAP2 POP POP JUMP JUMPDEST PUSH2 0x15B3 PUSH1 0x40 MLOAD DUP1 PUSH2 0x160 ADD PUSH1 0x40 MSTORE DUP1 PUSH1 0x60 DUP2 MSTORE PUSH1 0x20 ADD PUSH1 0x60 DUP2 MSTORE PUSH1 0x20 ADD PUSH1 0x60 DUP2 MSTORE PUSH1 0x20 ADD PUSH1 0x60 DUP2 MSTORE PUSH1 0x20 ADD PUSH1 0x60 DUP2 MSTORE PUSH1 0x20 ADD PUSH0 DUP2 MSTORE PUSH1 0x20 ADD PUSH0 PUSH1 0x1 PUSH1 0x1 PUSH1 0xA0 SHL SUB AND DUP2 MSTORE PUSH1 0x20 ADD PUSH0 ISZERO ISZERO DUP2 MSTORE PUSH1 0x20 ADD PUSH0 ISZERO ISZERO DUP2 MSTORE PUSH1 0x20 ADD PUSH0 DUP2 MSTORE PUSH1 0x20 ADD PUSH0 DUP2 MSTORE POP SWAP1 JUMP JUMPDEST PUSH1 0x2 SLOAD PUSH1 0x40 MLOAD PUSH4 0x25D3A09D PUSH1 0xE0 SHL DUP2 MSTORE PUSH1 0x1 PUSH1 0x1 PUSH1 0xA0 SHL SUB SWAP1 SWAP2 AND SWAP1 PUSH4 0x25D3A09D SWAP1 PUSH2 0x15E3 SWAP1 DUP6 SWAP1 PUSH1 0x4 ADD PUSH2 0x2758 JUMP JUMPDEST PUSH0 PUSH1 0x40 MLOAD DUP1 DUP4 SUB DUP2 DUP7 GAS STATICCALL ISZERO DUP1 ISZERO PUSH2 0x15FD JUMPI RETURNDATASIZE PUSH0 DUP1 RETURNDATACOPY RETURNDATASIZE PUSH0 REVERT JUMPDEST POP POP POP POP PUSH1 0x40 MLOAD RETURNDATASIZE PUSH0 DUP3 RETURNDATACOPY PUSH1 0x1F RETURNDATASIZE SWAP1 DUP2 ADD PUSH1 0x1F NOT AND DUP3 ADD PUSH1 0x40 MSTORE PUSH2 0x651 SWAP2 SWAP1 DUP2 ADD SWAP1 PUSH2 0x2C4B JUMP JUMPDEST PUSH1 0x5 SLOAD PUSH1 0x1 PUSH1 0x1 PUSH1 0xA0 SHL SUB AND CALLER EQ DUP1 ISZERO SWAP1 PUSH2 0x1649 JUMPI POP PUSH0 SLOAD PUSH1 0x1 PUSH1 0x1 PUSH1 0xA0 SHL SUB AND CALLER EQ ISZERO JUMPDEST ISZERO PUSH2 0x1667 JUMPI PUSH1 0x40 MLOAD PUSH4 0x6BBAA1C1 PUSH1 0xE0 SHL DUP2 MSTORE PUSH1 0x4 ADD PUSH1 0x40 MLOAD DUP1 SWAP2 SUB SWAP1 REVERT JUMPDEST PUSH1 0x1 SLOAD PUSH1 0x40 DUP1 MLOAD PUSH4 0x313CE567 PUSH1 0xE0 SHL DUP2 MSTORE SWAP1 MLOAD PUSH0 SWAP3 PUSH1 0x1 PUSH1 0x1 PUSH1 0xA0 SHL SUB AND SWAP2 PUSH4 0x313CE567 SWAP2 PUSH1 0x4 DUP1 DUP4 ADD SWAP3 PUSH1 0x20 SWAP3 SWAP2 SWAP1 DUP3 SWAP1 SUB ADD DUP2 DUP7 GAS STATICCALL ISZERO DUP1 ISZERO PUSH2 0x16AE JUMPI RETURNDATASIZE PUSH0 DUP1 RETURNDATACOPY RETURNDATASIZE PUSH0 REVERT JUMPDEST POP POP POP POP PUSH1 0x40 MLOAD RETURNDATASIZE PUSH1 0x1F NOT PUSH1 0x1F DUP3 ADD AND DUP3 ADD DUP1 PUSH1 0x40 MSTORE POP DUP2 ADD SWAP1 PUSH2 0x16D2 SWAP2 SWAP1 PUSH2 0x276A JUMP JUMPDEST PUSH2 0x16DD SWAP1 PUSH1 0xA PUSH2 0x2881 JUMP JUMPDEST PUSH2 0x16E8 SWAP1 PUSH1 0x64 PUSH2 0x288F JUMP JUMPDEST SWAP1 POP PUSH0 JUMPDEST DUP3 DUP2 LT ISZERO PUSH2 0xCDB JUMPI PUSH1 0x1 SLOAD PUSH0 SWAP1 PUSH1 0x1 PUSH1 0x1 PUSH1 0xA0 SHL SUB AND PUSH4 0x70A08231 DUP7 DUP7 DUP6 DUP2 DUP2 LT PUSH2 0x1719 JUMPI PUSH2 0x1719 PUSH2 0x2A1D JUMP JUMPDEST SWAP1 POP PUSH1 0x20 MUL ADD PUSH1 0x20 DUP2 ADD SWAP1 PUSH2 0x172E SWAP2 SWAP1 PUSH2 0x21A7 JUMP JUMPDEST PUSH1 0x40 MLOAD PUSH1 0x1 PUSH1 0x1 PUSH1 0xE0 SHL SUB NOT PUSH1 0xE0 DUP5 SWAP1 SHL AND DUP2 MSTORE PUSH1 0x1 PUSH1 0x1 PUSH1 0xA0 SHL SUB SWAP1 SWAP2 AND PUSH1 0x4 DUP3 ADD MSTORE PUSH1 0x24 ADD PUSH1 0x20 PUSH1 0x40 MLOAD DUP1 DUP4 SUB DUP2 DUP7 GAS STATICCALL ISZERO DUP1 ISZERO PUSH2 0x1770 JUMPI RETURNDATASIZE PUSH0 DUP1 RETURNDATACOPY RETURNDATASIZE PUSH0 REVERT JUMPDEST POP POP POP POP PUSH1 0x40 MLOAD RETURNDATASIZE PUSH1 0x1F NOT PUSH1 0x1F DUP3 ADD AND DUP3 ADD DUP1 PUSH1 0x40 MSTORE POP DUP2 ADD SWAP1 PUSH2 0x1794 SWAP2 SWAP1 PUSH2 0x271F JUMP JUMPDEST SWAP1 POP DUP3 DUP2 GT ISZERO PUSH2 0x1835 JUMPI PUSH0 PUSH2 0x17A9 DUP5 DUP4 PUSH2 0x28A6 JUMP JUMPDEST PUSH1 0x1 SLOAD SWAP1 SWAP2 POP PUSH1 0x1 PUSH1 0x1 PUSH1 0xA0 SHL SUB AND PUSH4 0x9DC29FAC DUP8 DUP8 DUP7 DUP2 DUP2 LT PUSH2 0x17CF JUMPI PUSH2 0x17CF PUSH2 0x2A1D JUMP JUMPDEST SWAP1 POP PUSH1 0x20 MUL ADD PUSH1 0x20 DUP2 ADD SWAP1 PUSH2 0x17E4 SWAP2 SWAP1 PUSH2 0x21A7 JUMP JUMPDEST DUP4 PUSH1 0x40 MLOAD DUP4 PUSH4 0xFFFFFFFF AND PUSH1 0xE0 SHL DUP2 MSTORE PUSH1 0x4 ADD PUSH2 0x1802 SWAP3 SWAP2 SWAP1 PUSH2 0x28B9 JUMP JUMPDEST PUSH0 PUSH1 0x40 MLOAD DUP1 DUP4 SUB DUP2 PUSH0 DUP8 DUP1 EXTCODESIZE ISZERO DUP1 ISZERO PUSH2 0x1819 JUMPI PUSH0 DUP1 REVERT JUMPDEST POP GAS CALL ISZERO DUP1 ISZERO PUSH2 0x182B JUMPI RETURNDATASIZE PUSH0 DUP1 RETURNDATACOPY RETURNDATASIZE PUSH0 REVERT JUMPDEST POP POP POP POP POP PUSH2 0x18D0 JUMP JUMPDEST DUP3 DUP2 LT ISZERO PUSH2 0x18D0 JUMPI PUSH0 PUSH2 0x1848 DUP3 DUP6 PUSH2 0x28A6 JUMP JUMPDEST PUSH1 0x1 SLOAD SWAP1 SWAP2 POP PUSH1 0x1 PUSH1 0x1 PUSH1 0xA0 SHL SUB AND PUSH4 0x40C10F19 DUP8 DUP8 DUP7 DUP2 DUP2 LT PUSH2 0x186E JUMPI PUSH2 0x186E PUSH2 0x2A1D JUMP JUMPDEST SWAP1 POP PUSH1 0x20 MUL ADD PUSH1 0x20 DUP2 ADD SWAP1 PUSH2 0x1883 SWAP2 SWAP1 PUSH2 0x21A7 JUMP JUMPDEST DUP4 PUSH1 0x40 MLOAD DUP4 PUSH4 0xFFFFFFFF AND PUSH1 0xE0 SHL DUP2 MSTORE PUSH1 0x4 ADD PUSH2 0x18A1 SWAP3 SWAP2 SWAP1 PUSH2 0x28B9 JUMP JUMPDEST PUSH0 PUSH1 0x40 MLOAD DUP1 DUP4 SUB DUP2 PUSH0 DUP8 DUP1 EXTCODESIZE ISZERO DUP1 ISZERO PUSH2 0x18B8 JUMPI PUSH0 DUP1 REVERT JUMPDEST POP GAS CALL ISZERO DUP1 ISZERO PUSH2 0x18CA JUMPI RETURNDATASIZE PUSH0 DUP1 RETURNDATACOPY RETURNDATASIZE PUSH0 REVERT JUMPDEST POP POP POP POP POP JUMPDEST PUSH32 0xD1B844701695237443DD884ED7193D9C8788F3BEFD35ADC0910472EB166F3306 DUP6 DUP6 DUP5 DUP2 DUP2 LT PUSH2 0x1903 JUMPI PUSH2 0x1903 PUSH2 0x2A1D JUMP JUMPDEST SWAP1 POP PUSH1 0x20 MUL ADD PUSH1 0x20 DUP2 ADD SWAP1 PUSH2 0x1918 SWAP2 SWAP1 PUSH2 0x21A7 JUMP JUMPDEST DUP5 PUSH1 0x40 MLOAD PUSH2 0x1927 SWAP3 SWAP2 SWAP1 PUSH2 0x28B9 JUMP JUMPDEST PUSH1 0x40 MLOAD DUP1 SWAP2 SUB SWAP1 LOG1 POP PUSH1 0x1 ADD PUSH2 0x16EC JUMP JUMPDEST PUSH2 0x1940 PUSH2 0x1FAE JUMP JUMPDEST PUSH1 0x7 SLOAD PUSH2 0x100 SWAP1 DIV PUSH1 0xFF AND ISZERO PUSH2 0x1969 JUMPI PUSH1 0x40 MLOAD PUSH4 0xA43E673D PUSH1 0xE0 SHL DUP2 MSTORE PUSH1 0x4 ADD PUSH1 0x40 MLOAD DUP1 SWAP2 SUB SWAP1 REVERT JUMPDEST PUSH1 0x1 SLOAD PUSH1 0x40 MLOAD PUSH4 0x64C2419 PUSH1 0xE1 SHL DUP2 MSTORE ADDRESS PUSH1 0x4 DUP3 ADD MSTORE PUSH1 0x1 PUSH1 0x1 PUSH1 0xA0 SHL SUB SWAP1 SWAP2 AND SWAP1 PUSH4 0xC984832 SWAP1 PUSH1 0x24 ADD PUSH0 PUSH1 0x40 MLOAD DUP1 DUP4 SUB DUP2 PUSH0 DUP8 DUP1 EXTCODESIZE ISZERO DUP1 ISZERO PUSH2 0x19AB JUMPI PUSH0 DUP1 REVERT JUMPDEST POP GAS CALL ISZERO DUP1 ISZERO PUSH2 0x19BD JUMPI RETURNDATASIZE PUSH0 DUP1 RETURNDATACOPY RETURNDATASIZE PUSH0 REVERT JUMPDEST POP POP PUSH1 0x2 SLOAD PUSH1 0x40 MLOAD PUSH4 0xF85EA2AB PUSH1 0xE0 SHL DUP2 MSTORE ADDRESS PUSH1 0x4 DUP3 ADD MSTORE PUSH1 0x1 PUSH1 0x1 PUSH1 0xA0 SHL SUB SWAP1 SWAP2 AND SWAP3 POP PUSH4 0xF85EA2AB SWAP2 POP PUSH1 0x24 ADD PUSH0 PUSH1 0x40 MLOAD DUP1 DUP4 SUB DUP2 PUSH0 DUP8 DUP1 EXTCODESIZE ISZERO DUP1 ISZERO PUSH2 0x1A03 JUMPI PUSH0 DUP1 REVERT JUMPDEST POP GAS CALL ISZERO DUP1 ISZERO PUSH2 0x1A15 JUMPI RETURNDATASIZE PUSH0 DUP1 RETURNDATACOPY RETURNDATASIZE PUSH0 REVERT JUMPDEST POP POP PUSH1 0x3 SLOAD PUSH1 0x40 MLOAD PUSH4 0xF85EA2AB PUSH1 0xE0 SHL DUP2 MSTORE ADDRESS PUSH1 0x4 DUP3 ADD MSTORE PUSH1 0x1 PUSH1 0x1 PUSH1 0xA0 SHL SUB SWAP1 SWAP2 AND SWAP3 POP PUSH4 0xF85EA2AB SWAP2 POP PUSH1 0x24 ADD PUSH0 PUSH1 0x40 MLOAD DUP1 DUP4 SUB DUP2 PUSH0 DUP8 DUP1 EXTCODESIZE ISZERO DUP1 ISZERO PUSH2 0x1A5B JUMPI PUSH0 DUP1 REVERT JUMPDEST POP GAS CALL ISZERO DUP1 ISZERO PUSH2 0x1A6D JUMPI RETURNDATASIZE PUSH0 DUP1 RETURNDATACOPY RETURNDATASIZE PUSH0 REVERT JUMPDEST POP POP PUSH1 0x4 DUP1 SLOAD PUSH1 0x40 MLOAD PUSH4 0xC0D78655 PUSH1 0xE0 SHL DUP2 MSTORE ADDRESS SWAP3 DUP2 ADD SWAP3 SWAP1 SWAP3 MSTORE PUSH1 0x1 PUSH1 0x1 PUSH1 0xA0 SHL SUB AND SWAP3 POP PUSH4 0xC0D78655 SWAP2 POP PUSH1 0x24 ADD PUSH0 PUSH1 0x40 MLOAD DUP1 DUP4 SUB DUP2 PUSH0 DUP8 DUP1 EXTCODESIZE ISZERO DUP1 ISZERO PUSH2 0x1AB4 JUMPI PUSH0 DUP1 REVERT JUMPDEST POP GAS CALL ISZERO DUP1 ISZERO PUSH2 0x1AC6 JUMPI RETURNDATASIZE PUSH0 DUP1 RETURNDATACOPY RETURNDATASIZE PUSH0 REVERT JUMPDEST POP POP PUSH1 0x7 DUP1 SLOAD PUSH2 0xFF00 NOT AND PUSH2 0x100 OR SWAP1 SSTORE POP POP PUSH1 0x40 MLOAD PUSH32 0x308C7D86757BFE39879A65086E28D78241E7A8DEE38349A04A4EB3F6D71B0A13 SWAP1 PUSH0 SWAP1 LOG1 JUMP JUMPDEST PUSH2 0x1B0B PUSH2 0x1FAE JUMP JUMPDEST PUSH1 0x1 PUSH1 0x1 PUSH1 0xA0 SHL SUB DUP2 AND PUSH2 0x1B34 JUMPI PUSH1 0x40 MLOAD PUSH4 0x1E4FBDF7 PUSH1 0xE0 SHL DUP2 MSTORE PUSH0 PUSH1 0x4 DUP3 ADD MSTORE PUSH1 0x24 ADD PUSH2 0x1066 JUMP JUMPDEST PUSH2 0x1B3D DUP2 PUSH2 0x1FDA JUMP JUMPDEST POP JUMP JUMPDEST PUSH1 0x3 SLOAD DUP2 MLOAD PUSH1 0x20 DUP1 DUP5 ADD MLOAD PUSH1 0x40 MLOAD PUSH0 SWAP5 PUSH1 0x1 PUSH1 0x1 PUSH1 0xA0 SHL SUB AND SWAP4 PUSH4 0xB591B96C SWAP4 SWAP1 SWAP3 PUSH2 0x1B6E SWAP3 SWAP1 SWAP2 ADD PUSH2 0x2DB5 JUMP JUMPDEST PUSH1 0x40 MLOAD PUSH1 0x20 DUP2 DUP4 SUB SUB DUP2 MSTORE SWAP1 PUSH1 0x40 MSTORE DUP6 PUSH0 ADD MLOAD PUSH1 0x40 MLOAD PUSH1 0x20 ADD PUSH2 0x1B91 SWAP2 SWAP1 PUSH2 0x2DCF JUMP JUMPDEST PUSH1 0x40 MLOAD PUSH1 0x20 DUP2 DUP4 SUB SUB DUP2 MSTORE SWAP1 PUSH1 0x40 MSTORE PUSH1 0x40 MLOAD DUP5 PUSH4 0xFFFFFFFF AND PUSH1 0xE0 SHL DUP2 MSTORE PUSH1 0x4 ADD PUSH2 0x1BBE SWAP4 SWAP3 SWAP2 SWAP1 PUSH2 0x2DE8 JUMP JUMPDEST PUSH1 0x20 PUSH1 0x40 MLOAD DUP1 DUP4 SUB DUP2 PUSH0 DUP8 GAS CALL ISZERO DUP1 ISZERO PUSH2 0x1BDA JUMPI RETURNDATASIZE PUSH0 DUP1 RETURNDATACOPY RETURNDATASIZE PUSH0 REVERT JUMPDEST POP POP POP POP PUSH1 0x40 MLOAD RETURNDATASIZE PUSH1 0x1F NOT PUSH1 0x1F DUP3 ADD AND DUP3 ADD DUP1 PUSH1 0x40 MSTORE POP DUP2 ADD SWAP1 PUSH2 0x1BFE SWAP2 SWAP1 PUSH2 0x2E20 JUMP JUMPDEST SWAP1 POP DUP1 PUSH1 0x8 DUP4 PUSH0 ADD MLOAD PUSH1 0x40 MLOAD PUSH2 0x1C14 SWAP2 SWAP1 PUSH2 0x274D JUMP JUMPDEST SWAP1 DUP2 MSTORE PUSH1 0x40 MLOAD SWAP1 DUP2 SWAP1 SUB PUSH1 0x20 ADD DUP2 KECCAK256 DUP1 SLOAD PUSH1 0x1 PUSH1 0x1 PUSH1 0xA0 SHL SUB SWAP4 DUP5 AND PUSH1 0x1 PUSH1 0x1 PUSH1 0xA0 SHL SUB NOT SWAP1 SWAP2 AND OR SWAP1 SSTORE PUSH1 0x4 DUP1 SLOAD DUP6 MLOAD PUSH1 0x1 SLOAD PUSH4 0x56CD61D7 PUSH1 0xE0 SHL DUP6 MSTORE PUSH0 SWAP6 SWAP3 DUP4 AND SWAP5 PUSH4 0x56CD61D7 SWAP5 PUSH2 0x1C6F SWAP5 SWAP3 SWAP1 SWAP3 AND SWAP2 DUP9 SWAP2 ADD PUSH2 0x2E3B JUMP JUMPDEST PUSH1 0x20 PUSH1 0x40 MLOAD DUP1 DUP4 SUB DUP2 PUSH0 DUP8 GAS CALL ISZERO DUP1 ISZERO PUSH2 0x1C8B JUMPI RETURNDATASIZE PUSH0 DUP1 RETURNDATACOPY RETURNDATASIZE PUSH0 REVERT JUMPDEST POP POP POP POP PUSH1 0x40 MLOAD RETURNDATASIZE PUSH1 0x1F NOT PUSH1 0x1F DUP3 ADD AND DUP3 ADD DUP1 PUSH1 0x40 MSTORE POP DUP2 ADD SWAP1 PUSH2 0x1CAF SWAP2 SWAP1 PUSH2 0x271F JUMP JUMPDEST SWAP1 POP DUP1 PUSH1 0x9 DUP5 PUSH0 ADD MLOAD PUSH1 0x40 MLOAD PUSH2 0x1CC5 SWAP2 SWAP1 PUSH2 0x274D JUMP JUMPDEST SWAP1 DUP2 MSTORE PUSH1 0x40 MLOAD SWAP1 DUP2 SWAP1 SUB PUSH1 0x20 ADD SWAP1 KECCAK256 SSTORE PUSH1 0xC0 DUP4 ADD MLOAD ISZERO PUSH2 0x1EFB JUMPI PUSH1 0x1 SLOAD PUSH1 0xC0 DUP5 ADD MLOAD PUSH1 0x40 MLOAD PUSH4 0x40C10F19 PUSH1 0xE0 SHL DUP2 MSTORE PUSH1 0x1 PUSH1 0x1 PUSH1 0xA0 SHL SUB SWAP1 SWAP3 AND SWAP2 PUSH4 0x40C10F19 SWAP2 PUSH2 0x1D15 SWAP2 ADDRESS SWAP2 SWAP1 PUSH1 0x4 ADD PUSH2 0x28B9 JUMP JUMPDEST PUSH0 PUSH1 0x40 MLOAD DUP1 DUP4 SUB DUP2 PUSH0 DUP8 DUP1 EXTCODESIZE ISZERO DUP1 ISZERO PUSH2 0x1D2C JUMPI PUSH0 DUP1 REVERT JUMPDEST POP GAS CALL ISZERO DUP1 ISZERO PUSH2 0x1D3E JUMPI RETURNDATASIZE PUSH0 DUP1 RETURNDATACOPY RETURNDATASIZE PUSH0 REVERT JUMPDEST POP POP POP POP PUSH1 0xC0 DUP4 ADD MLOAD PUSH1 0x40 MLOAD PUSH4 0x40C10F19 PUSH1 0xE0 SHL DUP2 MSTORE PUSH1 0x1 PUSH1 0x1 PUSH1 0xA0 SHL SUB DUP5 AND SWAP2 PUSH4 0x40C10F19 SWAP2 PUSH2 0x1D73 SWAP2 ADDRESS SWAP2 PUSH1 0x4 ADD PUSH2 0x28B9 JUMP JUMPDEST PUSH0 PUSH1 0x40 MLOAD DUP1 DUP4 SUB DUP2 PUSH0 DUP8 DUP1 EXTCODESIZE ISZERO DUP1 ISZERO PUSH2 0x1D8A JUMPI PUSH0 DUP1 REVERT JUMPDEST POP GAS CALL ISZERO DUP1 ISZERO PUSH2 0x1D9C JUMPI RETURNDATASIZE PUSH0 DUP1 RETURNDATACOPY RETURNDATASIZE PUSH0 REVERT JUMPDEST POP POP PUSH1 0x1 SLOAD PUSH1 0x4 DUP1 SLOAD PUSH1 0xC0 DUP9 ADD MLOAD PUSH1 0x40 MLOAD PUSH4 0x95EA7B3 PUSH1 0xE0 SHL DUP2 MSTORE PUSH1 0x1 PUSH1 0x1 PUSH1 0xA0 SHL SUB SWAP5 DUP6 AND SWAP7 POP PUSH4 0x95EA7B3 SWAP6 POP PUSH2 0x1DDB SWAP5 SWAP1 SWAP3 AND SWAP3 SWAP1 SWAP2 ADD PUSH2 0x28B9 JUMP JUMPDEST PUSH1 0x20 PUSH1 0x40 MLOAD DUP1 DUP4 SUB DUP2 PUSH0 DUP8 GAS CALL ISZERO DUP1 ISZERO PUSH2 0x1DF7 JUMPI RETURNDATASIZE PUSH0 DUP1 RETURNDATACOPY RETURNDATASIZE PUSH0 REVERT JUMPDEST POP POP POP POP PUSH1 0x40 MLOAD RETURNDATASIZE PUSH1 0x1F NOT PUSH1 0x1F DUP3 ADD AND DUP3 ADD DUP1 PUSH1 0x40 MSTORE POP DUP2 ADD SWAP1 PUSH2 0x1E1B SWAP2 SWAP1 PUSH2 0x2A45 JUMP JUMPDEST POP PUSH1 0x4 DUP1 SLOAD PUSH1 0xC0 DUP6 ADD MLOAD PUSH1 0x40 MLOAD PUSH4 0x95EA7B3 PUSH1 0xE0 SHL DUP2 MSTORE PUSH1 0x1 PUSH1 0x1 PUSH1 0xA0 SHL SUB DUP1 DUP8 AND SWAP5 PUSH4 0x95EA7B3 SWAP5 PUSH2 0x1E51 SWAP5 SWAP3 AND SWAP3 ADD PUSH2 0x28B9 JUMP JUMPDEST PUSH1 0x20 PUSH1 0x40 MLOAD DUP1 DUP4 SUB DUP2 PUSH0 DUP8 GAS CALL ISZERO DUP1 ISZERO PUSH2 0x1E6D JUMPI RETURNDATASIZE PUSH0 DUP1 RETURNDATACOPY RETURNDATASIZE PUSH0 REVERT JUMPDEST POP POP POP POP PUSH1 0x40 MLOAD RETURNDATASIZE PUSH1 0x1F NOT PUSH1 0x1F DUP3 ADD AND DUP3 ADD DUP1 PUSH1 0x40 MSTORE POP DUP2 ADD SWAP1 PUSH2 0x1E91 SWAP2 SWAP1 PUSH2 0x2A45 JUMP JUMPDEST POP PUSH1 0x4 DUP1 SLOAD PUSH1 0xC0 DUP6 ADD MLOAD PUSH1 0x40 MLOAD PUSH4 0x1C6B39FB PUSH1 0xE2 SHL DUP2 MSTORE SWAP3 DUP4 ADD DUP5 SWAP1 MSTORE PUSH1 0x24 DUP4 ADD DUP2 SWAP1 MSTORE PUSH1 0x44 DUP4 ADD MSTORE PUSH1 0x1 PUSH1 0x1 PUSH1 0xA0 SHL SUB AND SWAP1 PUSH4 0x71ACE7EC SWAP1 PUSH1 0x64 ADD PUSH0 PUSH1 0x40 MLOAD DUP1 DUP4 SUB DUP2 PUSH0 DUP8 DUP1 EXTCODESIZE ISZERO DUP1 ISZERO PUSH2 0x1EE4 JUMPI PUSH0 DUP1 REVERT JUMPDEST POP GAS CALL ISZERO DUP1 ISZERO PUSH2 0x1EF6 JUMPI RETURNDATASIZE PUSH0 DUP1 RETURNDATACOPY RETURNDATASIZE PUSH0 REVERT JUMPDEST POP POP POP POP JUMPDEST PUSH1 0x2 SLOAD DUP4 MLOAD PUSH1 0x20 DUP6 ADD MLOAD PUSH1 0x40 DUP1 DUP8 ADD MLOAD PUSH1 0x60 DUP9 ADD MLOAD PUSH1 0x80 DUP10 ADD MLOAD PUSH1 0xA0 DUP11 ADD MLOAD SWAP4 MLOAD PUSH4 0x3AFC7C71 PUSH1 0xE2 SHL DUP2 MSTORE PUSH1 0x1 PUSH1 0x1 PUSH1 0xA0 SHL SUB SWAP1 SWAP8 AND SWAP7 PUSH4 0xEBF1F1C4 SWAP7 PUSH2 0x1F4D SWAP7 SWAP1 SWAP6 SWAP1 SWAP5 SWAP4 SWAP3 SWAP2 DUP12 SWAP1 PUSH1 0x4 ADD PUSH2 0x2E6D JUMP JUMPDEST PUSH0 PUSH1 0x40 MLOAD DUP1 DUP4 SUB DUP2 PUSH0 DUP8 DUP1 EXTCODESIZE ISZERO DUP1 ISZERO PUSH2 0x1F64 JUMPI PUSH0 DUP1 REVERT JUMPDEST POP GAS CALL ISZERO DUP1 ISZERO PUSH2 0x1F76 JUMPI RETURNDATASIZE PUSH0 DUP1 RETURNDATACOPY RETURNDATASIZE PUSH0 REVERT JUMPDEST POP POP DUP5 MLOAD PUSH1 0x40 MLOAD PUSH32 0x617E6C431F9E799BD15607DDE27F4439EEC832F081CE7F16A9DFAF9DC32E162B SWAP4 POP PUSH2 0xA10 SWAP3 POP DUP6 SWAP1 DUP6 SWAP1 PUSH2 0x2EF2 JUMP JUMPDEST PUSH0 SLOAD PUSH1 0x1 PUSH1 0x1 PUSH1 0xA0 SHL SUB AND CALLER EQ PUSH2 0xCF2 JUMPI PUSH1 0x40 MLOAD PUSH4 0x118CDAA7 PUSH1 0xE0 SHL DUP2 MSTORE CALLER PUSH1 0x4 DUP3 ADD MSTORE PUSH1 0x24 ADD PUSH2 0x1066 JUMP JUMPDEST PUSH0 DUP1 SLOAD PUSH1 0x1 PUSH1 0x1 PUSH1 0xA0 SHL SUB DUP4 DUP2 AND PUSH1 0x1 PUSH1 0x1 PUSH1 0xA0 SHL SUB NOT DUP4 AND DUP2 OR DUP5 SSTORE PUSH1 0x40 MLOAD SWAP2 SWAP1 SWAP3 AND SWAP3 DUP4 SWAP2 PUSH32 0x8BE0079C531659141344CD1FD0A4F28419497F9722A3DAAFE3B4186F6B6457E0 SWAP2 SWAP1 LOG3 POP POP JUMP JUMPDEST PUSH4 0x4E487B71 PUSH1 0xE0 SHL PUSH0 MSTORE PUSH1 0x41 PUSH1 0x4 MSTORE PUSH1 0x24 PUSH0 REVERT JUMPDEST PUSH1 0x40 MLOAD PUSH1 0xC0 DUP2 ADD PUSH1 0x1 PUSH1 0x1 PUSH1 0x40 SHL SUB DUP2 GT DUP3 DUP3 LT OR ISZERO PUSH2 0x205F JUMPI PUSH2 0x205F PUSH2 0x2029 JUMP JUMPDEST PUSH1 0x40 MSTORE SWAP1 JUMP JUMPDEST PUSH1 0x40 MLOAD PUSH1 0xE0 DUP2 ADD PUSH1 0x1 PUSH1 0x1 PUSH1 0x40 SHL SUB DUP2 GT DUP3 DUP3 LT OR ISZERO PUSH2 0x205F JUMPI PUSH2 0x205F PUSH2 0x2029 JUMP JUMPDEST PUSH1 0x40 MLOAD PUSH2 0x160 DUP2 ADD PUSH1 0x1 PUSH1 0x1 PUSH1 0x40 SHL SUB DUP2 GT DUP3 DUP3 LT OR ISZERO PUSH2 0x205F JUMPI PUSH2 0x205F PUSH2 0x2029 JUMP JUMPDEST PUSH1 0x40 MLOAD PUSH1 0x1F DUP3 ADD PUSH1 0x1F NOT AND DUP2 ADD PUSH1 0x1 PUSH1 0x1 PUSH1 0x40 SHL SUB DUP2 GT DUP3 DUP3 LT OR ISZERO PUSH2 0x20D2 JUMPI PUSH2 0x20D2 PUSH2 0x2029 JUMP JUMPDEST PUSH1 0x40 MSTORE SWAP2 SWAP1 POP JUMP JUMPDEST PUSH0 PUSH1 0x1 PUSH1 0x1 PUSH1 0x40 SHL SUB DUP3 GT ISZERO PUSH2 0x20F2 JUMPI PUSH2 0x20F2 PUSH2 0x2029 JUMP JUMPDEST POP PUSH1 0x1F ADD PUSH1 0x1F NOT AND PUSH1 0x20 ADD SWAP1 JUMP JUMPDEST PUSH0 DUP3 PUSH1 0x1F DUP4 ADD SLT PUSH2 0x210F JUMPI PUSH0 DUP1 REVERT JUMPDEST DUP2 CALLDATALOAD PUSH2 0x2122 PUSH2 0x211D DUP3 PUSH2 0x20DA JUMP JUMPDEST PUSH2 0x20AA JUMP JUMPDEST DUP2 DUP2 MSTORE DUP5 PUSH1 0x20 DUP4 DUP7 ADD ADD GT ISZERO PUSH2 0x2136 JUMPI PUSH0 DUP1 REVERT JUMPDEST DUP2 PUSH1 0x20 DUP6 ADD PUSH1 0x20 DUP4 ADD CALLDATACOPY PUSH0 SWAP2 DUP2 ADD PUSH1 0x20 ADD SWAP2 SWAP1 SWAP2 MSTORE SWAP4 SWAP3 POP POP POP JUMP JUMPDEST PUSH0 DUP1 PUSH1 0x40 DUP4 DUP6 SUB SLT ISZERO PUSH2 0x2163 JUMPI PUSH0 DUP1 REVERT JUMPDEST DUP3 CALLDATALOAD PUSH1 0x1 PUSH1 0x1 PUSH1 0x40 SHL SUB DUP2 GT ISZERO PUSH2 0x2178 JUMPI PUSH0 DUP1 REVERT JUMPDEST PUSH2 0x2184 DUP6 DUP3 DUP7 ADD PUSH2 0x2100 JUMP JUMPDEST SWAP6 PUSH1 0x20 SWAP5 SWAP1 SWAP5 ADD CALLDATALOAD SWAP5 POP POP POP POP JUMP JUMPDEST PUSH1 0x1 PUSH1 0x1 PUSH1 0xA0 SHL SUB DUP2 AND DUP2 EQ PUSH2 0x1B3D JUMPI PUSH0 DUP1 REVERT JUMPDEST PUSH0 PUSH1 0x20 DUP3 DUP5 SUB SLT ISZERO PUSH2 0x21B7 JUMPI PUSH0 DUP1 REVERT JUMPDEST DUP2 CALLDATALOAD PUSH2 0x21C2 DUP2 PUSH2 0x2193 JUMP JUMPDEST SWAP4 SWAP3 POP POP POP JUMP JUMPDEST PUSH0 DUP1 PUSH1 0x40 DUP4 DUP6 SUB SLT ISZERO PUSH2 0x21DA JUMPI PUSH0 DUP1 REVERT JUMPDEST DUP3 CALLDATALOAD PUSH1 0x1 PUSH1 0x1 PUSH1 0x40 SHL SUB DUP2 GT ISZERO PUSH2 0x21EF JUMPI PUSH0 DUP1 REVERT JUMPDEST PUSH2 0x21FB DUP6 DUP3 DUP7 ADD PUSH2 0x2100 JUMP JUMPDEST SWAP3 POP POP PUSH1 0x20 DUP4 ADD CALLDATALOAD PUSH2 0x220C DUP2 PUSH2 0x2193 JUMP JUMPDEST DUP1 SWAP2 POP POP SWAP3 POP SWAP3 SWAP1 POP JUMP JUMPDEST PUSH0 PUSH1 0x20 DUP3 DUP5 SUB SLT ISZERO PUSH2 0x2227 JUMPI PUSH0 DUP1 REVERT JUMPDEST DUP2 CALLDATALOAD PUSH1 0x1 PUSH1 0x1 PUSH1 0x40 SHL SUB DUP2 GT ISZERO PUSH2 0x223C JUMPI PUSH0 DUP1 REVERT JUMPDEST PUSH2 0x6FA DUP5 DUP3 DUP6 ADD PUSH2 0x2100 JUMP JUMPDEST PUSH0 DUP1 PUSH0 DUP1 PUSH0 DUP1 PUSH0 PUSH1 0xE0 DUP9 DUP11 SUB SLT ISZERO PUSH2 0x225E JUMPI PUSH0 DUP1 REVERT JUMPDEST DUP8 CALLDATALOAD PUSH1 0x1 PUSH1 0x1 PUSH1 0x40 SHL SUB DUP2 GT ISZERO PUSH2 0x2273 JUMPI PUSH0 DUP1 REVERT JUMPDEST PUSH2 0x227F DUP11 DUP3 DUP12 ADD PUSH2 0x2100 JUMP JUMPDEST SWAP8 POP POP PUSH1 0x20 DUP9 ADD CALLDATALOAD PUSH1 0x1 PUSH1 0x1 PUSH1 0x40 SHL SUB DUP2 GT ISZERO PUSH2 0x229A JUMPI PUSH0 DUP1 REVERT JUMPDEST PUSH2 0x22A6 DUP11 DUP3 DUP12 ADD PUSH2 0x2100 JUMP JUMPDEST SWAP7 POP POP PUSH1 0x40 DUP9 ADD CALLDATALOAD PUSH1 0x1 PUSH1 0x1 PUSH1 0x40 SHL SUB DUP2 GT ISZERO PUSH2 0x22C1 JUMPI PUSH0 DUP1 REVERT JUMPDEST PUSH2 0x22CD DUP11 DUP3 DUP12 ADD PUSH2 0x2100 JUMP JUMPDEST SWAP6 POP POP PUSH1 0x60 DUP9 ADD CALLDATALOAD PUSH1 0x1 PUSH1 0x1 PUSH1 0x40 SHL SUB DUP2 GT ISZERO PUSH2 0x22E8 JUMPI PUSH0 DUP1 REVERT JUMPDEST PUSH2 0x22F4 DUP11 DUP3 DUP12 ADD PUSH2 0x2100 JUMP JUMPDEST SWAP5 POP POP PUSH1 0x80 DUP9 ADD CALLDATALOAD PUSH1 0x1 PUSH1 0x1 PUSH1 0x40 SHL SUB DUP2 GT ISZERO PUSH2 0x230F JUMPI PUSH0 DUP1 REVERT JUMPDEST PUSH2 0x231B DUP11 DUP3 DUP12 ADD PUSH2 0x2100 JUMP JUMPDEST SWAP8 SWAP11 SWAP7 SWAP10 POP SWAP5 SWAP8 SWAP4 SWAP7 SWAP6 PUSH1 0xA0 DUP6 ADD CALLDATALOAD SWAP6 POP PUSH1 0xC0 SWAP1 SWAP5 ADD CALLDATALOAD SWAP4 SWAP3 POP POP POP JUMP JUMPDEST PUSH0 DUP2 MLOAD DUP1 DUP5 MSTORE DUP1 PUSH1 0x20 DUP5 ADD PUSH1 0x20 DUP7 ADD MCOPY PUSH0 PUSH1 0x20 DUP3 DUP7 ADD ADD MSTORE PUSH1 0x20 PUSH1 0x1F NOT PUSH1 0x1F DUP4 ADD AND DUP6 ADD ADD SWAP2 POP POP SWAP3 SWAP2 POP POP JUMP JUMPDEST PUSH0 PUSH1 0x20 DUP3 ADD PUSH1 0x20 DUP4 MSTORE DUP1 DUP5 MLOAD DUP1 DUP4 MSTORE PUSH1 0x40 DUP6 ADD SWAP2 POP PUSH1 0x40 DUP2 PUSH1 0x5 SHL DUP7 ADD ADD SWAP3 POP PUSH1 0x20 DUP7 ADD PUSH0 JUMPDEST DUP3 DUP2 LT ISZERO PUSH2 0x23BE JUMPI PUSH1 0x3F NOT DUP8 DUP7 SUB ADD DUP5 MSTORE PUSH2 0x23A9 DUP6 DUP4 MLOAD PUSH2 0x2339 JUMP JUMPDEST SWAP5 POP PUSH1 0x20 SWAP4 DUP5 ADD SWAP4 SWAP2 SWAP1 SWAP2 ADD SWAP1 PUSH1 0x1 ADD PUSH2 0x238D JUMP JUMPDEST POP SWAP3 SWAP7 SWAP6 POP POP POP POP POP POP JUMP JUMPDEST PUSH0 PUSH1 0x20 DUP3 DUP5 SUB SLT ISZERO PUSH2 0x23DA JUMPI PUSH0 DUP1 REVERT JUMPDEST POP CALLDATALOAD SWAP2 SWAP1 POP JUMP JUMPDEST PUSH0 DUP1 DUP4 PUSH1 0x1F DUP5 ADD SLT PUSH2 0x23F1 JUMPI PUSH0 DUP1 REVERT JUMPDEST POP DUP2 CALLDATALOAD PUSH1 0x1 PUSH1 0x1 PUSH1 0x40 SHL SUB DUP2 GT ISZERO PUSH2 0x2407 JUMPI PUSH0 DUP1 REVERT JUMPDEST PUSH1 0x20 DUP4 ADD SWAP2 POP DUP4 PUSH1 0x20 DUP3 PUSH1 0x5 SHL DUP6 ADD ADD GT ISZERO PUSH2 0x2421 JUMPI PUSH0 DUP1 REVERT JUMPDEST SWAP3 POP SWAP3 SWAP1 POP JUMP JUMPDEST PUSH0 DUP1 PUSH1 0x20 DUP4 DUP6 SUB SLT ISZERO PUSH2 0x2439 JUMPI PUSH0 DUP1 REVERT JUMPDEST DUP3 CALLDATALOAD PUSH1 0x1 PUSH1 0x1 PUSH1 0x40 SHL SUB DUP2 GT ISZERO PUSH2 0x244E JUMPI PUSH0 DUP1 REVERT JUMPDEST PUSH2 0x245A DUP6 DUP3 DUP7 ADD PUSH2 0x23E1 JUMP JUMPDEST SWAP1 SWAP7 SWAP1 SWAP6 POP SWAP4 POP POP POP POP JUMP JUMPDEST PUSH0 DUP1 PUSH0 DUP1 PUSH1 0x80 DUP6 DUP8 SUB SLT ISZERO PUSH2 0x2479 JUMPI PUSH0 DUP1 REVERT JUMPDEST DUP5 CALLDATALOAD PUSH1 0x1 PUSH1 0x1 PUSH1 0x40 SHL SUB DUP2 GT ISZERO PUSH2 0x248E JUMPI PUSH0 DUP1 REVERT JUMPDEST PUSH2 0x249A DUP8 DUP3 DUP9 ADD PUSH2 0x2100 JUMP JUMPDEST SWAP5 POP POP PUSH1 0x20 DUP6 ADD CALLDATALOAD PUSH2 0x24AB DUP2 PUSH2 0x2193 JUMP JUMPDEST SWAP4 SWAP7 SWAP4 SWAP6 POP POP POP POP PUSH1 0x40 DUP3 ADD CALLDATALOAD SWAP2 PUSH1 0x60 ADD CALLDATALOAD SWAP1 JUMP JUMPDEST PUSH1 0x20 DUP2 MSTORE PUSH0 PUSH1 0xE0 DUP3 ADD DUP4 MLOAD PUSH1 0x20 DUP5 ADD MSTORE PUSH1 0x20 DUP5 ADD MLOAD PUSH1 0x40 DUP5 ADD MSTORE PUSH1 0x40 DUP5 ADD MLOAD PUSH1 0x60 DUP5 ADD MSTORE PUSH1 0x60 DUP5 ADD MLOAD PUSH1 0x80 DUP5 ADD MSTORE PUSH1 0x80 DUP5 ADD MLOAD PUSH1 0xC0 PUSH1 0xA0 DUP6 ADD MSTORE DUP2 DUP2 MLOAD DUP1 DUP5 MSTORE PUSH2 0x100 DUP7 ADD SWAP2 POP PUSH2 0x100 DUP2 PUSH1 0x5 SHL DUP8 ADD ADD SWAP4 POP PUSH1 0x20 DUP4 ADD SWAP3 POP PUSH0 JUMPDEST DUP2 DUP2 LT ISZERO PUSH2 0x254C JUMPI PUSH1 0xFF NOT DUP8 DUP7 SUB ADD DUP4 MSTORE PUSH2 0x2537 DUP6 DUP6 MLOAD PUSH2 0x2339 JUMP JUMPDEST SWAP5 POP PUSH1 0x20 SWAP4 DUP5 ADD SWAP4 SWAP3 SWAP1 SWAP3 ADD SWAP2 PUSH1 0x1 ADD PUSH2 0x251B JUMP JUMPDEST POP POP POP POP PUSH1 0xA0 DUP5 ADD MLOAD DUP1 ISZERO ISZERO PUSH1 0xC0 DUP6 ADD MSTORE POP SWAP4 SWAP3 POP POP POP JUMP JUMPDEST PUSH0 DUP1 PUSH0 PUSH1 0x60 DUP5 DUP7 SUB SLT ISZERO PUSH2 0x2577 JUMPI PUSH0 DUP1 REVERT JUMPDEST DUP4 CALLDATALOAD PUSH1 0x1 PUSH1 0x1 PUSH1 0x40 SHL SUB DUP2 GT ISZERO PUSH2 0x258C JUMPI PUSH0 DUP1 REVERT JUMPDEST PUSH2 0x2598 DUP7 DUP3 DUP8 ADD PUSH2 0x2100 JUMP JUMPDEST SWAP4 POP POP PUSH1 0x20 DUP5 ADD CALLDATALOAD PUSH2 0x25A9 DUP2 PUSH2 0x2193 JUMP JUMPDEST SWAP3 SWAP6 SWAP3 SWAP5 POP POP POP PUSH1 0x40 SWAP2 SWAP1 SWAP2 ADD CALLDATALOAD SWAP1 JUMP JUMPDEST PUSH0 DUP1 PUSH0 PUSH1 0x40 DUP5 DUP7 SUB SLT ISZERO PUSH2 0x25CC JUMPI PUSH0 DUP1 REVERT JUMPDEST DUP4 CALLDATALOAD SWAP3 POP PUSH1 0x20 DUP5 ADD CALLDATALOAD PUSH1 0x1 PUSH1 0x1 PUSH1 0x40 SHL SUB DUP2 GT ISZERO PUSH2 0x25E8 JUMPI PUSH0 DUP1 REVERT JUMPDEST PUSH2 0x25F4 DUP7 DUP3 DUP8 ADD PUSH2 0x23E1 JUMP JUMPDEST SWAP5 SWAP8 SWAP1 SWAP7 POP SWAP4 SWAP5 POP POP POP POP JUMP JUMPDEST PUSH1 0x20 DUP2 MSTORE PUSH0 DUP3 MLOAD PUSH2 0x160 PUSH1 0x20 DUP5 ADD MSTORE PUSH2 0x261E PUSH2 0x180 DUP5 ADD DUP3 PUSH2 0x2339 JUMP JUMPDEST SWAP1 POP PUSH1 0x20 DUP5 ADD MLOAD PUSH1 0x1F NOT DUP5 DUP4 SUB ADD PUSH1 0x40 DUP6 ADD MSTORE PUSH2 0x263B DUP3 DUP3 PUSH2 0x2339 JUMP JUMPDEST SWAP2 POP POP PUSH1 0x40 DUP5 ADD MLOAD PUSH1 0x1F NOT DUP5 DUP4 SUB ADD PUSH1 0x60 DUP6 ADD MSTORE PUSH2 0x2659 DUP3 DUP3 PUSH2 0x2339 JUMP JUMPDEST SWAP2 POP POP PUSH1 0x60 DUP5 ADD MLOAD PUSH1 0x1F NOT DUP5 DUP4 SUB ADD PUSH1 0x80 DUP6 ADD MSTORE PUSH2 0x2677 DUP3 DUP3 PUSH2 0x2339 JUMP JUMPDEST SWAP2 POP POP PUSH1 0x80 DUP5 ADD MLOAD PUSH1 0x1F NOT DUP5 DUP4 SUB ADD PUSH1 0xA0 DUP6 ADD MSTORE PUSH2 0x2695 DUP3 DUP3 PUSH2 0x2339 JUMP JUMPDEST SWAP2 POP POP PUSH1 0xA0 DUP5 ADD MLOAD PUSH1 0xC0 DUP5 ADD MSTORE PUSH1 0xC0 DUP5 ADD MLOAD PUSH2 0x26BC PUSH1 0xE0 DUP6 ADD DUP3 PUSH1 0x1 PUSH1 0x1 PUSH1 0xA0 SHL SUB AND SWAP1 MSTORE JUMP JUMPDEST POP PUSH1 0xE0 DUP5 ADD MLOAD DUP1 ISZERO ISZERO PUSH2 0x100 DUP6 ADD MSTORE POP PUSH2 0x100 DUP5 ADD MLOAD DUP1 ISZERO ISZERO PUSH2 0x120 DUP6 ADD MSTORE POP PUSH2 0x120 DUP5 ADD MLOAD PUSH2 0x140 DUP5 ADD MSTORE PUSH2 0x140 DUP5 ADD MLOAD PUSH2 0x160 DUP5 ADD MSTORE DUP1 SWAP2 POP POP SWAP3 SWAP2 POP POP JUMP JUMPDEST PUSH1 0x40 DUP2 MSTORE PUSH0 PUSH2 0x2710 PUSH1 0x40 DUP4 ADD DUP6 PUSH2 0x2339 JUMP JUMPDEST SWAP1 POP DUP3 PUSH1 0x20 DUP4 ADD MSTORE SWAP4 SWAP3 POP POP POP JUMP JUMPDEST PUSH0 PUSH1 0x20 DUP3 DUP5 SUB SLT ISZERO PUSH2 0x272F JUMPI PUSH0 DUP1 REVERT JUMPDEST POP MLOAD SWAP2 SWAP1 POP JUMP JUMPDEST PUSH0 DUP2 MLOAD DUP1 PUSH1 0x20 DUP5 ADD DUP6 MCOPY PUSH0 SWAP4 ADD SWAP3 DUP4 MSTORE POP SWAP1 SWAP2 SWAP1 POP JUMP JUMPDEST PUSH0 PUSH2 0x21C2 DUP3 DUP5 PUSH2 0x2736 JUMP JUMPDEST PUSH1 0x20 DUP2 MSTORE PUSH0 PUSH2 0x21C2 PUSH1 0x20 DUP4 ADD DUP5 PUSH2 0x2339 JUMP JUMPDEST PUSH0 PUSH1 0x20 DUP3 DUP5 SUB SLT ISZERO PUSH2 0x277A JUMPI PUSH0 DUP1 REVERT JUMPDEST DUP2 MLOAD PUSH1 0xFF DUP2 AND DUP2 EQ PUSH2 0x21C2 JUMPI PUSH0 DUP1 REVERT JUMPDEST PUSH4 0x4E487B71 PUSH1 0xE0 SHL PUSH0 MSTORE PUSH1 0x11 PUSH1 0x4 MSTORE PUSH1 0x24 PUSH0 REVERT JUMPDEST PUSH1 0x1 DUP2 JUMPDEST PUSH1 0x1 DUP5 GT ISZERO PUSH2 0x27D9 JUMPI DUP1 DUP6 DIV DUP2 GT ISZERO PUSH2 0x27BD JUMPI PUSH2 0x27BD PUSH2 0x278A JUMP JUMPDEST PUSH1 0x1 DUP5 AND ISZERO PUSH2 0x27CB JUMPI SWAP1 DUP2 MUL SWAP1 JUMPDEST PUSH1 0x1 SWAP4 SWAP1 SWAP4 SHR SWAP3 DUP1 MUL PUSH2 0x27A2 JUMP JUMPDEST SWAP4 POP SWAP4 SWAP2 POP POP JUMP JUMPDEST PUSH0 DUP3 PUSH2 0x27EF JUMPI POP PUSH1 0x1 PUSH2 0x651 JUMP JUMPDEST DUP2 PUSH2 0x27FB JUMPI POP PUSH0 PUSH2 0x651 JUMP JUMPDEST DUP2 PUSH1 0x1 DUP2 EQ PUSH2 0x2811 JUMPI PUSH1 0x2 DUP2 EQ PUSH2 0x281B JUMPI PUSH2 0x2837 JUMP JUMPDEST PUSH1 0x1 SWAP2 POP POP PUSH2 0x651 JUMP JUMPDEST PUSH1 0xFF DUP5 GT ISZERO PUSH2 0x282C JUMPI PUSH2 0x282C PUSH2 0x278A JUMP JUMPDEST POP POP PUSH1 0x1 DUP3 SHL PUSH2 0x651 JUMP JUMPDEST POP PUSH1 0x20 DUP4 LT PUSH2 0x133 DUP4 LT AND PUSH1 0x4E DUP5 LT PUSH1 0xB DUP5 LT AND OR ISZERO PUSH2 0x285A JUMPI POP DUP2 DUP2 EXP PUSH2 0x651 JUMP JUMPDEST PUSH2 0x2866 PUSH0 NOT DUP5 DUP5 PUSH2 0x279E JUMP JUMPDEST DUP1 PUSH0 NOT DIV DUP3 GT ISZERO PUSH2 0x2879 JUMPI PUSH2 0x2879 PUSH2 0x278A JUMP JUMPDEST MUL SWAP4 SWAP3 POP POP POP JUMP JUMPDEST PUSH0 PUSH2 0x21C2 PUSH1 0xFF DUP5 AND DUP4 PUSH2 0x27E1 JUMP JUMPDEST DUP1 DUP3 MUL DUP2 ISZERO DUP3 DUP3 DIV DUP5 EQ OR PUSH2 0x651 JUMPI PUSH2 0x651 PUSH2 0x278A JUMP JUMPDEST DUP2 DUP2 SUB DUP2 DUP2 GT ISZERO PUSH2 0x651 JUMPI PUSH2 0x651 PUSH2 0x278A JUMP JUMPDEST PUSH1 0x1 PUSH1 0x1 PUSH1 0xA0 SHL SUB SWAP3 SWAP1 SWAP3 AND DUP3 MSTORE PUSH1 0x20 DUP3 ADD MSTORE PUSH1 0x40 ADD SWAP1 JUMP JUMPDEST PUSH0 DUP3 PUSH1 0x1F DUP4 ADD SLT PUSH2 0x28E1 JUMPI PUSH0 DUP1 REVERT JUMPDEST DUP2 MLOAD PUSH2 0x28EF PUSH2 0x211D DUP3 PUSH2 0x20DA JUMP JUMPDEST DUP2 DUP2 MSTORE DUP5 PUSH1 0x20 DUP4 DUP7 ADD ADD GT ISZERO PUSH2 0x2903 JUMPI PUSH0 DUP1 REVERT JUMPDEST DUP2 PUSH1 0x20 DUP6 ADD PUSH1 0x20 DUP4 ADD MCOPY PUSH0 SWAP2 DUP2 ADD PUSH1 0x20 ADD SWAP2 SWAP1 SWAP2 MSTORE SWAP4 SWAP3 POP POP POP JUMP JUMPDEST PUSH0 DUP3 PUSH1 0x1F DUP4 ADD SLT PUSH2 0x292E JUMPI PUSH0 DUP1 REVERT JUMPDEST DUP2 MLOAD PUSH1 0x1 PUSH1 0x1 PUSH1 0x40 SHL SUB DUP2 GT ISZERO PUSH2 0x2947 JUMPI PUSH2 0x2947 PUSH2 0x2029 JUMP JUMPDEST DUP1 PUSH1 0x5 SHL PUSH2 0x2957 PUSH1 0x20 DUP3 ADD PUSH2 0x20AA JUMP JUMPDEST SWAP2 DUP3 MSTORE PUSH1 0x20 DUP2 DUP6 ADD DUP2 ADD SWAP3 SWAP1 DUP2 ADD SWAP1 DUP7 DUP5 GT ISZERO PUSH2 0x2972 JUMPI PUSH0 DUP1 REVERT JUMPDEST PUSH1 0x20 DUP7 ADD SWAP3 POP JUMPDEST DUP4 DUP4 LT ISZERO PUSH2 0x29B7 JUMPI DUP3 MLOAD PUSH1 0x1 PUSH1 0x1 PUSH1 0x40 SHL SUB DUP2 GT ISZERO PUSH2 0x2996 JUMPI PUSH0 DUP1 REVERT JUMPDEST PUSH2 0x29A5 DUP9 PUSH1 0x20 DUP4 DUP11 ADD ADD PUSH2 0x28D2 JUMP JUMPDEST DUP4 MSTORE POP PUSH1 0x20 SWAP3 DUP4 ADD SWAP3 SWAP1 SWAP2 ADD SWAP1 PUSH2 0x2979 JUMP JUMPDEST SWAP7 SWAP6 POP POP POP POP POP POP JUMP JUMPDEST PUSH0 PUSH1 0x20 DUP3 DUP5 SUB SLT ISZERO PUSH2 0x29D1 JUMPI PUSH0 DUP1 REVERT JUMPDEST DUP2 MLOAD PUSH1 0x1 PUSH1 0x1 PUSH1 0x40 SHL SUB DUP2 GT ISZERO PUSH2 0x29E6 JUMPI PUSH0 DUP1 REVERT JUMPDEST PUSH2 0x6FA DUP5 DUP3 DUP6 ADD PUSH2 0x291F JUMP JUMPDEST PUSH0 PUSH1 0x1 DUP3 ADD PUSH2 0x2A03 JUMPI PUSH2 0x2A03 PUSH2 0x278A JUMP JUMPDEST POP PUSH1 0x1 ADD SWAP1 JUMP JUMPDEST DUP1 DUP3 ADD DUP1 DUP3 GT ISZERO PUSH2 0x651 JUMPI PUSH2 0x651 PUSH2 0x278A JUMP JUMPDEST PUSH4 0x4E487B71 PUSH1 0xE0 SHL PUSH0 MSTORE PUSH1 0x32 PUSH1 0x4 MSTORE PUSH1 0x24 PUSH0 REVERT JUMPDEST DUP1 MLOAD DUP1 ISZERO ISZERO DUP2 EQ PUSH2 0x2A40 JUMPI PUSH0 DUP1 REVERT JUMPDEST SWAP2 SWAP1 POP JUMP JUMPDEST PUSH0 PUSH1 0x20 DUP3 DUP5 SUB SLT ISZERO PUSH2 0x2A55 JUMPI PUSH0 DUP1 REVERT JUMPDEST PUSH2 0x21C2 DUP3 PUSH2 0x2A31 JUMP JUMPDEST PUSH0 PUSH1 0x20 DUP3 DUP5 SUB SLT ISZERO PUSH2 0x2A6E JUMPI PUSH0 DUP1 REVERT JUMPDEST DUP2 MLOAD PUSH1 0x1 PUSH1 0x1 PUSH1 0x40 SHL SUB DUP2 GT ISZERO PUSH2 0x2A83 JUMPI PUSH0 DUP1 REVERT JUMPDEST DUP3 ADD PUSH1 0xC0 DUP2 DUP6 SUB SLT ISZERO PUSH2 0x2A94 JUMPI PUSH0 DUP1 REVERT JUMPDEST PUSH2 0x2A9C PUSH2 0x203D JUMP JUMPDEST DUP2 MLOAD DUP2 MSTORE PUSH1 0x20 DUP1 DUP4 ADD MLOAD SWAP1 DUP3 ADD MSTORE PUSH1 0x40 DUP1 DUP4 ADD MLOAD SWAP1 DUP3 ADD MSTORE PUSH1 0x60 DUP1 DUP4 ADD MLOAD SWAP1 DUP3 ADD MSTORE PUSH1 0x80 DUP3 ADD MLOAD PUSH1 0x1 PUSH1 0x1 PUSH1 0x40 SHL SUB DUP2 GT ISZERO PUSH2 0x2AD6 JUMPI PUSH0 DUP1 REVERT JUMPDEST PUSH2 0x2AE2 DUP7 DUP3 DUP6 ADD PUSH2 0x291F JUMP JUMPDEST PUSH1 0x80 DUP4 ADD MSTORE POP PUSH2 0x2AF4 PUSH1 0xA0 DUP4 ADD PUSH2 0x2A31 JUMP JUMPDEST PUSH1 0xA0 DUP3 ADD MSTORE SWAP5 SWAP4 POP POP POP POP JUMP JUMPDEST PUSH0 DUP3 CALLDATALOAD PUSH1 0xDE NOT DUP4 CALLDATASIZE SUB ADD DUP2 SLT PUSH2 0x2B15 JUMPI PUSH0 DUP1 REVERT JUMPDEST SWAP2 SWAP1 SWAP2 ADD SWAP3 SWAP2 POP POP JUMP JUMPDEST PUSH0 PUSH1 0xE0 DUP3 CALLDATASIZE SUB SLT ISZERO PUSH2 0x2B2F JUMPI PUSH0 DUP1 REVERT JUMPDEST PUSH2 0x2B37 PUSH2 0x2065 JUMP JUMPDEST DUP3 CALLDATALOAD PUSH1 0x1 PUSH1 0x1 PUSH1 0x40 SHL SUB DUP2 GT ISZERO PUSH2 0x2B4C JUMPI PUSH0 DUP1 REVERT JUMPDEST PUSH2 0x2B58 CALLDATASIZE DUP3 DUP7 ADD PUSH2 0x2100 JUMP JUMPDEST DUP3 MSTORE POP PUSH1 0x20 DUP4 ADD CALLDATALOAD PUSH1 0x1 PUSH1 0x1 PUSH1 0x40 SHL SUB DUP2 GT ISZERO PUSH2 0x2B73 JUMPI PUSH0 DUP1 REVERT JUMPDEST PUSH2 0x2B7F CALLDATASIZE DUP3 DUP7 ADD PUSH2 0x2100 JUMP JUMPDEST PUSH1 0x20 DUP4 ADD MSTORE POP PUSH1 0x40 DUP4 ADD CALLDATALOAD PUSH1 0x1 PUSH1 0x1 PUSH1 0x40 SHL SUB DUP2 GT ISZERO PUSH2 0x2B9D JUMPI PUSH0 DUP1 REVERT JUMPDEST PUSH2 0x2BA9 CALLDATASIZE DUP3 DUP7 ADD PUSH2 0x2100 JUMP JUMPDEST PUSH1 0x40 DUP4 ADD MSTORE POP PUSH1 0x60 DUP4 ADD CALLDATALOAD PUSH1 0x1 PUSH1 0x1 PUSH1 0x40 SHL SUB DUP2 GT ISZERO PUSH2 0x2BC7 JUMPI PUSH0 DUP1 REVERT JUMPDEST PUSH2 0x2BD3 CALLDATASIZE DUP3 DUP7 ADD PUSH2 0x2100 JUMP JUMPDEST PUSH1 0x60 DUP4 ADD MSTORE POP PUSH1 0x80 DUP4 ADD CALLDATALOAD PUSH1 0x1 PUSH1 0x1 PUSH1 0x40 SHL SUB DUP2 GT ISZERO PUSH2 0x2BF1 JUMPI PUSH0 DUP1 REVERT JUMPDEST PUSH2 0x2BFD CALLDATASIZE DUP3 DUP7 ADD PUSH2 0x2100 JUMP JUMPDEST PUSH1 0x80 DUP4 ADD MSTORE POP PUSH1 0xA0 DUP4 DUP2 ADD CALLDATALOAD SWAP1 DUP3 ADD MSTORE PUSH1 0xC0 SWAP3 DUP4 ADD CALLDATALOAD SWAP3 DUP2 ADD SWAP3 SWAP1 SWAP3 MSTORE POP SWAP1 JUMP JUMPDEST PUSH0 DUP1 PUSH1 0x40 DUP4 DUP6 SUB SLT ISZERO PUSH2 0x2C2F JUMPI PUSH0 DUP1 REVERT JUMPDEST POP POP DUP1 MLOAD PUSH1 0x20 SWAP1 SWAP2 ADD MLOAD SWAP1 SWAP3 SWAP1 SWAP2 POP JUMP JUMPDEST DUP1 MLOAD PUSH2 0x2A40 DUP2 PUSH2 0x2193 JUMP JUMPDEST PUSH0 PUSH1 0x20 DUP3 DUP5 SUB SLT ISZERO PUSH2 0x2C5B JUMPI PUSH0 DUP1 REVERT JUMPDEST DUP2 MLOAD PUSH1 0x1 PUSH1 0x1 PUSH1 0x40 SHL SUB DUP2 GT ISZERO PUSH2 0x2C70 JUMPI PUSH0 DUP1 REVERT JUMPDEST DUP3 ADD PUSH2 0x160 DUP2 DUP6 SUB SLT ISZERO PUSH2 0x2C82 JUMPI PUSH0 DUP1 REVERT JUMPDEST PUSH2 0x2C8A PUSH2 0x2087 JUMP JUMPDEST DUP2 MLOAD PUSH1 0x1 PUSH1 0x1 PUSH1 0x40 SHL SUB DUP2 GT ISZERO PUSH2 0x2C9F JUMPI PUSH0 DUP1 REVERT JUMPDEST PUSH2 0x2CAB DUP7 DUP3 DUP6 ADD PUSH2 0x28D2 JUMP JUMPDEST DUP3 MSTORE POP PUSH1 0x20 DUP3 ADD MLOAD PUSH1 0x1 PUSH1 0x1 PUSH1 0x40 SHL SUB DUP2 GT ISZERO PUSH2 0x2CC6 JUMPI PUSH0 DUP1 REVERT JUMPDEST PUSH2 0x2CD2 DUP7 DUP3 DUP6 ADD PUSH2 0x28D2 JUMP JUMPDEST PUSH1 0x20 DUP4 ADD MSTORE POP PUSH1 0x40 DUP3 ADD MLOAD PUSH1 0x1 PUSH1 0x1 PUSH1 0x40 SHL SUB DUP2 GT ISZERO PUSH2 0x2CF0 JUMPI PUSH0 DUP1 REVERT JUMPDEST PUSH2 0x2CFC DUP7 DUP3 DUP6 ADD PUSH2 0x28D2 JUMP JUMPDEST PUSH1 0x40 DUP4 ADD MSTORE POP PUSH1 0x60 DUP3 ADD MLOAD PUSH1 0x1 PUSH1 0x1 PUSH1 0x40 SHL SUB DUP2 GT ISZERO PUSH2 0x2D1A JUMPI PUSH0 DUP1 REVERT JUMPDEST PUSH2 0x2D26 DUP7 DUP3 DUP6 ADD PUSH2 0x28D2 JUMP JUMPDEST PUSH1 0x60 DUP4 ADD MSTORE POP PUSH1 0x80 DUP3 ADD MLOAD PUSH1 0x1 PUSH1 0x1 PUSH1 0x40 SHL SUB DUP2 GT ISZERO PUSH2 0x2D44 JUMPI PUSH0 DUP1 REVERT JUMPDEST PUSH2 0x2D50 DUP7 DUP3 DUP6 ADD PUSH2 0x28D2 JUMP JUMPDEST PUSH1 0x80 DUP4 ADD MSTORE POP PUSH1 0xA0 DUP3 DUP2 ADD MLOAD SWAP1 DUP3 ADD MSTORE PUSH2 0x2D6C PUSH1 0xC0 DUP4 ADD PUSH2 0x2C40 JUMP JUMPDEST PUSH1 0xC0 DUP3 ADD MSTORE PUSH2 0x2D7D PUSH1 0xE0 DUP4 ADD PUSH2 0x2A31 JUMP JUMPDEST PUSH1 0xE0 DUP3 ADD MSTORE PUSH2 0x2D8F PUSH2 0x100 DUP4 ADD PUSH2 0x2A31 JUMP JUMPDEST PUSH2 0x100 DUP3 ADD MSTORE PUSH2 0x120 DUP3 DUP2 ADD MLOAD SWAP1 DUP3 ADD MSTORE PUSH2 0x140 SWAP2 DUP3 ADD MLOAD SWAP2 DUP2 ADD SWAP2 SWAP1 SWAP2 MSTORE SWAP4 SWAP3 POP POP POP JUMP JUMPDEST PUSH6 0x2CA2A990169 PUSH1 0xD5 SHL DUP2 MSTORE PUSH0 PUSH2 0x21C2 PUSH1 0x6 DUP4 ADD DUP5 PUSH2 0x2736 JUMP JUMPDEST PUSH5 0x765945532D PUSH1 0xD8 SHL DUP2 MSTORE PUSH0 PUSH2 0x21C2 PUSH1 0x5 DUP4 ADD DUP5 PUSH2 0x2736 JUMP JUMPDEST PUSH1 0x60 DUP2 MSTORE PUSH0 PUSH2 0x2DFA PUSH1 0x60 DUP4 ADD DUP7 PUSH2 0x2339 JUMP JUMPDEST DUP3 DUP2 SUB PUSH1 0x20 DUP5 ADD MSTORE PUSH2 0x2E0C DUP2 DUP7 PUSH2 0x2339 JUMP JUMPDEST SWAP1 POP DUP3 DUP2 SUB PUSH1 0x40 DUP5 ADD MSTORE PUSH2 0x29B7 DUP2 DUP6 PUSH2 0x2339 JUMP JUMPDEST PUSH0 PUSH1 0x20 DUP3 DUP5 SUB SLT ISZERO PUSH2 0x2E30 JUMPI PUSH0 DUP1 REVERT JUMPDEST DUP2 MLOAD PUSH2 0x21C2 DUP2 PUSH2 0x2193 JUMP JUMPDEST PUSH1 0x60 DUP2 MSTORE PUSH0 PUSH2 0x2E4D PUSH1 0x60 DUP4 ADD DUP7 PUSH2 0x2339 JUMP JUMPDEST PUSH1 0x1 PUSH1 0x1 PUSH1 0xA0 SHL SUB SWAP5 DUP6 AND PUSH1 0x20 DUP5 ADD MSTORE SWAP3 SWAP1 SWAP4 AND PUSH1 0x40 SWAP1 SWAP2 ADD MSTORE SWAP3 SWAP2 POP POP JUMP JUMPDEST PUSH1 0xE0 DUP2 MSTORE PUSH0 PUSH2 0x2E7F PUSH1 0xE0 DUP4 ADD DUP11 PUSH2 0x2339 JUMP JUMPDEST DUP3 DUP2 SUB PUSH1 0x20 DUP5 ADD MSTORE PUSH2 0x2E91 DUP2 DUP11 PUSH2 0x2339 JUMP JUMPDEST SWAP1 POP DUP3 DUP2 SUB PUSH1 0x40 DUP5 ADD MSTORE PUSH2 0x2EA5 DUP2 DUP10 PUSH2 0x2339 JUMP JUMPDEST SWAP1 POP DUP3 DUP2 SUB PUSH1 0x60 DUP5 ADD MSTORE PUSH2 0x2EB9 DUP2 DUP9 PUSH2 0x2339 JUMP JUMPDEST SWAP1 POP DUP3 DUP2 SUB PUSH1 0x80 DUP5 ADD MSTORE PUSH2 0x2ECD DUP2 DUP8 PUSH2 0x2339 JUMP JUMPDEST PUSH1 0xA0 DUP5 ADD SWAP6 SWAP1 SWAP6 MSTORE POP POP PUSH1 0x1 PUSH1 0x1 PUSH1 0xA0 SHL SUB SWAP2 SWAP1 SWAP2 AND PUSH1 0xC0 SWAP1 SWAP2 ADD MSTORE SWAP6 SWAP5 POP POP POP POP POP JUMP JUMPDEST PUSH1 0x60 DUP2 MSTORE PUSH0 PUSH2 0x2F04 PUSH1 0x60 DUP4 ADD DUP7 PUSH2 0x2339 JUMP JUMPDEST PUSH1 0x1 PUSH1 0x1 PUSH1 0xA0 SHL SUB SWAP5 SWAP1 SWAP5 AND PUSH1 0x20 DUP4 ADD MSTORE POP PUSH1 0x40 ADD MSTORE SWAP2 SWAP1 POP JUMP INVALID LOG2 PUSH5 0x6970667358 0x22 SLT KECCAK256 SLOAD DUP3 0xD9 0x24 0xB5 0xDA PUSH25 0xA47B274B9173F6389F0C12634A6B8D99DA4D373C3D59ED4606 PUSH5 0x736F6C6343 STOP ADDMOD BYTE STOP CALLER "},"methodIdentifiers":{"amm()":"2a943945","backendSigner()":"65d65e86","createProposal(string,string,string,string,string,uint256,uint256)":"2cb35980","currentRound()":"8a19c8bc","factory()":"c45a0155","getDeployedContracts()":"aa9a068f","getGraduatedProposals()":"45ee99a9","getPoolReserves(string)":"92893e0f","getProposalStatus(string)":"b56e725c","getRoundInfo()":"84bc76a6","getSwapQuote(string,address,uint256)":"8b10890b","getVUSDCBalance(address)":"1298f3b9","getYESBalance(string,address)":"1b745534","getYESPrice(string)":"26589107","getYesTokenAddress(string)":"9a6b9cbb","graduateProposal(string,uint256)":"00c88c06","initializeMarket(uint256)":"4e1f3a00","initializeMarketWithProposals(uint256,(string,string,string,string,string,uint256,uint256)[])":"8e0dac69","isMarketActive()":"613ace16","owner()":"8da5cb5b","permissionsConfigured()":"cf4baa36","proposalToPoolId(string)":"4054633d","proposalToYesToken(string)":"88abb85f","registerAgent(address)":"306b9bb9","registerAgentsBatch(address[])":"739c5b15","registry()":"7b103999","renounceOwnership()":"715018a6","resetAgentBalanceTo100(address)":"ab1eabf2","resetAgentsBalanceTo100Batch(address[])":"d60fad6c","setupPermissions()":"dac2d6e2","swap(string,address,uint256,uint256)":"76dddf9f","transferOwnership(address)":"f2fde38b","userFaucet()":"6c1cf037","vUSDCToken()":"157e4c08"}}}}}