{"contracts/VerdictProposalRegistryStorage.sol":{"VerdictProposalRegistryStorage":{"abi":[{"inputs":[],"stateMutability":"nonpayable","type":"constructor"},{"anonymous":false,"inputs":[],"name":"MarketCleared","type":"event"},{"anonymous":false,"inputs":[{"indexed":false,"internalType":"uint256","name":"roundNumber","type":"uint256"},{"indexed":false,"internalType":"uint256","name":"startTime","type":"uint256"},{"indexed":false,"internalType":"uint256","name":"endTime","type":"uint256"}],"name":"MarketCreated","type":"event"},{"anonymous":false,"inputs":[{"indexed":false,"internalType":"uint256","name":"roundNumber","type":"uint256"},{"indexed":false,"internalType":"string","name":"winningProposalId","type":"string"}],"name":"MarketResolved","type":"event"},{"anonymous":false,"inputs":[{"indexed":true,"internalType":"string","name":"proposalId","type":"string"},{"indexed":false,"internalType":"string","name":"name","type":"string"},{"indexed":false,"internalType":"address","name":"poolAddress","type":"address"}],"name":"ProposalAdded","type":"event"},{"anonymous":false,"inputs":[{"indexed":true,"internalType":"string","name":"proposalId","type":"string"},{"indexed":false,"internalType":"string","name":"name","type":"string"},{"indexed":false,"internalType":"uint256","name":"yesTWAP","type":"uint256"}],"name":"ProposalGraduated","type":"event"},{"inputs":[{"internalType":"uint256","name":"","type":"uint256"}],"name":"activeProposalIds","outputs":[{"internalType":"string","name":"","type":"string"}],"stateMutability":"view","type":"function"},{"inputs":[{"internalType":"string","name":"proposalId","type":"string"},{"internalType":"string","name":"name","type":"string"},{"internalType":"string","name":"description","type":"string"},{"internalType":"string","name":"evaluationLogic","type":"string"},{"internalType":"string","name":"mathematicalLogic","type":"string"},{"internalType":"uint256","name":"resolutionDeadline","type":"uint256"},{"internalType":"address","name":"poolAddress","type":"address"}],"name":"addProposal","outputs":[],"stateMutability":"nonpayable","type":"function"},{"inputs":[],"name":"clearMarket","outputs":[],"stateMutability":"nonpayable","type":"function"},{"inputs":[{"internalType":"uint256","name":"roundNumber","type":"uint256"},{"internalType":"uint256","name":"roundDuration","type":"uint256"}],"name":"createMarket","outputs":[],"stateMutability":"nonpayable","type":"function"},{"inputs":[],"name":"currentMarket","outputs":[{"internalType":"uint256","name":"roundNumber","type":"uint256"},{"internalType":"uint256","name":"roundStartTime","type":"uint256"},{"internalType":"uint256","name":"roundEndTime","type":"uint256"},{"internalType":"uint256","name":"roundDuration","type":"uint256"},{"internalType":"bool","name":"active","type":"bool"}],"stateMutability":"view","type":"function"},{"inputs":[],"name":"getActiveProposals","outputs":[{"internalType":"string[]","name":"","type":"string[]"}],"stateMutability":"view","type":"function"},{"inputs":[],"name":"getCurrentMarket","outputs":[{"components":[{"internalType":"uint256","name":"roundNumber","type":"uint256"},{"internalType":"uint256","name":"roundStartTime","type":"uint256"},{"internalType":"uint256","name":"roundEndTime","type":"uint256"},{"internalType":"uint256","name":"roundDuration","type":"uint256"},{"internalType":"string[]","name":"proposalIds","type":"string[]"},{"internalType":"bool","name":"active","type":"bool"}],"internalType":"struct VerdictProposalRegistryStorage.Market","name":"","type":"tuple"}],"stateMutability":"view","type":"function"},{"inputs":[],"name":"getGraduatedProposals","outputs":[{"internalType":"string[]","name":"","type":"string[]"}],"stateMutability":"view","type":"function"},{"inputs":[{"internalType":"string","name":"proposalId","type":"string"}],"name":"getProposal","outputs":[{"components":[{"internalType":"string","name":"id","type":"string"},{"internalType":"string","name":"name","type":"string"},{"internalType":"string","name":"description","type":"string"},{"internalType":"string","name":"evaluationLogic","type":"string"},{"internalType":"string","name":"mathematicalLogic","type":"string"},{"internalType":"uint256","name":"resolutionDeadline","type":"uint256"},{"internalType":"address","name":"poolAddress","type":"address"},{"internalType":"bool","name":"resolved","type":"bool"},{"internalType":"bool","name":"isWinner","type":"bool"},{"internalType":"uint256","name":"yesTWAP","type":"uint256"},{"internalType":"uint256","name":"timestamp","type":"uint256"}],"internalType":"struct VerdictProposalRegistryStorage.Proposal","name":"","type":"tuple"}],"stateMutability":"view","type":"function"},{"inputs":[],"name":"getTimeRemaining","outputs":[{"internalType":"uint256","name":"","type":"uint256"}],"stateMutability":"view","type":"function"},{"inputs":[{"internalType":"string","name":"proposalId","type":"string"},{"internalType":"uint256","name":"yesTWAP","type":"uint256"}],"name":"graduateProposal","outputs":[],"stateMutability":"nonpayable","type":"function"},{"inputs":[{"internalType":"uint256","name":"","type":"uint256"}],"name":"graduatedProposalIds","outputs":[{"internalType":"string","name":"","type":"string"}],"stateMutability":"view","type":"function"},{"inputs":[],"name":"isMarketActive","outputs":[{"internalType":"bool","name":"","type":"bool"}],"stateMutability":"view","type":"function"},{"inputs":[],"name":"marketContract","outputs":[{"internalType":"address","name":"","type":"address"}],"stateMutability":"view","type":"function"},{"inputs":[],"name":"owner","outputs":[{"internalType":"address","name":"","type":"address"}],"stateMutability":"view","type":"function"},{"inputs":[{"internalType":"string","name":"","type":"string"}],"name":"proposals","outputs":[{"internalType":"string","name":"id","type":"string"},{"internalType":"string","name":"name","type":"string"},{"internalType":"string","name":"description","type":"string"},{"internalType":"string","name":"evaluationLogic","type":"string"},{"internalType":"string","name":"mathematicalLogic","type":"string"},{"internalType":"uint256","name":"resolutionDeadline","type":"uint256"},{"internalType":"address","name":"poolAddress","type":"address"},{"internalType":"bool","name":"resolved","type":"bool"},{"internalType":"bool","name":"isWinner","type":"bool"},{"internalType":"uint256","name":"yesTWAP","type":"uint256"},{"internalType":"uint256","name":"timestamp","type":"uint256"}],"stateMutability":"view","type":"function"},{"inputs":[{"internalType":"string","name":"winningProposalId","type":"string"}],"name":"resolveMarket","outputs":[],"stateMutability":"nonpayable","type":"function"},{"inputs":[{"internalType":"address","name":"_marketContract","type":"address"}],"name":"setMarketContract","outputs":[],"stateMutability":"nonpayable","type":"function"}],"evm":{"bytecode":{"linkReferences":{},"object":"6080604052348015600e575f80fd5b505f80546001600160a01b03191633179055611e3a8061002d5f395ff3fe608060405234801561000f575f80fd5b5060043610610110575f3560e01c80639d13a9f41161009e578063dac6270d1161006e578063dac6270d14610277578063ebf1f1c41461028d578063f85ea2ab146102a0578063fc81587a146102b3578063ffa0d2a4146102bb575f80fd5b80639d13a9f4146101f7578063a1794bcd1461020a578063c6675cc91461021d578063c7604fec14610264575f80fd5b806350c9457c116100e457806350c9457c1461017a5780635584c4f91461019a578063613ace16146101a257806380821c37146101b85780638da5cb5b146101cd575f80fd5b8062c88c06146101145780630446c3e61461012957806325d3a09d1461013c57806345ee99a914610165575b5f80fd5b610127610122366004611695565b6102e5565b005b6101276101373660046116d7565b61048c565b61014f61014a3660046116d7565b610543565b60405161015c919061173f565b60405180910390f35b61016d6108fb565b60405161015c919061183c565b61018d61018836600461189f565b6109cf565b60405161015c91906118b6565b61016d610a75565b60075460ff16604051901515815260200161015c565b6101c0610b40565b60405161015c91906118cf565b5f546101df906001600160a01b031681565b6040516001600160a01b03909116815260200161015c565b61018d61020536600461189f565b610c89565b6001546101df906001600160a01b031681565b60025460035460045460055460075461023a949392919060ff1685565b6040805195865260208601949094529284019190915260608301521515608082015260a00161015c565b610127610272366004611974565b610c98565b61027f610dc7565b60405190815260200161015c565b61012761029b3660046119af565b610dfa565b6101276102ae366004611aab565b6110d6565b610127611186565b6102ce6102c93660046116d7565b611212565b60405161015c9b9a99989796959493929190611ac4565b6001546001600160a01b031633146103185760405162461bcd60e51b815260040161030f90611b71565b60405180910390fd5b5f6008836040516103299190611b9f565b908152602001604051809103902090505f815f01805461034890611bb5565b90501161038c5760405162461bcd60e51b8152602060048201526012602482015271141c9bdc1bdcd85b081b9bdd08199bdd5b9960721b604482015260640161030f565b6006810154600160a01b900460ff16156103db5760405162461bcd60e51b815260206004820152601060248201526f105b1c9958591e481c995cdbdb1d995960821b604482015260640161030f565b60068101805461ffff60a01b191661010160a01b17905560078101829055600980546001810182555f919091527f6e1540171b6c0c960b71a7020d9f60077f6af931a8bbf590da0223dacf75c7af016104348482611c39565b50826040516104439190611b9f565b60405180910390207f31856aa0754657abc49198c86057d12da4ad8b4986472692aa330310682da1c6826001018460405161047f929190611cf4565b60405180910390a2505050565b6001546001600160a01b031633146104b65760405162461bcd60e51b815260040161030f90611b71565b60075460ff166104fb5760405162461bcd60e51b815260206004820152601060248201526f139bc81858dd1a5d99481b585c9ad95d60821b604482015260640161030f565b6007805460ff191690556002546040517f2ec1f84b4079525f1ab2216f53a16f520efec75c91c517667151e55bbea7b9ec91610538918490611d83565b60405180910390a150565b6105a760405180610160016040528060608152602001606081526020016060815260200160608152602001606081526020015f81526020015f6001600160a01b031681526020015f151581526020015f151581526020015f81526020015f81525090565b6008826040516105b79190611b9f565b9081526020016040518091039020604051806101600160405290815f820180546105e090611bb5565b80601f016020809104026020016040519081016040528092919081815260200182805461060c90611bb5565b80156106575780601f1061062e57610100808354040283529160200191610657565b820191905f5260205f20905b81548152906001019060200180831161063a57829003601f168201915b5050505050815260200160018201805461067090611bb5565b80601f016020809104026020016040519081016040528092919081815260200182805461069c90611bb5565b80156106e75780601f106106be576101008083540402835291602001916106e7565b820191905f5260205f20905b8154815290600101906020018083116106ca57829003601f168201915b5050505050815260200160028201805461070090611bb5565b80601f016020809104026020016040519081016040528092919081815260200182805461072c90611bb5565b80156107775780601f1061074e57610100808354040283529160200191610777565b820191905f5260205f20905b81548152906001019060200180831161075a57829003601f168201915b5050505050815260200160038201805461079090611bb5565b80601f01602080910402602001604051908101604052809291908181526020018280546107bc90611bb5565b80156108075780601f106107de57610100808354040283529160200191610807565b820191905f5260205f20905b8154815290600101906020018083116107ea57829003601f168201915b5050505050815260200160048201805461082090611bb5565b80601f016020809104026020016040519081016040528092919081815260200182805461084c90611bb5565b80156108975780601f1061086e57610100808354040283529160200191610897565b820191905f5260205f20905b81548152906001019060200180831161087a57829003601f168201915b50505091835250506005820154602082015260068201546001600160a01b038116604083015260ff600160a01b8204811615156060840152600160a81b9091041615156080820152600782015460a082015260089091015460c09091015292915050565b60606009805480602002602001604051908101604052809291908181526020015f905b828210156109c6578382905f5260205f2001805461093b90611bb5565b80601f016020809104026020016040519081016040528092919081815260200182805461096790611bb5565b80156109b25780601f10610989576101008083540402835291602001916109b2565b820191905f5260205f20905b81548152906001019060200180831161099557829003601f168201915b50505050508152602001906001019061091e565b50505050905090565b600a81815481106109de575f80fd5b905f5260205f20015f9150905080546109f690611bb5565b80601f0160208091040260200160405190810160405280929190818152602001828054610a2290611bb5565b8015610a6d5780601f10610a4457610100808354040283529160200191610a6d565b820191905f5260205f20905b815481529060010190602001808311610a5057829003601f168201915b505050505081565b6060600a805480602002602001604051908101604052809291908181526020015f905b828210156109c6578382905f5260205f20018054610ab590611bb5565b80601f0160208091040260200160405190810160405280929190818152602001828054610ae190611bb5565b8015610b2c5780601f10610b0357610100808354040283529160200191610b2c565b820191905f5260205f20905b815481529060010190602001808311610b0f57829003601f168201915b505050505081526020019060010190610a98565b610b766040518060c001604052805f81526020015f81526020015f81526020015f8152602001606081526020015f151581525090565b6040805160c08101825260028054825260035460208084019190915260045483850152600554606084015260068054855181840281018401909652808652939492936080860193925f9084015b82821015610c6b578382905f5260205f20018054610be090611bb5565b80601f0160208091040260200160405190810160405280929190818152602001828054610c0c90611bb5565b8015610c575780601f10610c2e57610100808354040283529160200191610c57565b820191905f5260205f20905b815481529060010190602001808311610c3a57829003601f168201915b505050505081526020019060010190610bc3565b505050908252506005919091015460ff161515602090910152919050565b600981815481106109de575f80fd5b6001546001600160a01b03163314610cc25760405162461bcd60e51b815260040161030f90611b71565b6040518060c001604052808381526020014281526020018242610ce59190611daf565b81526020808201849052604080515f808252928101825292019190610d1a565b6060815260200190600190039081610d055790505b5081526001602091820152815160029081558282015160035560408301516004556060830151600555608083015180519192610d5c9260069290910190611522565b5060a091909101516005909101805460ff19169115159190911790557fed25ec23d979bebc7c6a7e5ffebb0fbd64b71f7e6dc13dec21f220f5b91081b98242610da58482611daf565b6040805193845260208401929092529082015260600160405180910390a15050565b6007545f9060ff161580610ddd57506004544210155b15610de757505f90565b600454610df5904290611dc8565b905090565b6001546001600160a01b03163314610e245760405162461bcd60e51b815260040161030f90611b71565b60075460ff16610e695760405162461bcd60e51b815260206004820152601060248201526f139bc81858dd1a5d99481b585c9ad95d60821b604482015260640161030f565b6001600160a01b038116610eb65760405162461bcd60e51b8152602060048201526014602482015273496e76616c696420706f6f6c206164647265737360601b604482015260640161030f565b604051806101600160405280888152602001878152602001868152602001858152602001848152602001838152602001826001600160a01b031681526020015f151581526020015f151581526020015f815260200142815250600888604051610f1f9190611b9f565b90815260405190819003602001902081518190610f3c9082611c39565b5060208201516001820190610f519082611c39565b5060408201516002820190610f669082611c39565b5060608201516003820190610f7b9082611c39565b5060808201516004820190610f909082611c39565b5060a0820151600582015560c08201516006808301805460e08601516101008701511515600160a81b0260ff60a81b19911515600160a01b026001600160a81b03199093166001600160a01b039096169590951791909117169290921790915561012083015160078301556101409092015160089091015580546001810182555f919091527ff652222313e28459528d920b65115c16c04f3efc82aaedc97be59f3f377c0d3f016110418882611c39565b50600a80546001810182555f919091527fc65a7bb8d6351c1cf70c95a316cc6a92839c986682d98bc35f958f4883f9d2a80161107d8882611c39565b508660405161108c9190611b9f565b60405180910390207f1958207786f309abb6db88f2a47c5d0bacd26f5196f358e7e73dda7f514fe66987836040516110c5929190611ddb565b60405180910390a250505050505050565b5f546001600160a01b0316331461111c5760405162461bcd60e51b815260206004820152600a60248201526927b7363c9037bbb732b960b11b604482015260640161030f565b6001600160a01b0381166111645760405162461bcd60e51b815260206004820152600f60248201526e496e76616c6964206164647265737360881b604482015260640161030f565b600180546001600160a01b0319166001600160a01b0392909216919091179055565b6001546001600160a01b031633146111b05760405162461bcd60e51b815260040161030f90611b71565b6111bb600a5f611576565b5f6002818155600382905560048290556005829055906111dc600682611576565b50600501805460ff191690556040517fefd8790e3797f9c35fdc61425cc413c2108ef625ec8abdd75e1abdbcc9d7cc92905f90a1565b805160208183018101805160088252928201919093012091528054819061123890611bb5565b80601f016020809104026020016040519081016040528092919081815260200182805461126490611bb5565b80156112af5780601f10611286576101008083540402835291602001916112af565b820191905f5260205f20905b81548152906001019060200180831161129257829003601f168201915b5050505050908060010180546112c490611bb5565b80601f01602080910402602001604051908101604052809291908181526020018280546112f090611bb5565b801561133b5780601f106113125761010080835404028352916020019161133b565b820191905f5260205f20905b81548152906001019060200180831161131e57829003601f168201915b50505050509080600201805461135090611bb5565b80601f016020809104026020016040519081016040528092919081815260200182805461137c90611bb5565b80156113c75780601f1061139e576101008083540402835291602001916113c7565b820191905f5260205f20905b8154815290600101906020018083116113aa57829003601f168201915b5050505050908060030180546113dc90611bb5565b80601f016020809104026020016040519081016040528092919081815260200182805461140890611bb5565b80156114535780601f1061142a57610100808354040283529160200191611453565b820191905f5260205f20905b81548152906001019060200180831161143657829003601f168201915b50505050509080600401805461146890611bb5565b80601f016020809104026020016040519081016040528092919081815260200182805461149490611bb5565b80156114df5780601f106114b6576101008083540402835291602001916114df565b820191905f5260205f20905b8154815290600101906020018083116114c257829003601f168201915b50505050600583015460068401546007850154600890950154939491936001600160a01b038216935060ff600160a01b8304811693600160a81b9093041691908b565b828054828255905f5260205f20908101928215611566579160200282015b8281111561156657825182906115569082611c39565b5091602001919060010190611540565b50611572929150611594565b5090565b5080545f8255905f5260205f20908101906115919190611594565b50565b80821115611572575f6115a782826115b0565b50600101611594565b5080546115bc90611bb5565b5f825580601f106115cb575050565b601f0160209004905f5260205f209081019061159191905b80821115611572575f81556001016115e3565b634e487b7160e01b5f52604160045260245ffd5b5f82601f830112611619575f80fd5b813567ffffffffffffffff811115611633576116336115f6565b604051601f8201601f19908116603f0116810167ffffffffffffffff81118282101715611662576116626115f6565b604052818152838201602001851015611679575f80fd5b816020850160208301375f918101602001919091529392505050565b5f80604083850312156116a6575f80fd5b823567ffffffffffffffff8111156116bc575f80fd5b6116c88582860161160a565b95602094909401359450505050565b5f602082840312156116e7575f80fd5b813567ffffffffffffffff8111156116fd575f80fd5b6117098482850161160a565b949350505050565b5f81518084528060208401602086015e5f602082860101526020601f19601f83011685010191505092915050565b602081525f8251610160602084015261175c610180840182611711565b90506020840151601f198483030160408501526117798282611711565b9150506040840151601f198483030160608501526117978282611711565b9150506060840151601f198483030160808501526117b58282611711565b9150506080840151601f198483030160a08501526117d38282611711565b91505060a084015160c084015260c08401516117fa60e08501826001600160a01b03169052565b5060e084015180151561010085015250610100840151801515610120850152506101208401516101408401526101408401516101608401528091505092915050565b5f602082016020835280845180835260408501915060408160051b8601019250602086015f5b8281101561189357603f1987860301845261187e858351611711565b94506020938401939190910190600101611862565b50929695505050505050565b5f602082840312156118af575f80fd5b5035919050565b602081525f6118c86020830184611711565b9392505050565b602081525f60e0820183516020840152602084015160408401526040840151606084015260608401516080840152608084015160c060a0850152818151808452610100860191506101008160051b87010193506020830192505f5b8181101561195b5760ff19878603018352611946858551611711565b9450602093840193929092019160010161192a565b5050505060a084015180151560c0850152509392505050565b5f8060408385031215611985575f80fd5b50508035926020909101359150565b80356001600160a01b03811681146119aa575f80fd5b919050565b5f805f805f805f60e0888a0312156119c5575f80fd5b873567ffffffffffffffff8111156119db575f80fd5b6119e78a828b0161160a565b975050602088013567ffffffffffffffff811115611a03575f80fd5b611a0f8a828b0161160a565b965050604088013567ffffffffffffffff811115611a2b575f80fd5b611a378a828b0161160a565b955050606088013567ffffffffffffffff811115611a53575f80fd5b611a5f8a828b0161160a565b945050608088013567ffffffffffffffff811115611a7b575f80fd5b611a878a828b0161160a565b93505060a08801359150611a9d60c08901611994565b905092959891949750929550565b5f60208284031215611abb575f80fd5b6118c882611994565b61016081525f611ad861016083018e611711565b8281036020840152611aea818e611711565b90508281036040840152611afe818d611711565b90508281036060840152611b12818c611711565b90508281036080840152611b26818b611711565b60a084018a90526001600160a01b03891660c085015287151560e08501528615156101008501529150611b569050565b61012082019390935261014001529998505050505050505050565b60208082526014908201527313db9b1e481b585c9ad95d0818dbdb9d1c9858dd60621b604082015260600190565b5f82518060208501845e5f920191825250919050565b600181811c90821680611bc957607f821691505b602082108103611be757634e487b7160e01b5f52602260045260245ffd5b50919050565b601f821115611c3457805f5260205f20601f840160051c81016020851015611c125750805b601f840160051c820191505b81811015611c31575f8155600101611c1e565b50505b505050565b815167ffffffffffffffff811115611c5357611c536115f6565b611c6781611c618454611bb5565b84611bed565b6020601f821160018114611c99575f8315611c825750848201515b5f19600385901b1c1916600184901b178455611c31565b5f84815260208120601f198516915b82811015611cc85787850151825560209485019460019092019101611ca8565b5084821015611ce557868401515f19600387901b60f8161c191681555b50505050600190811b01905550565b604081525f808454611d0581611bb5565b806040860152600182165f8114611d235760018114611d3f57611d70565b60ff1983166060870152606082151560051b8701019350611d70565b875f5260205f205f5b83811015611d6757815488820160600152600190910190602001611d48565b87016060019450505b5050506020929092019290925292915050565b828152604060208201525f6117096040830184611711565b634e487b7160e01b5f52601160045260245ffd5b80820180821115611dc257611dc2611d9b565b92915050565b81810381811115611dc257611dc2611d9b565b604081525f611ded6040830185611711565b905060018060a01b0383166020830152939250505056fea2646970667358221220101e92ff921708f585d1929ba117e91568136691a01c2735bdb7e094656ff10664736f6c634300081a0033","opcodes":"PUSH1 0x80 PUSH1 0x40 MSTORE CALLVALUE DUP1 ISZERO PUSH1 0xE JUMPI PUSH0 DUP1 REVERT JUMPDEST POP PUSH0 DUP1 SLOAD PUSH1 0x1 PUSH1 0x1 PUSH1 0xA0 SHL SUB NOT AND CALLER OR SWAP1 SSTORE PUSH2 0x1E3A DUP1 PUSH2 0x2D PUSH0 CODECOPY PUSH0 RETURN INVALID PUSH1 0x80 PUSH1 0x40 MSTORE CALLVALUE DUP1 ISZERO PUSH2 0xF JUMPI PUSH0 DUP1 REVERT JUMPDEST POP PUSH1 0x4 CALLDATASIZE LT PUSH2 0x110 JUMPI PUSH0 CALLDATALOAD PUSH1 0xE0 SHR DUP1 PUSH4 0x9D13A9F4 GT PUSH2 0x9E JUMPI DUP1 PUSH4 0xDAC6270D GT PUSH2 0x6E JUMPI DUP1 PUSH4 0xDAC6270D EQ PUSH2 0x277 JUMPI DUP1 PUSH4 0xEBF1F1C4 EQ PUSH2 0x28D JUMPI DUP1 PUSH4 0xF85EA2AB EQ PUSH2 0x2A0 JUMPI DUP1 PUSH4 0xFC81587A EQ PUSH2 0x2B3 JUMPI DUP1 PUSH4 0xFFA0D2A4 EQ PUSH2 0x2BB JUMPI PUSH0 DUP1 REVERT JUMPDEST DUP1 PUSH4 0x9D13A9F4 EQ PUSH2 0x1F7 JUMPI DUP1 PUSH4 0xA1794BCD EQ PUSH2 0x20A JUMPI DUP1 PUSH4 0xC6675CC9 EQ PUSH2 0x21D JUMPI DUP1 PUSH4 0xC7604FEC EQ PUSH2 0x264 JUMPI PUSH0 DUP1 REVERT JUMPDEST DUP1 PUSH4 0x50C9457C GT PUSH2 0xE4 JUMPI DUP1 PUSH4 0x50C9457C EQ PUSH2 0x17A JUMPI DUP1 PUSH4 0x5584C4F9 EQ PUSH2 0x19A JUMPI DUP1 PUSH4 0x613ACE16 EQ PUSH2 0x1A2 JUMPI DUP1 PUSH4 0x80821C37 EQ PUSH2 0x1B8 JUMPI DUP1 PUSH4 0x8DA5CB5B EQ PUSH2 0x1CD JUMPI PUSH0 DUP1 REVERT JUMPDEST DUP1 PUSH3 0xC88C06 EQ PUSH2 0x114 JUMPI DUP1 PUSH4 0x446C3E6 EQ PUSH2 0x129 JUMPI DUP1 PUSH4 0x25D3A09D EQ PUSH2 0x13C JUMPI DUP1 PUSH4 0x45EE99A9 EQ PUSH2 0x165 JUMPI JUMPDEST PUSH0 DUP1 REVERT JUMPDEST PUSH2 0x127 PUSH2 0x122 CALLDATASIZE PUSH1 0x4 PUSH2 0x1695 JUMP JUMPDEST PUSH2 0x2E5 JUMP JUMPDEST STOP JUMPDEST PUSH2 0x127 PUSH2 0x137 CALLDATASIZE PUSH1 0x4 PUSH2 0x16D7 JUMP JUMPDEST PUSH2 0x48C JUMP JUMPDEST PUSH2 0x14F PUSH2 0x14A CALLDATASIZE PUSH1 0x4 PUSH2 0x16D7 JUMP JUMPDEST PUSH2 0x543 JUMP JUMPDEST PUSH1 0x40 MLOAD PUSH2 0x15C SWAP2 SWAP1 PUSH2 0x173F JUMP JUMPDEST PUSH1 0x40 MLOAD DUP1 SWAP2 SUB SWAP1 RETURN JUMPDEST PUSH2 0x16D PUSH2 0x8FB JUMP JUMPDEST PUSH1 0x40 MLOAD PUSH2 0x15C SWAP2 SWAP1 PUSH2 0x183C JUMP JUMPDEST PUSH2 0x18D PUSH2 0x188 CALLDATASIZE PUSH1 0x4 PUSH2 0x189F JUMP JUMPDEST PUSH2 0x9CF JUMP JUMPDEST PUSH1 0x40 MLOAD PUSH2 0x15C SWAP2 SWAP1 PUSH2 0x18B6 JUMP JUMPDEST PUSH2 0x16D PUSH2 0xA75 JUMP JUMPDEST PUSH1 0x7 SLOAD PUSH1 0xFF AND PUSH1 0x40 MLOAD SWAP1 ISZERO ISZERO DUP2 MSTORE PUSH1 0x20 ADD PUSH2 0x15C JUMP JUMPDEST PUSH2 0x1C0 PUSH2 0xB40 JUMP JUMPDEST PUSH1 0x40 MLOAD PUSH2 0x15C SWAP2 SWAP1 PUSH2 0x18CF JUMP JUMPDEST PUSH0 SLOAD PUSH2 0x1DF SWAP1 PUSH1 0x1 PUSH1 0x1 PUSH1 0xA0 SHL SUB AND DUP2 JUMP JUMPDEST PUSH1 0x40 MLOAD PUSH1 0x1 PUSH1 0x1 PUSH1 0xA0 SHL SUB SWAP1 SWAP2 AND DUP2 MSTORE PUSH1 0x20 ADD PUSH2 0x15C JUMP JUMPDEST PUSH2 0x18D PUSH2 0x205 CALLDATASIZE PUSH1 0x4 PUSH2 0x189F JUMP JUMPDEST PUSH2 0xC89 JUMP JUMPDEST PUSH1 0x1 SLOAD PUSH2 0x1DF SWAP1 PUSH1 0x1 PUSH1 0x1 PUSH1 0xA0 SHL SUB AND DUP2 JUMP JUMPDEST PUSH1 0x2 SLOAD PUSH1 0x3 SLOAD PUSH1 0x4 SLOAD PUSH1 0x5 SLOAD PUSH1 0x7 SLOAD PUSH2 0x23A SWAP5 SWAP4 SWAP3 SWAP2 SWAP1 PUSH1 0xFF AND DUP6 JUMP JUMPDEST PUSH1 0x40 DUP1 MLOAD SWAP6 DUP7 MSTORE PUSH1 0x20 DUP7 ADD SWAP5 SWAP1 SWAP5 MSTORE SWAP3 DUP5 ADD SWAP2 SWAP1 SWAP2 MSTORE PUSH1 0x60 DUP4 ADD MSTORE ISZERO ISZERO PUSH1 0x80 DUP3 ADD MSTORE PUSH1 0xA0 ADD PUSH2 0x15C JUMP JUMPDEST PUSH2 0x127 PUSH2 0x272 CALLDATASIZE PUSH1 0x4 PUSH2 0x1974 JUMP JUMPDEST PUSH2 0xC98 JUMP JUMPDEST PUSH2 0x27F PUSH2 0xDC7 JUMP JUMPDEST PUSH1 0x40 MLOAD SWAP1 DUP2 MSTORE PUSH1 0x20 ADD PUSH2 0x15C JUMP JUMPDEST PUSH2 0x127 PUSH2 0x29B CALLDATASIZE PUSH1 0x4 PUSH2 0x19AF JUMP JUMPDEST PUSH2 0xDFA JUMP JUMPDEST PUSH2 0x127 PUSH2 0x2AE CALLDATASIZE PUSH1 0x4 PUSH2 0x1AAB JUMP JUMPDEST PUSH2 0x10D6 JUMP JUMPDEST PUSH2 0x127 PUSH2 0x1186 JUMP JUMPDEST PUSH2 0x2CE PUSH2 0x2C9 CALLDATASIZE PUSH1 0x4 PUSH2 0x16D7 JUMP JUMPDEST PUSH2 0x1212 JUMP JUMPDEST PUSH1 0x40 MLOAD PUSH2 0x15C SWAP12 SWAP11 SWAP10 SWAP9 SWAP8 SWAP7 SWAP6 SWAP5 SWAP4 SWAP3 SWAP2 SWAP1 PUSH2 0x1AC4 JUMP JUMPDEST PUSH1 0x1 SLOAD PUSH1 0x1 PUSH1 0x1 PUSH1 0xA0 SHL SUB AND CALLER EQ PUSH2 0x318 JUMPI PUSH1 0x40 MLOAD PUSH3 0x461BCD PUSH1 0xE5 SHL DUP2 MSTORE PUSH1 0x4 ADD PUSH2 0x30F SWAP1 PUSH2 0x1B71 JUMP JUMPDEST PUSH1 0x40 MLOAD DUP1 SWAP2 SUB SWAP1 REVERT JUMPDEST PUSH0 PUSH1 0x8 DUP4 PUSH1 0x40 MLOAD PUSH2 0x329 SWAP2 SWAP1 PUSH2 0x1B9F JUMP JUMPDEST SWAP1 DUP2 MSTORE PUSH1 0x20 ADD PUSH1 0x40 MLOAD DUP1 SWAP2 SUB SWAP1 KECCAK256 SWAP1 POP PUSH0 DUP2 PUSH0 ADD DUP1 SLOAD PUSH2 0x348 SWAP1 PUSH2 0x1BB5 JUMP JUMPDEST SWAP1 POP GT PUSH2 0x38C JUMPI PUSH1 0x40 MLOAD PUSH3 0x461BCD PUSH1 0xE5 SHL DUP2 MSTORE PUSH1 0x20 PUSH1 0x4 DUP3 ADD MSTORE PUSH1 0x12 PUSH1 0x24 DUP3 ADD MSTORE PUSH18 0x141C9BDC1BDCD85B081B9BDD08199BDD5B99 PUSH1 0x72 SHL PUSH1 0x44 DUP3 ADD MSTORE PUSH1 0x64 ADD PUSH2 0x30F JUMP JUMPDEST PUSH1 0x6 DUP2 ADD SLOAD PUSH1 0x1 PUSH1 0xA0 SHL SWAP1 DIV PUSH1 0xFF AND ISZERO PUSH2 0x3DB JUMPI PUSH1 0x40 MLOAD PUSH3 0x461BCD PUSH1 0xE5 SHL DUP2 MSTORE PUSH1 0x20 PUSH1 0x4 DUP3 ADD MSTORE PUSH1 0x10 PUSH1 0x24 DUP3 ADD MSTORE PUSH16 0x105B1C9958591E481C995CDBDB1D9959 PUSH1 0x82 SHL PUSH1 0x44 DUP3 ADD MSTORE PUSH1 0x64 ADD PUSH2 0x30F JUMP JUMPDEST PUSH1 0x6 DUP2 ADD DUP1 SLOAD PUSH2 0xFFFF PUSH1 0xA0 SHL NOT AND PUSH2 0x101 PUSH1 0xA0 SHL OR SWAP1 SSTORE PUSH1 0x7 DUP2 ADD DUP3 SWAP1 SSTORE PUSH1 0x9 DUP1 SLOAD PUSH1 0x1 DUP2 ADD DUP3 SSTORE PUSH0 SWAP2 SWAP1 SWAP2 MSTORE PUSH32 0x6E1540171B6C0C960B71A7020D9F60077F6AF931A8BBF590DA0223DACF75C7AF ADD PUSH2 0x434 DUP5 DUP3 PUSH2 0x1C39 JUMP JUMPDEST POP DUP3 PUSH1 0x40 MLOAD PUSH2 0x443 SWAP2 SWAP1 PUSH2 0x1B9F JUMP JUMPDEST PUSH1 0x40 MLOAD DUP1 SWAP2 SUB SWAP1 KECCAK256 PUSH32 0x31856AA0754657ABC49198C86057D12DA4AD8B4986472692AA330310682DA1C6 DUP3 PUSH1 0x1 ADD DUP5 PUSH1 0x40 MLOAD PUSH2 0x47F SWAP3 SWAP2 SWAP1 PUSH2 0x1CF4 JUMP JUMPDEST PUSH1 0x40 MLOAD DUP1 SWAP2 SUB SWAP1 LOG2 POP POP POP JUMP JUMPDEST PUSH1 0x1 SLOAD PUSH1 0x1 PUSH1 0x1 PUSH1 0xA0 SHL SUB AND CALLER EQ PUSH2 0x4B6 JUMPI PUSH1 0x40 MLOAD PUSH3 0x461BCD PUSH1 0xE5 SHL DUP2 MSTORE PUSH1 0x4 ADD PUSH2 0x30F SWAP1 PUSH2 0x1B71 JUMP JUMPDEST PUSH1 0x7 SLOAD PUSH1 0xFF AND PUSH2 0x4FB JUMPI PUSH1 0x40 MLOAD PUSH3 0x461BCD PUSH1 0xE5 SHL DUP2 MSTORE PUSH1 0x20 PUSH1 0x4 DUP3 ADD MSTORE PUSH1 0x10 PUSH1 0x24 DUP3 ADD MSTORE PUSH16 0x139BC81858DD1A5D99481B585C9AD95D PUSH1 0x82 SHL PUSH1 0x44 DUP3 ADD MSTORE PUSH1 0x64 ADD PUSH2 0x30F JUMP JUMPDEST PUSH1 0x7 DUP1 SLOAD PUSH1 0xFF NOT AND SWAP1 SSTORE PUSH1 0x2 SLOAD PUSH1 0x40 MLOAD PUSH32 0x2EC1F84B4079525F1AB2216F53A16F520EFEC75C91C517667151E55BBEA7B9EC SWAP2 PUSH2 0x538 SWAP2 DUP5 SWAP1 PUSH2 0x1D83 JUMP JUMPDEST PUSH1 0x40 MLOAD DUP1 SWAP2 SUB SWAP1 LOG1 POP JUMP JUMPDEST PUSH2 0x5A7 PUSH1 0x40 MLOAD DUP1 PUSH2 0x160 ADD PUSH1 0x40 MSTORE DUP1 PUSH1 0x60 DUP2 MSTORE PUSH1 0x20 ADD PUSH1 0x60 DUP2 MSTORE PUSH1 0x20 ADD PUSH1 0x60 DUP2 MSTORE PUSH1 0x20 ADD PUSH1 0x60 DUP2 MSTORE PUSH1 0x20 ADD PUSH1 0x60 DUP2 MSTORE PUSH1 0x20 ADD PUSH0 DUP2 MSTORE PUSH1 0x20 ADD PUSH0 PUSH1 0x1 PUSH1 0x1 PUSH1 0xA0 SHL SUB AND DUP2 MSTORE PUSH1 0x20 ADD PUSH0 ISZERO ISZERO DUP2 MSTORE PUSH1 0x20 ADD PUSH0 ISZERO ISZERO DUP2 MSTORE PUSH1 0x20 ADD PUSH0 DUP2 MSTORE PUSH1 0x20 ADD PUSH0 DUP2 MSTORE POP SWAP1 JUMP JUMPDEST PUSH1 0x8 DUP3 PUSH1 0x40 MLOAD PUSH2 0x5B7 SWAP2 SWAP1 PUSH2 0x1B9F JUMP JUMPDEST SWAP1 DUP2 MSTORE PUSH1 0x20 ADD PUSH1 0x40 MLOAD DUP1 SWAP2 SUB SWAP1 KECCAK256 PUSH1 0x40 MLOAD DUP1 PUSH2 0x160 ADD PUSH1 0x40 MSTORE SWAP1 DUP2 PUSH0 DUP3 ADD DUP1 SLOAD PUSH2 0x5E0 SWAP1 PUSH2 0x1BB5 JUMP JUMPDEST DUP1 PUSH1 0x1F ADD PUSH1 0x20 DUP1 SWAP2 DIV MUL PUSH1 0x20 ADD PUSH1 0x40 MLOAD SWAP1 DUP2 ADD PUSH1 0x40 MSTORE DUP1 SWAP3 SWAP2 SWAP1 DUP2 DUP2 MSTORE PUSH1 0x20 ADD DUP3 DUP1 SLOAD PUSH2 0x60C SWAP1 PUSH2 0x1BB5 JUMP JUMPDEST DUP1 ISZERO PUSH2 0x657 JUMPI DUP1 PUSH1 0x1F LT PUSH2 0x62E JUMPI PUSH2 0x100 DUP1 DUP4 SLOAD DIV MUL DUP4 MSTORE SWAP2 PUSH1 0x20 ADD SWAP2 PUSH2 0x657 JUMP JUMPDEST DUP3 ADD SWAP2 SWAP1 PUSH0 MSTORE PUSH1 0x20 PUSH0 KECCAK256 SWAP1 JUMPDEST DUP2 SLOAD DUP2 MSTORE SWAP1 PUSH1 0x1 ADD SWAP1 PUSH1 0x20 ADD DUP1 DUP4 GT PUSH2 0x63A JUMPI DUP3 SWAP1 SUB PUSH1 0x1F AND DUP3 ADD SWAP2 JUMPDEST POP POP POP POP POP DUP2 MSTORE PUSH1 0x20 ADD PUSH1 0x1 DUP3 ADD DUP1 SLOAD PUSH2 0x670 SWAP1 PUSH2 0x1BB5 JUMP JUMPDEST DUP1 PUSH1 0x1F ADD PUSH1 0x20 DUP1 SWAP2 DIV MUL PUSH1 0x20 ADD PUSH1 0x40 MLOAD SWAP1 DUP2 ADD PUSH1 0x40 MSTORE DUP1 SWAP3 SWAP2 SWAP1 DUP2 DUP2 MSTORE PUSH1 0x20 ADD DUP3 DUP1 SLOAD PUSH2 0x69C SWAP1 PUSH2 0x1BB5 JUMP JUMPDEST DUP1 ISZERO PUSH2 0x6E7 JUMPI DUP1 PUSH1 0x1F LT PUSH2 0x6BE JUMPI PUSH2 0x100 DUP1 DUP4 SLOAD DIV MUL DUP4 MSTORE SWAP2 PUSH1 0x20 ADD SWAP2 PUSH2 0x6E7 JUMP JUMPDEST DUP3 ADD SWAP2 SWAP1 PUSH0 MSTORE PUSH1 0x20 PUSH0 KECCAK256 SWAP1 JUMPDEST DUP2 SLOAD DUP2 MSTORE SWAP1 PUSH1 0x1 ADD SWAP1 PUSH1 0x20 ADD DUP1 DUP4 GT PUSH2 0x6CA JUMPI DUP3 SWAP1 SUB PUSH1 0x1F AND DUP3 ADD SWAP2 JUMPDEST POP POP POP POP POP DUP2 MSTORE PUSH1 0x20 ADD PUSH1 0x2 DUP3 ADD DUP1 SLOAD PUSH2 0x700 SWAP1 PUSH2 0x1BB5 JUMP JUMPDEST DUP1 PUSH1 0x1F ADD PUSH1 0x20 DUP1 SWAP2 DIV MUL PUSH1 0x20 ADD PUSH1 0x40 MLOAD SWAP1 DUP2 ADD PUSH1 0x40 MSTORE DUP1 SWAP3 SWAP2 SWAP1 DUP2 DUP2 MSTORE PUSH1 0x20 ADD DUP3 DUP1 SLOAD PUSH2 0x72C SWAP1 PUSH2 0x1BB5 JUMP JUMPDEST DUP1 ISZERO PUSH2 0x777 JUMPI DUP1 PUSH1 0x1F LT PUSH2 0x74E JUMPI PUSH2 0x100 DUP1 DUP4 SLOAD DIV MUL DUP4 MSTORE SWAP2 PUSH1 0x20 ADD SWAP2 PUSH2 0x777 JUMP JUMPDEST DUP3 ADD SWAP2 SWAP1 PUSH0 MSTORE PUSH1 0x20 PUSH0 KECCAK256 SWAP1 JUMPDEST DUP2 SLOAD DUP2 MSTORE SWAP1 PUSH1 0x1 ADD SWAP1 PUSH1 0x20 ADD DUP1 DUP4 GT PUSH2 0x75A JUMPI DUP3 SWAP1 SUB PUSH1 0x1F AND DUP3 ADD SWAP2 JUMPDEST POP POP POP POP POP DUP2 MSTORE PUSH1 0x20 ADD PUSH1 0x3 DUP3 ADD DUP1 SLOAD PUSH2 0x790 SWAP1 PUSH2 0x1BB5 JUMP JUMPDEST DUP1 PUSH1 0x1F ADD PUSH1 0x20 DUP1 SWAP2 DIV MUL PUSH1 0x20 ADD PUSH1 0x40 MLOAD SWAP1 DUP2 ADD PUSH1 0x40 MSTORE DUP1 SWAP3 SWAP2 SWAP1 DUP2 DUP2 MSTORE PUSH1 0x20 ADD DUP3 DUP1 SLOAD PUSH2 0x7BC SWAP1 PUSH2 0x1BB5 JUMP JUMPDEST DUP1 ISZERO PUSH2 0x807 JUMPI DUP1 PUSH1 0x1F LT PUSH2 0x7DE JUMPI PUSH2 0x100 DUP1 DUP4 SLOAD DIV MUL DUP4 MSTORE SWAP2 PUSH1 0x20 ADD SWAP2 PUSH2 0x807 JUMP JUMPDEST DUP3 ADD SWAP2 SWAP1 PUSH0 MSTORE PUSH1 0x20 PUSH0 KECCAK256 SWAP1 JUMPDEST DUP2 SLOAD DUP2 MSTORE SWAP1 PUSH1 0x1 ADD SWAP1 PUSH1 0x20 ADD DUP1 DUP4 GT PUSH2 0x7EA JUMPI DUP3 SWAP1 SUB PUSH1 0x1F AND DUP3 ADD SWAP2 JUMPDEST POP POP POP POP POP DUP2 MSTORE PUSH1 0x20 ADD PUSH1 0x4 DUP3 ADD DUP1 SLOAD PUSH2 0x820 SWAP1 PUSH2 0x1BB5 JUMP JUMPDEST DUP1 PUSH1 0x1F ADD PUSH1 0x20 DUP1 SWAP2 DIV MUL PUSH1 0x20 ADD PUSH1 0x40 MLOAD SWAP1 DUP2 ADD PUSH1 0x40 MSTORE DUP1 SWAP3 SWAP2 SWAP1 DUP2 DUP2 MSTORE PUSH1 0x20 ADD DUP3 DUP1 SLOAD PUSH2 0x84C SWAP1 PUSH2 0x1BB5 JUMP JUMPDEST DUP1 ISZERO PUSH2 0x897 JUMPI DUP1 PUSH1 0x1F LT PUSH2 0x86E JUMPI PUSH2 0x100 DUP1 DUP4 SLOAD DIV MUL DUP4 MSTORE SWAP2 PUSH1 0x20 ADD SWAP2 PUSH2 0x897 JUMP JUMPDEST DUP3 ADD SWAP2 SWAP1 PUSH0 MSTORE PUSH1 0x20 PUSH0 KECCAK256 SWAP1 JUMPDEST DUP2 SLOAD DUP2 MSTORE SWAP1 PUSH1 0x1 ADD SWAP1 PUSH1 0x20 ADD DUP1 DUP4 GT PUSH2 0x87A JUMPI DUP3 SWAP1 SUB PUSH1 0x1F AND DUP3 ADD SWAP2 JUMPDEST POP POP POP SWAP2 DUP4 MSTORE POP POP PUSH1 0x5 DUP3 ADD SLOAD PUSH1 0x20 DUP3 ADD MSTORE PUSH1 0x6 DUP3 ADD SLOAD PUSH1 0x1 PUSH1 0x1 PUSH1 0xA0 SHL SUB DUP2 AND PUSH1 0x40 DUP4 ADD MSTORE PUSH1 0xFF PUSH1 0x1 PUSH1 0xA0 SHL DUP3 DIV DUP2 AND ISZERO ISZERO PUSH1 0x60 DUP5 ADD MSTORE PUSH1 0x1 PUSH1 0xA8 SHL SWAP1 SWAP2 DIV AND ISZERO ISZERO PUSH1 0x80 DUP3 ADD MSTORE PUSH1 0x7 DUP3 ADD SLOAD PUSH1 0xA0 DUP3 ADD MSTORE PUSH1 0x8 SWAP1 SWAP2 ADD SLOAD PUSH1 0xC0 SWAP1 SWAP2 ADD MSTORE SWAP3 SWAP2 POP POP JUMP JUMPDEST PUSH1 0x60 PUSH1 0x9 DUP1 SLOAD DUP1 PUSH1 0x20 MUL PUSH1 0x20 ADD PUSH1 0x40 MLOAD SWAP1 DUP2 ADD PUSH1 0x40 MSTORE DUP1 SWAP3 SWAP2 SWAP1 DUP2 DUP2 MSTORE PUSH1 0x20 ADD PUSH0 SWAP1 JUMPDEST DUP3 DUP3 LT ISZERO PUSH2 0x9C6 JUMPI DUP4 DUP3 SWAP1 PUSH0 MSTORE PUSH1 0x20 PUSH0 KECCAK256 ADD DUP1 SLOAD PUSH2 0x93B SWAP1 PUSH2 0x1BB5 JUMP JUMPDEST DUP1 PUSH1 0x1F ADD PUSH1 0x20 DUP1 SWAP2 DIV MUL PUSH1 0x20 ADD PUSH1 0x40 MLOAD SWAP1 DUP2 ADD PUSH1 0x40 MSTORE DUP1 SWAP3 SWAP2 SWAP1 DUP2 DUP2 MSTORE PUSH1 0x20 ADD DUP3 DUP1 SLOAD PUSH2 0x967 SWAP1 PUSH2 0x1BB5 JUMP JUMPDEST DUP1 ISZERO PUSH2 0x9B2 JUMPI DUP1 PUSH1 0x1F LT PUSH2 0x989 JUMPI PUSH2 0x100 DUP1 DUP4 SLOAD DIV MUL DUP4 MSTORE SWAP2 PUSH1 0x20 ADD SWAP2 PUSH2 0x9B2 JUMP JUMPDEST DUP3 ADD SWAP2 SWAP1 PUSH0 MSTORE PUSH1 0x20 PUSH0 KECCAK256 SWAP1 JUMPDEST DUP2 SLOAD DUP2 MSTORE SWAP1 PUSH1 0x1 ADD SWAP1 PUSH1 0x20 ADD DUP1 DUP4 GT PUSH2 0x995 JUMPI DUP3 SWAP1 SUB PUSH1 0x1F AND DUP3 ADD SWAP2 JUMPDEST POP POP POP POP POP DUP2 MSTORE PUSH1 0x20 ADD SWAP1 PUSH1 0x1 ADD SWAP1 PUSH2 0x91E JUMP JUMPDEST POP POP POP POP SWAP1 POP SWAP1 JUMP JUMPDEST PUSH1 0xA DUP2 DUP2 SLOAD DUP2 LT PUSH2 0x9DE JUMPI PUSH0 DUP1 REVERT JUMPDEST SWAP1 PUSH0 MSTORE PUSH1 0x20 PUSH0 KECCAK256 ADD PUSH0 SWAP2 POP SWAP1 POP DUP1 SLOAD PUSH2 0x9F6 SWAP1 PUSH2 0x1BB5 JUMP JUMPDEST DUP1 PUSH1 0x1F ADD PUSH1 0x20 DUP1 SWAP2 DIV MUL PUSH1 0x20 ADD PUSH1 0x40 MLOAD SWAP1 DUP2 ADD PUSH1 0x40 MSTORE DUP1 SWAP3 SWAP2 SWAP1 DUP2 DUP2 MSTORE PUSH1 0x20 ADD DUP3 DUP1 SLOAD PUSH2 0xA22 SWAP1 PUSH2 0x1BB5 JUMP JUMPDEST DUP1 ISZERO PUSH2 0xA6D JUMPI DUP1 PUSH1 0x1F LT PUSH2 0xA44 JUMPI PUSH2 0x100 DUP1 DUP4 SLOAD DIV MUL DUP4 MSTORE SWAP2 PUSH1 0x20 ADD SWAP2 PUSH2 0xA6D JUMP JUMPDEST DUP3 ADD SWAP2 SWAP1 PUSH0 MSTORE PUSH1 0x20 PUSH0 KECCAK256 SWAP1 JUMPDEST DUP2 SLOAD DUP2 MSTORE SWAP1 PUSH1 0x1 ADD SWAP1 PUSH1 0x20 ADD DUP1 DUP4 GT PUSH2 0xA50 JUMPI DUP3 SWAP1 SUB PUSH1 0x1F AND DUP3 ADD SWAP2 JUMPDEST POP POP POP POP POP DUP2 JUMP JUMPDEST PUSH1 0x60 PUSH1 0xA DUP1 SLOAD DUP1 PUSH1 0x20 MUL PUSH1 0x20 ADD PUSH1 0x40 MLOAD SWAP1 DUP2 ADD PUSH1 0x40 MSTORE DUP1 SWAP3 SWAP2 SWAP1 DUP2 DUP2 MSTORE PUSH1 0x20 ADD PUSH0 SWAP1 JUMPDEST DUP3 DUP3 LT ISZERO PUSH2 0x9C6 JUMPI DUP4 DUP3 SWAP1 PUSH0 MSTORE PUSH1 0x20 PUSH0 KECCAK256 ADD DUP1 SLOAD PUSH2 0xAB5 SWAP1 PUSH2 0x1BB5 JUMP JUMPDEST DUP1 PUSH1 0x1F ADD PUSH1 0x20 DUP1 SWAP2 DIV MUL PUSH1 0x20 ADD PUSH1 0x40 MLOAD SWAP1 DUP2 ADD PUSH1 0x40 MSTORE DUP1 SWAP3 SWAP2 SWAP1 DUP2 DUP2 MSTORE PUSH1 0x20 ADD DUP3 DUP1 SLOAD PUSH2 0xAE1 SWAP1 PUSH2 0x1BB5 JUMP JUMPDEST DUP1 ISZERO PUSH2 0xB2C JUMPI DUP1 PUSH1 0x1F LT PUSH2 0xB03 JUMPI PUSH2 0x100 DUP1 DUP4 SLOAD DIV MUL DUP4 MSTORE SWAP2 PUSH1 0x20 ADD SWAP2 PUSH2 0xB2C JUMP JUMPDEST DUP3 ADD SWAP2 SWAP1 PUSH0 MSTORE PUSH1 0x20 PUSH0 KECCAK256 SWAP1 JUMPDEST DUP2 SLOAD DUP2 MSTORE SWAP1 PUSH1 0x1 ADD SWAP1 PUSH1 0x20 ADD DUP1 DUP4 GT PUSH2 0xB0F JUMPI DUP3 SWAP1 SUB PUSH1 0x1F AND DUP3 ADD SWAP2 JUMPDEST POP POP POP POP POP DUP2 MSTORE PUSH1 0x20 ADD SWAP1 PUSH1 0x1 ADD SWAP1 PUSH2 0xA98 JUMP JUMPDEST PUSH2 0xB76 PUSH1 0x40 MLOAD DUP1 PUSH1 0xC0 ADD PUSH1 0x40 MSTORE DUP1 PUSH0 DUP2 MSTORE PUSH1 0x20 ADD PUSH0 DUP2 MSTORE PUSH1 0x20 ADD PUSH0 DUP2 MSTORE PUSH1 0x20 ADD PUSH0 DUP2 MSTORE PUSH1 0x20 ADD PUSH1 0x60 DUP2 MSTORE PUSH1 0x20 ADD PUSH0 ISZERO ISZERO DUP2 MSTORE POP SWAP1 JUMP JUMPDEST PUSH1 0x40 DUP1 MLOAD PUSH1 0xC0 DUP2 ADD DUP3 MSTORE PUSH1 0x2 DUP1 SLOAD DUP3 MSTORE PUSH1 0x3 SLOAD PUSH1 0x20 DUP1 DUP5 ADD SWAP2 SWAP1 SWAP2 MSTORE PUSH1 0x4 SLOAD DUP4 DUP6 ADD MSTORE PUSH1 0x5 SLOAD PUSH1 0x60 DUP5 ADD MSTORE PUSH1 0x6 DUP1 SLOAD DUP6 MLOAD DUP2 DUP5 MUL DUP2 ADD DUP5 ADD SWAP1 SWAP7 MSTORE DUP1 DUP7 MSTORE SWAP4 SWAP5 SWAP3 SWAP4 PUSH1 0x80 DUP7 ADD SWAP4 SWAP3 PUSH0 SWAP1 DUP5 ADD JUMPDEST DUP3 DUP3 LT ISZERO PUSH2 0xC6B JUMPI DUP4 DUP3 SWAP1 PUSH0 MSTORE PUSH1 0x20 PUSH0 KECCAK256 ADD DUP1 SLOAD PUSH2 0xBE0 SWAP1 PUSH2 0x1BB5 JUMP JUMPDEST DUP1 PUSH1 0x1F ADD PUSH1 0x20 DUP1 SWAP2 DIV MUL PUSH1 0x20 ADD PUSH1 0x40 MLOAD SWAP1 DUP2 ADD PUSH1 0x40 MSTORE DUP1 SWAP3 SWAP2 SWAP1 DUP2 DUP2 MSTORE PUSH1 0x20 ADD DUP3 DUP1 SLOAD PUSH2 0xC0C SWAP1 PUSH2 0x1BB5 JUMP JUMPDEST DUP1 ISZERO PUSH2 0xC57 JUMPI DUP1 PUSH1 0x1F LT PUSH2 0xC2E JUMPI PUSH2 0x100 DUP1 DUP4 SLOAD DIV MUL DUP4 MSTORE SWAP2 PUSH1 0x20 ADD SWAP2 PUSH2 0xC57 JUMP JUMPDEST DUP3 ADD SWAP2 SWAP1 PUSH0 MSTORE PUSH1 0x20 PUSH0 KECCAK256 SWAP1 JUMPDEST DUP2 SLOAD DUP2 MSTORE SWAP1 PUSH1 0x1 ADD SWAP1 PUSH1 0x20 ADD DUP1 DUP4 GT PUSH2 0xC3A JUMPI DUP3 SWAP1 SUB PUSH1 0x1F AND DUP3 ADD SWAP2 JUMPDEST POP POP POP POP POP DUP2 MSTORE PUSH1 0x20 ADD SWAP1 PUSH1 0x1 ADD SWAP1 PUSH2 0xBC3 JUMP JUMPDEST POP POP POP SWAP1 DUP3 MSTORE POP PUSH1 0x5 SWAP2 SWAP1 SWAP2 ADD SLOAD PUSH1 0xFF AND ISZERO ISZERO PUSH1 0x20 SWAP1 SWAP2 ADD MSTORE SWAP2 SWAP1 POP JUMP JUMPDEST PUSH1 0x9 DUP2 DUP2 SLOAD DUP2 LT PUSH2 0x9DE JUMPI PUSH0 DUP1 REVERT JUMPDEST PUSH1 0x1 SLOAD PUSH1 0x1 PUSH1 0x1 PUSH1 0xA0 SHL SUB AND CALLER EQ PUSH2 0xCC2 JUMPI PUSH1 0x40 MLOAD PUSH3 0x461BCD PUSH1 0xE5 SHL DUP2 MSTORE PUSH1 0x4 ADD PUSH2 0x30F SWAP1 PUSH2 0x1B71 JUMP JUMPDEST PUSH1 0x40 MLOAD DUP1 PUSH1 0xC0 ADD PUSH1 0x40 MSTORE DUP1 DUP4 DUP2 MSTORE PUSH1 0x20 ADD TIMESTAMP DUP2 MSTORE PUSH1 0x20 ADD DUP3 TIMESTAMP PUSH2 0xCE5 SWAP2 SWAP1 PUSH2 0x1DAF JUMP JUMPDEST DUP2 MSTORE PUSH1 0x20 DUP1 DUP3 ADD DUP5 SWAP1 MSTORE PUSH1 0x40 DUP1 MLOAD PUSH0 DUP1 DUP3 MSTORE SWAP3 DUP2 ADD DUP3 MSTORE SWAP3 ADD SWAP2 SWAP1 PUSH2 0xD1A JUMP JUMPDEST PUSH1 0x60 DUP2 MSTORE PUSH1 0x20 ADD SWAP1 PUSH1 0x1 SWAP1 SUB SWAP1 DUP2 PUSH2 0xD05 JUMPI SWAP1 POP JUMPDEST POP DUP2 MSTORE PUSH1 0x1 PUSH1 0x20 SWAP2 DUP3 ADD MSTORE DUP2 MLOAD PUSH1 0x2 SWAP1 DUP2 SSTORE DUP3 DUP3 ADD MLOAD PUSH1 0x3 SSTORE PUSH1 0x40 DUP4 ADD MLOAD PUSH1 0x4 SSTORE PUSH1 0x60 DUP4 ADD MLOAD PUSH1 0x5 SSTORE PUSH1 0x80 DUP4 ADD MLOAD DUP1 MLOAD SWAP2 SWAP3 PUSH2 0xD5C SWAP3 PUSH1 0x6 SWAP3 SWAP1 SWAP2 ADD SWAP1 PUSH2 0x1522 JUMP JUMPDEST POP PUSH1 0xA0 SWAP2 SWAP1 SWAP2 ADD MLOAD PUSH1 0x5 SWAP1 SWAP2 ADD DUP1 SLOAD PUSH1 0xFF NOT AND SWAP2 ISZERO ISZERO SWAP2 SWAP1 SWAP2 OR SWAP1 SSTORE PUSH32 0xED25EC23D979BEBC7C6A7E5FFEBB0FBD64B71F7E6DC13DEC21F220F5B91081B9 DUP3 TIMESTAMP PUSH2 0xDA5 DUP5 DUP3 PUSH2 0x1DAF JUMP JUMPDEST PUSH1 0x40 DUP1 MLOAD SWAP4 DUP5 MSTORE PUSH1 0x20 DUP5 ADD SWAP3 SWAP1 SWAP3 MSTORE SWAP1 DUP3 ADD MSTORE PUSH1 0x60 ADD PUSH1 0x40 MLOAD DUP1 SWAP2 SUB SWAP1 LOG1 POP POP JUMP JUMPDEST PUSH1 0x7 SLOAD PUSH0 SWAP1 PUSH1 0xFF AND ISZERO DUP1 PUSH2 0xDDD JUMPI POP PUSH1 0x4 SLOAD TIMESTAMP LT ISZERO JUMPDEST ISZERO PUSH2 0xDE7 JUMPI POP PUSH0 SWAP1 JUMP JUMPDEST PUSH1 0x4 SLOAD PUSH2 0xDF5 SWAP1 TIMESTAMP SWAP1 PUSH2 0x1DC8 JUMP JUMPDEST SWAP1 POP SWAP1 JUMP JUMPDEST PUSH1 0x1 SLOAD PUSH1 0x1 PUSH1 0x1 PUSH1 0xA0 SHL SUB AND CALLER EQ PUSH2 0xE24 JUMPI PUSH1 0x40 MLOAD PUSH3 0x461BCD PUSH1 0xE5 SHL DUP2 MSTORE PUSH1 0x4 ADD PUSH2 0x30F SWAP1 PUSH2 0x1B71 JUMP JUMPDEST PUSH1 0x7 SLOAD PUSH1 0xFF AND PUSH2 0xE69 JUMPI PUSH1 0x40 MLOAD PUSH3 0x461BCD PUSH1 0xE5 SHL DUP2 MSTORE PUSH1 0x20 PUSH1 0x4 DUP3 ADD MSTORE PUSH1 0x10 PUSH1 0x24 DUP3 ADD MSTORE PUSH16 0x139BC81858DD1A5D99481B585C9AD95D PUSH1 0x82 SHL PUSH1 0x44 DUP3 ADD MSTORE PUSH1 0x64 ADD PUSH2 0x30F JUMP JUMPDEST PUSH1 0x1 PUSH1 0x1 PUSH1 0xA0 SHL SUB DUP2 AND PUSH2 0xEB6 JUMPI PUSH1 0x40 MLOAD PUSH3 0x461BCD PUSH1 0xE5 SHL DUP2 MSTORE PUSH1 0x20 PUSH1 0x4 DUP3 ADD MSTORE PUSH1 0x14 PUSH1 0x24 DUP3 ADD MSTORE PUSH20 0x496E76616C696420706F6F6C2061646472657373 PUSH1 0x60 SHL PUSH1 0x44 DUP3 ADD MSTORE PUSH1 0x64 ADD PUSH2 0x30F JUMP JUMPDEST PUSH1 0x40 MLOAD DUP1 PUSH2 0x160 ADD PUSH1 0x40 MSTORE DUP1 DUP9 DUP2 MSTORE PUSH1 0x20 ADD DUP8 DUP2 MSTORE PUSH1 0x20 ADD DUP7 DUP2 MSTORE PUSH1 0x20 ADD DUP6 DUP2 MSTORE PUSH1 0x20 ADD DUP5 DUP2 MSTORE PUSH1 0x20 ADD DUP4 DUP2 MSTORE PUSH1 0x20 ADD DUP3 PUSH1 0x1 PUSH1 0x1 PUSH1 0xA0 SHL SUB AND DUP2 MSTORE PUSH1 0x20 ADD PUSH0 ISZERO ISZERO DUP2 MSTORE PUSH1 0x20 ADD PUSH0 ISZERO ISZERO DUP2 MSTORE PUSH1 0x20 ADD PUSH0 DUP2 MSTORE PUSH1 0x20 ADD TIMESTAMP DUP2 MSTORE POP PUSH1 0x8 DUP9 PUSH1 0x40 MLOAD PUSH2 0xF1F SWAP2 SWAP1 PUSH2 0x1B9F JUMP JUMPDEST SWAP1 DUP2 MSTORE PUSH1 0x40 MLOAD SWAP1 DUP2 SWAP1 SUB PUSH1 0x20 ADD SWAP1 KECCAK256 DUP2 MLOAD DUP2 SWAP1 PUSH2 0xF3C SWAP1 DUP3 PUSH2 0x1C39 JUMP JUMPDEST POP PUSH1 0x20 DUP3 ADD MLOAD PUSH1 0x1 DUP3 ADD SWAP1 PUSH2 0xF51 SWAP1 DUP3 PUSH2 0x1C39 JUMP JUMPDEST POP PUSH1 0x40 DUP3 ADD MLOAD PUSH1 0x2 DUP3 ADD SWAP1 PUSH2 0xF66 SWAP1 DUP3 PUSH2 0x1C39 JUMP JUMPDEST POP PUSH1 0x60 DUP3 ADD MLOAD PUSH1 0x3 DUP3 ADD SWAP1 PUSH2 0xF7B SWAP1 DUP3 PUSH2 0x1C39 JUMP JUMPDEST POP PUSH1 0x80 DUP3 ADD MLOAD PUSH1 0x4 DUP3 ADD SWAP1 PUSH2 0xF90 SWAP1 DUP3 PUSH2 0x1C39 JUMP JUMPDEST POP PUSH1 0xA0 DUP3 ADD MLOAD PUSH1 0x5 DUP3 ADD SSTORE PUSH1 0xC0 DUP3 ADD MLOAD PUSH1 0x6 DUP1 DUP4 ADD DUP1 SLOAD PUSH1 0xE0 DUP7 ADD MLOAD PUSH2 0x100 DUP8 ADD MLOAD ISZERO ISZERO PUSH1 0x1 PUSH1 0xA8 SHL MUL PUSH1 0xFF PUSH1 0xA8 SHL NOT SWAP2 ISZERO ISZERO PUSH1 0x1 PUSH1 0xA0 SHL MUL PUSH1 0x1 PUSH1 0x1 PUSH1 0xA8 SHL SUB NOT SWAP1 SWAP4 AND PUSH1 0x1 PUSH1 0x1 PUSH1 0xA0 SHL SUB SWAP1 SWAP7 AND SWAP6 SWAP1 SWAP6 OR SWAP2 SWAP1 SWAP2 OR AND SWAP3 SWAP1 SWAP3 OR SWAP1 SWAP2 SSTORE PUSH2 0x120 DUP4 ADD MLOAD PUSH1 0x7 DUP4 ADD SSTORE PUSH2 0x140 SWAP1 SWAP3 ADD MLOAD PUSH1 0x8 SWAP1 SWAP2 ADD SSTORE DUP1 SLOAD PUSH1 0x1 DUP2 ADD DUP3 SSTORE PUSH0 SWAP2 SWAP1 SWAP2 MSTORE PUSH32 0xF652222313E28459528D920B65115C16C04F3EFC82AAEDC97BE59F3F377C0D3F ADD PUSH2 0x1041 DUP9 DUP3 PUSH2 0x1C39 JUMP JUMPDEST POP PUSH1 0xA DUP1 SLOAD PUSH1 0x1 DUP2 ADD DUP3 SSTORE PUSH0 SWAP2 SWAP1 SWAP2 MSTORE PUSH32 0xC65A7BB8D6351C1CF70C95A316CC6A92839C986682D98BC35F958F4883F9D2A8 ADD PUSH2 0x107D DUP9 DUP3 PUSH2 0x1C39 JUMP JUMPDEST POP DUP7 PUSH1 0x40 MLOAD PUSH2 0x108C SWAP2 SWAP1 PUSH2 0x1B9F JUMP JUMPDEST PUSH1 0x40 MLOAD DUP1 SWAP2 SUB SWAP1 KECCAK256 PUSH32 0x1958207786F309ABB6DB88F2A47C5D0BACD26F5196F358E7E73DDA7F514FE669 DUP8 DUP4 PUSH1 0x40 MLOAD PUSH2 0x10C5 SWAP3 SWAP2 SWAP1 PUSH2 0x1DDB JUMP JUMPDEST PUSH1 0x40 MLOAD DUP1 SWAP2 SUB SWAP1 LOG2 POP POP POP POP POP POP POP JUMP JUMPDEST PUSH0 SLOAD PUSH1 0x1 PUSH1 0x1 PUSH1 0xA0 SHL SUB AND CALLER EQ PUSH2 0x111C JUMPI PUSH1 0x40 MLOAD PUSH3 0x461BCD PUSH1 0xE5 SHL DUP2 MSTORE PUSH1 0x20 PUSH1 0x4 DUP3 ADD MSTORE PUSH1 0xA PUSH1 0x24 DUP3 ADD MSTORE PUSH10 0x27B7363C9037BBB732B9 PUSH1 0xB1 SHL PUSH1 0x44 DUP3 ADD MSTORE PUSH1 0x64 ADD PUSH2 0x30F JUMP JUMPDEST PUSH1 0x1 PUSH1 0x1 PUSH1 0xA0 SHL SUB DUP2 AND PUSH2 0x1164 JUMPI PUSH1 0x40 MLOAD PUSH3 0x461BCD PUSH1 0xE5 SHL DUP2 MSTORE PUSH1 0x20 PUSH1 0x4 DUP3 ADD MSTORE PUSH1 0xF PUSH1 0x24 DUP3 ADD MSTORE PUSH15 0x496E76616C69642061646472657373 PUSH1 0x88 SHL PUSH1 0x44 DUP3 ADD MSTORE PUSH1 0x64 ADD PUSH2 0x30F JUMP JUMPDEST PUSH1 0x1 DUP1 SLOAD PUSH1 0x1 PUSH1 0x1 PUSH1 0xA0 SHL SUB NOT AND PUSH1 0x1 PUSH1 0x1 PUSH1 0xA0 SHL SUB SWAP3 SWAP1 SWAP3 AND SWAP2 SWAP1 SWAP2 OR SWAP1 SSTORE JUMP JUMPDEST PUSH1 0x1 SLOAD PUSH1 0x1 PUSH1 0x1 PUSH1 0xA0 SHL SUB AND CALLER EQ PUSH2 0x11B0 JUMPI PUSH1 0x40 MLOAD PUSH3 0x461BCD PUSH1 0xE5 SHL DUP2 MSTORE PUSH1 0x4 ADD PUSH2 0x30F SWAP1 PUSH2 0x1B71 JUMP JUMPDEST PUSH2 0x11BB PUSH1 0xA PUSH0 PUSH2 0x1576 JUMP JUMPDEST PUSH0 PUSH1 0x2 DUP2 DUP2 SSTORE PUSH1 0x3 DUP3 SWAP1 SSTORE PUSH1 0x4 DUP3 SWAP1 SSTORE PUSH1 0x5 DUP3 SWAP1 SSTORE SWAP1 PUSH2 0x11DC PUSH1 0x6 DUP3 PUSH2 0x1576 JUMP JUMPDEST POP PUSH1 0x5 ADD DUP1 SLOAD PUSH1 0xFF NOT AND SWAP1 SSTORE PUSH1 0x40 MLOAD PUSH32 0xEFD8790E3797F9C35FDC61425CC413C2108EF625EC8ABDD75E1ABDBCC9D7CC92 SWAP1 PUSH0 SWAP1 LOG1 JUMP JUMPDEST DUP1 MLOAD PUSH1 0x20 DUP2 DUP4 ADD DUP2 ADD DUP1 MLOAD PUSH1 0x8 DUP3 MSTORE SWAP3 DUP3 ADD SWAP2 SWAP1 SWAP4 ADD KECCAK256 SWAP2 MSTORE DUP1 SLOAD DUP2 SWAP1 PUSH2 0x1238 SWAP1 PUSH2 0x1BB5 JUMP JUMPDEST DUP1 PUSH1 0x1F ADD PUSH1 0x20 DUP1 SWAP2 DIV MUL PUSH1 0x20 ADD PUSH1 0x40 MLOAD SWAP1 DUP2 ADD PUSH1 0x40 MSTORE DUP1 SWAP3 SWAP2 SWAP1 DUP2 DUP2 MSTORE PUSH1 0x20 ADD DUP3 DUP1 SLOAD PUSH2 0x1264 SWAP1 PUSH2 0x1BB5 JUMP JUMPDEST DUP1 ISZERO PUSH2 0x12AF JUMPI DUP1 PUSH1 0x1F LT PUSH2 0x1286 JUMPI PUSH2 0x100 DUP1 DUP4 SLOAD DIV MUL DUP4 MSTORE SWAP2 PUSH1 0x20 ADD SWAP2 PUSH2 0x12AF JUMP JUMPDEST DUP3 ADD SWAP2 SWAP1 PUSH0 MSTORE PUSH1 0x20 PUSH0 KECCAK256 SWAP1 JUMPDEST DUP2 SLOAD DUP2 MSTORE SWAP1 PUSH1 0x1 ADD SWAP1 PUSH1 0x20 ADD DUP1 DUP4 GT PUSH2 0x1292 JUMPI DUP3 SWAP1 SUB PUSH1 0x1F AND DUP3 ADD SWAP2 JUMPDEST POP POP POP POP POP SWAP1 DUP1 PUSH1 0x1 ADD DUP1 SLOAD PUSH2 0x12C4 SWAP1 PUSH2 0x1BB5 JUMP JUMPDEST DUP1 PUSH1 0x1F ADD PUSH1 0x20 DUP1 SWAP2 DIV MUL PUSH1 0x20 ADD PUSH1 0x40 MLOAD SWAP1 DUP2 ADD PUSH1 0x40 MSTORE DUP1 SWAP3 SWAP2 SWAP1 DUP2 DUP2 MSTORE PUSH1 0x20 ADD DUP3 DUP1 SLOAD PUSH2 0x12F0 SWAP1 PUSH2 0x1BB5 JUMP JUMPDEST DUP1 ISZERO PUSH2 0x133B JUMPI DUP1 PUSH1 0x1F LT PUSH2 0x1312 JUMPI PUSH2 0x100 DUP1 DUP4 SLOAD DIV MUL DUP4 MSTORE SWAP2 PUSH1 0x20 ADD SWAP2 PUSH2 0x133B JUMP JUMPDEST DUP3 ADD SWAP2 SWAP1 PUSH0 MSTORE PUSH1 0x20 PUSH0 KECCAK256 SWAP1 JUMPDEST DUP2 SLOAD DUP2 MSTORE SWAP1 PUSH1 0x1 ADD SWAP1 PUSH1 0x20 ADD DUP1 DUP4 GT PUSH2 0x131E JUMPI DUP3 SWAP1 SUB PUSH1 0x1F AND DUP3 ADD SWAP2 JUMPDEST POP POP POP POP POP SWAP1 DUP1 PUSH1 0x2 ADD DUP1 SLOAD PUSH2 0x1350 SWAP1 PUSH2 0x1BB5 JUMP JUMPDEST DUP1 PUSH1 0x1F ADD PUSH1 0x20 DUP1 SWAP2 DIV MUL PUSH1 0x20 ADD PUSH1 0x40 MLOAD SWAP1 DUP2 ADD PUSH1 0x40 MSTORE DUP1 SWAP3 SWAP2 SWAP1 DUP2 DUP2 MSTORE PUSH1 0x20 ADD DUP3 DUP1 SLOAD PUSH2 0x137C SWAP1 PUSH2 0x1BB5 JUMP JUMPDEST DUP1 ISZERO PUSH2 0x13C7 JUMPI DUP1 PUSH1 0x1F LT PUSH2 0x139E JUMPI PUSH2 0x100 DUP1 DUP4 SLOAD DIV MUL DUP4 MSTORE SWAP2 PUSH1 0x20 ADD SWAP2 PUSH2 0x13C7 JUMP JUMPDEST DUP3 ADD SWAP2 SWAP1 PUSH0 MSTORE PUSH1 0x20 PUSH0 KECCAK256 SWAP1 JUMPDEST DUP2 SLOAD DUP2 MSTORE SWAP1 PUSH1 0x1 ADD SWAP1 PUSH1 0x20 ADD DUP1 DUP4 GT PUSH2 0x13AA JUMPI DUP3 SWAP1 SUB PUSH1 0x1F AND DUP3 ADD SWAP2 JUMPDEST POP POP POP POP POP SWAP1 DUP1 PUSH1 0x3 ADD DUP1 SLOAD PUSH2 0x13DC SWAP1 PUSH2 0x1BB5 JUMP JUMPDEST DUP1 PUSH1 0x1F ADD PUSH1 0x20 DUP1 SWAP2 DIV MUL PUSH1 0x20 ADD PUSH1 0x40 MLOAD SWAP1 DUP2 ADD PUSH1 0x40 MSTORE DUP1 SWAP3 SWAP2 SWAP1 DUP2 DUP2 MSTORE PUSH1 0x20 ADD DUP3 DUP1 SLOAD PUSH2 0x1408 SWAP1 PUSH2 0x1BB5 JUMP JUMPDEST DUP1 ISZERO PUSH2 0x1453 JUMPI DUP1 PUSH1 0x1F LT PUSH2 0x142A JUMPI PUSH2 0x100 DUP1 DUP4 SLOAD DIV MUL DUP4 MSTORE SWAP2 PUSH1 0x20 ADD SWAP2 PUSH2 0x1453 JUMP JUMPDEST DUP3 ADD SWAP2 SWAP1 PUSH0 MSTORE PUSH1 0x20 PUSH0 KECCAK256 SWAP1 JUMPDEST DUP2 SLOAD DUP2 MSTORE SWAP1 PUSH1 0x1 ADD SWAP1 PUSH1 0x20 ADD DUP1 DUP4 GT PUSH2 0x1436 JUMPI DUP3 SWAP1 SUB PUSH1 0x1F AND DUP3 ADD SWAP2 JUMPDEST POP POP POP POP POP SWAP1 DUP1 PUSH1 0x4 ADD DUP1 SLOAD PUSH2 0x1468 SWAP1 PUSH2 0x1BB5 JUMP JUMPDEST DUP1 PUSH1 0x1F ADD PUSH1 0x20 DUP1 SWAP2 DIV MUL PUSH1 0x20 ADD PUSH1 0x40 MLOAD SWAP1 DUP2 ADD PUSH1 0x40 MSTORE DUP1 SWAP3 SWAP2 SWAP1 DUP2 DUP2 MSTORE PUSH1 0x20 ADD DUP3 DUP1 SLOAD PUSH2 0x1494 SWAP1 PUSH2 0x1BB5 JUMP JUMPDEST DUP1 ISZERO PUSH2 0x14DF JUMPI DUP1 PUSH1 0x1F LT PUSH2 0x14B6 JUMPI PUSH2 0x100 DUP1 DUP4 SLOAD DIV MUL DUP4 MSTORE SWAP2 PUSH1 0x20 ADD SWAP2 PUSH2 0x14DF JUMP JUMPDEST DUP3 ADD SWAP2 SWAP1 PUSH0 MSTORE PUSH1 0x20 PUSH0 KECCAK256 SWAP1 JUMPDEST DUP2 SLOAD DUP2 MSTORE SWAP1 PUSH1 0x1 ADD SWAP1 PUSH1 0x20 ADD DUP1 DUP4 GT PUSH2 0x14C2 JUMPI DUP3 SWAP1 SUB PUSH1 0x1F AND DUP3 ADD SWAP2 JUMPDEST POP POP POP POP PUSH1 0x5 DUP4 ADD SLOAD PUSH1 0x6 DUP5 ADD SLOAD PUSH1 0x7 DUP6 ADD SLOAD PUSH1 0x8 SWAP1 SWAP6 ADD SLOAD SWAP4 SWAP5 SWAP2 SWAP4 PUSH1 0x1 PUSH1 0x1 PUSH1 0xA0 SHL SUB DUP3 AND SWAP4 POP PUSH1 0xFF PUSH1 0x1 PUSH1 0xA0 SHL DUP4 DIV DUP2 AND SWAP4 PUSH1 0x1 PUSH1 0xA8 SHL SWAP1 SWAP4 DIV AND SWAP2 SWAP1 DUP12 JUMP JUMPDEST DUP3 DUP1 SLOAD DUP3 DUP3 SSTORE SWAP1 PUSH0 MSTORE PUSH1 0x20 PUSH0 KECCAK256 SWAP1 DUP2 ADD SWAP3 DUP3 ISZERO PUSH2 0x1566 JUMPI SWAP2 PUSH1 0x20 MUL DUP3 ADD JUMPDEST DUP3 DUP2 GT ISZERO PUSH2 0x1566 JUMPI DUP3 MLOAD DUP3 SWAP1 PUSH2 0x1556 SWAP1 DUP3 PUSH2 0x1C39 JUMP JUMPDEST POP SWAP2 PUSH1 0x20 ADD SWAP2 SWAP1 PUSH1 0x1 ADD SWAP1 PUSH2 0x1540 JUMP JUMPDEST POP PUSH2 0x1572 SWAP3 SWAP2 POP PUSH2 0x1594 JUMP JUMPDEST POP SWAP1 JUMP JUMPDEST POP DUP1 SLOAD PUSH0 DUP3 SSTORE SWAP1 PUSH0 MSTORE PUSH1 0x20 PUSH0 KECCAK256 SWAP1 DUP2 ADD SWAP1 PUSH2 0x1591 SWAP2 SWAP1 PUSH2 0x1594 JUMP JUMPDEST POP JUMP JUMPDEST DUP1 DUP3 GT ISZERO PUSH2 0x1572 JUMPI PUSH0 PUSH2 0x15A7 DUP3 DUP3 PUSH2 0x15B0 JUMP JUMPDEST POP PUSH1 0x1 ADD PUSH2 0x1594 JUMP JUMPDEST POP DUP1 SLOAD PUSH2 0x15BC SWAP1 PUSH2 0x1BB5 JUMP JUMPDEST PUSH0 DUP3 SSTORE DUP1 PUSH1 0x1F LT PUSH2 0x15CB JUMPI POP POP JUMP JUMPDEST PUSH1 0x1F ADD PUSH1 0x20 SWAP1 DIV SWAP1 PUSH0 MSTORE PUSH1 0x20 PUSH0 KECCAK256 SWAP1 DUP2 ADD SWAP1 PUSH2 0x1591 SWAP2 SWAP1 JUMPDEST DUP1 DUP3 GT ISZERO PUSH2 0x1572 JUMPI PUSH0 DUP2 SSTORE PUSH1 0x1 ADD PUSH2 0x15E3 JUMP JUMPDEST PUSH4 0x4E487B71 PUSH1 0xE0 SHL PUSH0 MSTORE PUSH1 0x41 PUSH1 0x4 MSTORE PUSH1 0x24 PUSH0 REVERT JUMPDEST PUSH0 DUP3 PUSH1 0x1F DUP4 ADD SLT PUSH2 0x1619 JUMPI PUSH0 DUP1 REVERT JUMPDEST DUP2 CALLDATALOAD PUSH8 0xFFFFFFFFFFFFFFFF DUP2 GT ISZERO PUSH2 0x1633 JUMPI PUSH2 0x1633 PUSH2 0x15F6 JUMP JUMPDEST PUSH1 0x40 MLOAD PUSH1 0x1F DUP3 ADD PUSH1 0x1F NOT SWAP1 DUP2 AND PUSH1 0x3F ADD AND DUP2 ADD PUSH8 0xFFFFFFFFFFFFFFFF DUP2 GT DUP3 DUP3 LT OR ISZERO PUSH2 0x1662 JUMPI PUSH2 0x1662 PUSH2 0x15F6 JUMP JUMPDEST PUSH1 0x40 MSTORE DUP2 DUP2 MSTORE DUP4 DUP3 ADD PUSH1 0x20 ADD DUP6 LT ISZERO PUSH2 0x1679 JUMPI PUSH0 DUP1 REVERT JUMPDEST DUP2 PUSH1 0x20 DUP6 ADD PUSH1 0x20 DUP4 ADD CALLDATACOPY PUSH0 SWAP2 DUP2 ADD PUSH1 0x20 ADD SWAP2 SWAP1 SWAP2 MSTORE SWAP4 SWAP3 POP POP POP JUMP JUMPDEST PUSH0 DUP1 PUSH1 0x40 DUP4 DUP6 SUB SLT ISZERO PUSH2 0x16A6 JUMPI PUSH0 DUP1 REVERT JUMPDEST DUP3 CALLDATALOAD PUSH8 0xFFFFFFFFFFFFFFFF DUP2 GT ISZERO PUSH2 0x16BC JUMPI PUSH0 DUP1 REVERT JUMPDEST PUSH2 0x16C8 DUP6 DUP3 DUP7 ADD PUSH2 0x160A JUMP JUMPDEST SWAP6 PUSH1 0x20 SWAP5 SWAP1 SWAP5 ADD CALLDATALOAD SWAP5 POP POP POP POP JUMP JUMPDEST PUSH0 PUSH1 0x20 DUP3 DUP5 SUB SLT ISZERO PUSH2 0x16E7 JUMPI PUSH0 DUP1 REVERT JUMPDEST DUP2 CALLDATALOAD PUSH8 0xFFFFFFFFFFFFFFFF DUP2 GT ISZERO PUSH2 0x16FD JUMPI PUSH0 DUP1 REVERT JUMPDEST PUSH2 0x1709 DUP5 DUP3 DUP6 ADD PUSH2 0x160A JUMP JUMPDEST SWAP5 SWAP4 POP POP POP POP JUMP JUMPDEST PUSH0 DUP2 MLOAD DUP1 DUP5 MSTORE DUP1 PUSH1 0x20 DUP5 ADD PUSH1 0x20 DUP7 ADD MCOPY PUSH0 PUSH1 0x20 DUP3 DUP7 ADD ADD MSTORE PUSH1 0x20 PUSH1 0x1F NOT PUSH1 0x1F DUP4 ADD AND DUP6 ADD ADD SWAP2 POP POP SWAP3 SWAP2 POP POP JUMP JUMPDEST PUSH1 0x20 DUP2 MSTORE PUSH0 DUP3 MLOAD PUSH2 0x160 PUSH1 0x20 DUP5 ADD MSTORE PUSH2 0x175C PUSH2 0x180 DUP5 ADD DUP3 PUSH2 0x1711 JUMP JUMPDEST SWAP1 POP PUSH1 0x20 DUP5 ADD MLOAD PUSH1 0x1F NOT DUP5 DUP4 SUB ADD PUSH1 0x40 DUP6 ADD MSTORE PUSH2 0x1779 DUP3 DUP3 PUSH2 0x1711 JUMP JUMPDEST SWAP2 POP POP PUSH1 0x40 DUP5 ADD MLOAD PUSH1 0x1F NOT DUP5 DUP4 SUB ADD PUSH1 0x60 DUP6 ADD MSTORE PUSH2 0x1797 DUP3 DUP3 PUSH2 0x1711 JUMP JUMPDEST SWAP2 POP POP PUSH1 0x60 DUP5 ADD MLOAD PUSH1 0x1F NOT DUP5 DUP4 SUB ADD PUSH1 0x80 DUP6 ADD MSTORE PUSH2 0x17B5 DUP3 DUP3 PUSH2 0x1711 JUMP JUMPDEST SWAP2 POP POP PUSH1 0x80 DUP5 ADD MLOAD PUSH1 0x1F NOT DUP5 DUP4 SUB ADD PUSH1 0xA0 DUP6 ADD MSTORE PUSH2 0x17D3 DUP3 DUP3 PUSH2 0x1711 JUMP JUMPDEST SWAP2 POP POP PUSH1 0xA0 DUP5 ADD MLOAD PUSH1 0xC0 DUP5 ADD MSTORE PUSH1 0xC0 DUP5 ADD MLOAD PUSH2 0x17FA PUSH1 0xE0 DUP6 ADD DUP3 PUSH1 0x1 PUSH1 0x1 PUSH1 0xA0 SHL SUB AND SWAP1 MSTORE JUMP JUMPDEST POP PUSH1 0xE0 DUP5 ADD MLOAD DUP1 ISZERO ISZERO PUSH2 0x100 DUP6 ADD MSTORE POP PUSH2 0x100 DUP5 ADD MLOAD DUP1 ISZERO ISZERO PUSH2 0x120 DUP6 ADD MSTORE POP PUSH2 0x120 DUP5 ADD MLOAD PUSH2 0x140 DUP5 ADD MSTORE PUSH2 0x140 DUP5 ADD MLOAD PUSH2 0x160 DUP5 ADD MSTORE DUP1 SWAP2 POP POP SWAP3 SWAP2 POP POP JUMP JUMPDEST PUSH0 PUSH1 0x20 DUP3 ADD PUSH1 0x20 DUP4 MSTORE DUP1 DUP5 MLOAD DUP1 DUP4 MSTORE PUSH1 0x40 DUP6 ADD SWAP2 POP PUSH1 0x40 DUP2 PUSH1 0x5 SHL DUP7 ADD ADD SWAP3 POP PUSH1 0x20 DUP7 ADD PUSH0 JUMPDEST DUP3 DUP2 LT ISZERO PUSH2 0x1893 JUMPI PUSH1 0x3F NOT DUP8 DUP7 SUB ADD DUP5 MSTORE PUSH2 0x187E DUP6 DUP4 MLOAD PUSH2 0x1711 JUMP JUMPDEST SWAP5 POP PUSH1 0x20 SWAP4 DUP5 ADD SWAP4 SWAP2 SWAP1 SWAP2 ADD SWAP1 PUSH1 0x1 ADD PUSH2 0x1862 JUMP JUMPDEST POP SWAP3 SWAP7 SWAP6 POP POP POP POP POP POP JUMP JUMPDEST PUSH0 PUSH1 0x20 DUP3 DUP5 SUB SLT ISZERO PUSH2 0x18AF JUMPI PUSH0 DUP1 REVERT JUMPDEST POP CALLDATALOAD SWAP2 SWAP1 POP JUMP JUMPDEST PUSH1 0x20 DUP2 MSTORE PUSH0 PUSH2 0x18C8 PUSH1 0x20 DUP4 ADD DUP5 PUSH2 0x1711 JUMP JUMPDEST SWAP4 SWAP3 POP POP POP JUMP JUMPDEST PUSH1 0x20 DUP2 MSTORE PUSH0 PUSH1 0xE0 DUP3 ADD DUP4 MLOAD PUSH1 0x20 DUP5 ADD MSTORE PUSH1 0x20 DUP5 ADD MLOAD PUSH1 0x40 DUP5 ADD MSTORE PUSH1 0x40 DUP5 ADD MLOAD PUSH1 0x60 DUP5 ADD MSTORE PUSH1 0x60 DUP5 ADD MLOAD PUSH1 0x80 DUP5 ADD MSTORE PUSH1 0x80 DUP5 ADD MLOAD PUSH1 0xC0 PUSH1 0xA0 DUP6 ADD MSTORE DUP2 DUP2 MLOAD DUP1 DUP5 MSTORE PUSH2 0x100 DUP7 ADD SWAP2 POP PUSH2 0x100 DUP2 PUSH1 0x5 SHL DUP8 ADD ADD SWAP4 POP PUSH1 0x20 DUP4 ADD SWAP3 POP PUSH0 JUMPDEST DUP2 DUP2 LT ISZERO PUSH2 0x195B JUMPI PUSH1 0xFF NOT DUP8 DUP7 SUB ADD DUP4 MSTORE PUSH2 0x1946 DUP6 DUP6 MLOAD PUSH2 0x1711 JUMP JUMPDEST SWAP5 POP PUSH1 0x20 SWAP4 DUP5 ADD SWAP4 SWAP3 SWAP1 SWAP3 ADD SWAP2 PUSH1 0x1 ADD PUSH2 0x192A JUMP JUMPDEST POP POP POP POP PUSH1 0xA0 DUP5 ADD MLOAD DUP1 ISZERO ISZERO PUSH1 0xC0 DUP6 ADD MSTORE POP SWAP4 SWAP3 POP POP POP JUMP JUMPDEST PUSH0 DUP1 PUSH1 0x40 DUP4 DUP6 SUB SLT ISZERO PUSH2 0x1985 JUMPI PUSH0 DUP1 REVERT JUMPDEST POP POP DUP1 CALLDATALOAD SWAP3 PUSH1 0x20 SWAP1 SWAP2 ADD CALLDATALOAD SWAP2 POP JUMP JUMPDEST DUP1 CALLDATALOAD PUSH1 0x1 PUSH1 0x1 PUSH1 0xA0 SHL SUB DUP2 AND DUP2 EQ PUSH2 0x19AA JUMPI PUSH0 DUP1 REVERT JUMPDEST SWAP2 SWAP1 POP JUMP JUMPDEST PUSH0 DUP1 PUSH0 DUP1 PUSH0 DUP1 PUSH0 PUSH1 0xE0 DUP9 DUP11 SUB SLT ISZERO PUSH2 0x19C5 JUMPI PUSH0 DUP1 REVERT JUMPDEST DUP8 CALLDATALOAD PUSH8 0xFFFFFFFFFFFFFFFF DUP2 GT ISZERO PUSH2 0x19DB JUMPI PUSH0 DUP1 REVERT JUMPDEST PUSH2 0x19E7 DUP11 DUP3 DUP12 ADD PUSH2 0x160A JUMP JUMPDEST SWAP8 POP POP PUSH1 0x20 DUP9 ADD CALLDATALOAD PUSH8 0xFFFFFFFFFFFFFFFF DUP2 GT ISZERO PUSH2 0x1A03 JUMPI PUSH0 DUP1 REVERT JUMPDEST PUSH2 0x1A0F DUP11 DUP3 DUP12 ADD PUSH2 0x160A JUMP JUMPDEST SWAP7 POP POP PUSH1 0x40 DUP9 ADD CALLDATALOAD PUSH8 0xFFFFFFFFFFFFFFFF DUP2 GT ISZERO PUSH2 0x1A2B JUMPI PUSH0 DUP1 REVERT JUMPDEST PUSH2 0x1A37 DUP11 DUP3 DUP12 ADD PUSH2 0x160A JUMP JUMPDEST SWAP6 POP POP PUSH1 0x60 DUP9 ADD CALLDATALOAD PUSH8 0xFFFFFFFFFFFFFFFF DUP2 GT ISZERO PUSH2 0x1A53 JUMPI PUSH0 DUP1 REVERT JUMPDEST PUSH2 0x1A5F DUP11 DUP3 DUP12 ADD PUSH2 0x160A JUMP JUMPDEST SWAP5 POP POP PUSH1 0x80 DUP9 ADD CALLDATALOAD PUSH8 0xFFFFFFFFFFFFFFFF DUP2 GT ISZERO PUSH2 0x1A7B JUMPI PUSH0 DUP1 REVERT JUMPDEST PUSH2 0x1A87 DUP11 DUP3 DUP12 ADD PUSH2 0x160A JUMP JUMPDEST SWAP4 POP POP PUSH1 0xA0 DUP9 ADD CALLDATALOAD SWAP2 POP PUSH2 0x1A9D PUSH1 0xC0 DUP10 ADD PUSH2 0x1994 JUMP JUMPDEST SWAP1 POP SWAP3 SWAP6 SWAP9 SWAP2 SWAP5 SWAP8 POP SWAP3 SWAP6 POP JUMP JUMPDEST PUSH0 PUSH1 0x20 DUP3 DUP5 SUB SLT ISZERO PUSH2 0x1ABB JUMPI PUSH0 DUP1 REVERT JUMPDEST PUSH2 0x18C8 DUP3 PUSH2 0x1994 JUMP JUMPDEST PUSH2 0x160 DUP2 MSTORE PUSH0 PUSH2 0x1AD8 PUSH2 0x160 DUP4 ADD DUP15 PUSH2 0x1711 JUMP JUMPDEST DUP3 DUP2 SUB PUSH1 0x20 DUP5 ADD MSTORE PUSH2 0x1AEA DUP2 DUP15 PUSH2 0x1711 JUMP JUMPDEST SWAP1 POP DUP3 DUP2 SUB PUSH1 0x40 DUP5 ADD MSTORE PUSH2 0x1AFE DUP2 DUP14 PUSH2 0x1711 JUMP JUMPDEST SWAP1 POP DUP3 DUP2 SUB PUSH1 0x60 DUP5 ADD MSTORE PUSH2 0x1B12 DUP2 DUP13 PUSH2 0x1711 JUMP JUMPDEST SWAP1 POP DUP3 DUP2 SUB PUSH1 0x80 DUP5 ADD MSTORE PUSH2 0x1B26 DUP2 DUP12 PUSH2 0x1711 JUMP JUMPDEST PUSH1 0xA0 DUP5 ADD DUP11 SWAP1 MSTORE PUSH1 0x1 PUSH1 0x1 PUSH1 0xA0 SHL SUB DUP10 AND PUSH1 0xC0 DUP6 ADD MSTORE DUP8 ISZERO ISZERO PUSH1 0xE0 DUP6 ADD MSTORE DUP7 ISZERO ISZERO PUSH2 0x100 DUP6 ADD MSTORE SWAP2 POP PUSH2 0x1B56 SWAP1 POP JUMP JUMPDEST PUSH2 0x120 DUP3 ADD SWAP4 SWAP1 SWAP4 MSTORE PUSH2 0x140 ADD MSTORE SWAP10 SWAP9 POP POP POP POP POP POP POP POP POP JUMP JUMPDEST PUSH1 0x20 DUP1 DUP3 MSTORE PUSH1 0x14 SWAP1 DUP3 ADD MSTORE PUSH20 0x13DB9B1E481B585C9AD95D0818DBDB9D1C9858DD PUSH1 0x62 SHL PUSH1 0x40 DUP3 ADD MSTORE PUSH1 0x60 ADD SWAP1 JUMP JUMPDEST PUSH0 DUP3 MLOAD DUP1 PUSH1 0x20 DUP6 ADD DUP5 MCOPY PUSH0 SWAP3 ADD SWAP2 DUP3 MSTORE POP SWAP2 SWAP1 POP JUMP JUMPDEST PUSH1 0x1 DUP2 DUP2 SHR SWAP1 DUP3 AND DUP1 PUSH2 0x1BC9 JUMPI PUSH1 0x7F DUP3 AND SWAP2 POP JUMPDEST PUSH1 0x20 DUP3 LT DUP2 SUB PUSH2 0x1BE7 JUMPI PUSH4 0x4E487B71 PUSH1 0xE0 SHL PUSH0 MSTORE PUSH1 0x22 PUSH1 0x4 MSTORE PUSH1 0x24 PUSH0 REVERT JUMPDEST POP SWAP2 SWAP1 POP JUMP JUMPDEST PUSH1 0x1F DUP3 GT ISZERO PUSH2 0x1C34 JUMPI DUP1 PUSH0 MSTORE PUSH1 0x20 PUSH0 KECCAK256 PUSH1 0x1F DUP5 ADD PUSH1 0x5 SHR DUP2 ADD PUSH1 0x20 DUP6 LT ISZERO PUSH2 0x1C12 JUMPI POP DUP1 JUMPDEST PUSH1 0x1F DUP5 ADD PUSH1 0x5 SHR DUP3 ADD SWAP2 POP JUMPDEST DUP2 DUP2 LT ISZERO PUSH2 0x1C31 JUMPI PUSH0 DUP2 SSTORE PUSH1 0x1 ADD PUSH2 0x1C1E JUMP JUMPDEST POP POP JUMPDEST POP POP POP JUMP JUMPDEST DUP2 MLOAD PUSH8 0xFFFFFFFFFFFFFFFF DUP2 GT ISZERO PUSH2 0x1C53 JUMPI PUSH2 0x1C53 PUSH2 0x15F6 JUMP JUMPDEST PUSH2 0x1C67 DUP2 PUSH2 0x1C61 DUP5 SLOAD PUSH2 0x1BB5 JUMP JUMPDEST DUP5 PUSH2 0x1BED JUMP JUMPDEST PUSH1 0x20 PUSH1 0x1F DUP3 GT PUSH1 0x1 DUP2 EQ PUSH2 0x1C99 JUMPI PUSH0 DUP4 ISZERO PUSH2 0x1C82 JUMPI POP DUP5 DUP3 ADD MLOAD JUMPDEST PUSH0 NOT PUSH1 0x3 DUP6 SWAP1 SHL SHR NOT AND PUSH1 0x1 DUP5 SWAP1 SHL OR DUP5 SSTORE PUSH2 0x1C31 JUMP JUMPDEST PUSH0 DUP5 DUP2 MSTORE PUSH1 0x20 DUP2 KECCAK256 PUSH1 0x1F NOT DUP6 AND SWAP2 JUMPDEST DUP3 DUP2 LT ISZERO PUSH2 0x1CC8 JUMPI DUP8 DUP6 ADD MLOAD DUP3 SSTORE PUSH1 0x20 SWAP5 DUP6 ADD SWAP5 PUSH1 0x1 SWAP1 SWAP3 ADD SWAP2 ADD PUSH2 0x1CA8 JUMP JUMPDEST POP DUP5 DUP3 LT ISZERO PUSH2 0x1CE5 JUMPI DUP7 DUP5 ADD MLOAD PUSH0 NOT PUSH1 0x3 DUP8 SWAP1 SHL PUSH1 0xF8 AND SHR NOT AND DUP2 SSTORE JUMPDEST POP POP POP POP PUSH1 0x1 SWAP1 DUP2 SHL ADD SWAP1 SSTORE POP JUMP JUMPDEST PUSH1 0x40 DUP2 MSTORE PUSH0 DUP1 DUP5 SLOAD PUSH2 0x1D05 DUP2 PUSH2 0x1BB5 JUMP JUMPDEST DUP1 PUSH1 0x40 DUP7 ADD MSTORE PUSH1 0x1 DUP3 AND PUSH0 DUP2 EQ PUSH2 0x1D23 JUMPI PUSH1 0x1 DUP2 EQ PUSH2 0x1D3F JUMPI PUSH2 0x1D70 JUMP JUMPDEST PUSH1 0xFF NOT DUP4 AND PUSH1 0x60 DUP8 ADD MSTORE PUSH1 0x60 DUP3 ISZERO ISZERO PUSH1 0x5 SHL DUP8 ADD ADD SWAP4 POP PUSH2 0x1D70 JUMP JUMPDEST DUP8 PUSH0 MSTORE PUSH1 0x20 PUSH0 KECCAK256 PUSH0 JUMPDEST DUP4 DUP2 LT ISZERO PUSH2 0x1D67 JUMPI DUP2 SLOAD DUP9 DUP3 ADD PUSH1 0x60 ADD MSTORE PUSH1 0x1 SWAP1 SWAP2 ADD SWAP1 PUSH1 0x20 ADD PUSH2 0x1D48 JUMP JUMPDEST DUP8 ADD PUSH1 0x60 ADD SWAP5 POP POP JUMPDEST POP POP POP PUSH1 0x20 SWAP3 SWAP1 SWAP3 ADD SWAP3 SWAP1 SWAP3 MSTORE SWAP3 SWAP2 POP POP JUMP JUMPDEST DUP3 DUP2 MSTORE PUSH1 0x40 PUSH1 0x20 DUP3 ADD MSTORE PUSH0 PUSH2 0x1709 PUSH1 0x40 DUP4 ADD DUP5 PUSH2 0x1711 JUMP JUMPDEST PUSH4 0x4E487B71 PUSH1 0xE0 SHL PUSH0 MSTORE PUSH1 0x11 PUSH1 0x4 MSTORE PUSH1 0x24 PUSH0 REVERT JUMPDEST DUP1 DUP3 ADD DUP1 DUP3 GT ISZERO PUSH2 0x1DC2 JUMPI PUSH2 0x1DC2 PUSH2 0x1D9B JUMP JUMPDEST SWAP3 SWAP2 POP POP JUMP JUMPDEST DUP2 DUP2 SUB DUP2 DUP2 GT ISZERO PUSH2 0x1DC2 JUMPI PUSH2 0x1DC2 PUSH2 0x1D9B JUMP JUMPDEST PUSH1 0x40 DUP2 MSTORE PUSH0 PUSH2 0x1DED PUSH1 0x40 DUP4 ADD DUP6 PUSH2 0x1711 JUMP JUMPDEST SWAP1 POP PUSH1 0x1 DUP1 PUSH1 0xA0 SHL SUB DUP4 AND PUSH1 0x20 DUP4 ADD MSTORE SWAP4 SWAP3 POP POP POP JUMP INVALID LOG2 PUSH5 0x6970667358 0x22 SLT KECCAK256 LT 0x1E SWAP3 SELFDESTRUCT SWAP3 OR ADDMOD CREATE2 DUP6 0xD1 SWAP3 SWAP12 LOG1 OR 0xE9 ISZERO PUSH9 0x136691A01C2735BDB7 0xE0 SWAP5 PUSH6 0x6FF10664736F PUSH13 0x634300081A0033000000000000 "},"methodIdentifiers":{"activeProposalIds(uint256)":"50c9457c","addProposal(string,string,string,string,string,uint256,address)":"ebf1f1c4","clearMarket()":"fc81587a","createMarket(uint256,uint256)":"c7604fec","currentMarket()":"c6675cc9","getActiveProposals()":"5584c4f9","getCurrentMarket()":"80821c37","getGraduatedProposals()":"45ee99a9","getProposal(string)":"25d3a09d","getTimeRemaining()":"dac6270d","graduateProposal(string,uint256)":"00c88c06","graduatedProposalIds(uint256)":"9d13a9f4","isMarketActive()":"613ace16","marketContract()":"a1794bcd","owner()":"8da5cb5b","proposals(string)":"ffa0d2a4","resolveMarket(string)":"0446c3e6","setMarketContract(address)":"f85ea2ab"}}}}}