{
  "_format": "hh-sol-artifact-1",
  "contractName": "VerdictYESOutcomeToken",
  "sourceName": "contracts/VerdictYESOutcomeToken.sol",
  "abi": [
    {
      "inputs": [
        {
          "internalType": "string",
          "name": "name",
          "type": "string"
        },
        {
          "internalType": "string",
          "name": "symbol",
          "type": "string"
        },
        {
          "internalType": "string",
          "name": "_proposalId",
          "type": "string"
        }
      ],
      "stateMutability": "nonpayable",
      "type": "constructor"
    },
    {
      "inputs": [
        {
          "internalType": "address",
          "name": "spender",
          "type": "address"
        },
        {
          "internalType": "uint256",
          "name": "allowance",
          "type": "uint256"
        },
        {
          "internalType": "uint256",
          "name": "needed",
          "type": "uint256"
        }
      ],
      "name": "ERC20InsufficientAllowance",
      "type": "error"
    },
    {
      "inputs": [
        {
          "internalType": "address",
          "name": "sender",
          "type": "address"
        },
        {
          "internalType": "uint256",
          "name": "balance",
          "type": "uint256"
        },
        {
          "internalType": "uint256",
          "name": "needed",
          "type": "uint256"
        }
      ],
      "name": "ERC20InsufficientBalance",
      "type": "error"
    },
    {
      "inputs": [
        {
          "internalType": "address",
          "name": "approver",
          "type": "address"
        }
      ],
      "name": "ERC20InvalidApprover",
      "type": "error"
    },
    {
      "inputs": [
        {
          "internalType": "address",
          "name": "receiver",
          "type": "address"
        }
      ],
      "name": "ERC20InvalidReceiver",
      "type": "error"
    },
    {
      "inputs": [
        {
          "internalType": "address",
          "name": "sender",
          "type": "address"
        }
      ],
      "name": "ERC20InvalidSender",
      "type": "error"
    },
    {
      "inputs": [
        {
          "internalType": "address",
          "name": "spender",
          "type": "address"
        }
      ],
      "name": "ERC20InvalidSpender",
      "type": "error"
    },
    {
      "inputs": [
        {
          "internalType": "address",
          "name": "owner",
          "type": "address"
        }
      ],
      "name": "OwnableInvalidOwner",
      "type": "error"
    },
    {
      "inputs": [
        {
          "internalType": "address",
          "name": "account",
          "type": "address"
        }
      ],
      "name": "OwnableUnauthorizedAccount",
      "type": "error"
    },
    {
      "anonymous": false,
      "inputs": [
        {
          "indexed": true,
          "internalType": "address",
          "name": "owner",
          "type": "address"
        },
        {
          "indexed": true,
          "internalType": "address",
          "name": "spender",
          "type": "address"
        },
        {
          "indexed": false,
          "internalType": "uint256",
          "name": "value",
          "type": "uint256"
        }
      ],
      "name": "Approval",
      "type": "event"
    },
    {
      "anonymous": false,
      "inputs": [
        {
          "indexed": true,
          "internalType": "address",
          "name": "previousOwner",
          "type": "address"
        },
        {
          "indexed": true,
          "internalType": "address",
          "name": "newOwner",
          "type": "address"
        }
      ],
      "name": "OwnershipTransferred",
      "type": "event"
    },
    {
      "anonymous": false,
      "inputs": [
        {
          "indexed": true,
          "internalType": "address",
          "name": "from",
          "type": "address"
        },
        {
          "indexed": false,
          "internalType": "uint256",
          "name": "amount",
          "type": "uint256"
        }
      ],
      "name": "TokensBurned",
      "type": "event"
    },
    {
      "anonymous": false,
      "inputs": [
        {
          "indexed": true,
          "internalType": "address",
          "name": "to",
          "type": "address"
        },
        {
          "indexed": false,
          "internalType": "uint256",
          "name": "amount",
          "type": "uint256"
        }
      ],
      "name": "TokensMinted",
      "type": "event"
    },
    {
      "anonymous": false,
      "inputs": [
        {
          "indexed": true,
          "internalType": "address",
          "name": "from",
          "type": "address"
        },
        {
          "indexed": true,
          "internalType": "address",
          "name": "to",
          "type": "address"
        },
        {
          "indexed": false,
          "internalType": "uint256",
          "name": "value",
          "type": "uint256"
        }
      ],
      "name": "Transfer",
      "type": "event"
    },
    {
      "inputs": [
        {
          "internalType": "address",
          "name": "owner",
          "type": "address"
        },
        {
          "internalType": "address",
          "name": "spender",
          "type": "address"
        }
      ],
      "name": "allowance",
      "outputs": [
        {
          "internalType": "uint256",
          "name": "",
          "type": "uint256"
        }
      ],
      "stateMutability": "view",
      "type": "function"
    },
    {
      "inputs": [
        {
          "internalType": "address",
          "name": "spender",
          "type": "address"
        },
        {
          "internalType": "uint256",
          "name": "value",
          "type": "uint256"
        }
      ],
      "name": "approve",
      "outputs": [
        {
          "internalType": "bool",
          "name": "",
          "type": "bool"
        }
      ],
      "stateMutability": "nonpayable",
      "type": "function"
    },
    {
      "inputs": [
        {
          "internalType": "address",
          "name": "account",
          "type": "address"
        }
      ],
      "name": "balanceOf",
      "outputs": [
        {
          "internalType": "uint256",
          "name": "",
          "type": "uint256"
        }
      ],
      "stateMutability": "view",
      "type": "function"
    },
    {
      "inputs": [
        {
          "internalType": "address",
          "name": "from",
          "type": "address"
        },
        {
          "internalType": "uint256",
          "name": "amount",
          "type": "uint256"
        }
      ],
      "name": "burn",
      "outputs": [],
      "stateMutability": "nonpayable",
      "type": "function"
    },
    {
      "inputs": [],
      "name": "decimals",
      "outputs": [
        {
          "internalType": "uint8",
          "name": "",
          "type": "uint8"
        }
      ],
      "stateMutability": "view",
      "type": "function"
    },
    {
      "inputs": [],
      "name": "marketContract",
      "outputs": [
        {
          "internalType": "address",
          "name": "",
          "type": "address"
        }
      ],
      "stateMutability": "view",
      "type": "function"
    },
    {
      "inputs": [
        {
          "internalType": "address",
          "name": "to",
          "type": "address"
        },
        {
          "internalType": "uint256",
          "name": "amount",
          "type": "uint256"
        }
      ],
      "name": "mint",
      "outputs": [],
      "stateMutability": "nonpayable",
      "type": "function"
    },
    {
      "inputs": [],
      "name": "name",
      "outputs": [
        {
          "internalType": "string",
          "name": "",
          "type": "string"
        }
      ],
      "stateMutability": "view",
      "type": "function"
    },
    {
      "inputs": [],
      "name": "owner",
      "outputs": [
        {
          "internalType": "address",
          "name": "",
          "type": "address"
        }
      ],
      "stateMutability": "view",
      "type": "function"
    },
    {
      "inputs": [],
      "name": "proposalId",
      "outputs": [
        {
          "internalType": "string",
          "name": "",
          "type": "string"
        }
      ],
      "stateMutability": "view",
      "type": "function"
    },
    {
      "inputs": [],
      "name": "renounceOwnership",
      "outputs": [],
      "stateMutability": "nonpayable",
      "type": "function"
    },
    {
      "inputs": [
        {
          "internalType": "address",
          "name": "_marketContract",
          "type": "address"
        }
      ],
      "name": "setMarketContract",
      "outputs": [],
      "stateMutability": "nonpayable",
      "type": "function"
    },
    {
      "inputs": [],
      "name": "symbol",
      "outputs": [
        {
          "internalType": "string",
          "name": "",
          "type": "string"
        }
      ],
      "stateMutability": "view",
      "type": "function"
    },
    {
      "inputs": [],
      "name": "totalSupply",
      "outputs": [
        {
          "internalType": "uint256",
          "name": "",
          "type": "uint256"
        }
      ],
      "stateMutability": "view",
      "type": "function"
    },
    {
      "inputs": [
        {
          "internalType": "address",
          "name": "to",
          "type": "address"
        },
        {
          "internalType": "uint256",
          "name": "value",
          "type": "uint256"
        }
      ],
      "name": "transfer",
      "outputs": [
        {
          "internalType": "bool",
          "name": "",
          "type": "bool"
        }
      ],
      "stateMutability": "nonpayable",
      "type": "function"
    },
    {
      "inputs": [
        {
          "internalType": "address",
          "name": "from",
          "type": "address"
        },
        {
          "internalType": "address",
          "name": "to",
          "type": "address"
        },
        {
          "internalType": "uint256",
          "name": "value",
          "type": "uint256"
        }
      ],
      "name": "transferFrom",
      "outputs": [
        {
          "internalType": "bool",
          "name": "",
          "type": "bool"
        }
      ],
      "stateMutability": "nonpayable",
      "type": "function"
    },
    {
      "inputs": [
        {
          "internalType": "address",
          "name": "newOwner",
          "type": "address"
        }
      ],
      "name": "transferOwnership",
      "outputs": [],
      "stateMutability": "nonpayable",
      "type": "function"
    }
  ],
  "bytecode": "0x608060405234801561000f575f80fd5b50604051610ec1380380610ec183398101604081905261002e91610187565b338383600361003d838261029a565b50600461004a828261029a565b5050506001600160a01b03811661007a57604051631e4fbdf760e01b81525f600482015260240160405180910390fd5b61008381610099565b506006610090828261029a565b50505050610354565b600580546001600160a01b038381166001600160a01b0319831681179093556040519116919082907f8be0079c531659141344cd1fd0a4f28419497f9722a3daafe3b4186f6b6457e0905f90a35050565b634e487b7160e01b5f52604160045260245ffd5b5f82601f83011261010d575f80fd5b81516001600160401b03811115610126576101266100ea565b604051601f8201601f19908116603f011681016001600160401b0381118282101715610154576101546100ea565b60405281815283820160200185101561016b575f80fd5b8160208501602083015e5f918101602001919091529392505050565b5f805f60608486031215610199575f80fd5b83516001600160401b038111156101ae575f80fd5b6101ba868287016100fe565b602086015190945090506001600160401b038111156101d7575f80fd5b6101e3868287016100fe565b604086015190935090506001600160401b03811115610200575f80fd5b61020c868287016100fe565b9150509250925092565b600181811c9082168061022a57607f821691505b60208210810361024857634e487b7160e01b5f52602260045260245ffd5b50919050565b601f82111561029557805f5260205f20601f840160051c810160208510156102735750805b601f840160051c820191505b81811015610292575f815560010161027f565b50505b505050565b81516001600160401b038111156102b3576102b36100ea565b6102c7816102c18454610216565b8461024e565b6020601f8211600181146102f9575f83156102e25750848201515b5f19600385901b1c1916600184901b178455610292565b5f84815260208120601f198516915b828110156103285787850151825560209485019460019092019101610308565b508482101561034557868401515f19600387901b60f8161c191681555b50505050600190811b01905550565b610b60806103615f395ff3fe608060405234801561000f575f80fd5b5060043610610106575f3560e01c8063715018a61161009e578063a1794bcd1161006e578063a1794bcd1461020c578063a9059cbb1461021f578063dd62ed3e14610232578063f2fde38b1461026a578063f85ea2ab1461027d575f80fd5b8063715018a6146101c45780638da5cb5b146101cc57806395d89b41146101f15780639dc29fac146101f9575f80fd5b80632dfca445116100d95780632dfca44514610170578063313ce5671461017857806340c10f191461018757806370a082311461019c575f80fd5b806306fdde031461010a578063095ea7b31461012857806318160ddd1461014b57806323b872dd1461015d575b5f80fd5b610112610290565b60405161011f91906109d0565b60405180910390f35b61013b610136366004610a20565b610320565b604051901515815260200161011f565b6002545b60405190815260200161011f565b61013b61016b366004610a48565b610339565b61011261035c565b6040516012815260200161011f565b61019a610195366004610a20565b6103e8565b005b61014f6101aa366004610a82565b6001600160a01b03165f9081526020819052604090205490565b61019a61048f565b6005546001600160a01b03165b6040516001600160a01b03909116815260200161011f565b6101126104a2565b61019a610207366004610a20565b6104b1565b6007546101d9906001600160a01b031681565b61013b61022d366004610a20565b610547565b61014f610240366004610aa2565b6001600160a01b039182165f90815260016020908152604080832093909416825291909152205490565b61019a610278366004610a82565b610554565b61019a61028b366004610a82565b610591565b60606003805461029f90610ad3565b80601f01602080910402602001604051908101604052809291908181526020018280546102cb90610ad3565b80156103165780601f106102ed57610100808354040283529160200191610316565b820191905f5260205f20905b8154815290600101906020018083116102f957829003601f168201915b5050505050905090565b5f3361032d818585610603565b60019150505b92915050565b5f33610346858285610615565b610351858585610691565b506001949350505050565b6006805461036990610ad3565b80601f016020809104026020016040519081016040528092919081815260200182805461039590610ad3565b80156103e05780601f106103b7576101008083540402835291602001916103e0565b820191905f5260205f20905b8154815290600101906020018083116103c357829003601f168201915b505050505081565b6007546001600160a01b0316331461043e5760405162461bcd60e51b815260206004820152601460248201527313db9b1e481b585c9ad95d0818dbdb9d1c9858dd60621b60448201526064015b60405180910390fd5b61044882826106ee565b816001600160a01b03167f3f2c9d57c068687834f0de942a9babb9e5acab57d516d3480a3c16ee165a42738260405161048391815260200190565b60405180910390a25050565b610497610726565b6104a05f610753565b565b60606004805461029f90610ad3565b6007546001600160a01b031633146105025760405162461bcd60e51b815260206004820152601460248201527313db9b1e481b585c9ad95d0818dbdb9d1c9858dd60621b6044820152606401610435565b61050c82826107a4565b816001600160a01b03167ffd38818f5291bf0bb3a2a48aadc06ba8757865d1dabd804585338aab3009dcb68260405161048391815260200190565b5f3361032d818585610691565b61055c610726565b6001600160a01b03811661058557604051631e4fbdf760e01b81525f6004820152602401610435565b61058e81610753565b50565b610599610726565b6001600160a01b0381166105e15760405162461bcd60e51b815260206004820152600f60248201526e496e76616c6964206164647265737360881b6044820152606401610435565b600780546001600160a01b0319166001600160a01b0392909216919091179055565b61061083838360016107d8565b505050565b6001600160a01b038381165f908152600160209081526040808320938616835292905220545f1981101561068b578181101561067d57604051637dc7a0d960e11b81526001600160a01b03841660048201526024810182905260448101839052606401610435565b61068b84848484035f6107d8565b50505050565b6001600160a01b0383166106ba57604051634b637e8f60e11b81525f6004820152602401610435565b6001600160a01b0382166106e35760405163ec442f0560e01b81525f6004820152602401610435565b6106108383836108aa565b6001600160a01b0382166107175760405163ec442f0560e01b81525f6004820152602401610435565b6107225f83836108aa565b5050565b6005546001600160a01b031633146104a05760405163118cdaa760e01b8152336004820152602401610435565b600580546001600160a01b038381166001600160a01b0319831681179093556040519116919082907f8be0079c531659141344cd1fd0a4f28419497f9722a3daafe3b4186f6b6457e0905f90a35050565b6001600160a01b0382166107cd57604051634b637e8f60e11b81525f6004820152602401610435565b610722825f836108aa565b6001600160a01b0384166108015760405163e602df0560e01b81525f6004820152602401610435565b6001600160a01b03831661082a57604051634a1406b160e11b81525f6004820152602401610435565b6001600160a01b038085165f908152600160209081526040808320938716835292905220829055801561068b57826001600160a01b0316846001600160a01b03167f8c5be1e5ebec7d5bd14f71427d1e84f3dd0314c0f7b2291e5b200ac8c7c3b9258460405161089c91815260200190565b60405180910390a350505050565b6001600160a01b0383166108d4578060025f8282546108c99190610b0b565b909155506109449050565b6001600160a01b0383165f90815260208190526040902054818110156109265760405163391434e360e21b81526001600160a01b03851660048201526024810182905260448101839052606401610435565b6001600160a01b0384165f9081526020819052604090209082900390555b6001600160a01b0382166109605760028054829003905561097e565b6001600160a01b0382165f9081526020819052604090208054820190555b816001600160a01b0316836001600160a01b03167fddf252ad1be2c89b69c2b068fc378daa952ba7f163c4a11628f55a4df523b3ef836040516109c391815260200190565b60405180910390a3505050565b602081525f82518060208401528060208501604085015e5f604082850101526040601f19601f83011684010191505092915050565b80356001600160a01b0381168114610a1b575f80fd5b919050565b5f8060408385031215610a31575f80fd5b610a3a83610a05565b946020939093013593505050565b5f805f60608486031215610a5a575f80fd5b610a6384610a05565b9250610a7160208501610a05565b929592945050506040919091013590565b5f60208284031215610a92575f80fd5b610a9b82610a05565b9392505050565b5f8060408385031215610ab3575f80fd5b610abc83610a05565b9150610aca60208401610a05565b90509250929050565b600181811c90821680610ae757607f821691505b602082108103610b0557634e487b7160e01b5f52602260045260245ffd5b50919050565b8082018082111561033357634e487b7160e01b5f52601160045260245ffdfea2646970667358221220b6ea269e47a16db81e3fc3231758ff73ea29746550d5833433286ef1ccace1c064736f6c634300081a0033",
  "linkReferences": {},
  "deployedLinkReferences": {}
}